:020000040000FA
:10000000182A0020C5030000CD030000CF03000024
:10001000D1030000D3030000D5030000000000005E
:10002000000000000000000000000000D7030000F6
:10003000D903000000000000DB030000DD03000026
:1000400009060000DF030000C9090000DF0300000B
:10005000DF030000DF03000065050000DF03000090
:10006000DF030000DF030000DF030000DF03000008
:10007000DF030000DF030000DF030000DF030000F8
:10008000DF03000091060000DF030000DF03000033
:10009000DF030000DF030000DF030000DF030000D8
:1000A000DF030000DF030000DF030000DF030000C8
:1000B00061060000DF0300000000000000000000F7
:1000C000DF0300007106000081060000DF0300006E
:1000D000DF030000DF030000DF030000000000007A
:1000E0000000000000000000000000000000000010
:1000F0000000000000000000000000000000000000
:1001000000000000000000000000000000000000EF
:1001100000000000000000000000000000000000DF
:1001200000000000000000000000000000000000CF
:1001300000000000000000000000000000000000BF
:1001400000000000000000000000000000000000AF
:10015000000000000000000000000000000000009F
:10016000000000000000000000000000000000008F
:10017000000000000000000000000000000000007F
:10018000000000000000000000000000000000006F
:10019000000000000000000000000000000000005F
:1001A000000000000000000000000000000000004F
:1001B000000000000000000000000000000000003F
:1001C000000000000000000000000000000000002F
:1001D000000000000000000000000000000000001F
:1001E000000000000000000000000000000000000F
:1001F00000000000000000000000000000000000FF
:10020000DFF810D000F070F900480047251F00000B
:10021000AFF30080182A002030B450E8012F93B2C9
:10022000C48923448489A34228BF1B1B0489A34299
:1002300002BFBFF32F8F002007E0C3EA020340E8AC
:100240000134002CE9D14FF001000A6030BC704746
:1002500050E8012FC2EA024240E801210029F7D10B
:10026000704730B450E8022F1FFAA2F3C488A342AB
:1002700002BFBFF32F8F00200DE0C489234484897F
:10028000A34228BF1B1BC2EA034340E80234002CF0
:10029000E8D14FF001000A6030BC704750E8022FEF
:1002A000C2EA224240E802210029F7D17047034602
:1002B00053E8022FD988B2EB324F4FF0000017BF3E
:1002C00092B241EA014142EA014104E05A68B2EBCC
:1002D000324F08BF012043E80212002AE8D17047DC
:1002E00030B4044654E8000F0D4644E80053002B98
:1002F000F8D1156030BC704730B4044654E8000FA4
:1003000040EA010544E80053002BF7D1156030BCEA
:10031000704730B4044654E8000F00EA010544E891
:100320000053002BF7D1156030BC704730B4044641
:1003300054E8000F80EA010544E80053002BF7D190
:10034000156030BC704730B4044654E8000F00EB31
:10035000010544E80053002BF7D1156030BC70470D
:1003600030B4044654E8000FA0EB010544E8005304
:10037000002BF7D1156030BC704770B404464FF0C5
:10038000000054E8006F0D68AE4207BF44E8002348
:10039000012044E800630E60002B1CBF0020F0E742
:1003A00070BC704730B4044654E8000F88422CBF3C
:1003B000451A054644E80053002BF5D1156030BCC2
:1003C000704700000648804706480047FEE7FEE702
:1003D000FEE7FEE7FEE7FEE7FEE7FEE7FEE7FEE7F5
:1003E000A1060000010200002DE9F05F0546002093
:1003F00092469B4688460646814640241BE0284696
:1004000041464746224600F05EF853465A46C01A17
:10041000914110D311461846224600F016F82D1AC5
:1004200067EB01084F4622460120002100F00DF83D
:1004300017EB00094E41201EA4F10104DFDC484601
:1004400031462A464346BDE8F09F202A04DB203A85
:1004500000FA02F1002070479140C2F1200320FA17
:1004600003F319439040704700487047044400006C
:1004700040EA01039B0703D009E008C9121F08C026
:10048000042AFAD203E011F8013B00F8013B521EA6
:10049000F9D27047D2B201E000F8012B491EFBD21D
:1004A00070470022F6E710B513460A46044619467F
:1004B000FFF7F0FF204610BD421C10F8011B002979
:1004C000FBD1801A7047202A04DB203A21FA02F07F
:1004D0000021704721FA02F3D040C2F1200291407E
:1004E0000843194670470000064C074D06E0E068D7
:1004F00040F0010394E8070098471034AC42F6D36B
:10050000FFF782FEDC440000FC44000070B58C184C
:1005100010F8015B15F0070301D110F8013B2A1117
:1005200006D110F8012B03E010F8016B01F8016B04
:100530005B1EF9D12B0705D40023521E0DD401F800
:10054000013BFAE710F8013BCB1A921C03E013F8C9
:10055000015B01F8015B521EF9D5A142D8D30020FE
:1005600070BD00002DE9F8430025DFF894804FF4BA
:10057000807601242F460095304602F081F838B18C
:10058000D8F80403204203D0304602F06FF8254328
:10059000361D64007F1CB6B2082FEDD34FF4BE7435
:1005A000204602F06DF848B1204602F05FF845F0B1
:1005B00000456A460121002002F028F815F0FF0FDF
:1005C00016D0012600242E420ED008EB8401D1F86B
:1005D0001005D1F81015C0F304200A4AC1F30141F7
:1005E00052F8242002B190477600641C082CEAD30C
:1005F000002D02DA684603F003F9BDE8F883000035
:1006000000600040E402002070B54FF48076304670
:1006100001F0DFFD114CB50560B1304601F0E0FDA1
:100620000120C5F80803607920B9012060712168B4
:10063000002088474FF48276304601F0CAFD00283A
:100640000AD0304601F0CCFD0220C5F8080321682D
:10065000BDE870400120084770BD00008C000020FC
:100660000149024801F090BB4003002000C0014056
:100670000149024801F088BB4803002000100240F5
:100680000149024801F080BB5003002000200240D5
:1006900002490248091F096800680847E400002071
:1006A000F0B5B74AB7494FF080541368D4F8300119
:1006B0000978D4F83421451CC1F3031106D08446CF
:1006C00001270025BCF1060F03D00AE003F0FF0C60
:1006D000F6E7B4F82463DFF8B0C2C6F30426CCF81A
:1006E0000060DEB2062E06D1032904D1DFF8A0C2D5
:1006F000A64ECCF87460461C04D08446BCF1060FAC
:1007000003D00AE003F0FF0CF8E7D4F84462DFF806
:1007100084C2C6F34236CCF80060DEB2062E08D1A1
:10072000032906D19C4ED6F800C02CF0807CC6F878
:1007300000C0461C04D08446BCF1060F03D00BE079
:1007400003F0FF0CF8E74FF08046C6F80C51C6F8EE
:100750001051904E361F3560DEB2062E08D10329A7
:1007600006D1DFF830C203260CF1640CCCF800602F
:10077000DEB2062E11D103290FD1DFF820C20526E3
:10078000CCF80060854E78363760844E0836356088
:100790000CF1040C3F26CCF80060461C06D08446C1
:1007A0004FEA0206BCF1060F04D081E003F0FF0C13
:1007B0000E46F7E7032E7BD0042E79D0784E3668AC
:1007C000DFF8E0C1CCF80060754E361D36680CF1DC
:1007D000040CCCF80060724E083636680CF1040C3C
:1007E000CCF800606E4E0C3636680CF1040CCCF878
:1007F00000606B4E103636680CF1040CCCF80060CB
:10080000674E143636680CF1040CCCF80060644E68
:1008100018363668DFF88CC10CF1200CCCF800607B
:100820005F4E1C3636680CF1040CCCF800605C4E50
:10083000203636680CF1040CCCF80060584E243693
:1008400036680CF1040CCCF80060554E283636683A
:100850000CF1040CCCF80060514E2C3636680CF1CB
:10086000040CCCF800604E4E30363668DFF834C1E8
:100870000CF1400CCCF80060494E343636680CF16F
:10088000040CCCF80060464E383636680CF1040C87
:10089000CCF80060424E3C3636680CF1040CCCF8C3
:1008A00000603F4E403636680CF1040CCCF8006016
:1008B000461C05D04FEA000CBCF1060F03D008E03F
:1008C00003F0FF0CF8E7D4F85842374E04F04F0419
:1008D0003460441C03D00346062B02D008E0DBB290
:1008E000FAE732490B68DB0702D06FF001030B60B7
:1008F00006280AD1032A08D0042A06D0052A04D0E3
:100900002B48016841F48061016023487438016814
:1009100041F470010160BFF34F8FBFF36F8F4FF051
:100920001021D1F80002002803DBD1F804020028CE
:1009300022DA204A176020480368002BFCD01523D8
:10094000C1F800320468002CFCD0C1F80432016800
:100950000029FCD0156001680029FCD0BFF34F8F3F
:100960000D48F0380168154A01F4E0611143016057
:10097000BFF34F8F00BFFDE7124911480860F0BD7B
:10098000E00F00F0E80F00F0403501400DF0ADBA87
:1009900000C007403C050040FCED00E01056004060
:1009A0000404001020C50040E40E00400004004094
:1009B0003C17004004E5014000E401400400FA0552
:1009C0000090D0036001002001480068004700004B
:1009D0009400002002E008C8121F08C1002AFAD1C2
:1009E00070477047002001E001C1121F002AFBD1AF
:1009F0007047022000F0C2B970B50024064D06E031
:100A00006868012110F8340002F058FA641C287854
:100A10008442F5D3002070BDA0000020F8B5164632
:100A20000C4605460A2A01D20720F8BD02F040FB19
:100A300018B902F003FB0028F7D1134F1021134817
:100A40007D603C70BE60FFF72CFD0020C7E904000C
:100A50000F4E0DE005EBC4003168009181788DF8F0
:100A6000011000780B4A694602F078FA0028DCD1C0
:100A7000641EE4B2EED2BDE8F84005480021064A03
:100A8000001D00F05BB80000A0000020C80300209B
:100A900014430000E91B0000E917000070B514467C
:100AA0000D46064600F0A5F9224629463046BDE827
:100AB000704000F00BB80EB500210091CDE9011097
:100AC0006A4644F20100FFF7E9FF0EBD08B50123B5
:100AD0008DF800309DF80030144B186059609A6012
:100AE0006FF48041401807D001280FD1DA60D86830
:100AF00000689861D86807E01A61186980685861D1
:100B000018690068986118694068D8611868586861
:100B10009868D868186958699869D86972B600BF2A
:100B20009DF800000028FBD162B608BDD803002064
:100B3000014800F0C0BE0000C00000203AB10068CB
:100B40000129426100D00021016100207047072087
:100B50007047000038B511480823582241680091B9
:100B60000F49006801F080FA002815D10D4A694646
:100B70000D4800F0A5FE04000ED101210A4800F046
:100B80001AFF0123094A1946074800F06CFE06497E
:100B9000012008390870204638BD00001C430000C1
:100BA00008040020B1390000C0000020FFFF7F00D2
:100BB00070B50446007F0D4608B1002070BDA261EB
:100BC00000F0F8FF401941F10001C4E90201206979
:100BD00000B125612146BDE87040002003F0C8B88F
:100BE000014600200877012003F0C2B800F002B8E7
:100BF00000F008B872B602480168491C01607047ED
:100C0000DC00002003490868401E086000D162B67D
:100C100070470000DC0000202DE9F041064608681E
:100C20000C46411C4FF0A0474FF0010506D005FAD5
:100C300000F1C7F80815206801F0C2FC6068411C8B
:100C400002D0002101F0AAFC3168A069C1F8240596
:100C5000607D227D31681043C1F86C05D4E9001233
:100C60003068C0F81425C0F80C15207D012815D176
:100C7000A068411C02D0002101F090FCE068411CFA
:100C800005D08540C7F80855E06801F099FCD4E923
:100C900002123068C0F80825C0F81015BDE8F081D0
:100CA0002DE9F041064608680C46411C4FF0A0476C
:100CB0004FF0010506D005FA00F1C7F808152068C5
:100CC00001F088FC6068411C02D0002101F06FFC3B
:100CD0003168A069C1F82405607D217D3268084330
:100CE000C2F86C05D4E900123068C0F80C15C0F8E1
:100CF0001425207D012815D1A068411C02D00021B7
:100D000001F055FCE068411C05D08540C7F8085546
:100D1000E06801F05FFCD4E902123068C0F80825F1
:100D2000C0F81015BDE8F0812DE9FC410646C0076A
:100D30004FF000050ED0104F00240122385D0095C1
:100D400000231146019501F0CFFB641C042CF4D361
:100D500000F046F8B0070DD5074E0024361D0022DE
:100D6000305D032300951146019501F0BDFB641C25
:100D7000042CF4D3BDE8FC81D442000007490B5C8D
:100D80004FF0A041D1F804250120984020EA020349
:100D9000C1F808351040C1F80C057047D442000076
:100DA0000249085C012101F056BC0000D442000059
:100DB0000249085C002101F04EBC0000D442000052
:100DC0000649095C4FF0A040D0F80405C84010F077
:100DD000010000D0012080F001007047D4420000E3
:100DE00010B500242046FFF7DBFF641C042CF9D368
:100DF00010BD10B500242046FFF7DAFF641C042C58
:100E0000F9D310BD10B50246064B4FF0FF3000215C
:100E10005C5C944201D1084610BD491C0429F7D3FB
:100E200010BD0000D84200002DE9F0470D46814674
:100E3000FFF7E8FF0446042836D2DFF874801B4829
:100E40001C4EA8F10C0725B3012D0ED0022D2BD17D
:100E500004EB440030444578002D25D0B9680029C2
:100E600022D02846BDE8F047084704EB4401755CF2
:100E70000E44717849B10E4A4FF48041093A8068B6
:100E8000FFF796FE08B987F80390B17808F80410C8
:100E9000E2E78068FFF7A4FE04EB4401314418F850
:100EA00004008D78A842D7D0BDE8F087DC4200006E
:100EB0007C000020A0020020FFF79EBD70B500233B
:100EC000042810D20D4D00EB4004012A02D1012963
:100ED0000CD00022094E00EB4000304461B10129E2
:100EE00006D0022906D00723184670BD0E30C2B2C4
:100EF0002A55F9E74270F7E78270F5E7A002002073
:100F000070B586B00646142219496846FFF7B0FA54
:100F1000184C00250E2E617806D00F2E25D10429FD
:100F200008D2491C617006E009B1491EFAE70420A5
:100F3000607000E065702078C00703D00D48001D88
:100F400002F0BCF92078800703D50A480C3002F083
:100F5000B5F92078400703D50648143002F0AEF901
:100F6000257061785DF82100804706B070BD0000F3
:100F7000C04200000000002070B506461E48002454
:100F8000C0E90161B00720D500250122114628469D
:100F9000FFF794FF6D1C0446042D02D2002CF4D000
:100FA00013E094B940F2333204211448FFF736FDC0
:100FB00004000AD1FFF720FD040006D10F48104AB3
:100FC0000021001FFFF7BAFD0446F00712D00120F0
:100FD000FFF7AAFE74B909480A4A00210C38FFF746
:100FE000ADFD040006D10548074A01210838FFF786
:100FF000A5FD0446204670BD70000020E8420000B8
:10100000D11200006D1E0000F30900002DE9F05F11
:101010006E4C054600266078B34618B184F801B0DE
:1010200000F00CFF6A4F4FF47A694FF4C87A4FF022
:101030000108182D69D2DFE805F00C131338475466
:10104000696E727B727BC58484848484B3B6B9BCB8
:10105000C5C500F0F3FE3868FFF7C2FD06465CE048
:101060000020FFF7ADFE00284FF0000008D0FFF78A
:1010700097FE022D02D14FF4E16008E0484606E0F9
:10108000FFF796FE022D01D1C82000E05046410C2A
:10109000C0034FF47A72801841F1000125705200AC
:1010A0000023FFF7A1F901462AE00020FFF788FEA0
:1010B00000284FF0000004D0FFF772FE4FF4487094
:1010C000E5E7FFF775FEDFE70020FFF779FE002870
:1010D0004FF0000002D0FFF763FECFE7FFF768FE96
:1010E000D4E70020FFF76CFE00284FF0000002D08C
:1010F000FFF756FE01E0FFF75BFE257040F6CD419D
:1011000000223868FFF754FD064646E00020FFF74E
:1011100035FE257008E0002051E025703DE084F8A0
:1011200001800120FFF72AFE002240F26661E8E715
:1011300084F801800120FFF721FE00224FF40051C6
:10114000DFE77868FFF74CFD0646D5F1110000D0C7
:101150002EB10220FFF724FE84F802B01DE0012822
:1011600016D980B2C8214843C117C90341EA50418A
:10117000C0034FF47A72801841F10001520000233D
:10118000FFF732F9014600227868FFF711FD0646A5
:101190000220FFF70DFE84F802803046BDE8F09F84
:1011A00000F04CFEB9E700F049FEB4E700F046FE5F
:1011B00004E000F043FE0020FFF7FAFD0120FFF7F6
:1011C000F7FDAAE7FFF715FEA7E700007000002073
:1011D000DC4200002DE9F0470546861C91460F468B
:1011E0004FF0010A0020FFF701FD1B4C04F21C48E0
:1011F00060683860D4E90101184F401A3968081A4C
:101200000EE00121404600F074FF00F039FE014677
:10121000404600F06EFFD4E90101401A3968081A0F
:10122000401C8642EDD8B9F1000F03D0052065F3CC
:10123000891002E0062065F39F5061683A6811400A
:1012400004EB8101C8606068304460600020FFF7F3
:10125000CFFC5046BDE8F087F80500200C010020C7
:1012600070B50D4604460A2902D10D21FFF7F8FF9B
:10127000A0682268411CA1601554D4E90101814293
:1012800004D32046BDE8704001F035B870BD0000C1
:10129000044881684068814201D1012070470020E4
:1012A00070470000F8050020034630B507480021CC
:1012B0000478426806E000BF02EBC10005789D4259
:1012C00003D0491CA142F7DB002030BDA000002064
:1012D00000780221FFF7A8BD05494FF0FF3208282A
:1012E00041F8202002D3084480F8482070470000CD
:1012F000E4020020F0B54FF0FF3512B100230826BC
:1013000001E008230C260C4C05E000BF54F82370C4
:101310007F1C04D05B1CB342F8D32846F0BD2618CE
:101320005DB286F8305044F82310002AF5D1E11858
:1013300081F84800F1E70000E40200200249084477
:1013400090F9300070470000E402002070B5084CAE
:10135000050009D010342168002907D008682060F2
:10136000496828468847F6E70834F4E770BD00006E
:10137000D0020020054A012120B1012805D1917039
:10138000FFF7E4BF51700020FAE77047D002002059
:1013900010B5D0E90234D1E90220D11AA04101D31D
:1013A000012010BD002010BDFFB5002301244FF027
:1013B000A0456E46CA5CFF2A12D0D70922F08002EF
:1013C00046F8232004FA02F702D0C5F8087501E0B8
:1013D000C5F80C7505EB82020327C2F8007703E01D
:1013E0004FF0FF3246F823205B1CDBB2042BE1D325
:1013F000016832465FF0000001EB800452F82030B3
:10140000C4F86035401CC0B20428F5D3FFBD00000D
:101410000EB516481649401AC008032101EB0040DA
:1014200014A101F029FB154A07CA8DE80700144AE8
:101430006946144801F09EFE08B1FFF73CFB114AD3
:101440000223121F02F11C01107840F001001070FD
:101450000020088048808880C88090700749012259
:101460001039084801F0F2FE0EBD00005C45000096
:101470000C45000044656D6F20310000F441000010
:10148000891400000400002070B5002822D1124801
:101490004FF0000200F11C0483785D0813F0010F87
:1014A00034F8151004D0C8390904090C06D006E038
:1014B000C83189B242F21076B14200D3012224F839
:1014C0001510002A06D05B1CD9B28170082901D3FF
:1014D0000021817070BD00000000002021482249D9
:1014E00010B5401AC008032101EB00408CB01FA1C9
:1014F00001F0C2FA1F4C09AB04F11C0007C883E8D5
:101500000700002209A91C4801F034FE08B1FFF7CA
:10151000D2FA1948194B001F4FF4C872017841F0F4
:101520000101017000210846114489B223F810100E
:10153000401CC0B21928F7D328340DF1040C0FCC8D
:101540008CE80F0094E80F000DF1140C8CE80F00EC
:1015500002200090012305AA01A9074801F0DCFD43
:101560000CB010BD5C4500000C45000044656D6F7B
:1015700020320000E441000004000020640100204B
:101580001648174910B5401AC008032101EB004066
:1015900088B014A101F070FA144C04AB04F14800B7
:1015A00007C883E80700002204A9114801F0E2FD02
:1015B00008B1FFF780FA0E485434001F017841F05B
:1015C0000101017094E80F008DE80F000123032250
:1015D0006946074801F03AFE08B010BD5C450000BE
:1015E0000C45000044656D6F20330000E4410000AD
:1015F0000400002058485949F0B5401AC00803219A
:1016000001EB00409BB056A101F036FA564E02ABFA
:1016100006F16400FF2407C883E8070091208DF8D5
:1016200008008DF8094092208DF80A0007208DF8F7
:101630000D0047F61220ADF8100001208DF81200C1
:101640008DF80B40002202A9484801F093FD08B133
:10165000FFF731FA454D05AF2D1F7036287840F061
:101660000100287096E80F0087E80F0004208DF82D
:101670000D00002041F28833ADF810303C4A8DF85F
:10168000120001466426314489B222F8101002EBA0
:10169000400C5F1A401CC0B2ACF864703228F2D320
:1016A0008DF808408DF8094093208DF80A002F48E6
:1016B0008DF80B40002202A9083001F05BFD08B153
:1016C000FFF7F9F92878284E40F00200803628709C
:1016D0000FCE09AF87E80F0096E80F000DAF103E60
:1016E00087E80F008DF808408DF809408DF80A4012
:1016F00094208DF80B001D48002202A9103001F043
:1017000039FD08B1FFF7D7F92878203640F00400FA
:1017100028700FCE11AC84E80F0096E80F0015ACCE
:1017200084E80F000223012205A9104801F08EFD74
:101730000E48022401230DAA09A90830009401F0E3
:10174000EBFC0A48012315AA11A91030009401F0FE
:10175000E3FC1BB0F0BD00005C4500000C45000040
:1017600044656D6F20340000E44100000400002057
:10177000960100201648174910B5401AC0080321E9
:1017800001EB004088B014A101F076F9144C04ABD1
:1017900004F1400007C883E80700002204A91148AB
:1017A00001F0E8FC08B1FFF786F90E484C34001F41
:1017B000017841F00101017094E80F008DE80F00FD
:1017C000022301226946074801F040FD08B010BD20
:1017D0005C4500000C45000044656D6F203500003D
:1017E000644200000400002070B500240F4D10E09A
:1017F000686800EBC406307801F016FC71780129A6
:1018000001D0012100E000214140307800F05CF976
:10181000641C28788442EBDBD5E90401084303D03B
:10182000BDE8704002F0C0BA70BD0000A00000200A
:1018300010B50021024800F067FC80F3100010BDD5
:10184000140A00204FF480328A400168C1F848230E
:101850000068C0F8082370474FF4A07202EB8101C2
:1018600089B200F09DB92DE9F04105460E464FF4CE
:10187000A07000EB860081B228684FF48034B44039
:10188000984622F07F47C0F808432868C0F84843CC
:10189000286801F06AFA286800EB8600C0F84075F5
:1018A0002868C0F84443B8F1000F02D02868C0F897
:1018B0000443BDE8F0810068D0F8040570470000DB
:1018C00070B54379234C44F823204279231D03EB60
:1018D000C202224C1579204A121BD4082DB10825CA
:1018E000022000EB04401EA130E005680A88C5F81C
:1018F000082590F904208978002A4FEA411104DB79
:1019000002F1E02282F8001405E002F00F0202F179
:10191000E02282F8141D90F904100122002909DB4D
:1019200001F01F0502FA05F54909890001F1E021DE
:10193000C1F800514179002503EBC1010A714179D9
:1019400043F83100032000EB04400EA101F094F8AD
:10195000284670BDE00000204C4500000C4500000A
:1019600052544320696E7374616E636520616C72BA
:101970006561647920696E697469616C697A65640E
:101980002E0000005254433A20696E697469616CFC
:10199000697A65642E00000090F90400002809DBD4
:1019A00000F01F02012191404009800000F1E02079
:1019B000C0F8001270470A46022100F07BB84FF4CD
:1019C000827100F0EDB80068012101607047006885
:1019D0000121416070472DE9F05F07460C464FF446
:1019E000A07000EB84001FFA80FA38684FF480364C
:1019F000A6409B4622F07F45C0F848633868C0F88F
:101A000008633868D0F8048500EB8402D2F840956A
:101A1000C2F840855146386801F0A7F9A9EB0800E3
:101A200020F07F40012806D1102001F03FFA5146F6
:101A3000386801F09AF93868D0F80485C0F8446332
:101A4000A5EB080121F07F413868012900EB8400F3
:101A500010D0C0F840553868D0F804156FF07F4CAE
:101A60006A1A521E22F07F42ACEB0B03934217D34B
:101A700062B118E06D1CC0F84055102001F016FA54
:101A80003868D0F8040540450AD10CE000EB84002A
:101A90006D1CC0F840553868D0F80405884202D063
:101AA0000D20BDE8F09F01223146384600F002F8D3
:101AB0000020F6E70368C3F84413002A02D0006848
:101AC000C0F80413704700002DE9F0470E46324974
:101AD000804601EB5001C007097801D00F0901E0F1
:101AE00001F00F07424601200021FEF7AEFCDFF8AF
:101AF000AC9004460D46052F4BD2DFE807F00314E7
:101B000019262A00002E44D00121404602F066F832
:101B10000020FFF76BF84846D0E904120C43154348
:101B2000C9E9044530E00EB1022114E0002112E0C1
:101B30004EB10321404602F051F84046BDE8F0475F
:101B4000012102F03FBB012105E0002E21D104213B
:101B500001E02EB103214046BDE8F04702F03EB857
:101B60000021404602F03AF80021404602F02AFBEC
:101B70000020FFF73BF84A46E043D2E9043418401E
:101B800024EA0501C9E90401BDE8F0470020FFF798
:101B90002FB8BDE8F0870000C8030020A000002097
:101BA00010B5006842581AB101F0DFF8012010BDED
:101BB000002010BD10B50B48FFF77DFE094A083A1A
:101BC000D2E90434C018D2E9063244F10001C31A44
:101BD00071EB020204D24FF08072801841F10001D3
:101BE00010BD0000C000002010B5C0B2FFF75CFBC4
:101BF0000446007801F018FA01466078012801D007
:101C0000012000E0002090EA010F08D00449D1E94A
:101C10000401084303D1BDE8104002F0C5B810BD6F
:101C2000A00000202DE9FC5F0E008346DDE90C4793
:101C3000C6F1000098469246814600D40846012528
:101C400003E000BF90FBFAF06D1C5045FADAA8459E
:101C500000D9454624B1002E01DB780700D5641E6B
:101C6000B80702D5B8F1000F0AD0F80708D13CB187
:101C7000A54205D220215846641EFFF7F1FAF6E787
:101C8000002E02DA4E462D2102E0780703D52B21E3
:101C90005846FFF7E5FA07F0030002280BD1B8F128
:101CA000000F08D13CB1A54205D230215846641E30
:101CB000FFF7D6FAF6E7CDE90047434652463146EC
:101CC000584602F025FABDE8FC9F000070B50D46AD
:101CD000044600684FF4887101F08DF84FF490715C
:101CE000206801F088F84FF49271206801F083F8C1
:101CF0004FF4A271206801F07EF84FF4AC712068B7
:101D000001F079F820681249C0F8041320686907C7
:101D100040F30730090E002804DB00F1E02080F8D2
:101D2000001405E000F00F0000F1E02080F8141D21
:101D3000206840F30730002809DB00F01F02012172
:101D400091404009800000F1E020C0F8001170BD12
:101D500010034200024600201268530713D502F018
:101D60000300012802D002280CD105E0C2F3831041
:101D70000B68801C184404E00223086803EB9252AD
:101D8000104408600120704770B50C464FF4887607
:101D90000546314600F0C1FF50B13146284600F0FB
:101DA000C1FF6079400703D5216809B10120884748
:101DB0004FF48A763146284600F0AFFF50B13146E5
:101DC000284600F0AFFF6079000703D5216809B10C
:101DD000022088474FF48E763146284600F09DFF5A
:101DE00050B13146284600F09DFF6079C00603D40B
:101DF000216809B1002088474FF482763146284691
:101E000000F08BFF00280CD03146284600F08AFFF6
:101E1000012020712168002903D0BDE87040032013
:101E2000084770BD0268134602E08A4204D0126877
:101E3000002AFAD10B600160704700000A4810B513
:101E4000807860B1002401E0022C06D02046FEF725
:101E5000A7FF641C042CF7D310BD0324F6E7BDE8EC
:101E60001040FEF7BDBF000070000020034801795C
:101E7000C90702D00078FFF7C9B87047700000208A
:101E80002DE9FF410026244800F030F92248001FC8
:101E9000074600F02BF9214C2149A06800900D68FD
:101EA00000E000986946284004EB80000C30FFF702
:101EB00051FF0028F5D101AA009901EA050304EBBE
:101EC0008303491CDB6842F82030401C0091022843
:101ED000F2D3019800F0030001280BD0022810D1A2
:101EE0000198032101EB90500099BDF80A6001EBC5
:101EF000900005E00198BDF80A60C0F38310084423
:101F00000090384600F0EFF808B10098A06004B0E7
:101F10003046BDE8F0810000100A0020F8050020DE
:101F20000C0100204FF48041002000F001FE08B1B8
:101F3000FEF7C1FD00F07AFC00F05AF908B1FEF797
:101F4000BAFD002000F072F9FEF704FE08B1FEF7BA
:101F5000B2FD10490220FFF70FF808B1FEF7ABFD04
:101F6000FEF7AAFF08B1FEF7A6FD0B480B49401A81
:101F7000C008032101EB004009A100F07DFDFFF73F
:101F800047FA20BF40BF20BF00F05EFC0028FBD115
:101F9000F7E70000010F00005C4500000C45000061
:101FA00050574D206578616D706C65207374617257
:101FB0007465642E000000002DE9F047C5881E1DE1
:101FC000B6FBF5F78946B6FBF5F1044605FB176C41
:101FD000407916686843DDF820A0F718001F874293
:101FE00000D9C61A166001E02468491E0029FBD1F9
:101FF000A5EB0C078846B74216D818E004EB0C0096
:10200000001D09EB0803BAF1000F3A4602D0014661
:10201000184600E01946FEF72BFA2468F61B4FF02D
:10202000000CB844B54201D9374600E02F46002ED7
:10203000E4D1BDE8F087000030B5024651B100F0B0
:102040008BFD0021074C08E034F821301568AB42C5
:1020500002D11160002030BD491C8142F4D305201B
:1020600030BD00000000000010B531B1B2FBF3F448
:1020700003FB14241CB1092010BD0E2010BD01600B
:102080000021416081608281C381084610BD70B526
:102090000C460546FEF7C0F8002802D021882868C3
:1020A000084470BD10B50A8849888A4203D1FEF7FA
:1020B000F5F8012010BD002010BD70B50C46054696
:1020C000FEF7CFF8002802D061882868084470BD68
:1020D00010B50A8849888A4203D1FEF7B9F8012071
:1020E00010BD002010BD002100F009B8012100F052
:1020F00010B808B56A46FEF726F9009808BD08B57D
:102100006A46FEF706F908BD08B56A46FEF7E8F824
:1021100008BD08B56A46FEF7EFF8009808BD08B597
:102120006A46FEF71DF9009808BD70B50446002503
:102130002846FEF75BFD21686268086890420ED968
:10214000401E08600178238AE26801FB0325227A99
:102150002168101AC0B20A79824200D208710020A8
:10216000FEF746FD284670BD70B505460C460020BA
:10217000FEF73CFDE868298A201AB0FBF1F12A68D5
:102180001068431C13600170BDE870400020FEF72A
:102190002FBD10B530B1017A42680368891AC9B2FF
:1021A0001A6006E00E2010BD03681A68541C1C60FB
:1021B0001170491EC9B2F7D20068002101710846AA
:1021C00010BDC20800F007030120895C9840084058
:1021D000704700F180400068002800D0012070475F
:1021E00008B500F18040002101600068009008BD42
:1021F00070B50C4C0125207808B185260BE0002035
:10220000A06060602061E060074800F019FE0646AB
:1022100000F000FE257000F0F5FD00B1A57030461D
:1022200070BD0000D00200207513000070B5104D85
:102230000446A87838B114B16168012088470020AD
:10224000FEF7D4FC0CE00020FEF7D0FC24B10848D7
:1022500021461030FFF7E6FDE86808B900F000FEFF
:10226000E868401CE860BDE870400020FEF7C0BC94
:10227000D0020020F0B505460478154889B016460E
:1022800040F82420124A0869121DA2F1080742F8FA
:102290002400487F385520226846FEF7E9F8049468
:1022A0002878385C48B10EB10A4A00E0002269463D
:1022B000281D01F061F909B0F0BD0EB1064A00E039
:1022C0000022694605F10C0001F020F8F3E7000058
:1022D00084000020CD3F0000153E00000FB408B57B
:1022E0000399002904D004AA00926A4600F00FF86E
:1022F00001B05DF814FB10B582680446002A05D0D1
:10230000D4E90403216898470020A06010BD2DE99E
:10231000FC4791460C00804676D014F8011B39B179
:1023200025290ED04046FEF79BFF20780028F4D1E7
:1023300098F80C00002867D04046BDE8FC47FFF73E
:10234000DABF0020012221782B291BD02D2902D0B1
:10235000302908D102E040F0010001E040F0020025
:10236000641C002AEFD100252A290ED02178A1F182
:1023700030020A2A11D205EB850201EB4205641CEA
:10238000303DF1E740F00400EAE7D9F800100B1DFA
:10239000C9F800300968641C0D44217800232E29F7
:1023A0000BD114F8011FA1F130020A2A05D203EB68
:1023B000830201EB4203303BF3E76C290DD068291F
:1023C0000BD0692921D00BDC252918D0582931D010
:1023D00063290ED0642915D117E014F8011FECE72A
:1023E000702969D0732932D075291BD0782909D179
:1023F00020E0D9F80000011DC9F80010017840461E
:10240000FEF72EFF641C90E76CE0D9F800100A1D5F
:10241000C9F800200968CDE900500A224046FFF7BC
:1024200001FCEFE7D9F800100A1DC9F8002009687F
:102430000A2206E0D9F800100A1DC9F80020096830
:102440001022CDE90050404601F062FEDAE7D9F8EB
:10245000001000270A1DC9F800200E68C00705D12A
:1024600012E04046761C7F1CFEF7FAFE3178002908
:10247000F7D104E0202140466D1EFEF7F1FEBD427B
:10248000C0D9002DF6D1BDE74EB13046FEF714F8A5
:10249000074604E0202140466D1EFEF7E1FEBD42E6
:1024A00006D9002DF6D103E04046761CFEF7D8FE93
:1024B00031780029F8D1A5E7D9F80000011DC9F845
:1024C0000010056830214046FEF7CAFE78214046DC
:1024D000FEF7C6FE08200021CDE9000103461022C8
:1024E0002946B0E7BDE8FC8770B541EA4201DDE965
:1024F00004564FF0A04441EA830141EA052104EB70
:10250000800041EA0641C0F8001770BD70B541EA8D
:102510004201DDE904564FF0A04441EA830141EA5B
:10252000052104EB800041EA0641C0F8001770BDA8
:1025300070B541EA4201DDE904564FF0A04441EA9A
:10254000830141EA052104EB800041EA0641C0F81D
:10255000001770BD70B541EA4201DDE904564FF045
:10256000A04441EA830141EA052104EB800041EAED
:102570000641C0F8001770BD1CB5002100910B4644
:1025800001220191FFF7D4FF1CBD1CB50021009171
:102590000B4601220191FFF7DDFF1CBD1CB5002297
:1025A0000B46009211460192FFF7C2FF1CBD1CB5FD
:1025B00000220B46009211460192FFF7CBFF1CBD93
:1025C0001CB5002100910B46012201911146FFF735
:1025D000AFFF1CBD1CB5002100910B4601220191EB
:1025E0001146FFF7B7FF1CBD4FF0A04202EB800081
:1025F000D0F8002722F44032C0F80027D0F8002796
:1026000042EA0141C0F800177047000038B5094B95
:1026100044181B6800936B4608E000BF53F8201075
:10262000D1F8205520C2C1F82055401C8442F5D86D
:1026300038BD00000843000042094FF0000100D1FE
:10264000491E00F01F00012282400A4201D00120F1
:1026500070470020704701224FF0A043824011B123
:10266000C3F808257047C3F80C257047034908B51F
:102670000844002101600068009008BD006000402F
:1026800002494058012800D00020704700600040F7
:1026900030B5154A01460020D2F8104423460AE01E
:1026A000DB681D79854205D1401C0A28F6DB4FF016
:1026B000FF3030BD1B68002BF2D1431CF9D0CB6832
:1026C0001871D2F8103443B1DB68CC681B68236002
:1026D000D2F81024D268116030BDC2F81014C96855
:1026E00000220A6030BD0000F8050020F0B595B06A
:1026F0001C4615460E4608461A9F00F0E9FA1821B6
:1027000009A8FDF7CEFE0E97CDE909540023082253
:1027100003A9304600F0F1FA05980690BDF81000C4
:10272000ADF81C00BDF81200ADF81E0000208DF8B9
:1027300021000399082501F00300012802D0022896
:1027400016D02FE0C1F3C200C1F383178C0A8DF8B5
:102750002000BA002B460FA9304600F0CEFA09A897
:10276000009006AB3A460FA9204600F00DFA19E09A
:10277000C1F3C2008C0D8DF82000082C01D2274631
:1027800000E008272B463A460FA9304600F0B5FA7C
:102790003D44E41B09AB06AA39460FA800F070F9C6
:1027A000002CEAD1304600F099FA15B0F0BD704720
:1027B000012001F04DBB0000084810B50178084A1F
:1027C000515C19B1001D00F071FF02E00C3000F007
:1027D0006BFEBDE81040002001F03ABBF000002085
:1027E0008000002008B5034A00924023024AFFF708
:1027F0007DFF08BD453B0000600400200A4A012916
:1028000002EBC00007D0022907D0032907D0042912
:1028100007D00020704702207047042070470079DD
:1028200070474079704700000C45000010B5FFF775
:10283000BFFF04210348FFF72BFF02490120C968AD
:10284000487110BDFC4400002DE9FF47FEF720FD54
:1028500018B1002004B0BDE8F0877D4C0020C4F81A
:102860001804BFF34F8F7B49A06800900D684FF0AC
:102870000008284004EB80000CE000BFD4F81804E6
:1028800070B961680098814201D8A160E1E72840F1
:1028900004EB80000C306946FFF75CFA0028EDD1AC
:1028A000002001AA009901EA050304EB8303491CF7
:1028B000DB6842F82030401C00910228F2D30198D6
:1028C00000F00301022902D001294DD0A5E0810DBD
:1028D00050228946B2EB905F00D850210E4666F335
:1028E0009F50019008315C4800F0A9F9070077D0AB
:1028F00000F0EEF94346082201A9384600F005FA37
:10290000009908F1080A2940681A8000001D8642D3
:1029100023D94F4D0C3530B1C2B204EB8101301ACE
:1029200090460C3104E02946F2B200259046284634
:10293000C6B25346384600F0E8F90AEB08032DB159
:10294000324629464FEA070000F0DFF9009909F105
:10295000030001EB9000009039E004EB8101534645
:10296000324638460C31EFE7C0F38311062900D315
:10297000062161F389100190C0F38310801C81004F
:10298000354800F05CF9070047D000F0A1F9434654
:10299000082201A9384600F0B8F908F10808002615
:1029A0000FE00098434600EA0501401C04EB81015A
:1029B0000090042238460C3100F0A7F908F1040811
:1029C000761C0198C0F38310B042EAD847B1D4F81E
:1029D0001054D4F8180478B1384600F07FF931E08B
:1029E0001BE0E8684079012804D12A682846394666
:1029F00012689047E8680568002DF2D1384600F06B
:102A00006DF90020FEF7F2F8D4F8180408B9009820
:102A1000A0600020FEF7ECF814E0D4F8104405E0C4
:102A20002168204689688847E0680468002CF7D14F
:102A30000A480B49401AC008022101EB004009A1D5
:102A400000F01AF8FEF724FC80F0010002E7000015
:102A5000F80500200C010020644500005C450000E2
:102A60000C4500004261636B656E647320666C7593
:102A7000736865640000000000231A4601F0C6B8C0
:102A80002DE9F0470E4680461C469246082940D85C
:102A900094F80C90002020731946104600F030FF87
:102AA0000025B54206D218F805201BA12046FFF7E5
:102AB00015FC03E01AA12046FFF710FC6D1C082D41
:102AC000EFD318A12046FFF709FC0025B54212D22A
:102AD00018F805707E2F08D8FDF7C6FC0068C05DA9
:102AE00010F03E0F01D03A4600E02E220EA1204603
:102AF000FFF7F4FB03E00DA12046FFF7EFFB6D1C91
:102B0000082DE3D301222146504600F0DBFE84F875
:102B10000C90BDE8F08700002025303278000000DE
:102B2000202020007C000000256300002000000021
:102B3000064910B500200870054800F0CDF80028BF
:102B400003D1044800F003F9002010BDF80500206F
:102B5000644500007443000002480349401AC0085D
:102B600070470000644500000C45000013B568463E
:102B7000FFF762FA08B100201CBD0248009950F826
:102B800031001CBD0C4500002DE9FF4781460C9D1E
:102B900000200C462F7B2873984616462946184677
:102BA00000F0AEFE072E42D2DFE806F004090F1651
:102BB0001F2A360049462846FFF790FB37E0494672
:102BC00028462268FFF78AFB31E0D4E90023494612
:102BD0002846FFF783FB2AE0A0680090D4E9002391
:102BE00049462846FFF77AFB21E0D4E90201CDE906
:102BF0000001D4E9002349462846FFF76FFB16E0A1
:102C000004F1080007C88DE80700D4E9002349460D
:102C10002846FFF763FB0AE004F108000FC88DE8BF
:102C20000F00D4E9002349462846FFF757FB00224E
:102C30002946404600F046FE2F73BDE8FF872DE988
:102C4000F041058A80462D1F4819C01CB0FBF5F0E5
:102C5000C6B24046FFF769FA041E19D00020207161
:102C600001206071E58000272546761EC4F80080AB
:102C70000BE04046FFF759FA60B16179491C617178
:102C8000286005467F1CC0F80080B742F1D320467B
:102C9000BDE8F081204600F002F80020F8E72DE9B9
:102CA000F041457901466B1E002201E00968521C83
:102CB0009A42FBD30F680146002605E038460C68AF
:102CC000FFF752FA2146761CAE42F7D3BDE8F081F9
:102CD0000121001DFFF70DBAFFF75BBA10B50446DE
:102CE0000121001DFFF71BFA10F0FF0F04D1204651
:102CF000BDE81040FFF7D3BF10BD1CB50192012203
:102D0000009201AAFFF758F91CBD1CB501920022E0
:102D1000009201AAFFF750F91CBD4058002800D0CE
:102D20000120704708B5002242504058009008BD6D
:102D300000EB41101368C0F820359188C0F82415C5
:102D40009168C0F82815D168C0F82C1570478268C2
:102D50000021916082681161826851618268D1604E
:102D60008268516080680160704708B50022425057
:102D70004058009008BD70B50D460646446804E012
:102D8000B2682946904718B1246820680028F7D116
:102D900020682860256070BD406800687047416801
:102DA0000868002801D002680A60704702460020C7
:102DB000526806E08B4203D108681060012070471A
:102DC0001A461368002BF5D170474058002800D0F0
:102DD0000120704708B5002242504058009008BDBD
:102DE000D0F80403084000D0012070474058002864
:102DF00000D00120704708B5002242504058009092
:102E000008BD000002480068002800D0012070477B
:102E10000004014008480068012110F0010F06D1AC
:102E20004FF0E020C02280F800248430C1670349BD
:102E3000012008607047000000E100E01805004034
:102E40000649024600200B790BB1852070470A60C5
:102E500001220A7100224A71704700008C00002094
:102E600070B54FF48270FFF7BBF902204107C1F83B
:102E700004030B4B196841F0807018600948026820
:102E800042F00104046044684FF40A554668361B5A
:102E9000AE42FBD30260196003490120086070BD97
:102EA000FCED00E0001000E008000040002802D027
:102EB0000149800108477047314300002DE9F04186
:102EC0000E46054600F084FC0028284619D0FEF77F
:102ED00035FA083800F0EEFC032802D001280ED0A5
:102EE00007E04FF0A040D0F81005E84010F0010FC7
:102EF00005D003212846BDE8F041FFF775BB02214C
:102F0000F8E700F071FC002822D02846FEF716FAF8
:102F100004464FF4807000EB84000E4F81B207EB43
:102F20008400D0F8102542F00102C0F810250846B0
:102F3000FFF79CFB002E0BD02846FEF7FFF9064951
:102F400051F82000002803D00120A040C7F8040356
:102F5000BDE8F08100600040E40200202DE9FC4162
:102F6000DFF8B880044608EB0400002790F9300031
:102F70001346C0170E46401C01D008274AE0B0781F
:102F80001946C0F340022046FEF7B4F90546401C3E
:102F90003FD0B078410717D4C0070AD04FF0A04007
:102FA00000EB8400D0F8001721F00201C0F80017F0
:102FB00007E000217378204600910A460191FFF74F
:102FC000A5FA204600F0F6FBB078800718D5144823
:102FD000317800EB8500D0F81025124B1A40C0F86C
:102FE00010254FF4F8524FF4403302EA042203EA6A
:102FF00001410A43D0F810150A43C0F8102509E032
:1030000008EB0500327810F8481F41EA8211017080
:1030100000E004273846BDE8FC810000E4020020FF
:1030200000600040FFE0FCFF4FF0A041D1F8101518
:10303000C14011F0010000D00120704770B5194D5A
:1030400095F8580008B1082070BD0024661E20467F
:10305000FFF7F2FA10B1281980F83060641CE4B26E
:10306000202CF4D300242046FEF736F9641CE4B289
:103070000C2CF8D300200D4968650B4CC02081F85A
:10308000000401264020891FC1F800014FF4BE70E2
:10309000FFF7ECFAA004C4F8040385F85860002098
:1030A00070BD0000E40200200060004006E000E087
:1030B000034890F85800002800D001207047000015
:1030C000E40200200121B1EB507F01D101207047C3
:1030D0000020704770B50D4600F05EFC04000FD074
:1030E0000020FDF783FD207920B10020FDF780FD51
:1030F000112070BD0120256020710020FDF778FDB2
:10310000002070BD10B500F047FC002802D000215F
:103110000160017110BD00002DE9F04190460446A8
:103120000079134A1F4602EBC0060A46069D00219D
:103130002068FFF7FDFD424601212068FFF7F8FDFA
:103140002068C0F81475E80701D0102004E0A80733
:1031500001D5042000E000202168C1F80002EAB295
:1031600031462046BDE8F041082300F011BD0000C3
:10317000400300202DE9F0410D4604460079324914
:1031800001EBC006307910B10820BDE8F081294676
:1031900020463260FEF708F920680127C0F8007564
:1031A00020686B79AA792989C0F80C35C0F8042504
:1031B000C0F80815AA7AE97A206842EA0121C0F825
:1031C000101520680021C0F800122068C0F8001314
:1031D0004FF48E712068FFF7A5FD4FF488712068C9
:1031E000FFF7A0FD4FF48A712068FFF79BFD4FF4B5
:1031F00082712068FFF796FD306808B3206829794E
:1032000040F3073000284FEA411104DB00F1E020D1
:1032100080F8001405E000F00F0000F1E02080F8D5
:10322000141D206840F30730002809DB00F01F015F
:1032300007FA01F14009800000F1E020C0F8001118
:1032400037710020A1E70000400300202DE9F04184
:103250000F46044600791849164601EBC0081D4682
:103260003A4600212068FFF763FD3A4601212068B5
:10327000FFF75EFD206806F0010101EB5602C0F881
:103280001425E80701D0102007E0A80704D509B1EC
:10329000082002E0042000E000202268C2F80002BA
:1032A00009B10C2300E00823EAB241462046BDE8FC
:1032B000F04100F06DBC00004003002010B5017922
:1032C0000D4A02EBC102016841F3073100290DDB11
:1032D00001F01F040123A3404909890001F1E02105
:1032E000C1F88031BFF34F8FBFF36F8F00680021AB
:1032F000C0F80015117110BD4003002001490248BB
:1033000000F0CEBD58030020002000402DE9F04120
:103310000546007916460F4600EB40012D4A01EBA9
:10332000C00102EB810494F82A1011B10820BDE815
:10333000F081294951F820102868FFF7CBFE08B129
:103340001120F4E739462846FDF766FC66603869C7
:10335000206030004FF001062FD03F7F4FF48E7178
:103360002868FFF737FD4FF4A2712868FFF732FD98
:1033700028681A49C0F8041328684FEA471140F337
:103380000730002804DB00F1E02080F8001405E09D
:1033900000F00F0000F1E02080F8141D286840F3D1
:1033A0000730002809DB00F01F0106FA01F140098F
:1033B000800000F1E020C0F8001128680421C0F866
:1033C00000150020A061E06184F8290044F8140F82
:1033D000A675ACE7580300200C43000080000200F3
:1033E0002DE9F05F054600790B4600EB400101EB4B
:1033F000C000244901EB8004284600F045F810B1D4
:103400001120BDE8F09F62614FF00009C4F82090E0
:10341000A36084F828904FF48E784E464146286881
:10342000FFF7D8FC28684FF0010AC0F808A0214631
:10343000286800F0C5FC606808BBD5F800B0676973
:103440000FE000BF94F8280008B10F2615E04146B0
:103450005846FFF7BAFC0028F4D02146584600F041
:10346000AFFC206AB842F2D3574641462868FFF7BE
:10347000ACFC0028F9D02868C760C4F81490304626
:10348000BFE7000058030020007900EB400101EB8A
:10349000C000044901EB80004069002800D00120F1
:1034A00070470000580300202DE9F04704460079DA
:1034B0004FF0000900EB400101EBC000284901EB8F
:1034C00080072068C0F800957868B0B12068254969
:1034D000C0F80813206840F3073000280DDB00F027
:1034E0001F02012191404009800000F1E020C0F856
:1034F0008011BFF34F8FBFF36F8F2068D0F80C257A
:10350000D0F81485D0F80865D0F810554FF0FF3189
:10351000C0F81415C0F80C152068C0F80815C0F8DC
:103520001015501C02D01046FFF726F8B8F1FF3FE7
:1035300002D04046FFF720F8681C02D02846FFF76B
:103540001BF8701C02D03046FFF716F82068FFF712
:10355000D9FD87F82A90C7F80490BDE8F0870000ED
:1035600058030020840202000149024800F046BDD1
:1035700084030020002000402DE9F0410546164656
:1035800000790F46154A00EBC00102EB810494F864
:10359000201011B10820BDE8F081114951F8201028
:1035A0002868FFF797FD08B11120F4E7394628464F
:1035B000FDF776FB6660386920601EB1397F2846CA
:1035C000FEF784FB28680821C0F800150020A061E0
:1035D000E0616061012184F82010DCE784030020B1
:1035E000104300002DE9F04704460E4600792749B4
:1035F00000EBC00001EB800517463046FFF762FD87
:1036000030B1204600F044F820B11120BDE8F08729
:103610001020FBE76F61AE604FF490774FF0000829
:1036200039462068FFF7E7FB4FF4AC763146206857
:10363000FFF7E1FB2068AA686969C0F84425C0F873
:10364000481520684FF00109C0F808906868D0B9A3
:10365000BA4651462068FFF7C9FB07463146206845
:10366000FFF7C4FB0743F4D010B14FF00F0808E098
:103670002068C0F80C9031462068FFF7B7FB00289F
:10368000F9D0002068614046C0E7000084030020B4
:103690000079054900EBC00001EB8000406900287B
:1036A00000D0012070470000840300202DE9F0477E
:1036B000064600793D4900EBC00001EB8005346807
:1036C00068680127A8B13A49C4F80813306840F384
:1036D000073000280DDB00F01F0107FA01F1400957
:1036E000800000F1E020C0F88011BFF34F8FBFF3DE
:1036F0006F8FD4F8000220F02000C4F80002A869FF
:103700004FF4A27820B141462046FFF774FB676072
:103710004FF4AC7949462046FFF76DFBE76047461A
:1037200049462046FFF762FB0028F9D0A86928B176
:1037300039462046FFF75AFB0028F1D04FF0000A27
:10374000C4F800A53068D0F80C25D0F81495D0F84E
:103750000885D0F810754FF0FF31C0F80C15C0F88F
:1037600014153068C0F80815C0F81015501C02D0A8
:103770001046FEF70AFFB9F1FF3F02D04846FEF7B8
:1037800004FF781C02D03846FEF7FFFEB8F1FF3F79
:1037900002D04046FEF7F9FE2046FFF7B3FC85F85D
:1037A00020A0C5F804A0BDE8F08700008403002035
:1037B0001003420010B50549C20800F00703885CF9
:1037C00001249C402043885410BD00003803002091
:1037D0000449084490F93000082801DB01207047B3
:1037E00000207047E40200200449084490F93000AA
:1037F000082801D20120704700207047E402002011
:103800002DE9F05F2A4F06464FF0A04A4FF0010B1A
:103810000024381990F95010491C3CD090F8500001
:10382000314620F0C0052846FEF7CBFC20B32046E9
:1038300000F040F881460AEB8500D0F80007C0F39D
:103840000148B8F1020F18D002212846FEF7CCFE3D
:103850000BFA05F1CAF820152846FDF76FFD57F859
:1038600020204AB14846B9F1030F11D0B8F1020F38
:1038700005D0B8F1030F07D00DE00321E5E7484676
:10388000B9F1010F04D006E04846B9F1020F02D1A8
:10389000014628469047641C042CBAD332460121C5
:1038A0000020FEF7B3FE30680028B1D1BDE8F09FDC
:1038B000E40200200249084490F850008009704753
:1038C000E402002010B50C46017A052908D0407AA0
:1038D00038B1084808A102682046FEF7FFFC00E066
:1038E0001AB106A12046FEF7F9FC2046BDE81040BB
:1038F000FEF701BD3C010020257300000D0A000009
:1039000038B5C3880D46044633B114A0009015A203
:1039100016A12846FEF7E2FC217A05291CD0607A20
:1039200048B1A088FEF76AFF164951F8202016A179
:103930002846FEF7D3FCA0880021FFF717F90346BD
:103940001049207A143951F8202001B02846BDE8EA
:1039500030400EA1FEF7C2BC38BD00001B5B306DCD
:10396000000000001B5B313B33316D0025734C6F51
:1039700067732064726F7070656420282564292540
:10398000730D0A003C010020257300003C25733EA6
:103990002025733A200000000349884201D10348E2
:1039A0007047002070470000002000409400002075
:1039B00070B50546FEF703F8134C40B1D4E9040294
:1039C0004FF08071411842F10000C4E90410002159
:1039D0002846FDF741FF30B1606820B1606800F013
:1039E0005FF90020606001212846FDF735FF18B11E
:1039F000FEF7E0F8C4E90601284600F07DF9284604
:103A0000BDE8704000F034B8B800002070B505463D
:103A100000200C460870FEF7CDF8D5E90223101AF5
:103A200063EB010300263146361A994112DAB0F5EC
:103A3000350F03D3FDF77CF80B4942184FF496037A
:103A400000210A48FDF7C7FF10B10D2806D009E094
:103A5000012070BD00210548FDF7F4FE284600F066
:103A60001FF92070002070BDFFFFB400C0000020CF
:103A7000F8B51A4C074600261948FFF78DF9D0B162
:103A8000616871B1D0E902106268D2E90232C91AE4
:103A9000904120D26068007F18B161681048FFF73C
:103AA0006AF900F06FF805466946FFF7AFFF98B175
:103AB000606840B10AE0606800280CD13846BDE873
:103AC000F840FDF784BF3846FDF77DFF65609DF83F
:103AD00000000028D0D1F8BD6660CDE7B800002016
:103AE0002443000070B5054688690C4600284FF451
:103AF000847128460AD0FFF76DF9D5F81805626A77
:103B0000E1688854606A401C606270BDFFF762F92A
:103B1000D5F8180570BD1FB501238DF80030CDE92B
:103B20000121D0E90012684690471FBD1FB501234F
:103B30008DF80030CDE90121D0E9001268469047A8
:103B40001FBD000070B50D4C0020D2B22070201DAA
:103B50000B4D0378EB5C1BB1001DFFF743FD02E04A
:103B60000C30FFF73DFC08B1FCF7A5FF607800289A
:103B700002D021780029FAD070BD0000EC000020AE
:103B8000800000200148FFF70AB90000244300002C
:103B900070B5054602201E46144608714A71086831
:103BA00070B18221600700D59221200701D541F034
:103BB0002001E00601D521F080012868C0F800133B
:103BC0004FF482712868FFF7ADF82006286801D508
:103BD000304470BD01218151002070BDC207002A10
:103BE00003D000BF4FF00F0201E04FF0F00201D010
:103BF0004FEA0111044B03EB5003187800EA02006E
:103C000040EA010018707047C80300202DE9F84F02
:103C1000074621489146884605681E4601226946A6
:103C20001846FDF7D7FADFF874A060B300980021BA
:103C30000446801C0AE000BF00EA050259F821C0D2
:103C40000AEB8202401C491CC2F80CC0B142F3D3FB
:103C50004FEA1749FDF7ECFD611C29400AEB810191
:103C600049EA00422C40CA600AEB8401C86867F345
:103C7000C50066F3891068F39F2020F00300401C04
:103C800020F00400C8609AF8000001E0FEF7DCFDB7
:103C90000028FBD1BDE8F88F0C010020F8050020BA
:103CA00070B50446124800250078F8B1F4B1207FC1
:103CB000E0B1FDF77FFFD4E90223801A994110D3C8
:103CC0002069002600B92677D4E9051088472069C5
:103CD00060B1217F51B1D4E9022110187141C4E9CA
:103CE000020121460348FFF746F80125284670BD2A
:103CF000B800002024430000F8B51B4C694620683A
:103D0000FEF7DBF900260127184D29E0017821B1E3
:103D100001290CD002291BD114E041680A7FBAB9ED
:103D20000F77416810480830FFF725F810E0416828
:103D30006868814201D16E600AE00B480830FFF7E5
:103D400035F805E0FFF71EFF08B10677FAE72F7098
:103D500069462068FEF7A6F969462068FEF7ADF9C6
:103D60000028D3D1F8BD00001C430000B80000209B
:103D7000F8B50B4C0D46064669462068FEF787F9F4
:103D800058B10670456069462068FEF7A1F910B188
:103D90000448FDF701FE0020F8BD0420F8BD000036
:103DA0001C430000C000002003488068410803480D
:103DB00000224068FCF7FCBEA00000201443000075
:103DC00070B50C4605464FF48E71FFF703F8216A73
:103DD000A068415C206A401C2062C5F81C1570BDBB
:103DE0001FB500228DF80020029181680191426187
:103DF000D0E90012684690471FBD1FB500228DF81C
:103E000000200291816801914261D0E90012684668
:103E100090471FBD1FB50A4601788DF80010416814
:103E20000191017A8DF80810C0680390044850F899
:103E30002210001F50F82220684690471FBD000046
:103E4000880000200149012008707047EC00002024
:103E500010B588B0044620220E496846FCF708FBDE
:103E600006200090C01F0190029003904FF0EB706D
:103E700006900CB1084A00E0002269460748FEF7A8
:103E8000F9F908B1FCF717FE0448001F447008B0A8
:103E900010BD000054430000453E0000F00000202B
:103EA0002DE9FF470C4605464FF40071FEF798FFD9
:103EB00001274FF40178002618B34FF49279494650
:103EC0002846FEF782FFE0B149462846FEF782FF0A
:103ED000C5F8088394F8290000B96F6002208DF8B6
:103EE0000000D5F88004C5F880040390A069029012
:103EF000E0680190A661E661D4E900126846904747
:103F000028E004212846FEF76BFF18B34FF48471B4
:103F10002846FEF75AFFE8B121462846FFF7E2FDA2
:103F2000616AA069884215D1E06938B1E268616AC6
:103F3000A0612069E6616662E06008E094F829000B
:103F400000B96F60C5F80883A661E268616A20461F
:103F5000FFF7E1FD4FF48E7841462846FEF735FF26
:103F600080B16069216A814202D294F8280028B3A6
:103F700041462846FEF72EFF606918B16169204668
:103F8000FFF72EFF4FF4A27841462846FEF71DFFAB
:103F9000002818D041462846FEF71CFF94F8290057
:103FA00000B12F60A06900280DD0A661E268616AA7
:103FB00004B02046BDE8F047FFF7ADBD21462846D6
:103FC000FFF7FEFEDEE7BDE8FF8700001FB50A46EB
:103FD00001788DF8001041680191017A8DF8081080
:103FE000C0680390044850F82210001F50F82220A7
:103FF000684690471FBD0000880000202DE9FF4162
:104000000C464FF4927705463946FEF7EFFE002640
:10401000B8B139462846FEF7EEFE02208DF80000C2
:10402000D5F88004C5F880040390D5F83C050290CB
:10403000E0680190A661E661D4E900126846904705
:1040400023E04FF4887739462846FEF7CFFEE0B1EB
:1040500039462846FEF7CFFED5F83C15A0698842C0
:1040600013D1E06960B1E268D5F8000220F02000C9
:10407000C5F80002E069A0612069E661E06001E046
:10408000A661E2682046FFF751FD4FF4A27739465A
:104090002846FEF7ABFE68B139462846FEF7ABFE70
:1040A000A06938B1A661E661D5F83C152046E26802
:1040B000FFF73CFD4FF4907631462846FEF796FE1A
:1040C00060B131462846FEF796FE0120E86060693F
:1040D00020B1D5F84C152046FFF78FFE4FF4AC7693
:1040E00031462846FEF782FE00280ED0314628468B
:1040F000FEF781FE6069002807D0D5F84C1504B0A2
:104100002046BDE8F041FFF778BEBDE8FF81000022
:104110002DE9F05F8346DDE90A4A994690460D464F
:104120000846012703E000BFB0FBF8F07F1C4045C4
:10413000FAD2B94500D94F465FEACA7012D18CB1A4
:104140005FEA8A7002D5B9F1000F01D0202607E09E
:10415000302605E031465846641EFDF781F80CB163
:10416000A742F7D35FF00106B9F1010F02D9A9F117
:10417000010903E0B5FBF6F0404502D306FB08F663
:10418000F2E7DFF83C9000BFB5FBF6F000FB1655F8
:1041900019F800105846FDF763F8B6FBF8F6002E44
:1041A000F2D15FEACA7009D0002C07D0A74205D22D
:1041B00020215846641EFDF753F8F5E7BDE8F09F4F
:1041C0003643000070B50C460546FDF76DF8002833
:1041D00007D04268002A04D021462846BDE8704036
:1041E000104770BD1C00002004000000000000000B
:1041F0000000000091929493070400001027020031
:10420000919293940705000010270000640100209C
:104210001900000001000000000000002400002040
:1042200006000000040000000000000091FFFFFFF6
:1042300007070000A8610000300000200600000011
:104240000000000004000000000000000700000063
:10425000000000003C0000200800000001000000F9
:104260000000000096010020640000000000000033
:10427000000000004C00002002000000950000003B
:10428000000000004C00002002000000310000008F
:104290000000000096010020640000000200000001
:1042A000000000009193949207070000093D02006E
:1042B000500000201000000000000000000000007E
:1042C00011140000DD14000081150000F515000038
:1042D00075170000111213140D1E0F10600200203C
:1042E00080020020B00200200D000300290E000013
:1042F0001E000300290E00000F000300290E00001D
:1043000010000300290E000000000050FD320000E4
:104310006935000003000000A8030020F803002016
:104320000100060000000000D800002091130000EA
:104330000338FDD8704730313233343536373839A9
:104340004142434445460000E5270000B9270000EC
:10435000AF270000FFFFFFFFFFFFFFFFFFFFFFFF93
:10436000FFFFFFFF00000000000000000000D6017A
:1043700006010000600500207F000000E00500202D
:104380000040404040404040404041414141414068
:10439000404040404040404040404040404040401D
:1043A00040050202020202020202020202020202AC
:1043B00002202020202020202020200202020202B1
:1043C0000202909090909090101010101010101009
:1043D0001010101010101010101010100202020215
:1043E0000202888888888888080808080808080859
:1043F0000808080808080808080808080202020255
:1044000040000000814300007761726E696E6700B2
:1044100064656275670000001B5B313B33306D00E3
:104420001B5B306D000000001B5B313B33316D00C6
:104430001B5B313B33326D001B5B313B33336D0013
:104440001B5B313B33346D001B5B313B33356D00FF
:104450001B5B313B33366D001B5B313B33376D00EB
:10446000696E666F000000006572726F7200000076
:10447000636C6F636B000000434C4F434B000000C4
:104480004750494F544500005052530050574D007B
:10449000554152540000000055415254450000005F
:1044A0006170705F627574746F6E00006170705F30
:1044B00074696D6572000000736F72746C69737457
:1044C00000000000756172745F6C6F675F6261630A
:1044D0006B656E640000000061707000784500003C
:1044E00000000020640100000C050000DC45000015
:1044F00064010020B4280000E409000048430000E3
:1045000000000000C44400000401002070440000CA
:10451000000000007844000000000000804400001B
:104520000000000088440000000000008C440000EF
:1045300000000000904400000000000098440000CB
:1045400000000000A044000000000000AC44000097
:1045500000000000B844000000000000D844000043
:1045600000000303180100201001002018010020A2
:10457000A0040020180000005154C0014045100262
:104580004001E5200240025A8004890A490E89163A
:104590002902891009200A01481510014011022E34
:1045A00004122049F06908315AFF04011C236844B1
:1045B0001A08041A60041A10041A20041A18041A9B
:1045C00028041A30041A38041A40041A48041A50ED
:0C45D000041A580411040090D0030000ED
:0400000500000201F4
:00000001FF
