:020000040001F9
:1090000020330020C5930100EF930100F19301008C
:10901000F3930100F5930100F793010000000000B5
:10902000000000000000000000000000F9930100B3
:10903000FB93010000000000FD930100FF9301007D
:109040005196010001940100259A0100159A010032
:109050000194010000000000AD95010001940100A1
:1090600001940100019401000194010001940100A8
:109070000194010001940100019401000194010098
:1090800001940100A99601000194010001940100DE
:109090000194010001940100B996010001940100BE
:1090A0000194010001940100000000000000000094
:1090B0000194010001940100000000000000000084
:1090C00000000000000000000000000000000000A0
:1090D0000000000000000000000000000000000090
:1090E0000000000000000000000000000000000080
:1090F0000000000000000000000000000000000070
:10910000000000000000000000000000000000005F
:10911000000000000000000000000000000000004F
:10912000000000000000000000000000000000003F
:10913000000000000000000000000000000000002F
:10914000000000000000000000000000000000001F
:10915000000000000000000000000000000000000F
:1091600000000000000000000000000000000000FF
:1091700000000000000000000000000000000000EF
:1091800000000000000000000000000000000000DF
:1091900000000000000000000000000000000000CF
:1091A00000000000000000000000000000000000BF
:1091B00000000000000000000000000000000000AF
:1091C000000000000000000000000000000000009F
:1091D000000000000000000000000000000000008F
:1091E000000000000000000000000000000000007F
:1091F000000000000000000000000000000000006F
:10920000DFF810D000F094F900480047E1DA0100DF
:10921000AFF300802033002030B450E8012F93B228
:10922000C48923448489A34228BF1B1B0489A34209
:1092300002BFBFF32F8F002007E0C3EA020340E81C
:109240000134002CE9D14FF001000A6030BC7047B6
:1092500050E8012FC2EA024240E801210029F7D17B
:10926000704730B450E8022F1FFAA2F3C488A3421B
:1092700002BFBFF32F8F00200DE0C48923448489EF
:10928000A34228BF1B1BC2EA034340E80234002C60
:10929000E8D14FF001000A6030BC704750E8022F5F
:1092A000C2EA224240E802210029F7D17047034672
:1092B00053E8022FD988B2EB324F4FF0000017BFAE
:1092C00092B241EA014142EA014104E05A68B2EB3C
:1092D000324F08BF012043E80212002AE8D170474C
:1092E00030B4044654E8000F0D4644E80053002B08
:1092F000F8D1156030BC704730B4044654E8000F14
:1093000040EA010544E80053002BF7D1156030BC5A
:10931000704730B4044654E8000F00EA010544E801
:109320000053002BF7D1156030BC704730B40446B1
:1093300054E8000F80EA010544E80053002BF7D100
:10934000156030BC704730B4044654E8000F00EBA1
:10935000010544E80053002BF7D1156030BC70477D
:1093600030B4044654E8000FA0EB010544E8005374
:10937000002BF7D1156030BC704770B404464FF035
:10938000000054E8006F0D68AE4207BF44E80023B8
:10939000012044E800630E60002B1CBF0020F0E7B2
:1093A00070BC704730B4044654E8000F88422CBFAC
:1093B000451A054644E80053002BF5D1156030BC32
:1093C000704700000F4800680F4909680A280AD151
:1093D000002908D10D4802686FF070031A404FF061
:1093E00040031A4302600A4880470A480047FEE7E4
:1093F000FEE7FEE7FEE7FEE7FEE7FEE7FEE7FEE745
:10940000FEE700003001001034010010E40E0040BF
:10941000BD960100019201002DE9F05F0546002094
:1094200092469B4688460646814640241BE02846D5
:1094300041464746224600F06BF853465A46C01A4A
:10944000914110D311461846224600F016F82D1A05
:1094500067EB01084F4622460120002100F00DF87D
:1094600017EB00094E41201EA4F10104DFDC484641
:1094700031462A464346BDE8F09F202A04DB203AC5
:1094800000FA02F1002070479140C2F1200320FA57
:1094900003F319439040704700487047A44B020003
:1094A00040EA01039B0703D009E008C9121F08C066
:1094B000042AFAD203E011F8013B00F8013B521EE6
:1094C000F9D27047D2B201E000F8012B491EFBD25D
:1094D00070470022F6E710B513460A4604461946BF
:1094E000FFF7F0FF204610BD421C10F8011B0029B9
:1094F000FBD1801A704730B504460020034600E0D7
:109500005B1C934203D2E05CCD5C401BF8D030BDC5
:10951000202A04DB203A21FA02F00021704721FAC8
:1095200002F3D040C2F1200291400843194670472F
:10953000064C074D06E0E06840F0010394E80700A0
:1095400098471034AC42F6D3FFF75EFEC4610200C8
:10955000E461020070B58C1810F8015B15F0070388
:1095600001D110F8013B2A1106D110F8012B03E0BC
:1095700010F8016B01F8016B5B1EF9D12B0705D4C4
:109580000023521E0DD401F8013BFAE710F8013B0D
:10959000CB1A921C03E013F8015B01F8015B521E29
:1095A000F9D5A142D8D3002070BD00002DE9F843C1
:1095B0000025DFF894804FF4807601242F46009533
:1095C000304605F083FC38B1D8F80403204203D0BC
:1095D000304605F071FC2543361D64007F1CB6B291
:1095E000082FEDD34FF4BE74204605F06FFC48B150
:1095F000204605F061FC45F000456A460121002047
:1096000005F022FC15F0FF0F16D0012600242E4293
:109610000ED008EB8401D1F81005D1F81015C0F375
:1096200004200A4AC1F3014152F8242002B19047B4
:109630007600641C082CEAD3002D02DA684608F094
:1096400017FCBDE8F88300000060004008220020FD
:1096500070B54FF48076304604F0AEFE114CB5057F
:1096600060B1304604F0AFFE0120C5F80803607910
:1096700020B9012060712168002088474FF482766C
:10968000304604F099FE00280AD0304604F09BFED4
:109690000220C5F808032168BDE870400120084792
:1096A00070BD0000481B002002490248091F0968DC
:1096B00000680847A01B002006F0AEB92DE9F04174
:1096C000C34AC4494FF080551468D5F83001097871
:1096D000D5F83421431CC1F3031106D0844601267A
:1096E0000023BCF1060F03D00AE004F0FF0CF6E7FC
:1096F000B5F82473DFF8E0C2C7F30427CCF8007094
:10970000E7B2062F06D1032904D1DFF8D4C2B34F44
:10971000CCF87470471C08D04FEA000CBCF1060F5F
:1097200006D0BCF10A0F03D00AE004F0FF0CF5E705
:10973000D5F84472DFF8ACC2C7F34237CCF80070FA
:10974000E7B2062F08D1032906D1A74FD7F800C0EA
:109750002CF0807CC7F800C0471C08D04FEA000CF2
:10976000BCF1060F06D0BCF10A0F03D00BE004F0E9
:10977000FF0CF5E74FF08047C7F80C31C7F8103100
:10978000984F3F1F3B60E7B2062F08D1032906D14F
:10979000DFF850C203270CF1640CCCF80070E7B27C
:1097A000062F11D103290FD1DFF840C20527CCF8CD
:1097B00000708E4F78373E608C4F08373B600CF15D
:1097C000040C3F27CCF80070471C08D0844617468D
:1097D000BCF1060F07D0BCF10A0F08D081E004F0FD
:1097E000FF0C0F46F4E7032F7BD0042F79D0804F76
:1097F0003F68DFF800C2CCF800707D4F3F1D3F6826
:109800000CF1040CCCF80070794F08373F680CF16C
:10981000040CCCF80070764F0C373F680CF1040C48
:10982000CCF80070724F10373F680CF1040CCCF884
:1098300000706F4F14373F680CF1040CCCF80070C7
:109840006B4F18373F68DFF8ACC10CF1200CCCF837
:109850000070674F1C373F680CF1040CCCF80070A7
:10986000634F20373F680CF1040CCCF80070604F58
:1098700024373F680CF1040CCCF800705C4F28379B
:109880003F680CF1040CCCF80070594F2C373F683E
:109890000CF1040CCCF80070554F30373F68DFF8FE
:1098A00054C10CF1400CCCF80070514F34373F6874
:1098B0000CF1040CCCF800704D4F38373F680CF1B8
:1098C000040CCCF800704A4F3C373F680CF1040C94
:1098D000CCF80070464F40373F680CF1040CCCF8D0
:1098E0000070471C05D08646434FBEF1060F03D0DB
:1098F00007E004F0FF0EF7E7D5F8585205F04F05E2
:109900003D60451C05D00446062C04D00A2C02D02C
:1099100008E0E4B2F8E739490C68E40702D06FF0D8
:1099200001040C6006280BD11146032A08D0042933
:1099300006D0052904D032490C6844F480640C60D8
:109940000A2804D11AB1386840F00F0038604FF08F
:109950001021D1F800422B4A2B48002C03DBD1F810
:109960000442002C13DA16600468002CFCD0152485
:10997000C1F800420568002DFCD0C1F8044201681E
:109980000029FCD0136001680029FCD019E091F88F
:109990000042E40703D191F80442E40713D01660B3
:1099A0000468002CFCD0C1F800320468002CFCD004
:1099B000C1F8043201680029FCD013600168002955
:1099C000FCD000F035F8124910480860BDE8F0817D
:1099D000E00F00F0E80F00F0403501400DF0ADBAA7
:1099E00000C007403C050040FCED00E01056004080
:1099F0000404001020C50040E40E004000040040B4
:109A00003C17004004E5014000E401400090D00311
:109A1000601C00200149024809F0A2BEB4220020C7
:109A2000003000400148006800470000501B002043
:109A3000BFF34F8F05480168054A01F4E061114307
:109A40000160BFF34F8F00BFFDE700000CED00E0A9
:109A50000400FA0502E008C8121F08C1002AFAD162
:109A600070477047002001E001C1121F002AFBD19E
:109A7000704700000121202803DA81400548014099
:109A800003E0402802DA2038814009B10120704704
:109A900000207047FC06FFBD2DE9F843804643F2E5
:109AA000020659B9694607F0F3FBB04202D008B18B
:109AB00000F0A8F99DF80000800744D4002140463A
:109AC00007F0F0FB05003ED0112D3CD01F48204987
:109AD000401AC708022000EB07440D2D0AD00B2DB9
:109AE0001DD0B5421FD11B4920464246BDE8F84370
:109AF00005F0EEBB20464246174905F0E9FB13216D
:109B0000404676DF00281ED006F038F8024601B045
:109B100020464346BDE8F04310A105F0E0BB2046D7
:109B200042461C49E2E7284606F028F80246012092
:109B300000EB0740434618A105F0D1FB2846BDE8DD
:109B4000F84300F05FB9BDE8F88300002C62020022
:109B5000F4610200C85202005452020073645F6252
:109B60006C655F6761705F646973636F6E6E656378
:109B70007428292072657475726E656420257320BF
:109B80006F6E20636F6E6E5F68616E646C6520251A
:109B9000642E000014530200417373657274696E81
:109BA000672E20706D5F636F6E6E5F736563757295
:109BB0006528292072657475726E6564202573208E
:109BC0006F6E20636F6E6E5F68616E646C652025DA
:109BD000642E000010B560B159B102780B785208BC
:109BE000B2EB530F05D10622401C491CFFF783FC42
:109BF00008B1002010BD012010BD800701D0002059
:109C0000704701207047C3688B4206D81144006931
:109C1000491E814201D8012070470020704790F80A
:109C200024001F20704710B501220221002001F0FE
:109C300017FC08B1072810D107220221012001F0EA
:109C40000FFC08B1072808D100210A22084601F0BC
:109C500007FC08B1072800D1002010BD10B504464C
:109C60002C21FFF736FC012020714FF49670206103
:109C700044F25060606110BD70B58CB015460E4660
:109C800000236C46C3F10F01415CE1545B1C102BB7
:109C9000F8D30D2104F11000FFF71BFC0020C0F1E8
:109CA0000F02315C2244401C11740328F7D368462C
:109CB00046DF0020C0F10F01214491F82010295403
:109CC000401C0328F6D30CB070BD022001F0E8BAA6
:109CD0000149C97800F044BE181B002070B500246B
:109CE000064D06E06868012110F8340005F0CEFF4B
:109CF000641C28788442F5D3002070BD601B0020CE
:109D0000F8B516460C4605460A2A01D20720F8BDCA
:109D100006F0B6F818B906F079F80028F7D1134F15
:109D2000102113487D603C70BE60FFF7D2FB00201D
:109D3000C7E904000F4E0DE005EBC4003168009147
:109D400081788DF8011000780B4A694605F0EEFF26
:109D50000028DCD1641EE4B2EED2BDE8F84005482C
:109D60000021064A001D00F0A7B80000601B00207B
:109D7000102300200048020065CE01005DBD0100F7
:109D800010B572B605F04AFB05F084F90028FBD146
:109D900011481249401AC408012000EB044010A1E8
:109DA00005F092FA11480068C00700D000BE0220FA
:109DB00000EB04400EA105F087FABFF34F8F0B486C
:109DC000E43801680E4A01F4E06111430160BFF319
:109DD0004F8F00BFFDE70000A4620200F4610200A3
:109DE000466174616C206572726F7200F0ED00E084
:109DF00053797374656D207265736574000000009B
:109E00000400FA050EB500210091CDE901106A4663
:109E100044F20100FFF7B4FF0EBD000010B50228A8
:109E20000ED108480849401AC108032000EB014040
:109E3000044606A105F048FA204610A105F044FAB0
:109E4000012010BDA4620200F4610200506F77652A
:109E500072206D616E6167656D656E742077616EED
:109E6000747320746F20726573657420746F20445E
:109E70004655206D6F64652E00000000506F7765B9
:109E800072206D616E6167656D656E7420616C6CCA
:109E90006F77656420746F20726573657420746FCA
:109EA00020444655206D6F64652E0000014801F086
:109EB000D6BF0000801B00203AB100680129426132
:109EC00000D000210161002070470720704700008A
:109ED00038B5114808235822416800910F4900689D
:109EE00004F043F8002815D10D4A69460D4801F0E9
:109EF000BBFF04000ED101210A4802F030F8012313
:109F0000094A1946074801F082FF0649012008392D
:109F10000870204638BD00000848020030230020A9
:109F200051250200801B0020FFFF7F0070B5044612
:109F3000007F0D4608B1002070BDA26102F078FFDD
:109F4000401941F10001C4E90201206900B1256115
:109F50002146BDE87040002009F04ABB01460020C0
:109F60000877012009F044BB30B5EFF3108172B6D9
:109F70000D4A9468012324B10370002900D162B610
:109F800030BD93604FF0E023D3F88051074C25405B
:109F90001560C3F88041D3F8844154605A17C3F860
:109FA000842100220270E8E788230020FC06FFBD20
:109FB0000B498A68002A11D000280FD1EFF31080D6
:109FC00072B60B684FF0E022C2F800314B68C2F85D
:109FD000043100228A60002800D162B67047000078
:109FE000882300202DE9F041064608680C46411CF4
:109FF0004FF0A0474FF0010506D005FA00F1C7F871
:10A000000815206804F0FAFE6068411C02D00021A7
:10A0100004F0E2FE3168A069C1F82405607D227D6C
:10A0200031681043C1F86C05D4E900123068C0F8FB
:10A030001425C0F80C15207D012815D1A068411CFD
:10A0400002D0002104F0C8FEE068411C05D0854024
:10A05000C7F80855E06804F0D1FED4E90212306870
:10A06000C0F80825C0F81015BDE8F0812DE9F041D1
:10A07000064608680C46411C4FF0A0474FF001050A
:10A0800006D005FA00F1C7F80815206804F0C0FEF4
:10A090006068411C02D0002104F0A7FE3168A0696D
:10A0A000C1F82405607D217D32680843C2F86C0543
:10A0B000D4E900123068C0F80C15C0F81425207DD2
:10A0C000012815D1A068411C02D0002104F08DFEAA
:10A0D000E068411C05D08540C7F80855E06804F0E9
:10A0E00097FED4E902123068C0F80825C0F81015B0
:10A0F000BDE8F08103F0C0BB2DE9F047814605883B
:10A100004A484FF000088AB001784246284600F0DD
:10A110003FFC99F80500400701D4002176E005F5E1
:10A120008077B8B205AB0122072106F007FD0400D5
:10A130003F48404A4FF00101A0EB02004FEAD00037
:10A1400001EB00460AD0204605F018FD02463046D5
:10A150002B46394905F0C3F8214629E0284603F08B
:10A1600021F94FF6FF71044688422BD18A460698A2
:10A1700003F082F80446504510D00146284603F00B
:10A18000F1F82846FFF7A4FDE0B9284608F096FC50
:10A190002846FFF79DFD0028BFD013E006F0A4FE7F
:10A1A0000446504508D1304624A105F08DF804211D
:10A1B000284608F0B1FCB0E70146284603F0D2F883
:10A1C0004FF00108B8B22246072106F02FFD070024
:10A1D0001BD0862F1ED005F0D1FC024630462B4600
:10A1E0002349009405F083F83946284608F094FC8A
:10A1F0000021484606F09AFBB8F1000F02D0204635
:10A2000003F0BAF80AB0BDE8F0870121484606F02D
:10A210008DFBF7E7142217496846FFF741F9ADF8BF
:10A220000250684602F0BCF8EFE70000181B00205F
:10A2300034620200F461020010560200436F756C34
:10A2400064206E6F7420616C6C6F63617465206E46
:10A25000657720706565725F696420666F7220693A
:10A260006E636F6D696E6720626F6E642E00000012
:10A270002C570200604702002DE9FC470025178893
:10A280000646158090F82D001446894630B13A46AE
:10A290002146484600F0A2FB051E09D1B0784FF0D8
:10A2A0000C0A18B32088C846001DB84202D950468F
:10A2B000BDE8FC87684679DF0028F9D120880321B2
:10A2C00008F8001020881921401C80B2208008F86E
:10A2D00000102088401C80B2208000EB0801BDF8EF
:10A2E000000009F0CCFD218808442080F07802228B
:10A2F000C8B1218896F9033001F1030C4846BC45EA
:10A30000D5D8425421884FF0010C491C89B22180D4
:10A3100000F801C02188491C89B2218009F8013068
:10A320002088401C20807068B8B1218890F90030E6
:10A3300001F1030C4846BC45B9D8425421880A2291
:10A34000491C89B2218042542188491C89B221804C
:10A3500009F801302088401C2080308950B1CDE9B7
:10A3600000474B460622022106F1080009F076FE5E
:10A37000051E9DD1308A50B1CDE900474B460722DA
:10A38000032106F1100009F069FE051E90D1308B03
:10A3900050B1CDE900474B461522142106F11800B3
:10A3A00009F05CFE051E83D1306A30B13B4622467F
:10A3B000494601F0E6FB051EDBD1706A30B13B4631
:10A3C0002246494603F0ACFC051ED2D196F82C007B
:10A3D00038B13B4622464946304608F0D9FC051EB6
:10A3E000C7D1307838B13B4622464946304603F063
:10A3F00025FD051EBDD128465AE718B504460020A4
:10A40000ADF8000013466A46204600F006F8002822
:10A4100002D0BDF80000204418BD70B5E0B1DAB13B
:10A42000002402E0045D2C44A4B2651C8D4206D2D7
:10A430001688A642F6D8061976789E42F2D18C424A
:10A440000AD2A31C005D9BB200B1401E0004000CA8
:10A4500002D01C188C4201D9002070BD138070BD41
:10A4600080F8301070472DE9F0410D00044606D009
:10A470002CB195F87A000026012803D006E00E20C2
:10A48000BDE8F08195F89800012829D0D5F8A00002
:10A49000042825D0D5F89C00042821D04FF00108CD
:10A4A000A6702C2205F17801201DFEF7F9FF84F833
:10A4B0003060D5F8A4006063D5F8A800A0634FF61B
:10A4C000FF70A4F8E80004F1D400C4F8E400C4F874
:10A4D000EA60A4F8EE6084F8F060207810B104E03F
:10A4E0000720CDE7FF2084F8540004F155072046EB
:10A4F000C4F8D470FFF793FBA4F8D80004F1D80295
:10A5000039462846FFF7B8FE0028B9D104F1930078
:10A51000C4F8DC002046FFF782FBA4F8E00004F159
:10A52000E00205F13C00D4F8DC10FFF7A5FE00289E
:10A53000A6D184F85180208BA4F8480084F83C8090
:10A54000266484F85060606900216064454604F127
:10A550003C02781E72DF002892D1257090E72C22F1
:10A56000001DFEF79DBF10B50288102A1BD0112ACE
:10A5700020D0262A1DD1007A0C46012801D00228BD
:10A5800017D1A0780521401CB0FBF1F201FB1201AC
:10A59000204600F03AF800280BD0A16B002908D023
:10A5A000BDE810400847C27B012A02D18088A1F88B
:10A5B000E80010BD0C46002184F8F2108088B4F841
:10A5C000E8108842F5D120790028F2D10121DFE797
:10A5D00010B5044690F8540074DF012084F8F200AE
:10A5E000002084F8F40084F850000621204602F090
:10A5F00010F9002808D1A178204600F006F810B123
:10A60000A16B01B18847002010BD2DE9F05F044621
:10A6100000780F4698B1A7700025C4F8EA50A4F856
:10A62000EE5084F8F050A079012608B1012F09D02E
:10A63000E07980B1012F05D0022F03D00BE0082074
:10A64000BDE8F09F616B21B184F8F1600820884774
:10A6500001E084F8F15004F1EB0100200A5C0AB13A
:10A66000304603E0401C0628F8D300204FF00208D3
:10A670004FF0030A4FF0040B012F06D0022F0CD02D
:10A68000032F0FD0042F15D110E0A17929B194F830
:10A69000241011B908B130460DE0E17911B108B1CB
:10A6A000404608E0207A08B1504604E0607A08B1DC
:10A6B000584600E02846A070616B41B1032801D0E4
:10A6C000042804D1607910B194F8F20098B184F8AC
:10A6D000F35004F13C0018210746FEF7FAFE84F817
:10A6E0003C6004F12C0006F031FD58B194F82C00C8
:10A6F00084F8510008E084F8F45084F8F3600720EF
:10A700008847E6E784F8516094F8240058B104F1D2
:10A71000280006F01BFD20B194F8280084F85200B0
:10A7200001E084F8526084F85050A27804F1EA0104
:10A7300004F1D409052A4DD2DFE802F065030F1BAE
:10A74000320084F83160C4F8E450C4E9101584F88C
:10A750003C808020A4F848003EE084F8318087F8EF
:10A7600000A0228ABA81C4F8E4507960E168B96037
:10A7700032E06069B860208BB8813D4684F83C6067
:10A78000204609F037FC40B185F8148004212046AA
:10A7900002F03FF8F0B9052115E084F831A017E088
:10A7A000E069B860208CB8813D4684F83C60204662
:10A7B00009F020FC50B185F814800421204602F0F5
:10A7C00028F838B9062184F8311001E084F831B056
:10A7D000C4F8E490A07878B13A4604F15400D4F873
:10A7E000E41072DF00287FF42BAF94F8301094F857
:10A7F000540073DF0028F6D1616B11B194F8310079
:10A80000884700201CE784F83150F5E770B5040054
:10A8100012D001461C221448FEF742FE1248134D86
:10A820000560206850B17ADF002806D120680168F1
:10A8300029604068686005E00E2070BD0B487BDF32
:10A840000028FAD108484FF6FF711438084A20F85A
:10A85000041B0549343901600021FFF72DFB002856
:10A86000EBD0032070BD0000341E0020701A0020C1
:10A870008D3F020010B5044600F0A6F8002805D070
:10A880002146BDE81040024803F0EEBB10BD0000B9
:10A89000601E00200346034880680A46194601F0FE
:10A8A000E5BF0000501E002070B515460E46044658
:10A8B00009F0ACFB002809D0054800EB8400C06912
:10A8C0002A463146BDE8704001F0D0BF70BD00009F
:10A8D000501E002010B5044600F076F8002805D080
:10A8E0002146BDE81040024803F0BEBB10BD000089
:10A8F000681E002010B5044600F066F8002805D058
:10A900002146BDE81040024803F0AEBB10BD000078
:10A91000641E002010B5002400F056F800B1012498
:10A92000204610BD70B50546002400F04DF838B142
:10A930002946044803F098FB08B1022400E00124F2
:10A94000204670BD581E002010B51821034803F0A2
:10A9500066FB182800D0C0B210BD0000501E0020B9
:10A9600070B505460C46084609F050FB60B1284614
:10A9700000F02AF840B10548294600EB8400BDE804
:10A9800070401C3003F070BB002070BD501E0020D2
:10A9900070B5054616460C46084609F037FB0028F8
:10A9A0000ED0284600F010F8002809D0054832469D
:10A9B00000EB84002946BDE870401C3001F024BF44
:10A9C00070BD0000501E0020142801D300207047E5
:10A9D0000146014803F048BB541E00207CB50546E3
:10A9E00008880C460930904201D90C207CBD68468D
:10A9F0006DDF0028FAD121880820685420881B21A7
:10AA0000401C80B2208029542088401C80B22080C5
:10AA10002844DDF801100160BDF805108180208810
:10AA2000801D80B220809DF80010490800D00121CF
:10AA300029542088401C208000207CBD10B503F0E4
:10AA4000CBFC002809D105484FF0030C00DF00289B
:10AA500003D1BDE8104003F02DBD10BDCC21002076
:10AA600018B103490860002070470E2070470000AD
:10AA7000381B002010B54FF0FF3100203DDF0028CB
:10AA80000BD1B1213CDF002807D1044841690120E6
:10AA90008847022004F0D2FD002010BDB021002024
:10AAA000044810B50068416900208847BDE810409F
:10AAB000FFF7E0BF381B002010B588B00446202106
:10AAC0006846FEF706FD0320ADF8000020788DF8FB
:10AAD00002009DF80D00172140F028008DF80D00B0
:10AAE00001208DF810008DF81300ADF804108DF8DA
:10AAF00012008DF80C008DF811006088A21D6946C7
:10AB000000F00AFF08B010BD10B5184C86B01ECC7E
:10AB10008DE81E0048B1164C4FF6FF71A180006809
:10AB200000216061217618B104E00E2006B010BD4E
:10AB3000104860610E48FFF793FF0028F6D101200E
:10AB40008DF812004FF65960ADF81000A21C04A950
:10AB50000120A8DF0028E9D10549684662DF002806
:10AB6000E4D10348FFF7A8FFE0E70000BC4702007C
:10AB7000B02100205DC0010010B5002823D003885B
:10AB80001C4C102B17D02146112B8A8815D0C98850
:10AB9000512B19D0532B16D1C088884213D1207E57
:10ABA000002810D0FFF77CFF00280CD06169BDE8B9
:10ABB000104002200847808804E08088824202D149
:10ABC0004FF6FF70A08010BD83889342FBD110F830
:10ABD000062F022AF7D142888A42F4D1017A042949
:10ABE000F1D00629EFD00529EDD0BDE81040801C3A
:10ABF00005F0C0BCB02100202DE9F0410546007BE6
:10AC0000042601272E4C012811D002282CD0022620
:10AC1000287B314600F08EF818B120684169032086
:10AC20008847206841690220BDE8F0410847206854
:10AC30004FF00008417E49B10621012000F07AF86A
:10AC400000283BD0206841690320EDE70776012109
:10AC5000084600F06FF8002830D02268112882F8EA
:10AC60001880D5D10626D3E76A7B142A22D80AB3E6
:10AC7000DFF8508005F10E0108F10400FEF710FC2A
:10AC8000697BC8F8181021684046497E0029BFD169
:10AC9000A0F10C010A68011F904768B10F28B7D1D5
:10ACA00009480A49401AC00807EB0040084904F067
:10ACB0000BFBADE70526ABE720684776BDE8F081E2
:10ACC000381B0020D8210020A4620200F461020099
:10ACD0006459020070B5154900250A68002A24D07D
:10ACE0004A68002A21D00831904708281DD0104C0E
:10ACF0000028206845760ED00621022000F01AF8C0
:10AD000018B1206841690320884720684169022002
:10AD1000BDE8704008470121022000F00BF8002830
:10AD200003D0206841690320F2E770BDCC210020E8
:10AD3000381B002086B00323ADF8003020238DF8A7
:10AD400014308DF8150000220E48019202928DF801
:10AD50001610C188ADF8041002218DF8061005A95F
:10AD60000491ADF80820CDF80CD0808801A9AEDFA1
:10AD7000002804D1BDF80010032900D00C2006B033
:10AD800070470000B021002030B51F491F4B01253E
:10AD90000322C91AC9088BB002EB014478B101281B
:10ADA00025D0194A1946511AC908012202EB01425D
:10ADB00002281FD0032810461FD015A11EE02046F0
:10ADC0001DA104F081FA6846FEF748FF8DF8005097
:10ADD00069462548FFF7C3FB00212448FFF75AFDC9
:10ADE0000246204622A104F073FA0BB030BD204683
:10ADF00025A103E010462DA100E03BA10BB0BDE86A
:10AE0000304004F061BA0000A4620200F461020064
:10AE1000556E6B6E6F776E206576656E7420667208
:10AE20006F6D20626C655F6466755F627574746FC8
:10AE30006E6C6573732E00004465766963652069E6
:10AE40007320707265706172696E6720746F20651F
:10AE50006E74657220626F6F746C6F6164657220CE
:10AE60006D6F64652E000000941C0020A5BD0100DC
:10AE7000446973636F6E6E65637465642025642036
:10AE80006C696E6B732E000044657669636520778C
:10AE9000696C6C20656E74657220626F6F746C6F84
:10AEA00061646572206D6F64652E00005265717576
:10AEB00065737420746F20656E74657220626F6FA5
:10AEC000746C6F61646572206D6F64652066616982
:10AED0006C6564206173796E6368726F6E656F75FF
:10AEE000736C792E000000005265717565737420D3
:10AEF000746F2073656E64206120726573706F6E6D
:10AF0000736520746F20636C69656E742066616977
:10AF10006C65642E0000000038B5044600882128C6
:10AF20001CD013DC102822D1072000F0BBFA08B196
:10AF3000FEF768FF1048A1880180104803F0C4F9AB
:10AF4000002814D0BDE83840FEF75CBF3B280FD086
:10AF500056280CD1A088132176DFF1E7002000905D
:10AF6000A08869468FDF002801D0FEF74BFF38BD6F
:10AF7000A088132176DFE3E7501A0020881C002008
:10AF800010B51A4C0188606810290ED011292BD1F8
:10AF9000401E606028D1FEF746FE002824D02168BC
:10AFA000002921D0BDE810400847D0B90021012276
:10AFB000084600F055FA08B107280FD107220221F0
:10AFC000012000F04DFA08B1072807D10422022120
:10AFD000002000F045FA20B1072802D0216801B115
:10AFE00088476068401C606010BD0000681A00203F
:10AFF0002DE9F04701883B4E40F2F3194FF6FF75FB
:10B0000010291BD011293ED0122954D0502946D1E5
:10B01000C188F289841D914241D1618902293ED1C2
:10B020008688304602F06CFA050038D004F10C0036
:10B0300000F0F8F8A8B3294630464EE0C17B878877
:10B04000044601292BD1A846284602F059FA0500EA
:10B0500017D02F8000202872234843464A460168B3
:10B06000C5F80A104068C5F80E0004F1100105F19A
:10B070000A0002F009FB6872F08900280FD1294606
:10B080002AE0042013E0808802F03AFA040006D097
:10B090006068FEF763FF08B107F022FD2580BDE878
:10B0A000F087FFE76868FEF759FF0028F7D0BDE892
:10B0B000F04707F015BD87880646384602F020FAAB
:10B0C0000400ECD02B464A4606F1080104F10A00C0
:10B0D00002F0DAFA607221463846BDE8F04700F027
:10B0E00097BD0000341E0020701A00202DE9F047A3
:10B0F00002888688DFF8F8A098B0102A0DD0112AAF
:10B1000046D00AF11003192A61D01A2A6CD1007AAC
:10B110000409042C43D3012242E0354C083CA068CA
:10B12000C0430B9061680BA802F0C2FF0B990CA8FA
:10B1300000F008FD2C220CA96846FEF7B1F90027A3
:10B14000E8460FE008EB47005FF00005B0F8049018
:10B1500004EB85004946001D02F046FF6D1C1E2DC4
:10B16000F6D37F1C0098B842ECD8142E05D318B043
:10B170000420BDE8F047FEF745BE3146504602F0D8
:10B180007EFF18B03146201DBDE8F04702F077BFC2
:10B1900018B031465046BDE8F04702F025BF002206
:10B1A0003146184601F030FB032C01D3012200E0A8
:10B1B00000220F4831460C3001F026FB022C01D34F
:10B1C000012200E000220A483146083007E0017AF7
:10B1D000002909D1407A3146C0F3C002184618B0A0
:10B1E000BDE8F04701F010BB18B0BDE8F0870000E3
:10B1F000581E002010B504460748007800280AD0E1
:10B20000204601F0ABFF204607F05CFE2046BDE87B
:10B21000104001F049BC10BDA81A00200078C0F30E
:10B2200040007047007800F0010070470649095C53
:10B230004FF0A040D0F81005C84010F0010000D039
:10B24000012080F001007047004602002DE9FC411A
:10B250000646C0074FF000050ED0104F0024012213
:10B26000385D009500231146019503F049FD641CEB
:10B27000042CF4D300F046F8B0070DD5074E002497
:10B28000361D0022305D032300951146019503F021
:10B2900037FD641C042CF4D3BDE8FC81FC4502009E
:10B2A00007490B5C4FF0A041D1F8042501209840DC
:10B2B00020EA0203C1F808351040C1F80C057047B8
:10B2C000FC4502000249085C012103F0E9BD0000D1
:10B2D000FC4502000249085C002103F0E1BD0000CA
:10B2E000FC4502000649095C4FF0A040D0F8040577
:10B2F000C84010F0010000D0012080F0010070472C
:10B30000FC45020010B500242046FFF7DBFF641C5B
:10B31000042CF9D310BD10B500242046FFF7DAFF46
:10B32000641C042CF9D310BD10B50246064B4FF037
:10B33000FF3000215C5C944201D1084610BD491CDD
:10B340000429F7D310BD00000046020070B50C4E72
:10B350000C004FF0000530600BD0012000F05AF8CF
:10B3600008B1022004E0002000F054F800B10B20E6
:10B370002070706810B9FEF756FC0546284670BD6F
:10B38000681A00202DE9F0470D468146FFF7CCFFF3
:10B390000446042836D2DFF874801B481C4EA8F1FE
:10B3A0000C0725B3012D0ED0022D2BD104EB440048
:10B3B00030444578002D25D0B968002922D0284690
:10B3C000BDE8F047084704EB4401755C0E44717812
:10B3D00049B10E4A4FF48041093A8068FEF7A6FD54
:10B3E00008B987F80390B17808F80410E2E780689C
:10B3F000FEF7B4FD04EB4401314418F804008D78E5
:10B40000A842D7D0BDE8F08704460200641A0020A5
:10B41000D01D0020042801D2FFF708BF002070478C
:10B4200001460D4810B50088042910D0072911D114
:10B43000A0F57F41FF390DD10848FFF7C9F808286A
:10B4400008D0002806D0BDE81040FEF7DBBC132171
:10B4500076DFF4E710BD0000501A0020941C002095
:10B4600070B50023042810D20D4D00EB4004012AD2
:10B4700002D101290CD00022094E00EB40003044DB
:10B4800061B1012906D0022906D00723184670BDF4
:10B490000E30C2B22A55F9E74270F7E78270F5E73D
:10B4A000D01D0020044A014600201279D20702D0A4
:10B4B000084600F04DB87047581A002070B506468F
:10B4C0001E480024C0E90161B00720D500250122F3
:10B4D00011462846FFF7C4FF6D1C0446042D02D216
:10B4E000002CF4D013E094B940F233320421144814
:10B4F000FEF706FC04000AD1FEF7F0FB040006D1BB
:10B500000F48104A0021001FFEF7D6FC0446F00742
:10B5100012D00120FFF79AFE74B909480A4A0021A7
:10B520000C38FEF7C9FC040006D10548074A012182
:10B530000838FEF7C1FC0446204670BD581A0020AA
:10B54000104602001DB801001DD70100CB9C010070
:10B550002DE9F05F6E4C054600266078B34618B1C1
:10B5600084F801B002F0C2F86A4F4FF47A694FF4E0
:10B57000C87A4FF00108182D69D2DFE805F00C13E6
:10B5800013384754696E727B727BC58484848484CB
:10B59000B3B6B9BCC5C502F0A9F83868FEF7DEFC41
:10B5A00006465CE00020FFF79DFE00284FF00000FB
:10B5B00008D0FFF787FE022D02D14FF4E16008E0CA
:10B5C000484606E0FFF786FE022D01D1C82000E0C4
:10B5D0005046410CC0034FF47A72801841F10001CB
:10B5E000257052000023FDF717FF01462AE00020D6
:10B5F000FFF778FE00284FF0000004D0FFF762FE4E
:10B600004FF44870E5E7FFF765FEDFE70020FFF73E
:10B6100069FE00284FF0000002D0FFF753FECFE78D
:10B62000FFF758FED4E70020FFF75CFE00284FF03C
:10B63000000002D0FFF746FE01E0FFF74BFE257049
:10B6400040F6CD4100223868FEF770FC064646E021
:10B650000020FFF725FE257008E0002051E025704E
:10B660003DE084F801800120FFF71AFE002240F23D
:10B670006661E8E784F801800120FFF711FE0022EF
:10B680004FF40051DFE77868FEF768FC0646D5F115
:10B69000110000D02EB10220FFF714FE84F802B092
:10B6A0001DE0012816D980B2C8214843C117C9033B
:10B6B00041EA5041C0034FF47A72801841F1000111
:10B6C00052000023FDF7A8FE014600227868FEF72D
:10B6D0002DFC06460220FFF7FDFD84F8028030466F
:10B6E000BDE8F09F02F002F8B9E701F0FFFFB4E710
:10B6F00001F0FCFF04E001F0F9FF0020FFF7EAFD94
:10B700000120FFF7E7FDAAE7FFF705FEA7E7000026
:10B71000581A0020044602002DE9F84F0546861C01
:10B7200000208DF8000091460F464FF0010A684650
:10B73000FEF71AFC1B4C04F21C4860683860D4E920
:10B740000101194F401A3968081A0EE001214046DC
:10B7500002F0A8FC02F072F90146404602F0A2FC99
:10B76000D4E90101401A3968081A401C8642EDD814
:10B77000B9F1000F03D0052065F3891002E006201F
:10B7800065F39F5061683A68114004EB8101C8601D
:10B790006068304460609DF80000FEF709FC504688
:10B7A000BDE8F88FFC260020081C002070B50D466F
:10B7B00004460A2902D10D21FFF7F8FFA06822688C
:10B7C000411CA1601554D4E90101814204D32046F3
:10B7D000BDE8704002F059BF70BD000004488168A8
:10B7E0004068814201D1012070470020704700006D
:10B7F000FC260020034630B5074800210478426843
:10B8000006E000BF02EBC10005789D4203D0491C51
:10B81000A142F7DB002030BD601B00200078022130
:10B82000FFF7B0BD032805D10349A9200860002017
:10B8300003F004BF70470000200500401CB504461B
:10B8400001F0B0FD00236A46092105F0B9FA052888
:10B8500005D10348012241792046FFF799F81CBD24
:10B86000781A00201CB504460020009042F6A6205D
:10B87000ADF8000001208DF80200084801AA6946D1
:10B88000006801902046A0DF002805D1044801226D
:10B8900081792046FFF77CF81CBD0000304602008D
:10B8A000781A002005494FF0FF32082841F820207F
:10B8B00002D3084480F84820704700000822002086
:10B8C000F0B54FF0FF3512B10023082601E0082340
:10B8D0000C260C4C05E000BF54F823707F1C04D0EC
:10B8E0005B1CB342F8D32846F0BD26185DB286F83B
:10B8F000305044F82310002AF5D1E11881F84800AF
:10B90000F1E70000082200200249084490F93000C5
:10B9100070470000082200202DE9F0438146887816
:10B9200091B090460C4600B901208DF83E00208869
:10B93000ADF83C0000250095607C694607F06CFA84
:10B940006E46A07C711C07F067FAE07B00289DF82A
:10B95000020002D040F0080001E020F008008DF85D
:10B960000200217C11B140F0100001E020F0100035
:10B970008DF80200217B11B140F0010001E020F0C0
:10B9800001008DF80200217D09B1022100E00121B2
:10B9900061F342008DF802001C2102A8FDF799FD19
:10B9A000607BC10601D4800617D50E950EAFE07CF2
:10B9B000791C07F031FA9DF83800079720F00F0046
:10B9C000401C20F0F00010308DF838009DF83A004F
:10B9D00020F00600801C8DF83A00607B8DF808008E
:10B9E000A07B8DF80900142109A8FDF772FD0FA8AE
:10B9F000CDE90906A088ADF83000A06820B1E08844
:10BA0000ADF82C00A0680D90A06998B3019500884E
:10BA1000ADF81000A06901AD01A94088ADF8120091
:10BA2000A069406806950390A069007B07F0F4F9CF
:10BA3000A069691C407B07F0EFF9A069807A0028B3
:10BA40009DF8060002D040F0080001E020F0080058
:10BA50008DF80600A169C97A11B140F0100001E02B
:10BA600020F010008DF80600A169097A19B140F0A4
:10BA7000010002E00DE020F001008DF80600A16950
:10BA8000897B09B1022100E0012161F342008DF8B8
:10BA90000600E06900B10590434609AA02A948469C
:10BAA000AADF11B0BDE8F08370B504464FF6FF750C
:10BAB0000A462846AC4209D14FF48074214610460C
:10BAC00002F0ADFA80B2A0420BD070BDFF2CFCD8C2
:10BAD0002146104602F093FA90F0010F01D0204663
:10BAE00070BD284670BD000070B5084C050009D037
:10BAF00010342168002907D008682060496828466A
:10BB00008847F6E70834F4E770BD0000F421002010
:10BB1000054A012120B1012805D19170FFF7E4BF4A
:10BB200051700020FAE77047F421002010B5D0E9E9
:10BB30000234D1E90220D11AA04101D3012010BD65
:10BB4000002010BD73B58CB00646002000900D9803
:10BB500080B100246D4621460DA802F085FA30B16F
:10BB6000009805EB400084800098401C0090641C05
:10BB7000142CF0D32C2269463046FDF791FC0EB010
:10BB800070BD2DE9F04117880646B81D14460D46D4
:10BB9000984202D90C20BDE8F0813188072206299D
:10BBA0000AD34FF4486C4FF6FF73614501D99942AF
:10BBB00002D17088062801D21046ECE7604501D911
:10BBC0009842F9D1994203D0984201D08142F3D8EA
:10BBD0000520E85520881221401C80B2208029547D
:10BBE0002088401C80B220804119308808F047F935
:10BBF0002188084480B220804119708808F03FF9FC
:10BC00002188084420800020C5E7FEF7FBB800002B
:10BC100038B54A7A0F4B62B100220A72596900297D
:10BC200006D001228DF80020ADF802006846884752
:10BC300038BD0A7A62B19B684C68024619462046B4
:10BC4000FEF774F90028F3D0BDE8384006F048BF8D
:10BC50005B68F1E7341E0020F0B585B016460F464C
:10BC600004461D4614220B496846FDF719FC0A4894
:10BC70008DF80870ADF80240ADF80A608DF80C50F0
:10BC8000017800222046FEF783FE684600F088FB1C
:10BC900005B0F0BD74470200181B0020FDF7FCBE84
:10BCA00070B504460948012102F017FABFF35F8F0F
:10BCB0000025002808D1204601F03AFE002803D1D3
:10BCC000BFF35F8F0148056070BD0000841A00203B
:10BCD0002DE9FF410C4620B14FF4064004B0BDE809
:10BCE000F0812079002748F2096538B141F61D56E8
:10BCF00001281BD0022826D0681DEFE70220207102
:10BD000002970397E0680190694601A806F036FBA8
:10BD100050B102988188E18000882081BDF8001030
:10BD2000029806F0A9FBD9E72846D7E70A4B6A46EE
:10BD30000021A01D06F0DAFA38B1074918398F61E1
:10BD4000CF61A842CAD13046C8E70348818801982C
:10BD500006F092FBF5E70000C01B002070B5002440
:10BD60000F4D10E0686800EBC406307804F044F82A
:10BD70007178012901D0012100E000214140307893
:10BD800000F062FA641C28788442EBDBD5E90401F8
:10BD9000084303D0BDE8704007F046BC70BD00000A
:10BDA000601B002030B40446132176DF03000BD063
:10BDB000064807492246401AC008022101EB00400C
:10BDC00030BC044903F08BBA30BC7047A462020057
:10BDD000F4610200A84B020010B50021024802F0F5
:10BDE0007CF980F3100010BD182B00204FF4803236
:10BDF0008A400168C1F848230068C0F808237047EA
:10BE00004FF4A07202EB810189B200F08DBA2DE9E6
:10BE1000F04105460E464FF4A07000EB860081B25B
:10BE200028684FF48034B440984622F07F47C0F829
:10BE300008432868C0F84843286803F037FC28689E
:10BE400000EB8600C0F840752868C0F84443B8F19C
:10BE5000000F02D02868C0F80443BDE8F0810068F4
:10BE6000D0F804057047000070B54379234C44F8BE
:10BE700023204279231D03EBC202224C1579204A6C
:10BE8000121BD4082DB10825022000EB04401EA18E
:10BE900030E005680A88C5F8082590F904208978FB
:10BEA000002A4FEA411104DB02F1E02282F800147B
:10BEB00005E002F00F0202F1E02282F8141D90F971
:10BEC00004100122002909DB01F01F0502FA05F523
:10BED0004909890001F1E021C1F8005141790025AB
:10BEE00003EBC1010A71417943F83100032000EBF3
:10BEF00004400EA103F0E8F9284670BD9C1B002009
:10BF000084620200F461020052544320696E73742B
:10BF1000616E636520616C726561647920696E6928
:10BF20007469616C697A65642E0000005254433A6A
:10BF300020696E697469616C697A65642E0000001D
:10BF400090F90400002809DB00F01F020121914054
:10BF50004009800000F1E020C0F8001270470A4656
:10BF6000022100F067B94FF4827100F0DDB900687A
:10BF700001210160704700680121416070472DE98F
:10BF8000F05F07460C464FF4A07000EB84001FFAE8
:10BF900080FA38684FF48036A6409B4622F07F45F1
:10BFA000C0F848633868C0F808633868D0F804857A
:10BFB00000EB8402D2F84095C2F8408551463868BB
:10BFC00003F074FBA9EB080020F07F40012806D1A4
:10BFD000102003F053FE5146386803F067FB3868C1
:10BFE000D0F80485C0F84463A5EB080121F07F4137
:10BFF0003868012900EB840010D0C0F8405538683B
:10C00000D0F804156FF07F4C6A1A521E22F07F425E
:10C01000ACEB0B03934217D362B118E06D1CC0F870
:10C020004055102003F02AFE3868D0F8040540453A
:10C030000AD10CE000EB84006D1CC0F84055386854
:10C04000D0F80405884202D00D20BDE8F09F0122FF
:10C050003146384600F0EEF80020F6E77047134608
:10C060000A460021FFF7F8BD2DE9F843104D0F46B1
:10C0700080461E4691466946286801F089FF040003
:10C0800014D01C21FDF725FA01202071C4F814906A
:10C09000380BC4F80080C4E902606946286801F0E2
:10C0A00098FF06F08DF80020BDE8F8830420FBE738
:10C0B000B048020010B503780022072B06D2DFE853
:10C0C00003F005040610202930000A7010BD01237A
:10C0D0000B7003898B818388CB81C06888600A7468
:10C0E00010BD02220A7002898A818288CA81C268D0
:10C0F0008A60807D062802D00020087410BD0120CF
:10C10000FBE703220A70C2888A810289CA81C0685B
:10C11000886010BD04230B70C0888881CA818A6042
:10C1200010BD0520087010BD70B5064D06460024F0
:10C1300055F8241009B130468847641C042CF7D305
:10C1400070BD0000B023002030B50446006887B001
:10C150000D46806800281FD018216846FDF7B9F900
:10C160000195A0680590207910B1012810D107E051
:10C1700001208DF8000020690290E068039005E03E
:10C1800002208DF80000E0680003029060690490CE
:10C19000206881686846884707B030BDF0B585B033
:10C1A00017460C0005463AD0112C38D0082C36D052
:10C1B0001C481D49401AC6080D2C11D0204603F01A
:10C1C000DDFC0246012000EB06402B46174903F038
:10C1D00086F82A460721684601F08EFE02941BE08D
:10C1E000022000EB06402A46114903F071F82A4666
:10C1F0000321684601F080FE27B13878C00701D0DE
:10C20000012000E002208DF8080000208DF80C00CD
:10C2100041F20110ADF80A00684600F0CFF805B011
:10C22000F0BD00003C620200F4610200F858020018
:10C23000E85702000368C3F84413002A02D00068DC
:10C24000C0F80413704700002DE9F84F0E4634493A
:10C25000804601EB5001C007097801D00F0901E0C9
:10C2600001F00F074FF00009424601204946FDF753
:10C2700004F9DFF8B0A004460D46052F4ED2DFE8E2
:10C2800007F003161B282C00002E47D00121404642
:10C2900007F0AEF88DF800906846FDF765FE504651
:10C2A000D0E904120C431543CAE9044532E00EB14B
:10C2B000022114E0002112E04EB10321404607F0B4
:10C2C00097F84046BDE8F84F012107F0B7BE0121BD
:10C2D00005E0002E22D1042101E02EB103214046C9
:10C2E000BDE8F84F07F084B80021404607F080F819
:10C2F0000021404607F0A2FE8DF800906846FDF749
:10C3000033FE5046E243D0E904341A4024EA0501E2
:10C31000CAE904219DF80000FDF74AFEBDE8F88F48
:10C3200010230020601B002010B5006842581AB18D
:10C3300003F0BCF9012010BD002010BD10B504466B
:10C34000408801F02FF8A080024801682046BDE82F
:10C3500010400847801A002010B50446808800F07D
:10C360006BFF6080024801682046BDE81040084726
:10C37000901A00202DE9F04107460024064E074D93
:10C3800005E000BF56F8241038468847641CE8785A
:10C390008442F7DBBDE8F08164210020A81A002068
:10C3A00010B50446408800F0FDFFA08002480168F7
:10C3B0002046BDE81040084734470200014909689B
:10C3C00008470000B047020070B586B0044614214B
:10C3D0006846FDF77EF8A0890125A0F54040ADF83C
:10C3E000040020782F4E062833D2DFE800F0320315
:10C3F00003032C4AA08900F0EBF930B9E08943F639
:10C40000FE71A0F54040884223D8A07B8DF808003B
:10C41000207803280FD000208DF80900A068039031
:10C42000606850B109208DF800006068049068468B
:10C4300004F018FC0DE00120EEE708208DF8000064
:10C440008DF81050F3E7A08900F0C2F908B1E08937
:10C4500030B17078002801D004F058FD06B070BDEE
:10C46000606830B10B208DF8000060680290757034
:10C47000DDE70A208DF80000BDF8040004F0EAFDB5
:10C48000F5E7606848B114208DF8000060680290FC
:10C490004FF6FF70ADF80400C9E713208DF80000D7
:10C4A000F6E70000941A002038B504460F480078DB
:10C4B000B0B1A4F57F40FF380FD0684605F0B0FD5D
:10C4C00088B10521017001210171C480684605F021
:10C4D000B5FD05F067FE002038BD48F2036038BDA9
:10C4E00048F2016038BD48F2076038BDC81B002023
:10C4F0000D4808B5007888B1684605F091FD80B117
:10C5000006210170684605F099FD0848017809B1D7
:10C510000121017305F046FE002008BD48F20160CC
:10C5200008BD48F2076008BDC81B00207424002025
:10C53000F0B587B014216846FCF7CBFF304C20786B
:10C5400018B16846FFF7F0FD57E0201D01F0A7FD88
:10C5500098BB40F6F8700168481C02D14FF01020DB
:10C5600041694FF0805000694A1C02D100EB400045
:10C570000101244800220161A1F54051C160224916
:10C5800002F018FA002823D121481C238C221F49CD
:10C59000006801F0EAFC04F0F1F8050016D0022D65
:10C5A00014D000270126062D14D005A805F038FD6B
:10C5B00098B106700C2D1BD200E01EE0DFE805F0FC
:10C5C00018101810181718171812141248F20A60C9
:10C5D00007B0F0BD26706760B3E748F20760F7E781
:10C5E000077105E0032100E00221017100E00671FE
:10C5F00005A805F023FD05F0D5FD0020E8E70000C3
:10C60000C81B0020641C0020C0480200C02300207A
:10C610002848020038B5040014D0694605F0AEFE83
:10C62000B0B1BDF8000000EB80010B4800EB8100C9
:10C63000C16851B1A17A41B1C168491EC1600020F1
:10C64000A07238BD48F2046038BD48F2056038BDBC
:10C6500048F2096038BD00004C2400201FB501A934
:10C66000684605F043FE04B010BD07B513460A4600
:10C670006946002005F03AFE0EBD07B513460A468E
:10C680000021684605F032FE0EBD20B119B10068E8
:10C6900008600020704748F204607047F8B50D4606
:10C6A000040018D0BDB1694605F068FEB0B1BDF810
:10C6B00000000C4900EB800001EB800001210C30F0
:10C6C000666801F0EFFC2E6060680C306860012045
:10C6D000A0720020F8BD48F20460F8BD48F209607D
:10C6E000F8BD00004C24002018B10323002207F0FD
:10C6F00043BE48F2046070470223002207F03CBEAC
:10C70000094910B50A69042A0AD0084A096942F899
:10C71000210005480121103001F0C4FC002010BDAB
:10C7200048F20B6010BD0000A81B0020B0230020C1
:10C730002DE9F84F044624480078D8B1F4B112210D
:10C740002046FCF7C6FE0320DFF8809020800025FD
:10C7500004F1100804F10E0A05EB850109EB8106CE
:10C7600030897189084487B2706803F091FF03280B
:10C7700007D009E048F20160BDE8F88F48F2046094
:10C78000FAE72088401E20806088F16808446080B5
:10C790002089718908442081608938446081C7F507
:10C7A0008060A18980B2814200D2A0815346A21D3F
:10C7B000211D2846CDF8008005F07CFE6D1CADB231
:10C7C000022DC9D30020D7E7C81B00204C2400202D
:10C7D00043F6FE71A0F54040884201D80120704721
:10C7E0000020704710B504460078182802D1FEF7E3
:10C7F000ABF8207010BD10B504460078182802D19F
:10C80000FEF7A2F8207010BD0AB101F038BC01F0AB
:10C81000EBBB70B50D460446B0F8D810D0F8D40084
:10C820000122FDF7EAFD00B1057004F13C0204F1BC
:10C83000D40104F1540072DF70BD000070B51346DE
:10C8400000220546112900D10122074C33B121797C
:10C85000FEF79EF800226178284600E06178BDE886
:10C860007040FEF795B80000201B0020F7B5174672
:10C870000E0011D00098002560B1002421466846C2
:10C8800001F0F2FB18B1A0B23946B0476D1C641C30
:10C89000142CF3D32846FEBD0020FEBD406805F0F1
:10C8A000DFBB000070B510B14FF4064070BD1C4CEA
:10C8B0000025207B08B1257301E000F0A5F8207861
:10C8C00008282AD2DFE800F02904080C10291422D5
:10C8D000BDE8704000F026B8BDE8704000F082B8B6
:10C8E000BDE8704000F064B8BDE8704000F040B8AA
:10C8F0000620207060880A4900EB8000283901EB8F
:10C9000080004068BDE8704003F018BF0720207029
:10C910006560BDE8704003F01FBF48F20E6070BD57
:10C92000742400201149F0B48A1C00200346A1F1B0
:10C9300028050C18A67A4EB1A37200EB800405EB13
:10C940008404E66816B9247C012C0AD0401C80B20D
:10C950000228EED30B704B804B60F0BC41F61D50AB
:10C9600070471080F0BC00F03DB800007424002037
:10C970000C48418801EB8102A0F1280101EB820102
:10C98000CA6852B1052101700748022181800168FF
:10C9900000230122054801F071BF0422027049689A
:10C9A000F6E7000074240020D01B0020641C002047
:10C9B00038B50A49084803240B684268898803EBA4
:10C9C000810153880470DB1C00201B0400909B0B2A
:10C9D000034802F0A7F838BD74240020D01B0020C3
:10C9E000641C0020074910B54888091D05F016FD94
:10C9F00018B1BDE81040FFF7DBBFBDE81040FFF7FE
:10CA0000B7BF00007424002070B5194C01212078B4
:10CA100008281AD2DFE800F00419191C2529291862
:10CA20002089134A401C2081002060802073283A0E
:10CA300000EB800312F8233043B100232518401C7B
:10CA400080B2AB720228F3D3217070BD0123F5E7E9
:10CA50006068084940888A88C01C10448880022089
:10CA600004E000F009F8062000E00720207070BD07
:10CA700074240020D01B00200A4909484988026814
:10CA800001EB81030749283901EB83014B680360FF
:10CA90004A6082880A8102228280002008747047DE
:10CAA000D01B0020742400202DE9F0430646808826
:10CAB0003288DFF85C8185B00746502A37D010DC19
:10CAC0005449554B06F10A05A1EB03014FEAD10188
:10CAD0004FF0020303EB0144352A3AD0362A07D13E
:10CAE00068E0522A02D0542AF9D102E000F0C4FED4
:10CAF00082E0142249496846FCF7D2FCADF8027086
:10CB0000384600F04FFCADF8040000F0C9F90022EF
:10CB1000444698F804103846FDF73AFF0022E178C1
:10CB20003846FDF735FF6846FFF708FC64E0307BC8
:10CB3000012861D1B07A01285ED13089A0F5245155
:10CB4000023959D10121384600F0EAFE07F006FA11
:10CB500052E098F80610FDF703FF00284CD00022A1
:10CB600098F806103846FDF713FFF288B2F5857F76
:10CB700017D012B120462AA10BE02A88012A03D03F
:10CB8000204636A102F0A4FB6A88012A04D0204680
:10CB900041A102F09DFB04E0A98800223846A1DFF4
:10CBA00008B1002125E0012298F807103846FDF76A
:10CBB000EFFE21E04FF0000998F80710FDF7D0FED6
:10CBC000D0B1002298F807103846FDF7E1FEF28850
:10CBD00012B1204612A104E0AA88012A04D02046FE
:10CBE0002DA102F075FB03E0A87900B10120814678
:10CBF0004946384606F05EFC0022364998F80200A5
:10CC0000FDF752FE05B0BDE8F04305F0B9BF0000E6
:10CC1000781A0020F4610200F461020088460200E4
:10CC2000556E65787065637465642047415454207F
:10CC3000737461747573207768696C6520676574B7
:10CC400074696E6720434152206368617220766187
:10CC50006C75653A20307825780000004D756C744D
:10CC600069706C652028256429204341522063683F
:10CC70006172616374657269737469637320666F4E
:10CC8000756E642C207573696E6720746865206604
:10CC9000697273742E000000556E65787065637458
:10CCA00065642043415220636861726163746572F8
:10CCB00069737469632076616C7565206C656E6755
:10CCC000746820282564292C2073746F72652030C5
:10CCD0002E000000F5A0010070B504460078002881
:10CCE00014D1608800F0C8FD6588284600F09AF9E4
:10CCF00028B107480122C1782846FDF749FE60881F
:10CD0000FEF79CFDBDE8704007F028B970BD00003B
:10CD1000781A002070B5204C00252570FDF714FE10
:10CD20006070FDF711FEA070FDF70EFEE070FDF7DC
:10CD30000BFE2071FDF708FE6071FDF705FEA07186
:10CD4000FDF702FEE07162780121182A18D0A2785E
:10CD5000182A15D0E278182A12D02279182A0FD072
:10CD60006279182A0CD0A279182A09D0182807D07D
:10CD700004F10C000560BFF35F8F2170002070BDCF
:10CD80000648074A801AC00801EB0040054902F036
:10CD90009BFA032070BD0000781A0020F4610200A5
:10CDA000F4610200EC4B02007CB5044600780828D0
:10CDB00037D1607A58BB207A1C4E4FF6FF75012898
:10CDC00011D0072802D008282BD121E0A08800F03C
:10CDD00033FA0446A84224D0012100F0A1FD2046E8
:10CDE000FEF72CFD1DE0A0886A46012103F05CFEE1
:10CDF00068B90198007850B1A08800F01DFAA842E7
:10CE00000FD00122F178FDF7C3FD05F0B9FE08E06F
:10CE1000F068012805D1BFF35F8F044900200C3171
:10CE20000860BDE87C4007F099B80000781A00203F
:10CE300010B50B48FFF713F8094A083AD2E9043451
:10CE4000C018D2E9063244F10001C31A71EB0202A4
:10CE500004D24FF08072801841F1000110BD000033
:10CE6000801B002010B5C0B2FEF7C4FC0446007859
:10CE700002F0C2FF01466078012801D0012000E0E5
:10CE8000002090EA010F08D00449D1E904010843C9
:10CE900003D1BDE8104006F0C7BB10BD601B0020E9
:10CEA0001CB5054AD2E90212CDE9001200226946FA
:10CEB00003F0C0FF1CBD0000A046020003484FF66F
:10CEC000FF7181800121017000207047881A0020C5
:10CED0002DE9FC41804600F065FA00240325012776
:10CEE000A0F57F412646FF3908D06A46082103F0A5
:10CEF000DBFD18B90198841D8688056832462B46EB
:10CF000021464046B1DF042804D0082804D00B286D
:10CF100008D002E0112000E00020002F00D10B20FB
:10CF2000BDE8FC810027A80701D50125E6E73443C9
:10CF300003D0002426460325E0E70648064942467A
:10CF4000401AC008012101EB0040044902F0C0F979
:10CF5000E5E70000FC610200F4610200B44E02004B
:10CF60002DE9FC41804600F01DFAA0F57F41064600
:10CF7000FF390ED001252A466D1C0027ADB26B4645
:10CF80000821304603F0DAFD040006D0072C33D028
:10CF900033E043F20200BDE8FC81019903230A1D3E
:10CFA0000B604046891DB2DF040004D00C2C09D070
:10CFB000052C09D009E032460821104603F036FE60
:10CFC00004461AE0012700E000240821304603F05F
:10CFD00023FE70B102F0D2FD0346094809493246EA
:10CFE000401AC008012101EB0040074902F077F91F
:10CFF0000324002FBFD100E00C242046CBE7000023
:10D00000FC610200F4610200344E02000448808892
:10D01000A0F57F41FF3901D005F0BCBD704700008D
:10D02000881A00200EB502A9019100F0BBF96A46EA
:10D03000012103F039FD08B100200EBD01980078F0
:10D040000EBD00002DE9F04107464FF6FF7610486F
:10D05000B3DF78B102F092FD02460E480E49401A45
:10D06000C008012101EB00400C4902F031F9032016
:10D07000BDE8F081064C43F20305A41E32466188E8
:10D080003846AFDFA842F3D16088401C6080F5E7E6
:10D090008A1A0020FC610200F4610200E84D0200DF
:10D0A000428800EB82020C328A4201D9022070478A
:10D0B0008188A1F57F42FF3A06D0018821B18068BE
:10D0C000401C01D00020704701207047884204D2E4
:10D0D0000068401C01D001207047002070473EB519
:10D0E000027802230C46B3EB520F17D1B0F80110AF
:10D0F000ADF80010C1788DF802108188ADF80410E9
:10D1000080798DF8060002AA01A92046FCF7B4FD3B
:10D11000032202A96846FCF7EEF908B100203EBDE3
:10D1200001203EBD70B50D460446142810D2FDF70F
:10D130004BFC68B1084904EB840001EB4000D0F8D7
:10D1400002102960C188A980007AA871002070BDF2
:10D1500043F2020070BD0000CC1E002070B50188B3
:10D1600090B0102961D1011D28226846FCF798F97A
:10D170009DF804004FF6FF7603213446B1EB500FC3
:10D180002BD003F015FE9DF804006D4640080ED02C
:10D1900001280CD0022820D118E00C99281D11314B
:10D1A000FCF718FD18B100BFBDF8284015E00BAA28
:10D1B0000AA9072003F0D0FD0028EED10DE00C995C
:10D1C000281D491CFFF78BFF0028EDD10BAA0AA9E7
:10D1D000072003F0C1FD0028F1D1BDF80000B442E2
:10D1E00000EB8001124820F8114000EB410001994A
:10D1F000C0F80210BDF80810C1809DF80A10017235
:10D2000013D0BDF80000ADF82A000020ADF82C4086
:10D21000084E8DF828000AAD044600BF56F82410C9
:10D2200028468847641C022CF8D310B070BD00005B
:10D23000CC1E0020B44602002DE9F0414FF6FF76E7
:10D240000546B04213D00B4F002400BF04EB84000E
:10D2500037F81000A84206D12046FDF7B5FB10B103
:10D260002046BDE8F081641CA4B2142CEED33046F5
:10D27000F7E70000CC1E00203EB50C46054603F043
:10D2800097FD0BE0BDF80000A04207D028460299A8
:10D2900000F00EF810B1BDF800003EBD01AA6946CD
:10D2A000072003F059FD0028ECD14FF6FF703EBD7A
:10D2B0002DE9F0410C46054600F1110701F1110678
:10D2C0001022491C401CFCF716F948B9681C00F0F4
:10D2D000FDF928B1601C00F0F9F908B1012400E063
:10D2E000002431463846FCF775FC3B780222B2EB4D
:10D2F000530F0CD00321B1EB530F08D03378B2EBAE
:10D30000530F04D0B1EB530F01D0012100E00021F5
:10D31000084201D18C4302D00120BDE8F0810020F9
:10D32000FBE7018811B9421892780AB101207047D1
:10D33000491C0829F7D30020704710B50C46034656
:10D34000FFF7EFFF00280AD018882188884205D10E
:10D350000822A11C981CFCF7CEF808B1002010BDD3
:10D36000012010BD142804D2024A00EB800022F8EC
:10D3700010107047CC1E002070B50546FFF75CFF0B
:10D380000446284603F094FB002808D1142C06D24A
:10D39000034B04EB84024FF6FF7123F8121070BDAB
:10D3A000CC1E002010B50446142808D2FDF70CFB53
:10D3B00028B1044904EB840031F8100010BD4FF689
:10D3C000FF7010BDCC1E00203EB5044603F0F0FCFB
:10D3D0000EE0019920464631FFF7AFFF28B90199C9
:10D3E00020462A31FFF7A9FF10B1BDF808003EBD65
:10D3F0006A4602A9072003F0AFFC0028E9D14FF6E6
:10D40000FF703EBD10B50A4941600A4800F047FE72
:10D4100058B902F013FB07491C238C2208740448F6
:10D420008C39001F006800F0A0FD002010BD000036
:10D43000B4480200202500202DE9F0412D4F0025A1
:10D4400020B17D604FF40640BDE8F08108790122EB
:10D4500058B1294E01280CD0264C4FF00208083450
:10D46000022820D0032841D127E00A7103F074F983
:10D470003AE0002000EB800116F82110022908D0C4
:10D48000401C80B20228F5D33A707D6041F61D50F1
:10D49000DAE700EB800006F8205006EB80004068D9
:10D4A00003F04CF920E00D71A4F804800023012260
:10D4B0001248216801F0E2F916E00D71206803F0CE
:10D4C0003DF90D4923682831498801EB810206EBBB
:10D4D0008201D1F804C0C4F800C04B60A3880B815E
:10D4E000A4F8048006F822500028ADD07D6048F2F0
:10D4F0000D60A9E7C81B00204C240020641C0020FC
:10D500000146034802888A4200D00020704700008C
:10D51000201E00202DE9FC5F0E008346DDE90C474C
:10D52000C6F1000098469246814600D4084601257F
:10D5300003E000BF90FBFAF06D1C5045FADAA845F5
:10D5400000D9454624B1002E01DB780700D5641EC2
:10D55000B80702D5B8F1000F0AD0F80708D13CB1DE
:10D56000A54205D220215846641EFEF71FF9F6E7B2
:10D57000002E02DA4E462D2102E0780703D52B213A
:10D580005846FEF713F907F0030002280BD1B8F153
:10D59000000F08D13CB1A54205D230215846641E87
:10D5A000FEF704F9F6E7CDE9004743465246314617
:10D5B000584606F079FCBDE8FC9F000070B50D46AA
:10D5C000044600684FF4887102F003FB4FF4907139
:10D5D000206802F0FEFA4FF49271206802F0F9FA26
:10D5E0004FF4A271206802F0F4FA4FF4AC71206895
:10D5F00002F0EFFA20681249C0F8041320686907A6
:10D6000040F30730090E002804DB00F1E02080F829
:10D61000001405E000F00F0000F1E02080F8141D78
:10D62000206840F30730002809DB00F01F020121C9
:10D6300091404009800000F1E020C0F8001170BD69
:10D6400010034200024600201268530713D502F06F
:10D650000300012802D002280CD105E0C2F3831098
:10D660000B68801C184404E00223086803EB925204
:10D6700010440860012070470248007A002800D05A
:10D680000120704720250020F0B58488A518944219
:10D6900000D82246A41AC288D6189A4200D8134647
:10D6A000D21A4B880788BB420CD34088834209D8E2
:10D6B0008888A04206D3A84204D8C888904201D3E3
:10D6C000B04201D90020F0BD0120F0BD0021425C34
:10D6D0000AB101207047491C1029F8D30020704777
:10D6E000800701D000207047012070470A4810B51C
:10D6F000807860B1002401E0022C06D02046FDF7BE
:10D70000E1FD641C042CF7D310BD0324F6E7BDE84B
:10D710001040FDF7F7BD0000581A002003480179BA
:10D72000C90702D00078FDF713BF7047581A0020D0
:10D730001721018041800021017141717047000073
:10D740002DE9FE4F2E4F984692460D00814601D09E
:10D7500000260DE0684600F0C5FB6A4600214846F9
:10D7600003F0FEF83878009E10B99DF8090098B1D2
:10D7700052463146484605F053FD04460146002214
:10D780004846FFF75BF80D2C37D008DCA4B3082C13
:10D7900033D00B2C09D130E00520BDE8FE8F112CD1
:10D7A0001ED0A4F54050023827D0204602F0E6F9FA
:10D7B0000246144814494B46401AC008012101EBA7
:10D7C0000040124901F08BFD5FF00305B8F1000F36
:10D7D00004D0324621464846FEF7E0FC2846DCE706
:10D7E0002A46F9784846FDF7D3F85246B9784846B4
:10D7F000FDF7CEF80025E9E7FFE72546E6E700005C
:10D80000201B00203C620200F4610200A0580200CC
:10D8100070B50E460C49154604460978FDF7A0F888
:10D8200000280FD0204603F041F800282A46314650
:10D83000204603D0BDE8704003F03EB8BDE870401C
:10D84000FEF70DBC70BD0000181B002070B5094D1F
:10D850000646A978FDF784F80446E9783046FDF7D6
:10D860007FF8014622463046BDE870400123FFF7AD
:10D8700067BF0000201B0020F0B585B005460027DB
:10D8800014216846FBF725FEA5F57F40ADF8025050
:10D89000FF3825D02846FFF71BFB040022D01B4889
:10D8A0001B49401AC6080B2C22D0112C1ED0A4F5FF
:10D8B000405002380ED0204602F060F902460120A6
:10D8C00000EB06402B46134901F009FD214628468E
:10D8D00005F00EF910483A4681782846FDF758F8C9
:10D8E00005B0F0BD0E208DF800000BE00127F1E738
:10D8F0000F208DF80000022000EB06402A46074961
:10D9000001F0E6FC6846FEF719FDE3E7F46102006A
:10D91000F4610200BC4C0200781A0020104D020095
:10D920000A4602494978FDF733B80000781A00200A
:10D930002DE9F041002786B080463E46FFF710FBF8
:10D94000040022D0112C22D01B481C49401AC508C3
:10D95000862C1ED0A4F5405002380ED0204602F08E
:10D960000DF90246012000EB0540434614A101F0E9
:10D97000B6FC2146404605F0BBF839464046FFF765
:10D98000CFFF06B03046BDE8F0810126F5E701275C
:10D99000F3E714221A496846FBF782FD0220ADF82E
:10D9A000028000EB0540424616A101F091FC68465A
:10D9B000FEF7C4FCE1E70000F4610200F46102003C
:10D9C0006773636D5F6C6F63616C5F64625F6361FB
:10D9D0006368655F75706461746528292072657479
:10D9E00075726E656420257320666F7220636F6E9A
:10D9F0006E5F68616E646C653A202564000000000B
:10DA000060460200466C6173682066756C6C2E205F
:10DA1000436F756C64206E6F742073746F72652031
:10DA20006461746120666F7220636F6E6E5F6861FF
:10DA30006E646C653A202564000000002DE9FF410A
:10DA40000026244800F028FB2248001F074600F06B
:10DA500023FB214C2149A06800900D6800E000984C
:10DA60006946284004EB80000C30FFF7EBFD0028EE
:10DA7000F5D101AA009901EA050304EB8303491CCF
:10DA8000DB6842F82030401C00910228F2D3019854
:10DA900000F0030001280BD0022810D101980321C7
:10DAA00001EB90500099BDF80A6001EB900005E091
:10DAB0000198BDF80A60C0F383100844009038460E
:10DAC00000F0E7FA08B10098A06004B03046BDE865
:10DAD000F0810000142B0020FC260020081C0020F0
:10DAE000ACB04FF48041002001F06CFC08B1FCF7B1
:10DAF00089F901F0C1FAFCF7A1FF08B1FCF782F93E
:10DB0000FCF7E6F908B1FCF77DF901F065FD08B115
:10DB1000FCF778F968490320FDF7D0FC08B1FCF761
:10DB200071F969460020FDF711FC08B1FCF76AF9AC
:10DB30009DF8000002287DD05FF0000501F032FF63
:10DB400008B1FCF75FF9002469460120009401F058
:10DB5000BDFD08B1FCF756F9684601F033FE08B187
:10DB6000FCF750F903F0BCFA9DF8080053A120F02F
:10DB70000F00401C20F0F00010308DF808000A2241
:10DB800002A87CDF08B1FCF73DF900945020ADF805
:10DB90000000A0200194ADF80200ADF804404FF45D
:10DBA000C870ADF8060068467ADF08B1FCF72AF9BC
:10DBB0000021454800F0FCFA08B1FCF723F9AC213C
:10DBC0006846FBF786FC02208DF8000001208DF8E6
:10DBD00002000621ADF810008DF803103B480590B7
:10DBE0001EA8FCF73BF83A482990374869461C3094
:10DBF000FCF739FC08B1FCF705F9334801211C306A
:10DC0000FCF72EFC334801A9CDE900402E48103026
:10DC100000F065FB08B1FCF7F5F82F480090684666
:10DC2000FCF772FF08B1FCF7EDF81C216846FBF722
:10DC300050FC00E02BE04FF4A030CDE900404FF461
:10DC4000F020029025480590032625488DF80C60A9
:10DC50000690ADF80E408DF810406846FCF7D6FDF2
:10DC600008B1FCF7CFF805F063FD1E481E49401AC5
:10DC7000C00806EB004004461CA101F025FB65B17D
:10DC8000204623A101F020FB04F082F80AE00125E0
:10DC900054E700BFFCF7B6F806E00B4803211C3040
:10DCA000FCF7B3FC0028F5D101F0F4F90028FBD112
:10DCB00001F0BAFCF8E7000021B401004E6F726475
:10DCC00069635F5753500000781C0020521A0020EF
:10DCD000AD0402008DF6010089AD0100CD04020003
:10DCE0000BBC0100A4620200F4610200427574746E
:10DCF0006F6E6C65737320444655204170706C697B
:10DD0000636174696F6E20737461727465642E0050
:10DD1000457261736520626F6E64732100000000BC
:10DD200070B5144682880E4605462088111D0144B0
:10DD3000921C994201D8FE2A01D90C2070BD521CB8
:10DD400032542088FF21401C80B22080315420882A
:10DD5000401C80B220808119288806F090F8218824
:10DD6000084480B22080AA8842B1A96841B13044F9
:10DD7000FBF796FB2088A98808442080002070BD0E
:10DD8000072070BD2DE9F047C5881E1DB6FBF5F7CD
:10DD90008946B6FBF5F1044605FB176C4079166819
:10DDA0006843DDF820A0F718001F874200D9C61A83
:10DDB000166001E02468491E0029FBD1A5EB0C0781
:10DDC0008846B74216D818E004EB0C00001D09EB9A
:10DDD0000803BAF1000F3A4602D00146184600E0A7
:10DDE0001946FBF75DFB2468F61B4FF0000CB844A6
:10DDF000B54201D9374600E02F46002EE4D1BDE8F8
:10DE0000F087000030B5024651B101F0EFFA002171
:10DE1000074C08E034F821301568AB4202D111609C
:10DE2000002030BD491C8142F4D3052030BD0000E4
:10DE300000000000BFF35F8F00F016B9F8B50F4681
:10DE4000017814460546012901D1687830B120884F
:10DE5000821C9A4232D8012902D006E00720F8BD80
:10DE600069780144891C994228D8181A801E86B204
:10DE7000ADF800602188B81C084469467DDF0028A1
:10DE8000EDD12978022904D06878BDF800209042AD
:10DE900005D3BDF80000B04201D809200AE00820EF
:10DEA000012905D16978B14202D8ADF8001001E02E
:10DEB000ADF80060BDF80010FE2901D90C20F8BDB6
:10DEC0002288491CB9542188491C89B22180785480
:10DED0002088401C2080BDF80010084420800020CD
:10DEE000F8BD0000034A00219268C0E9002181606A
:10DEF00070470000201B002070B586B00D46064616
:10DF0000144614216846FBF7E4FA8DF80050ADF88A
:10DF100002402046FFF746FAADF804001422694695
:10DF20003046FBF7BDFA06B070BD70B54FF6FF7511
:10DF30000E46A84201D1002000E0401C84B208E057
:10DF40002146304600F090F808B1204670BD641CB0
:10DF5000A4B2FF2CF4D9284670BD10B5FBF7A7F981
:10DF600008B1002010BD112010BD10B531B1B2FBB9
:10DF7000F3F403FB14241CB1092010BD0E2010BDC6
:10DF800001600021416081608281C381084610BD2B
:10DF900070B50C460546FBF73FF9002802D02188F2
:10DFA0002868084470BD10B50A8849888A4203D1A0
:10DFB000FBF774F9012010BD002010BD70B50C46B0
:10DFC0000546FBF74EF9002802D06188286808440E
:10DFD00070BD10B50A8849888A4203D1FBF738F929
:10DFE000012010BD002010BD01F01F0301229A4046
:10DFF000D243490900EB8100114600F059B80A46A6
:10E0000001F01F030121994010B552090C4600EBA5
:10E01000820000F05DF8204000D0012010BD2DE905
:10E02000F04180460D460024481E012101EB5017A7
:10E0300016E058F82400C04390FAA0F0B0FA80F03F
:10E0400020280CD200EB4416AE4208D2314640469E
:10E05000FFF7D5FF0028ECD13046BDE8F081641C05
:10E06000A742E6D82846F8E74A0950F8220001F00E
:10E070001F0201219140084000D00120704701F0AB
:10E080001F0301229A40490900EB8100114600F06C
:10E0900029B8002100F017B8012100F023B80121B0
:10E0A00000F016B808B56A46FBF74DF9009808BDB0
:10E0B00008B56A46FBF72DF9009808BD08B56A4611
:10E0C000FBF741F908BD08B56A46FBF722F908BD20
:10E0D00008B56A46FBF710F908BD08B56A46FBF7B4
:10E0E000FFF808BD08B56A46FBF706F9009808BDB9
:10E0F00008B56A46FBF734F9009808BD38B5044600
:10E1000000258DF800506846FBF72EFF21686268F5
:10E11000086890420ED9401E08600178238AE268A0
:10E1200001FB0325227A2168101AC0B20A798242C3
:10E1300000D208719DF80000FBF73AFF284638BD71
:10E1400038B5054600208DF800000C466846FBF700
:10E150000BFFE868298A201AB0FBF1F12A681068E1
:10E16000431C136001709DF80000FBF721FF38BDD0
:10E1700010B530B1017A42680368891AC9B21A60D1
:10E1800006E00E2010BD03681A68541C1C60117054
:10E19000491EC9B2F7D2006800210171084610BDBE
:10E1A000C20800F007030120895C984008407047CE
:10E1B00010B560B1C160172120F8021B20F8021BC6
:10E1C0001B2100F8021BFFF7B3FA002010BD0E2040
:10E1D00010BD00007CB50C468188002933D102882F
:10E1E0000025102A06D0112A09D03A2A0BD0552A28
:10E1F0002ED129E00146204602F076F928E0A01D44
:10E20000FFF796FA24E02246408934F8063F83421D
:10E2100000D818466080172800D217206080D06888
:10E2200078B1607968B1184BD3E90003CDE90003F8
:10E23000ADF802106088ADF80400D3686946104656
:10E240009847657125717CBD0146204602F0C8F9EA
:10E25000A07A0028F7D02846E188A5DF012680B102
:10E260001128F0D001F08AFC02460848084902B0A3
:10E27000401AC00806EB0040BDE8704005A101F05F
:10E2800027B8A572E6727CBDBC4602000C62020093
:10E29000F461020073645F626C655F67617474634C
:10E2A0005F65786368616E67655F6D74755F7265E1
:10E2B000717565737428292072657475726E656452
:10E2C0002025732E0000000020B10278DE2A03D042
:10E2D000082070470E20704741800020704760B1D1
:10E2E00059B10278DE2A0AD009684160DE21017046
:10E2F0004FF6FF714180002070470E2070470820C4
:10E3000070477FB5054600294DD0002D4BD00878C9
:10E310000C46DE2847D1A8886188884202D1204671
:10E3200005F07AFE2888012825D002283BD0112844
:10E330003AD0512837D135F8040F6188884232D15C
:10E34000A978A81C02292ED1017A042903D0062914
:10E3500001D0052927D10021009102228DF800204B
:10E3600001914FF4C07202910391ADF80420007A3C
:10E3700005280FD010E0297A2046012913D1A98859
:10E38000428891420FD10121017204B0BDE8704072
:10E3900005F042BEADF8041028886946B0DF0028B9
:10E3A00001D0616888477FBDA88861888842FAD11A
:10E3B0004FF6FF7060807FBD00F18040006800284C
:10E3C00000D00120704708B500F1804000210160B5
:10E3D0000068009008BD000070B540F6F870046851
:10E3E000601C02D14FF0102044691248124B4FF0CC
:10E3F0000102A3EB00004FEAD000611C02EB0045D4
:10E4000012D0032101EB004022460CA100F060FF76
:10E41000204613DF040005D0284613A100F054FF66
:10E42000204670BD002070BD28461CA100F04CFFA6
:10E43000042070BDF4610200A4620200536574748C
:10E44000696E6720766563746F72207461626C65B3
:10E4500020746F20626F6F746C6F616465723A2014
:10E4600030782530387800004661696C6564207228
:10E47000756E6E696E672073645F736F6674646532
:10E48000766963655F766563746F725F7461626CF1
:10E49000655F626173655F73657400004E6F206233
:10E4A0006F6F746C6F616465722077617320666F43
:10E4B000756E640070B50C480C490D4A401AC508C9
:10E4C000032000EB05400BA100F002FF084813DF1A
:10E4D000040007D0012000EB054011A100F0F4FE7C
:10E4E000204670BD002070BDA4620200F4610200ED
:10E4F0000090010053657474696E672076656374DB
:10E500006F72207461626C6520746F206D61696E3A
:10E51000206170703A203078253038780000000093
:10E520004661696C65642072756E6E696E672073F2
:10E53000645F736F66746465766963655F7665634F
:10E54000746F725F7461626C655F626173655F7343
:10E550006574000070B50D4C0125207808B1852642
:10E560000EE00020A06060602061E060084801F0DB
:10E5700055FB064601F062FA08B901F039FB257037
:10E5800001F02EFB00B1A570304670BDF4210020D3
:10E5900011BB010038B500258DF800506846FBF727
:10E5A000E3FC084CE068401EE060E06828B901F038
:10E5B00017FB10B901F042FBA5709DF80000FBF7B6
:10E5C000F7FC38BDF42100202DE9F041064604781F
:10E5D0000B4815460F4640F82420001D40F8243013
:10E5E000487B10B1084605F02BF80DB1054A00E054
:10E5F000002223463946301DBDE8F04101F088BCB9
:10E60000581B0020ED360200F0B505460478154889
:10E6100089B0164640F82420124A0869121DA2F15A
:10E62000080742F82400487F385520226846FAF748
:10E6300037FF04942878385C48B10EB10A4A00E0EC
:10E6400000226946281D01F013FE09B0F0BD0EB18D
:10E65000064A00E00022694605F10C0001F0D2FCF8
:10E66000F3E70000401B00203D3D0200853B020017
:10E670000FB408B50399002904D004AA00926A4691
:10E6800000F00FF801B05DF814FB10B58268044685
:10E69000002A05D0D4E90403216898470020A0602F
:10E6A00010BD2DE9FC4791460C00804676D014F849
:10E6B000011B39B125290ED04046FDF777F82078A7
:10E6C0000028F4D198F80C00002867D04046BDE837
:10E6D000FC47FFF7DABF0020012221782B291BD04D
:10E6E0002D2902D0302908D102E040F0010001E0DC
:10E6F00040F00200641C002AEFD100252A290ED028
:10E700002178A1F130020A2A11D205EB850201EB32
:10E710004205641C303DF1E740F00400EAE7D9F817
:10E7200000100B1DC9F800300968641C0D442178E5
:10E7300000232E290BD114F8011FA1F130020A2A5F
:10E7400005D203EB830201EB4203303BF3E76C2974
:10E750000DD068290BD0692921D00BDC252918D0D0
:10E76000582931D063290ED0642915D117E014F847
:10E77000011FECE7702969D0732932D075291BD0AD
:10E78000782909D120E0D9F80000011DC9F800104E
:10E7900001784046FDF70AF8641C90E76CE0D9F870
:10E7A00000100A1DC9F800200968CDE900500A22AE
:10E7B0004046FEF7AFFEEFE7D9F800100A1DC9F892
:10E7C000002009680A2206E0D9F800100A1DC9F8DD
:10E7D000002009681022CDE90050404605F064FB96
:10E7E000DAE7D9F8001000270A1DC9F800200E68E2
:10E7F000C00705D112E04046761C7F1CFCF7D6FF0F
:10E8000031780029F7D104E0202140466D1EFCF745
:10E81000CDFFBD42C0D9002DF6D1BDE74EB1304687
:10E82000FAF762FE074604E0202140466D1EFCF721
:10E83000BDFFBD4206D9002DF6D103E04046761C4F
:10E84000FCF7B4FF31780029F8D1A5E7D9F800002A
:10E85000011DC9F80010056830214046FCF7A6FFED
:10E8600078214046FCF7A2FF08200021CDE90001F5
:10E87000034610222946B0E7BDE8FC872DE9F8439E
:10E88000884605002C482D499946A0EB01004FEA27
:10E89000D0004FF00101164601EB004424D0286857
:10E8A00000282CD0002E34D0696840464FF0100765
:10E8B0000A68511E11EA080F11D101467243284619
:10E8C000FBF7A1F900282ED028684B463246046990
:10E8D00001B041462846A446BDE8F04360472046C3
:10E8E000174B18A2009722E00E2000902046144BF0
:10E8F0001EA220A100F0FBFC0E20BDE8F88308203A
:10E90000009020460E4B26A21AA100F0F0FC082031
:10E91000F3E7092000902046094B24A215A100F03E
:10E92000E6FC0920E9E7064B214A2046009711A1A1
:10E9300000F0DDFC1020E0E78C620200F4610200D0
:10E940009B480200616464725F69735F7061676510
:10E950005F616C69676E656428705F66732C2070F8
:10E960006167655F6164647229000000705F6673AF
:10E9700000000000257320636865636B2066616991
:10E980006C656420696E2025732829207769746876
:10E990002076616C756520307825782E00000000A7
:10E9A000705F66732D3E705F617069006C656E000C
:10E9B000345A020038B503001148124D4FF00E04CE
:10E9C000A0EB05004FEAD0004FF0010505EB004039
:10E9D00009D061B119600C6801B0A446BDE83040AF
:10E9E000114618466047084B08A2009402E0064B07
:10E9F00008A2009409A100F07AFC0E2038BD0000A6
:10EA00008C620200F461020050480200705F66737D
:10EA100000000000705F61706900000025732063D2
:10EA20006865636B206661696C656420696E20258A
:10EA300073282920776974682076616C75652030A9
:10EA40007825782E00000000044801214174007AE6
:10EA500008B10020704701207047000020250020E9
:10EA6000012801D0032808D10449002201284A7452
:10EA700000D00020087403F045BB7047202500201B
:10EA800070B50246022801D0032A45D1234C207AD2
:10EA9000002841D0012833D0022831D1204800235A
:10EAA000022A006802D0032A2AD11BE0E360017920
:10EAB00011B1012924D10DE0D0E90565711B4FF496
:10EAC0008056B14200D33146294481614569A9424B
:10EAD0000ED015E00169491C0161426991420FD1D4
