:020000040001F9
:10900000E0320020C5930100EF930100F1930100CD
:10901000F3930100F5930100F793010000000000B5
:10902000000000000000000000000000F9930100B3
:10903000FB93010000000000FD930100FF9301007D
:109040005196010001940100159A0100019401005C
:109050000194010000000000AD95010001940100A1
:1090600001940100019401000194010001940100A8
:109070000194010001940100019401000194010098
:1090800001940100A99601000194010001940100DE
:109090000194010001940100B996010001940100BE
:1090A0000194010001940100000000000000000094
:1090B0000194010001940100000000000000000084
:1090C00000000000000000000000000000000000A0
:1090D0000000000000000000000000000000000090
:1090E0000000000000000000000000000000000080
:1090F0000000000000000000000000000000000070
:10910000000000000000000000000000000000005F
:10911000000000000000000000000000000000004F
:10912000000000000000000000000000000000003F
:10913000000000000000000000000000000000002F
:10914000000000000000000000000000000000001F
:10915000000000000000000000000000000000000F
:1091600000000000000000000000000000000000FF
:1091700000000000000000000000000000000000EF
:1091800000000000000000000000000000000000DF
:1091900000000000000000000000000000000000CF
:1091A00000000000000000000000000000000000BF
:1091B00000000000000000000000000000000000AF
:1091C000000000000000000000000000000000009F
:1091D000000000000000000000000000000000008F
:1091E000000000000000000000000000000000007F
:1091F000000000000000000000000000000000006F
:10920000DFF810D000F094F90048004711DB0100AE
:10921000AFF30080E032002030B450E8012F93B269
:10922000C48923448489A34228BF1B1B0489A34209
:1092300002BFBFF32F8F002007E0C3EA020340E81C
:109240000134002CE9D14FF001000A6030BC7047B6
:1092500050E8012FC2EA024240E801210029F7D17B
:10926000704730B450E8022F1FFAA2F3C488A3421B
:1092700002BFBFF32F8F00200DE0C48923448489EF
:10928000A34228BF1B1BC2EA034340E80234002C60
:10929000E8D14FF001000A6030BC704750E8022F5F
:1092A000C2EA224240E802210029F7D17047034672
:1092B00053E8022FD988B2EB324F4FF0000017BFAE
:1092C00092B241EA014142EA014104E05A68B2EB3C
:1092D000324F08BF012043E80212002AE8D170474C
:1092E00030B4044654E8000F0D4644E80053002B08
:1092F000F8D1156030BC704730B4044654E8000F14
:1093000040EA010544E80053002BF7D1156030BC5A
:10931000704730B4044654E8000F00EA010544E801
:109320000053002BF7D1156030BC704730B40446B1
:1093300054E8000F80EA010544E80053002BF7D100
:10934000156030BC704730B4044654E8000F00EBA1
:10935000010544E80053002BF7D1156030BC70477D
:1093600030B4044654E8000FA0EB010544E8005374
:10937000002BF7D1156030BC704770B404464FF035
:10938000000054E8006F0D68AE4207BF44E80023B8
:10939000012044E800630E60002B1CBF0020F0E7B2
:1093A00070BC704730B4044654E8000F88422CBFAC
:1093B000451A054644E80053002BF5D1156030BC32
:1093C000704700000F4800680F4909680A280AD151
:1093D000002908D10D4802686FF070031A404FF061
:1093E00040031A4302600A4880470A480047FEE7E4
:1093F000FEE7FEE7FEE7FEE7FEE7FEE7FEE7FEE745
:10940000FEE700003001001034010010E40E0040BF
:10941000BD960100019201002DE9F05F0546002094
:1094200092469B4688460646814640241BE02846D5
:1094300041464746224600F06BF853465A46C01A4A
:10944000914110D311461846224600F016F82D1A05
:1094500067EB01084F4622460120002100F00DF87D
:1094600017EB00094E41201EA4F10104DFDC484641
:1094700031462A464346BDE8F09F202A04DB203AC5
:1094800000FA02F1002070479140C2F1200320FA57
:1094900003F3194390407047004870476445020049
:1094A00040EA01039B0703D009E008C9121F08C066
:1094B000042AFAD203E011F8013B00F8013B521EE6
:1094C000F9D27047D2B201E000F8012B491EFBD25D
:1094D00070470022F6E710B513460A4604461946BF
:1094E000FFF7F0FF204610BD421C10F8011B0029B9
:1094F000FBD1801A704730B504460020034600E0D7
:109500005B1C934203D2E05CCD5C401BF8D030BDC5
:10951000202A04DB203A21FA02F00021704721FAC8
:1095200002F3D040C2F1200291400843194670472F
:10953000064C074D06E0E06840F0010394E80700A0
:1095400098471034AC42F6D3FFF75EFE805B020012
:10955000A05B020070B58C1810F8015B15F00703D2
:1095600001D110F8013B2A1106D110F8012B03E0BC
:1095700010F8016B01F8016B5B1EF9D12B0705D4C4
:109580000023521E0DD401F8013BFAE710F8013B0D
:10959000CB1A921C03E013F8015B01F8015B521E29
:1095A000F9D5A142D8D3002070BD00002DE9F843C1
:1095B0000025DFF894804FF4807601242F46009533
:1095C000304605F05FFC38B1D8F80403204203D0E0
:1095D000304605F04DFC2543361D64007F1CB6B2B5
:1095E000082FEDD34FF4BE74204605F04BFC48B174
:1095F000204605F03DFC45F000456A46012100206B
:1096000005F006FC15F0FF0F16D0012600242E42AF
:109610000ED008EB8401D1F81005D1F81015C0F375
:1096200004200A4AC1F3014152F8242002B19047B4
:109630007600641C082CEAD3002D02DA684608F094
:109640005FFBBDE8F88300000060004000220020BE
:1096500070B54FF48076304604F0C4FE114CB50569
:1096600060B1304604F0C5FE0120C5F808036079FA
:1096700020B9012060712168002088474FF482766C
:10968000304604F0AFFE00280AD0304604F0B1FEA8
:109690000220C5F808032168BDE870400120084792
:1096A00070BD0000481B002002490248091F0968DC
:1096B00000680847981B002006F08AB92DE9F041A0
:1096C000C34AC4494FF080551468D5F83001097871
:1096D000D5F83421431CC1F3031106D0844601267A
:1096E0000023BCF1060F03D00AE004F0FF0CF6E7FC
:1096F000B5F82473DFF8E0C2C7F30427CCF8007094
:10970000E7B2062F06D1032904D1DFF8D4C2B34F44
:10971000CCF87470471C08D04FEA000CBCF1060F5F
:1097200006D0BCF10A0F03D00AE004F0FF0CF5E705
:10973000D5F84472DFF8ACC2C7F34237CCF80070FA
:10974000E7B2062F08D1032906D1A74FD7F800C0EA
:109750002CF0807CC7F800C0471C08D04FEA000CF2
:10976000BCF1060F06D0BCF10A0F03D00BE004F0E9
:10977000FF0CF5E74FF08047C7F80C31C7F8103100
:10978000984F3F1F3B60E7B2062F08D1032906D14F
:10979000DFF850C203270CF1640CCCF80070E7B27C
:1097A000062F11D103290FD1DFF840C20527CCF8CD
:1097B00000708E4F78373E608C4F08373B600CF15D
:1097C000040C3F27CCF80070471C08D0844617468D
:1097D000BCF1060F07D0BCF10A0F08D081E004F0FD
:1097E000FF0C0F46F4E7032F7BD0042F79D0804F76
:1097F0003F68DFF800C2CCF800707D4F3F1D3F6826
:109800000CF1040CCCF80070794F08373F680CF16C
:10981000040CCCF80070764F0C373F680CF1040C48
:10982000CCF80070724F10373F680CF1040CCCF884
:1098300000706F4F14373F680CF1040CCCF80070C7
:109840006B4F18373F68DFF8ACC10CF1200CCCF837
:109850000070674F1C373F680CF1040CCCF80070A7
:10986000634F20373F680CF1040CCCF80070604F58
:1098700024373F680CF1040CCCF800705C4F28379B
:109880003F680CF1040CCCF80070594F2C373F683E
:109890000CF1040CCCF80070554F30373F68DFF8FE
:1098A00054C10CF1400CCCF80070514F34373F6874
:1098B0000CF1040CCCF800704D4F38373F680CF1B8
:1098C000040CCCF800704A4F3C373F680CF1040C94
:1098D000CCF80070464F40373F680CF1040CCCF8D0
:1098E0000070471C05D08646434FBEF1060F03D0DB
:1098F00007E004F0FF0EF7E7D5F8585205F04F05E2
:109900003D60451C05D00446062C04D00A2C02D02C
:1099100008E0E4B2F8E739490C68E40702D06FF0D8
:1099200001040C6006280BD11146032A08D0042933
:1099300006D0052904D032490C6844F480640C60D8
:109940000A2804D11AB1386840F00F0038604FF08F
:109950001021D1F800422B4A2B48002C03DBD1F810
:109960000442002C13DA16600468002CFCD0152485
:10997000C1F800420568002DFCD0C1F8044201681E
:109980000029FCD0136001680029FCD019E091F88F
:109990000042E40703D191F80442E40713D01660B3
:1099A0000468002CFCD0C1F800320468002CFCD004
:1099B000C1F8043201680029FCD013600168002955
:1099C000FCD000F02DF8124910480860BDE8F08185
:1099D000E00F00F0E80F00F0403501400DF0ADBAA7
:1099E00000C007403C050040FCED00E01056004080
:1099F0000404001020C50040E40E004000040040B4
:109A00003C17004004E5014000E401400090D00311
:109A1000581C00200148006800470000501B00202F
:109A2000BFF34F8F05480168054A01F4E061114317
:109A30000160BFF34F8F00BFFDE700000CED00E0B9
:109A40000400FA0502E008C8121F08C1002AFAD172
:109A500070477047002001E001C1121F002AFBD1AE
:109A6000704700000121202803DA814005480140A9
:109A700003E0402802DA2038814009B10120704714
:109A800000207047FC06FFBD2DE9F843804643F2F5
:109A9000020659B9694607F043FBB04202D008B14B
:109AA00000F0A8F99DF80000800744D4002140464A
:109AB00007F040FB05003ED0112D3CD01F48204947
:109AC000401AC708022000EB07440D2D0AD00B2DC9
:109AD0001DD0B5421FD11B4920464246BDE8F84380
:109AE00005F0D2BB20464246174905F0CDFB1321B5
:109AF000404676DF00281ED006F01CF8024601B072
:109B000020464346BDE8F04310A105F0C4BB204603
:109B100042461C49E2E7284606F00CF802460120BE
:109B200000EB0740434618A105F0B5FB2846BDE809
:109B3000F84300F05FB9BDE8F8830000E85B02007D
:109B4000B05B0200884C0200144C020073645F6238
:109B50006C655F6761705F646973636F6E6E656388
:109B60007428292072657475726E656420257320CF
:109B70006F6E20636F6E6E5F68616E646C6520252A
:109B8000642E0000D44C0200417373657274696ED8
:109B9000672E20706D5F636F6E6E5F7365637572A5
:109BA0006528292072657475726E6564202573209E
:109BB0006F6E20636F6E6E5F68616E646C652025EA
:109BC000642E000010B560B159B102780B785208CC
:109BD000B2EB530F05D10622401C491CFFF78BFC4A
:109BE00008B1002010BD012010BD800701D0002069
:109BF000704701207047C3688B4206D81144006942
:109C0000491E814201D8012070470020704790F81A
:109C100024001F20704710B501220221002001F00E
:109C200033FC08B1072810D107220221012001F0DE
:109C30002BFC08B1072808D100210A22084601F0B0
:109C400023FC08B1072800D1002010BD10B5044640
:109C50002C21FFF73EFC012020714FF4967020610B
:109C600044F25060606110BD70B58CB015460E4670
:109C700000236C46C3F10F01415CE1545B1C102BC7
:109C8000F8D30D2104F11000FFF723FC0020C0F1F0
:109C90000F02315C2244401C11740328F7D368463C
:109CA00046DF0020C0F10F01214491F82010295413
:109CB000401C0328F6D30CB070BD022001F0EEBAB0
:109CC0000149C97800F044BE181B002070B500247B
:109CD000064D06E06868012110F8340005F09EFF8B
:109CE000641C28788442F5D3002070BD581B0020E6
:109CF000F8B516460C4605460A2A01D20720F8BDDB
:109D000006F086F818B906F049F80028F7D1134F85
:109D1000102113487D603C70BE60FFF7DAFB002025
:109D2000C7E904000F4E0DE005EBC4003168009157
:109D300081788DF8011000780B4A694605F0BEFF66
:109D40000028DCD1641EE4B2EED2BDE8F84005483C
:109D50000021064A001D00F0A7B80000581B002093
:109D6000D0220020BC41020095CE01008DBD010033
:109D700010B572B605F02EFB05F068F90028FBD18E
:109D800011481249401AC408012000EB044010A1F8
:109D900005F076FA11480068C00700D000BE022026
:109DA00000EB04400EA105F06BFABFF34F8F0B4898
:109DB000E43801680E4A01F4E06111430160BFF329
:109DC0004F8F00BFFDE70000585C0200B05B02004F
:109DD000466174616C206572726F7200F0ED00E094
:109DE00053797374656D20726573657400000000AB
:109DF0000400FA050EB500210091CDE901106A4674
:109E000044F20100FFF7B4FF0EBD000010B50228B8
:109E10000ED108480849401AC108032000EB014050
:109E2000044606A105F02CFA204610A105F028FAF8
:109E3000012010BD585C0200B05B0200506F7765D6
:109E400072206D616E6167656D656E742077616EFD
:109E5000747320746F20726573657420746F20446E
:109E60004655206D6F64652E00000000506F7765C9
:109E700072206D616E6167656D656E7420616C6CDA
:109E80006F77656420746F20726573657420746FDA
:109E900020444655206D6F64652E0000014801F096
:109EA000F6BF0000781B00203AB10068012942612A
:109EB00000D000210161002070470720704700009A
:109EC00038B5114808235822416800910F490068AD
:109ED00004F061F8002815D10D4A69460D4801F0DB
:109EE000DBFF04000ED101210A4802F050F80123E3
:109EF000094A1946074801F0A2FF0649012008391E
:109F00000870204638BD0000C4410200F022002045
:109F1000E1230200781B0020FFFF7F0070B504469C
:109F2000007F0D4608B1002070BDA26102F098FFCD
:109F3000401941F10001C4E90201206900B1256125
:109F40002146BDE87040002009F0B0BA014600206B
:109F50000877012009F0AABA30B5EFF3108172B684
:109F60000D4A9468012324B10370002900D162B620
:109F700030BD93604FF0E023D3F88051074C25406B
:109F80001560C3F88041D3F8844154605A17C3F870
:109F9000842100220270E8E748230020FC06FFBD70
:109FA0000B498A68002A11D000280FD1EFF31080E6
:109FB00072B60B684FF0E022C2F800314B68C2F86D
:109FC000043100228A60002800D162B67047000088
:109FD000482300202DE9F041064608680C46411C44
:109FE0004FF0A0474FF0010506D005FA00F1C7F881
:109FF0000815206804F0E6FE6068411C02D00021CC
:10A0000004F0CEFE3168A069C1F82405607D227D90
:10A0100031681043C1F86C05D4E900123068C0F80B
:10A020001425C0F80C15207D012815D1A068411C0D
:10A0300002D0002104F0B4FEE068411C05D0854048
:10A04000C7F80855E06804F0BDFED4E90212306894
:10A05000C0F80825C0F81015BDE8F0812DE9F041E1
:10A06000064608680C46411C4FF0A0474FF001051A
:10A0700006D005FA00F1C7F80815206804F0ACFE18
:10A080006068411C02D0002104F093FE3168A06991
:10A09000C1F82405607D217D32680843C2F86C0553
:10A0A000D4E900123068C0F80C15C0F81425207DE2
:10A0B000012815D1A068411C02D0002104F079FECE
:10A0C000E068411C05D08540C7F80855E06804F0F9
:10A0D00083FED4E902123068C0F80825C0F81015D4
:10A0E000BDE8F08103F0E0BB2DE9F047814605882B
:10A0F0004A484FF000088AB001784246284600F0EE
:10A100003FFC99F80500400701D4002176E005F5F1
:10A110008077B8B205AB0122072106F057FC040096
:10A120003F48404A4FF00101A0EB02004FEAD00047
:10A1300001EB00460AD0204605F0FCFC0246304602
:10A140002B46394905F0A7F8214629E0284603F0B7
:10A1500041F94FF6FF71044688422BD18A46069892
:10A1600003F0A2F80446504510D00146284603F0FB
:10A1700011F92846FFF7A4FDE0B9284608F0E6FBF0
:10A180002846FFF79DFD0028BFD013E006F0F4FD40
:10A190000446504508D1304624A105F071F8042149
:10A1A000284608F001FCB0E70146284603F0F2F823
:10A1B0004FF00108B8B22246072106F07FFC0700E5
:10A1C0001BD0862F1ED005F0B5FC024630462B462C
:10A1D0002349009405F067F83946284608F0E4FB67
:10A1E0000021484606F0EAFAB8F1000F02D02046F6
:10A1F00003F0DAF80AB0BDE8F0870121484606F01E
:10A20000DDFAF7E7142217496846FFF749F9ADF878
:10A210000250684602F0DCF8EFE70000181B00204F
:10A22000F05B0200B05B0200D04F0200436F756C20
:10A2300064206E6F7420616C6C6F63617465206E56
:10A24000657720706565725F696420666F7220694A
:10A250006E636F6D696E6720626F6E642E00000022
:10A26000EC500200444102002DE9FC47002517880C
:10A270000646158090F82D001446894630B13A46BE
:10A280002146484600F0A2FB051E09D1B0784FF0E8
:10A290000C0A18B32088C846001DB84202D950469F
:10A2A000BDE8FC87684679DF0028F9D120880321C2
:10A2B00008F8001020881921401C80B2208008F87E
:10A2C00000102088401C80B2208000EB0801BDF8FF
:10A2D000000009F0BAFA218808442080F0780222B0
:10A2E000C8B1218896F9033001F1030C4846BC45FA
:10A2F000D5D8425421884FF0010C491C89B22180E5
:10A3000000F801C02188491C89B2218009F8013078
:10A310002088401C20807068B8B1218890F90030F6
:10A3200001F1030C4846BC45B9D8425421880A22A1
:10A33000491C89B2218042542188491C89B221805C
:10A3400009F801302088401C2080308950B1CDE9C7
:10A3500000474B460622022106F1080009F064FB83
:10A36000051E9DD1308A50B1CDE900474B460722EA
:10A37000032106F1100009F057FB051E90D1308B28
:10A3800050B1CDE900474B461522142106F11800C3
:10A3900009F04AFB051E83D1306A30B13B462246A4
:10A3A000494601F006FC051EDBD1706A30B13B4620
:10A3B0002246494603F0CAFC051ED2D196F82C006D
:10A3C00038B13B4622464946304608F029FC051E76
:10A3D000C7D1307838B13B4622464946304603F073
:10A3E00043FD051EBDD128465AE718B50446002096
:10A3F000ADF8000013466A46204600F006F8002833
:10A4000002D0BDF80000204418BD70B5E0B1DAB14B
:10A41000002402E0045D2C44A4B2651C8D4206D2E7
:10A420001688A642F6D8061976789E42F2D18C425A
:10A430000AD2A31C005D9BB200B1401E0004000CB8
:10A4400002D01C188C4201D9002070BD138070BD51
:10A4500080F8301070472DE9F0410D00044606D019
:10A460002CB195F87A000026012803D006E00E20D2
:10A47000BDE8F08195F89800012829D0D5F8A00012
:10A48000042825D0D5F89C00042821D04FF00108DD
:10A49000A6702C2205F17801201DFFF701F884F841
:10A4A0003060D5F8A4006063D5F8A800A0634FF62B
:10A4B000FF70A4F8E80004F1D400C4F8E400C4F884
:10A4C000EA60A4F8EE6084F8F060207810B104E04F
:10A4D0000720CDE7FF2084F8540004F155072046FB
:10A4E000C4F8D470FFF793FBA4F8D80004F1D802A5
:10A4F00039462846FFF7B8FE0028B9D104F1930089
:10A50000C4F8DC002046FFF782FBA4F8E00004F169
:10A51000E00205F13C00D4F8DC10FFF7A5FE0028AE
:10A52000A6D184F85180208BA4F8480084F83C80A0
:10A53000266484F85060606900216064454604F137
:10A540003C02781E72DF002892D1257090E72C2201
:10A55000001DFEF7A5BF10B50288102A1BD0112AD6
:10A5600020D0262A1DD1007A0C46012801D00228CD
:10A5700017D1A0780521401CB0FBF1F201FB1201BC
:10A58000204600F03AF800280BD0A16B002908D033
:10A59000BDE810400847C27B012A02D18088A1F89B
:10A5A000E80010BD0C46002184F8F2108088B4F851
:10A5B000E8108842F5D120790028F2D10121DFE7A7
:10A5C00010B5044690F8540074DF012084F8F200BE
:10A5D000002084F8F40084F850000621204602F0A0
:10A5E00030F9002808D1A178204600F006F810B113
:10A5F000A16B01B18847002010BD2DE9F05F044632
:10A6000000780F4698B1A7700025C4F8EA50A4F866
:10A61000EE5084F8F050A079012608B1012F09D03E
:10A62000E07980B1012F05D0022F03D00BE0082084
:10A63000BDE8F09F616B21B184F8F1600820884784
:10A6400001E084F8F15004F1EB0100200A5C0AB14A
:10A65000304603E0401C0628F8D300204FF00208E3
:10A660004FF0030A4FF0040B012F06D0022F0CD03D
:10A67000032F0FD0042F15D110E0A17929B194F840
:10A68000241011B908B130460DE0E17911B108B1DB
:10A69000404608E0207A08B1504604E0607A08B1EC
:10A6A000584600E02846A070616B41B1032801D0F4
:10A6B000042804D1607910B194F8F20098B184F8BC
:10A6C000F35004F13C0018210746FEF702FF84F81E
:10A6D0003C6004F12C0006F081FC58B194F82C0089
:10A6E00084F8510008E084F8F45084F8F3600720FF
:10A6F0008847E6E784F8516094F8240058B104F1E3
:10A70000280006F06BFC20B194F8280084F8520071
:10A7100001E084F8526084F85050A27804F1EA0114
:10A7200004F1D409052A4DD2DFE802F065030F1BBE
:10A73000320084F83160C4F8E450C4E9101584F89C
:10A740003C808020A4F848003EE084F8318087F8FF
:10A7500000A0228ABA81C4F8E4507960E168B96047
:10A7600032E06069B860208BB8813D4684F83C6077
:10A77000204609F025F940B185F8148004212046CF
:10A7800002F05FF8F0B9052115E084F831A017E078
:10A79000E069B860208CB8813D4684F83C60204672
:10A7A00009F00EF950B185F814800421204602F01A
:10A7B00048F838B9062184F8311001E084F831B046
:10A7C000C4F8E490A07878B13A4604F15400D4F883
:10A7D000E41072DF00287FF42BAF94F8301094F867
:10A7E000540073DF0028F6D1616B11B194F8310089
:10A7F000884700201CE784F83150F5E770B5040065
:10A8000012D001461C221448FEF74AFE1248134D8E
:10A810000560206850B17ADF002806D12068016801
:10A8200029604068686005E00E2070BD0B487BDF42
:10A830000028FAD108484FF6FF711438084A20F86A
:10A84000041B0549343901600021FFF72DFB002866
:10A85000EBD0032070BD00002C1E0020701A0020D9
:10A860005939020010B5044600F0A6F8002805D0BA
:10A870002146BDE81040024803F00CBC10BD0000AA
:10A88000581E00200346034880680A46194602F015
:10A8900005B80000481E002070B515460E46044657
:10A8A00009F09AF8002809D0054800EB8400C06937
:10A8B0002A463146BDE8704001F0F0BF70BD00008F
:10A8C000481E002010B5044600F076F8002805D098
:10A8D0002146BDE81040024803F0DCBB10BD00007B
:10A8E000601E002010B5044600F066F8002805D070
:10A8F0002146BDE81040024803F0CCBB10BD00006B
:10A900005C1E002010B5002400F056F800B10124B0
:10A91000204610BD70B50546002400F04DF838B152
:10A920002946044803F0B6FB08B1022400E00124E4
:10A93000204670BD501E002010B51821034803F0BA
:10A9400084FB182800D0C0B210BD0000481E0020B3
:10A9500070B505460C46084609F03EF860B1284639
:10A9600000F02AF840B10548294600EB8400BDE814
:10A9700070401C3003F08EBB002070BD481E0020CC
:10A9800070B5054616460C46084609F025F800281D
:10A990000ED0284600F010F8002809D005483246AD
:10A9A00000EB84002946BDE870401C3001F044BF34
:10A9B00070BD0000481E0020142801D300207047FD
:10A9C0000146014803F066BB4C1E00207CB50546DD
:10A9D00008880C460930904201D90C207CBD68469D
:10A9E0006DDF0028FAD121880820685420881B21B7
:10A9F000401C80B2208029542088401C80B22080D6
:10AA00002844DDF801100160BDF805108180208820
:10AA1000801D80B220809DF80010490800D00121DF
:10AA200029542088401C208000207CBD10B503F0F4
:10AA3000E9FC002809D105484FF0030C00DF00288D
:10AA400003D1BDE8104003F04BBD10BDC421002070
:10AA500018B103490860002070470E2070470000BD
:10AA6000381B002010B54FF0FF3100203DDF0028DB
:10AA70000BD1B1213CDF002807D1044841690120F6
:10AA80008847022004F0B6FD002010BDA821002058
:10AA9000044810B50068416900208847BDE81040AF
:10AAA000FFF7E0BF381B002010B588B00446202116
:10AAB0006846FEF70EFD0320ADF8000020788DF803
:10AAC00002009DF80D00172140F028008DF80D00C0
:10AAD00001208DF810008DF81300ADF804108DF8EA
:10AAE00012008DF80C008DF811006088A21D6946D7
:10AAF00000F02AFF08B010BD10B5184C86B01ECC6F
:10AB00008DE81E0048B1164C4FF6FF71A180006819
:10AB100000216061217618B104E00E2006B010BD5E
:10AB2000104860610E48FFF793FF0028F6D101201E
:10AB30008DF812004FF65960ADF81000A21C04A960
:10AB40000120A8DF0028E9D10549684662DF002816
:10AB5000E4D10348FFF7A8FFE0E70000A0410200AE
:10AB6000A82100208DC0010010B5002823D0038843
:10AB70001C4C102B17D02146112B8A8815D0C98860
:10AB8000512B19D0532B16D1C088884213D1207E67
:10AB9000002810D0FFF77CFF00280CD06169BDE8C9
:10ABA000104002200847808804E08088824202D159
:10ABB0004FF6FF70A08010BD83889342FBD110F840
:10ABC000062F022AF7D142888A42F4D1017A042959
:10ABD000F1D00629EFD00529EDD0BDE81040801C4A
:10ABE00005F010BCA82100202DE9F0410546007BAE
:10ABF000042601272E4C012811D002282CD0022631
:10AC0000287B314600F08EF818B120684169032096
:10AC10008847206841690220BDE8F0410847206864
:10AC20004FF00008417E49B10621012000F07AF87A
:10AC300000283BD0206841690320EDE70776012119
:10AC4000084600F06FF8002830D02268112882F8FA
:10AC50001880D5D10626D3E76A7B142A22D80AB3F6
:10AC6000DFF8508005F10E0108F10400FEF718FC32
:10AC7000697BC8F8181021684046497E0029BFD179
:10AC8000A0F10C010A68011F904768B10F28B7D1E5
:10AC900009480A49401AC00807EB0040084904F077
:10ACA000EFFAADE70526ABE720684776BDE8F0810F
:10ACB000381B0020D0210020585C0200B05B02004D
:10ACC0002453020070B5154900250A68002A24D0D3
:10ACD0004A68002A21D00831904708281DD0104C1E
:10ACE0000028206845760ED00621022000F01AF8D0
:10ACF00018B1206841690320884720684169022013
:10AD0000BDE8704008470121022000F00BF8002840
:10AD100003D0206841690320F2E770BDC421002000
:10AD2000381B002086B00323ADF8003020238DF8B7
:10AD300014308DF8150000220E48019202928DF811
:10AD40001610C188ADF8041002218DF8061005A96F
:10AD50000491ADF80820CDF80CD0808801A9AEDFB1
:10AD6000002804D1BDF80010032900D00C2006B043
:10AD700070470000A821002030B51F491F4B012556
:10AD80000322C91AC9088BB002EB014478B101282B
:10AD900025D0194A1946511AC908012202EB01426D
:10ADA00002281FD0032810461FD015A11EE0204600
:10ADB0001DA104F065FA6846FEF748FF8DF80050C3
:10ADC00069462548FFF7C3FB00212448FFF75AFDD9
:10ADD0000246204622A104F057FA0BB030BD2046AF
:10ADE00025A103E010462DA100E03BA10BB0BDE87A
:10ADF000304004F045BA0000585C0200B05B02002D
:10AE0000556E6B6E6F776E206576656E7420667218
:10AE10006F6D20626C655F6466755F627574746FD8
:10AE20006E6C6573732E00004465766963652069F6
:10AE30007320707265706172696E6720746F20652F
:10AE40006E74657220626F6F746C6F6164657220DE
:10AE50006D6F64652E0000008C1C0020D5BD0100C4
:10AE6000446973636F6E6E65637465642025642046
:10AE70006C696E6B732E000044657669636520779C
:10AE8000696C6C20656E74657220626F6F746C6F94
:10AE900061646572206D6F64652E00005265717586
:10AEA00065737420746F20656E74657220626F6FB5
:10AEB000746C6F61646572206D6F64652066616992
:10AEC0006C6564206173796E6368726F6E656F750F
:10AED000736C792E000000005265717565737420E3
:10AEE000746F2073656E64206120726573706F6E7D
:10AEF000736520746F20636C69656E742066616988
:10AF00006C65642E0000000038B5044600882128D6
:10AF10001CD013DC102822D1072000F0D7FA08B18A
:10AF2000FEF768FF1048A1880180104803F0E2F99D
:10AF3000002814D0BDE83840FEF75CBF3B280FD096
:10AF400056280CD1A088132176DFF1E7002000906D
:10AF5000A08869468FDF002801D0FEF74BFF38BD7F
:10AF6000A088132176DFE3E7501A0020801C002020
:10AF700010B51A4C0188606810290ED011292BD108
:10AF8000401E606028D1FEF746FE002824D02168CC
:10AF9000002921D0BDE810400847D0B90021012286
:10AFA000084600F071FA08B107280FD107220221E4
:10AFB000012000F069FA08B1072807D10422022114
:10AFC000002000F061FA20B1072802D0216801B109
:10AFD00088476068401C606010BD0000681A00204F
:10AFE0002DE9F04701883B4E40F2F3194FF6FF750B
:10AFF00010291BD011293ED0122954D0502946D1F6
:10B00000C188F289841D914241D1618902293ED1D2
:10B010008688304602F08CFA050038D004F10C0026
:10B0200000F0F8F8A8B3294630464EE0C17B878887
:10B03000044601292BD1A846284602F079FA0500DA
:10B0400017D02F8000202872234843464A460168C3
:10B05000C5F80A104068C5F80E0004F1100105F1AA
:10B060000A0002F029FB6872F08900280FD12946F6
:10B070002AE0042013E0808802F05AFA040006D087
:10B080006068FEF763FF08B107F072FC2580BDE839
:10B09000F087FFE76868FEF759FF0028F7D0BDE8A2
:10B0A000F04707F065BC87880646384602F040FA4C
:10B0B0000400ECD02B464A4606F1080104F10A00D0
:10B0C00002F0FAFA607221463846BDE8F04700F017
:10B0D000B7BD00002C1E0020701A00202DE9F0479B
:10B0E00002888688DFF8F8A098B0102A0DD0112ABF
:10B0F00046D00AF11003192A61D01A2A6CD1007ABD
:10B100000409042C43D3012242E0354C083CA068DA
:10B11000C0430B9061680BA802F0E0FF0B990CA8EC
:10B1200000F028FD2C220CA96846FEF7B9F900278B
:10B13000E8460FE008EB47005FF00005B0F8049028
:10B1400004EB85004946001D02F064FF6D1C1E2DB6
:10B15000F6D37F1C0098B842ECD8142E05D318B053
:10B160000420BDE8F047FEF745BE3146504602F0E8
:10B170009CFF18B03146201DBDE8F04702F095BF96
:10B1800018B031465046BDE8F04702F043BF0022F8
:10B190003146184601F050FB032C01D3012200E098
:10B1A00000220F4831460C3001F046FB022C01D33F
:10B1B000012200E000220A483146083007E0017A07
:10B1C000002909D1407A3146C0F3C002184618B0B0
:10B1D000BDE8F04701F030BB18B0BDE8F0870000D3
:10B1E000501E002010B504460748007800280AD0F9
:10B1F000204601F0CBFF204607F0C2FD2046BDE807
:10B20000104001F069BC10BDA81A00200078C0F3FE
:10B2100040007047007800F0010070470149085C69
:10B2200070470000E43F02000649095C4FF0A0406F
:10B23000D0F81005C84010F0010000D0012080F0C7
:10B2400001007047E43F02002DE9FC410646C007BB
:10B250004FF000050ED0104F00240122385D0095FC
:10B2600000231146019503F041FD641C042CF4D326
:10B2700000F046F8B0070DD5074E0024361D002219
:10B28000305D032300951146019503F02FFD641CEA
:10B29000042CF4D3BDE8FC81E03F020007490B5CBD
:10B2A0004FF0A041D1F804250120984020EA020384
:10B2B000C1F808351040C1F80C057047E03F0200A6
:10B2C0000249085C012103F0C8BD0000E03F020014
:10B2D0000249085C002103F0C0BD0000E03F02000D
:10B2E0000649095C4FF0A040D0F80405C84010F0B2
:10B2F000010000D0012080F001007047E03F020013
:10B3000010B500242046FFF7DBFF641C042CF9D3A2
:10B3100010BD10B500242046FFF7DAFF641C042C92
:10B32000F9D310BD10B50246064B4FF0FF30002197
:10B330005C5C944201D1084610BD491C0429F7D336
:10B3400010BD0000E43F020070B50C4E0C004FF041
:10B35000000530600BD0012000F06AF808B102202F
:10B3600004E0002000F064F800B10B202070706849
:10B3700010B9FEF750FC0546284670BD681A00203B
:10B3800010B5002000F0DCF908B1062806D1012034
:10B3900000F0D6F908B1062800D1002010BD000049
:10B3A0002DE9F0470D468146FFF7BCFF044604280F
:10B3B00036D2DFF874801B481C4EA8F10C0725B369
:10B3C000012D0ED0022D2BD104EB440030444578E2
:10B3D000002D25D0B968002922D02846BDE8F047C5
:10B3E000084704EB4401755C0E44717849B10E4A7C
:10B3F0004FF48041093A8068FEF790FD08B987F85C
:10B400000390B17808F80410E2E78068FEF79EFD2B
:10B4100004EB4401314418F804008D78A842D7D0D9
:10B42000BDE8F087E83F0200641A0020C81D002034
:10B43000042801D2FFF7F8BE0020704701461048EB
:10B4400010B50088042907D007290ED00A2915D184
:10B45000BDE8104007F07EBC132176DF0CE0002829
:10B460000CD0BDE81040FEF7C5BCA0F57F41FF3908
:10B4700004D10448FFF7A4F80828F0D110BD00005B
:10B48000501A00208C1C002070B50023042810D214
:10B490000D4D00EB4004012A02D101290CD00022FD
:10B4A000094E00EB4000304461B1012906D0022969
:10B4B00006D00723184670BD0E30C2B22A55F9E7F0
:10B4C0004270F7E78270F5E7C81D0020044A014684
:10B4D00000201279D20702D0084600F04DB870471C
:10B4E000581A002070B506461E480024C0E90161C4
:10B4F000B00720D50025012211462846FFF7C4FFDA
:10B500006D1C0446042D02D2002CF4D013E094B933
:10B5100040F2333204211448FEF7EAFB04000AD15A
:10B52000FEF7D4FB040006D10F48104A0021001F8B
:10B53000FEF7BAFC0446F00712D00120FFF784FEA4
:10B5400074B909480A4A00210C38FEF7ADFC040022
:10B5500006D10548074A01210838FEF7A5FC044634
:10B56000204670BD581A0020F43F02004DB801007B
:10B570004DD70100BB9C01002DE9F05F6E4C0546E4
:10B5800000266078B34618B184F801B002F0C6F81E
:10B590006A4F4FF47A694FF4C87A4FF00108182DBA
:10B5A00069D2DFE805F00C1313384754696E727BDB
:10B5B000727BC58484848484B3B6B9BCC5C502F0EB
:10B5C000ADF83868FEF7C2FC06465CE00020FFF7E5
:10B5D00087FE00284FF0000008D0FFF771FE022D13
:10B5E00002D14FF4E16008E0484606E0FFF770FE44
:10B5F000022D01D1C82000E05046410CC0034FF499
:10B600007A72801841F10001257052000023FDF785
:10B6100003FF01462AE00020FFF762FE00284FF0FA
:10B62000000004D0FFF74CFE4FF44870E5E7FFF749
:10B630004FFEDFE70020FFF753FE00284FF0000029
:10B6400002D0FFF73DFECFE7FFF742FED4E7002030
:10B65000FFF746FE00284FF0000002D0FFF730FE53
:10B6600001E0FFF735FE257040F6CD410022386835
:10B67000FEF754FC064646E00020FFF70FFE25705B
:10B6800008E0002051E025703DE084F801800120B1
:10B69000FFF704FE002240F26661E8E784F80180CB
:10B6A0000120FFF7FBFD00224FF40051DFE778682F
:10B6B000FEF74CFC0646D5F1110000D02EB1022059
:10B6C000FFF7FEFD84F802B01DE0012816D980B214
:10B6D000C8214843C117C90341EA5041C0034FF490
:10B6E0007A72801841F1000152000023FDF794FEA8
:10B6F000014600227868FEF711FC06460220FFF79B
:10B70000E7FD84F802803046BDE8F09F02F006F8BD
:10B71000B9E702F003F8B4E702F000F804E001F042
:10B72000FDFF0020FFF7D4FD0120FFF7D1FDAAE7C0
:10B73000FFF7EFFDA7E70000581A0020E83F0200DE
:10B74000012108F0D8B900002DE9F84F0546861C04
:10B7500000208DF8000091460F464FF0010A684620
:10B76000FEF7FAFB1B4C04F21C4860683860D4E911
:10B770000101194F401A3968081A0EE001214046AC
:10B7800002F0A6FC02F072F90146404602F0A0FC6D
:10B79000D4E90101401A3968081A401C8642EDD8E4
:10B7A000B9F1000F03D0052065F3891002E00620EF
:10B7B00065F39F5061683A68114004EB8101C860ED
:10B7C0006068304460609DF80000FEF7E9FB504679
:10B7D000BDE8F88FBC260020001C002070B50D4687
:10B7E00004460A2902D10D21FFF7F8FFA06822685C
:10B7F000411CA1601554D4E90101814204D32046C3
:10B80000BDE8704002F037BF70BD00000448816899
:10B810004068814201D1012070470020704700003C
:10B82000BC260020034630B5074800210478426852
:10B8300006E000BF02EBC10005789D4203D0491C21
:10B84000A142F7DB002030BD581B00200078022108
:10B85000FFF7A6BD032805D10349A92008600020F1
:10B8600003F0C8BE70470000200500401CB5044628
:10B8700001F0B0FD00236A46092105F0E9F9052829
:10B8800005D10348012241792046FFF779F81CBD14
:10B89000781A00201CB504460020009042F6A6202D
:10B8A000ADF8000001208DF80200084801AA6946A1
:10B8B000006801902046A0DF002805D1044801223D
:10B8C00081792046FFF75CF81CBD0000144002009F
:10B8D000781A002005494FF0FF32082841F820204F
:10B8E00002D3084480F8482070470000002200205E
:10B8F000F0B54FF0FF3512B10023082601E0082310
:10B900000C260C4C05E000BF54F823707F1C04D0BB
:10B910005B1CB342F8D32846F0BD26185DB286F80A
:10B92000305044F82310002AF5D1E11881F848007E
:10B93000F1E70000002200200249084490F930009D
:10B9400070470000002200202DE9F04381468878EE
:10B9500091B090460C4600B901208DF83E00208839
:10B96000ADF83C0000250095607C694607F09CF925
:10B970006E46A07C711C07F097F9E07B00289DF8CB
:10B98000020002D040F0080001E020F008008DF82D
:10B990000200217C11B140F0100001E020F0100005
:10B9A0008DF80200217B11B140F0010001E020F090
:10B9B00001008DF80200217D09B1022100E0012182
:10B9C00061F342008DF802001C2102A8FDF781FD01
:10B9D000607BC10601D4800617D50E950EAFE07CC2
:10B9E000791C07F061F99DF83800079720F00F00E7
:10B9F000401C20F0F00010308DF838009DF83A001F
:10BA000020F00600801C8DF83A00607B8DF808005D
:10BA1000A07B8DF80900142109A8FDF75AFD0FA895
:10BA2000CDE90906A088ADF83000A06820B1E08813
:10BA3000ADF82C00A0680D90A06998B3019500881E
:10BA4000ADF81000A06901AD01A94088ADF8120061
:10BA5000A069406806950390A069007B07F024F96F
:10BA6000A069691C407B07F01FF9A069807A002853
:10BA70009DF8060002D040F0080001E020F0080028
:10BA80008DF80600A169C97A11B140F0100001E0FB
:10BA900020F010008DF80600A169097A19B140F074
:10BAA000010002E00DE020F001008DF80600A16920
:10BAB000897B09B1022100E0012161F342008DF888
:10BAC0000600E06900B10590434609AA02A948466C
:10BAD000AADF11B0BDE8F08370B504464FF6FF75DC
:10BAE0000A462846AC4209D14FF4807421461046DC
:10BAF00002F0ABFA80B2A0420BD070BDFF2CFCD894
:10BB00002146104602F091FA90F0010F01D0204634
:10BB100070BD284670BD000070B5084C050009D006
:10BB200010342168002907D0086820604968284639
:10BB30008847F6E70834F4E770BD0000EC210020E8
:10BB4000054A012120B1012805D19170FFF7E4BF1A
:10BB500051700020FAE77047EC21002010B5D0E9C1
:10BB60000234D1E90220D11AA04101D3012010BD35
:10BB7000002010BD73B58CB00646002000900D98D3
:10BB800080B100246D4621460DA802F083FA30B141
:10BB9000009805EB400084800098401C0090641CD5
:10BBA000142CF0D32C2269463046FDF779FC0EB0F8
:10BBB00070BD2DE9F04117880646B81D14460D46A4
:10BBC000984202D90C20BDE8F0813188072206296D
:10BBD0000AD34FF4486C4FF6FF73614501D999427F
:10BBE00002D17088062801D21046ECE7604501D9E1
:10BBF0009842F9D1994203D0984201D08142F3D8BA
:10BC00000520E85520881221401C80B2208029544C
:10BC10002088401C80B220804119308807F015FE32
:10BC20002188084480B220804119708807F00DFEF9
:10BC30002188084420800020C5E7FEF7DBB800001B
:10BC400038B54A7A0F4B62B100220A72596900294D
:10BC500006D001228DF80020ADF802006846884722
:10BC600038BD0A7A62B19B684C6802461946204684
:10BC7000FEF754F90028F3D0BDE8384006F078BE4E
:10BC80005B68F1E72C1E0020F0B585B016460F4624
:10BC900004461D4614220B496846FDF701FC0A487C
:10BCA0008DF80870ADF80240ADF80A608DF80C50C0
:10BCB000017800222046FEF763FE684600F088FB0C
:10BCC00005B0F0BD58410200181B0020FDF7DCBE96
:10BCD00070B504460948012102F015FABFF35F8FE1
:10BCE0000025002808D1204601F03AFE002803D1A3
:10BCF000BFF35F8F0148056070BD0000841A00200B
:10BD00002DE9FF410C4620B14FF4064004B0BDE8D8
:10BD1000F0812079002748F2096538B141F61D56B7
:10BD200001281BD0022826D0681DEFE702202071D1
:10BD300002970397E0680190694601A806F066FA49
:10BD400050B102988188E18000882081BDF8001000
:10BD5000029806F0D9FAD9E72846D7E70A4B6A468F
:10BD60000021A01D06F00AFA38B1074918398F6181
:10BD7000CF61A842CAD13046C8E7034881880198FC
:10BD800006F0C2FAF5E70000B81B002070B50024E9
:10BD90000F4D10E0686800EBC406307803F0F4FF44
:10BDA0007178012901D0012100E000214140307863
:10BDB00000F062FA641C28788442EBDBD5E90401C8
:10BDC000084303D0BDE8704007F08CBB70BD000095
:10BDD000581B002030B40446132176DF03000BD03B
:10BDE000064807492246401AC008022101EB0040DC
:10BDF00030BC044903F04FBA30BC7047585C0200B5
:10BE0000B05B02006845020010B50021024802F054
:10BE10007AF980F3100010BDD82A00204FF4803248
:10BE20008A400168C1F848230068C0F808237047B9
:10BE30004FF4A07202EB810189B200F08DBA2DE9B6
:10BE4000F04105460E464FF4A07000EB860081B22B
:10BE500028684FF48034B440984622F07F47C0F8F9
:10BE600008432868C0F84843286803F0FBFB2868AB
:10BE700000EB8600C0F840752868C0F84443B8F16C
:10BE8000000F02D02868C0F80443BDE8F0810068C4
:10BE9000D0F804057047000070B54379234C44F88E
:10BEA00023204279231D03EBC202224C1579204A3C
:10BEB000121BD4082DB10825022000EB04401EA15E
:10BEC00030E005680A88C5F8082590F904208978CB
:10BED000002A4FEA411104DB02F1E02282F800144B
:10BEE00005E002F00F0202F1E02282F8141D90F941
:10BEF00004100122002909DB01F01F0502FA05F5F3
:10BF00004909890001F1E021C1F80051417900257A
:10BF100003EBC1010A71417943F83100032000EBC2
:10BF200004400EA103F0ACF9284670BD941B00201C
:10BF3000385C0200B05B020052544320696E737497
:10BF4000616E636520616C726561647920696E69F8
:10BF50007469616C697A65642E0000005254433A3A
:10BF600020696E697469616C697A65642E000000ED
:10BF700090F90400002809DB00F01F020121914024
:10BF80004009800000F1E020C0F8001270470A4626
:10BF9000022100F067B94FF4827100F0DDB900684A
:10BFA00001210160704700680121416070472DE95F
:10BFB000F05F07460C464FF4A07000EB84001FFAB8
:10BFC00080FA38684FF48036A6409B4622F07F45C1
:10BFD000C0F848633868C0F808633868D0F804854A
:10BFE00000EB8402D2F84095C2F84085514638688B
:10BFF00003F038FBA9EB080020F07F40012806D1B0
:10C00000102003F003FE5146386803F02BFB38681C
:10C01000D0F80485C0F84463A5EB080121F07F4106
:10C020003868012900EB840010D0C0F8405538680A
:10C03000D0F804156FF07F4C6A1A521E22F07F422E
:10C04000ACEB0B03934217D362B118E06D1CC0F840
:10C050004055102003F0DAFD3868D0F8040540455B
:10C060000AD10CE000EB84006D1CC0F84055386824
:10C07000D0F80405884202D00D20BDE8F09F0122CF
:10C080003146384600F0EEF80020F6E770471346D8
:10C090000A460021FFF7F8BD2DE9F843104D0F4681
:10C0A00080461E4691466946286801F087FF0400D5
:10C0B00014D01C21FDF70DFA01202071C4F8149052
:10C0C000380BC4F80080C4E902606946286801F0B2
:10C0D00096FF05F0BDFF0020BDE8F8830420FBE7D4
:10C0E0007042020010B503780022072B06D2DFE869
:10C0F00003F005040610202930000A7010BD01234A
:10C100000B7003898B818388CB81C06888600A7437
:10C1100010BD02220A7002898A818288CA81C2689F
:10C120008A60807D062802D00020087410BD01209E
:10C13000FBE703220A70C2888A810289CA81C0682B
:10C14000886010BD04230B70C0888881CA818A6012
:10C1500010BD0520087010BD70B5064D06460024C0
:10C1600055F8241009B130468847641C042CF7D3D5
:10C1700070BD00007023002030B50446006887B011
:10C180000D46806800281FD018216846FDF7A1F9E8
:10C190000195A0680590207910B1012810D107E021
:10C1A00001208DF8000020690290E068039005E00E
:10C1B00002208DF80000E06800030290606904909E
:10C1C000206881686846884707B030BDF0B585B003
:10C1D00017460C0005463AD0112C38D0082C36D022
:10C1E0001C481D49401AC6080D2C11D0204603F0EA
:10C1F000A1FC0246012000EB06402B46174903F044
:10C200004AF82A460721684601F08CFE02941BE09A
:10C21000022000EB06402A46114903F035F82A4671
:10C220000321684601F07EFE27B13878C00701D0AF
:10C23000012000E002208DF8080000208DF80C009D
:10C2400041F20110ADF80A00684600F0CFF805B0E1
:10C25000F0BD0000F85B0200B05B0200B8520200C3
:10C26000A85102000368C3F84413002A02D00068F2
:10C27000C0F80413704700002DE9F84F0E4634490A
:10C28000804601EB5001C007097801D00F0901E099
:10C2900001F00F074FF00009424601204946FDF723
:10C2A000ECF8DFF8B0A004460D46052F4ED2DFE8CB
:10C2B00007F003161B282C00002E47D00121404612
:10C2C00006F0F4FF8DF800906846FDF745FE5046F5
:10C2D000D0E904120C431543CAE9044532E00EB11B
:10C2E000022114E0002112E04EB10321404606F085
:10C2F000DDFF4046BDE8F84F012107F085BB012175
:10C3000005E0002E22D1042101E02EB10321404698
:10C31000BDE8F84F06F0CABF0021404606F0C6FF50
:10C320000021404607F070FB8DF800906846FDF74D
:10C3300013FE5046E243D0E904341A4024EA0501D2
:10C34000CAE904219DF80000FDF72AFEBDE8F88F38
:10C35000D0220020581B002010B5006842581AB1A6
:10C3600003F080F9012010BD002010BD10B5044677
:10C37000408801F02FF8A080024801682046BDE8FF
:10C3800010400847801A002010B50446808800F04D
:10C390006BFF6080024801682046BDE810400847F6
:10C3A000901A00202DE9F04107460024064E074D63
:10C3B00005E000BF56F8241038468847641CE8782A
:10C3C0008442F7DBBDE8F0815C210020A81A002040
:10C3D00010B50446408800F0FDFFA08002480168C7
:10C3E0002046BDE81040084718410200014909688D
:10C3F000084700009441020070B586B0044614213D
:10C400006846FDF766F8A0890125A0F54040ADF823
:10C41000040020782F4E062833D2DFE800F03203E4
:10C4200003032C4AA08900F0EBF930B9E08943F608
:10C43000FE71A0F54040884223D8A07B8DF808000B
:10C44000207803280FD000208DF80900A068039001
:10C45000606850B109208DF800006068049068465B
:10C4600004F048FB0DE00120EEE708208DF8000005
:10C470008DF81050F3E7A08900F0C2F908B1E08907
:10C4800030B17078002801D004F088FC06B070BD8F
:10C49000606830B10B208DF8000060680290757004
:10C4A000DDE70A208DF80000BDF8040004F01AFD55
:10C4B000F5E7606848B114208DF8000060680290CC
:10C4C0004FF6FF70ADF80400C9E713208DF80000A7
:10C4D000F6E70000941A002038B504460F480078AB
:10C4E000B0B1A4F57F40FF380FD0684605F0E0FCFE
:10C4F00088B10521017001210171C480684605F0F1
:10C50000E5FC05F097FD002038BD48F2036038BD1A
:10C5100048F2016038BD48F2076038BDC01B0020FA
:10C520000D4808B5007888B1684605F0C1FC80B1B7
:10C5300006210170684605F0C9FC0848017809B178
:10C540000121017305F076FD002008BD48F201606D
:10C5500008BD48F2076008BDC01B0020342400203D
:10C56000F0B587B014216846FCF7B3FF304C207853
:10C5700018B16846FFF7F0FD57E0201D01F0A5FD5A
:10C5800098BB40F6F8700168481C02D14FF01020AB
:10C5900041694FF0805000694A1C02D100EB400015
:10C5A0000101244800220161A1F54051C1602249E6
:10C5B00002F0F6F9002823D121481C238C221F49C0
:10C5C000006801F0E8FC04F021F8050016D0022D07
:10C5D00014D000270126062D14D005A805F068FC0C
:10C5E00098B106700C2D1BD200E01EE0DFE805F0CC
:10C5F00018101810181718171812141248F20A6099
:10C6000007B0F0BD26706760B3E748F20760F7E750
:10C61000077105E0032100E00221017100E00671CD
:10C6200005A805F053FC05F005FD0020E8E7000033
:10C63000C01B00205C1C00208042020080230020E0
:10C64000E841020038B5040014D0694605F0DEFD6B
:10C65000B0B1BDF8000000EB80010B4800EB810099
:10C66000C16851B1A17A41B1C168491EC1600020C1
:10C67000A07238BD48F2046038BD48F2056038BD8C
:10C6800048F2096038BD00000C2400201FB501A944
:10C69000684605F073FD04B010BD07B513460A46A1
:10C6A0006946002005F06AFD0EBD07B513460A462F
:10C6B0000021684605F062FD0EBD20B119B1006889
:10C6C00008600020704748F204607047F8B50D46D6
:10C6D000040018D0BDB1694605F098FDB0B1BDF8B1
:10C6E00000000C4900EB800001EB800001210C30C0
:10C6F000666801F0EDFC2E6060680C306860012017
:10C70000A0720020F8BD48F20460F8BD48F209604C
:10C71000F8BD00000C24002018B10323002207F00C
:10C720002DBB48F2046070470223002207F026BBAD
:10C73000094910B50A69042A0AD0084A096942F869
:10C74000210005480121103001F0C2FC002010BD7D
:10C7500048F20B6010BD0000A01B002070230020D9
:10C760002DE9F84F044624480078D8B1F4B11221DD
:10C770002046FCF7AEFE0320DFF8809020800025E5
:10C7800004F1100804F10E0A05EB850109EB81069E
:10C7900030897189084487B2706803F0C1FE0328AC
:10C7A00007D009E048F20160BDE8F88F48F2046064
:10C7B000FAE72088401E20806088F1680844608085
:10C7C0002089718908442081608938446081C7F5D7
:10C7D0008060A18980B2814200D2A0815346A21D0F
:10C7E000211D2846CDF8008005F0ACFD6D1CADB2D2
:10C7F000022DC9D30020D7E7C01B00200C24002045
:10C8000043F6FE71A0F54040884201D801207047F0
:10C810000020704710B504460078182802D1FEF7B2
:10C820008BF8207010BD10B504460078182802D18E
:10C83000FEF782F8207010BD0AB101F036BC01F09D
:10C84000E9BB70B50D460446B0F8D810D0F8D40056
:10C850000122FDF7CAFD00B1057004F13C0204F1AC
:10C86000D40104F1540072DF70BD000070B51346AE
:10C8700000220546112900D10122074C33B121794C
:10C88000FEF77EF800226178284600E06178BDE876
:10C890007040FEF775B80000201B0020F7B5174662
:10C8A0000E0011D00098002560B100242146684692
:10C8B00001F0F0FB18B1A0B23946B0476D1C641C02
:10C8C000142CF3D32846FEBD0020FEBD406805F0C1
:10C8D0000FBB000070B510B14FF4064070BD1C4C8A
:10C8E0000025207B08B1257301E000F0A5F8207831
:10C8F00008282AD2DFE800F02904080C10291422A5
:10C90000BDE8704000F026B8BDE8704000F082B885
:10C91000BDE8704000F064B8BDE8704000F040B879
:10C920000620207060880A4900EB8000283901EB5E
:10C9300080004068BDE8704003F048BE07202070CA
:10C940006560BDE8704003F04FBE48F20E6070BDF8
:10C95000342400201149F0B48A1C00200346A1F1C0
:10C9600028050C18A67A4EB1A37200EB800405EBE3
:10C970008404E66816B9247C012C0AD0401C80B2DD
:10C980000228EED30B704B804B60F0BC41F61D507B
:10C9900070471080F0BC00F03DB800003424002047
:10C9A0000C48418801EB8102A0F1280101EB8201D2
:10C9B000CA6852B1052101700748022181800168CF
:10C9C00000230122054801F04FBF0422027049688C
:10C9D000F6E7000034240020C81B00205C1C002067
:10C9E00038B50A49084803240B684268898803EB74
:10C9F000810153880470DB1C00201B0400909B0BFA
:10CA0000034802F085F838BD34240020C81B0020FC
:10CA10005C1C0020074910B54888091D05F046FC3C
:10CA200018B1BDE81040FFF7DBBFBDE81040FFF7CD
:10CA3000B7BF00003424002070B5194C01212078C4
:10CA400008281AD2DFE800F00419191C2529291832
:10CA50002089134A401C2081002060802073283ADE
:10CA600000EB800312F8233043B100232518401C4B
:10CA700080B2AB720228F3D3217070BD0123F5E7B9
:10CA80006068084940888A88C01C10448880022059
:10CA900004E000F009F8062000E00720207070BDD7
:10CAA00034240020C81B00200A490948498802682C
:10CAB00001EB81030749283901EB83014B680360CF
:10CAC0004A6082880A8102228280002008747047AE
:10CAD000C81B0020342400202DE9F043064680883E
:10CAE0003288DFF85C8185B00746502A37D010DCE9
:10CAF0005449554B06F10A05A1EB03014FEAD10158
:10CB00004FF0020303EB0144352A3AD0362A07D10D
:10CB100068E0522A02D0542AF9D102E000F0C4FEA3
:10CB200082E0142249496846FCF7BAFCADF802706D
:10CB3000384600F04FFCADF8040000F0C9F90022BF
:10CB4000444698F804103846FDF71AFF0022E178B1
:10CB50003846FDF715FF6846FFF708FC64E0307BB8
:10CB6000012861D1B07A01285ED13089A0F5245125
:10CB7000023959D10121384600F0EAFE06F0D4FE10
:10CB800052E098F80610FDF7E3FE00284CD0002292
:10CB900098F806103846FDF7F3FEF288B2F5857F67
:10CBA00017D012B120462AA10BE02A88012A03D00F
:10CBB000204636A102F068FB6A88012A04D020468C
:10CBC00041A102F061FB04E0A98800223846A1DF00
:10CBD00008B1002125E0012298F807103846FDF73A
:10CBE000CFFE21E04FF0000998F80710FDF7B0FEE6
:10CBF000D0B1002298F807103846FDF7C1FEF28840
:10CC000012B1204612A104E0AA88012A04D02046CD
:10CC10002DA102F039FB03E0A87900B10120814683
:10CC20004946384606F0A4FB0022364998F802002F
:10CC3000FDF732FE05B0BDE8F04305F0E9BE0000A7
:10CC4000781A0020B05B0200B05B02006C4002006A
:10CC5000556E65787065637465642047415454204F
:10CC6000737461747573207768696C652067657487
:10CC700074696E6720434152206368617220766157
:10CC80006C75653A20307825780000004D756C741D
:10CC900069706C652028256429204341522063680F
:10CCA0006172616374657269737469637320666F1E
:10CCB000756E642C207573696E67207468652066D4
:10CCC000697273742E000000556E65787065637428
:10CCD00065642043415220636861726163746572C8
:10CCE00069737469632076616C7565206C656E6725
:10CCF000746820282564292C2073746F7265203095
:10CD00002E000000E5A0010070B504460078002860
:10CD100014D1608800F0C8FD6588284600F09AF9B3
:10CD200028B107480122C1782846FDF729FE60880E
:10CD3000FEF79CFDBDE8704006F0F6BD70BD00003A
:10CD4000781A002070B5204C00252570FDF7F4FD01
:10CD50006070FDF7F1FDA070FDF7EEFDE070FDF7EE
:10CD6000EBFD2071FDF7E8FD6071FDF7E5FDA071B9
:10CD7000FDF7E2FDE07162780121182A18D0A2784F
:10CD8000182A15D0E278182A12D02279182A0FD042
:10CD90006279182A0CD0A279182A09D0182807D04D
:10CDA00004F10C000560BFF35F8F2170002070BD9F
:10CDB0000648074A801AC00801EB0040054902F006
:10CDC0005FFA032070BD0000781A0020B05B0200FB
:10CDD000B05B0200AC4502007CB504460078082830
:10CDE00037D1607A58BB207A1C4E4FF6FF75012868
:10CDF00011D0072802D008282BD121E0A08800F00C
:10CE000033FA0446A84224D0012100F0A1FD2046B7
:10CE1000FEF72CFD1DE0A0886A46012103F08CFD81
:10CE200068B90198007850B1A08800F01DFAA842B6
:10CE30000FD00122F178FDF7A3FD05F0E9FD08E030
:10CE4000F068012805D1BFF35F8F044900200C3141
:10CE50000860BDE87C4006F067BD0000781A00203D
:10CE600010B50B48FFF713F8094A083AD2E9043421
:10CE7000C018D2E9063244F10001C31A71EB020274
:10CE800004D24FF08072801841F1000110BD000003
:10CE9000781B002010B5C0B2FEF7C4FC0446007831
:10CEA00002F072FF01466078012801D0012000E005
:10CEB000002090EA010F08D00449D1E90401084399
:10CEC00003D1BDE8104006F00DBB10BD581B00207B
:10CED0001CB5054AD2E90212CDE9001200226946CA
:10CEE00003F0F0FE1CBD00008440020003484FF632
:10CEF000FF7181800121017000207047881A002095
:10CF00002DE9FC41804600F065FA00240325012745
:10CF1000A0F57F412646FF3908D06A46082103F074
:10CF20000BFD18B90198841D8688056832462B468A
:10CF300021464046B1DF042804D0082804D00B283D
:10CF400008D002E0112000E00020002F00D10B20CB
:10CF5000BDE8FC810027A80701D50125E6E7344399
:10CF600003D0002426460325E0E70648064942464A
:10CF7000401AC008012101EB0040044902F084F985
:10CF8000E5E70000B85B0200B05B020074480200F5
:10CF90002DE9FC41804600F01DFAA0F57F410646D0
:10CFA000FF390ED001252A466D1C0027ADB26B4615
:10CFB0000821304603F00AFD040006D0072C33D0C8
:10CFC00033E043F20200BDE8FC81019903230A1D0E
:10CFD0000B604046891DB2DF040004D00C2C09D040
:10CFE000052C09D009E032460821104603F066FD01
:10CFF00004461AE0012700E000240821304603F02F
:10D0000053FD70B102F096FD0346094809493246C6
:10D01000401AC008012101EB0040074902F03BF92A
:10D020000324002FBFD100E00C242046CBE70000F2
:10D03000B85B0200B05B0200F4470200044880883D
:10D04000A0F57F41FF3901D005F0ECBC704700002E
:10D05000881A00200EB502A9019100F0BBF96A46BA
:10D06000012103F069FC08B100200EBD0198007891
:10D070000EBD00002DE9F04107464FF6FF7610483F
:10D08000B3DF78B102F056FD02460E480E49401A51
:10D09000C008012101EB00400C4902F0F5F8032023
:10D0A000BDE8F081064C43F20305A41E32466188B8
:10D0B0003846AFDFA842F3D16088401C6080F5E7B6
:10D0C0008A1A0020B85B0200B05B0200A847020089
:10D0D000428800EB82020C328A4201D9022070475A
:10D0E0008188A1F57F42FF3A06D0018821B180688E
:10D0F000401C01D00020704701207047884204D2B4
:10D100000068401C01D001207047002070473EB5E8
:10D11000027802230C46B3EB520F17D1B0F801107E
:10D12000ADF80010C1788DF802108188ADF80410B8
:10D1300080798DF8060002AA01A92046FCF794FD2B
:10D14000032202A96846FCF7D6F908B100203EBDCB
:10D1500001203EBD70B50D460446142810D2FDF7DF
:10D160002BFC68B1084904EB840001EB4000D0F8C7
:10D1700002102960C188A980007AA871002070BDC2
:10D1800043F2020070BD0000C41E002070B501888B
:10D1900090B0102961D1011D28226846FCF780F962
:10D1A0009DF804004FF6FF7603213446B1EB500F93
:10D1B0002BD003F045FD9DF804006D4640080ED0CD
:10D1C00001280CD0022820D118E00C99281D11311B
:10D1D000FCF7F8FC18B100BFBDF8284015E00BAA19
:10D1E0000AA9072003F000FD0028EED10DE00C99FC
:10D1F000281D491CFFF78BFF0028EDD10BAA0AA9B7
:10D20000072003F0F1FC0028F1D1BDF80000B44282
:10D2100000EB8001124820F8114000EB4100019919
:10D22000C0F80210BDF80810C1809DF80A10017204
:10D2300013D0BDF80000ADF82A000020ADF82C4056
:10D24000084E8DF828000AAD044600BF56F8241099
:10D2500028468847641C022CF8D310B070BD00002B
:10D26000C41E0020984002002DE9F0414FF6FF76E1
:10D270000546B04213D00B4F002400BF04EB8400DE
:10D2800037F81000A84206D12046FDF795FB10B1F3
:10D290002046BDE8F081641CA4B2142CEED33046C5
:10D2A000F7E70000C41E00203EB50C46054603F01B
:10D2B000C7FC0BE0BDF80000A04207D02846029949
:10D2C00000F00EF810B1BDF800003EBD01AA69469D
:10D2D000072003F089FC0028ECD14FF6FF703EBD1B
:10D2E0002DE9F0410C46054600F1110701F1110648
:10D2F0001022491C401CFCF7FEF848B9681C00F0DD
:10D30000FDF928B1601C00F0F9F908B1012400E032
:10D31000002431463846FCF755FC3B780222B2EB3C
:10D32000530F0CD00321B1EB530F08D03378B2EB7D
:10D33000530F04D0B1EB530F01D0012100E00021C5
:10D34000084201D18C4302D00120BDE8F0810020C9
:10D35000FBE7018811B9421892780AB101207047A1
:10D36000491C0829F7D30020704710B50C46034626
:10D37000FFF7EFFF00280AD018882188884205D1DE
:10D380000822A11C981CFCF7B6F808B1002010BDBB
:10D39000012010BD142804D2024A00EB800022F8BC
:10D3A00010107047C41E002070B50546FFF75CFFE3
:10D3B0000446284603F0C4FA002808D1142C06D2EB
:10D3C000034B04EB84024FF6FF7123F8121070BD7B
:10D3D000C41E002010B50446142808D2FDF7ECFA4C
:10D3E00028B1044904EB840031F8100010BD4FF659
:10D3F000FF7010BDC41E00203EB5044603F020FCA3
:10D400000EE0019920464631FFF7AFFF28B9019998
:10D4100020462A31FFF7A9FF10B1BDF808003EBD34
:10D420006A4602A9072003F0DFFB0028E9D14FF686
:10D43000FF703EBD10B50A4941600A4800F045FE44
:10D4400058B902F0D7FA07491C238C220874044803
:10D450008C39001F006800F09EFD002010BD000008
:10D4600074420200E02400202DE9F0412D4F0025F8
:10D4700020B17D604FF40640BDE8F08108790122BB
:10D4800058B1294E01280CD0264C4FF00208083420
:10D49000022820D0032841D127E00A7103F0A4F824
:10D4A0003AE0002000EB800116F82110022908D094
:10D4B000401C80B20228F5D33A707D6041F61D50C1
:10D4C000DAE700EB800006F8205006EB80004068A9
:10D4D00003F07CF820E00D71A4F804800023012201
:10D4E0001248216801F0C0F916E00D71206803F0C0
:10D4F0006DF80D4923682831498801EB810206EB5C
:10D500008201D1F804C0C4F800C04B60A3880B812D
:10D51000A4F8048006F822500028ADD07D6048F2BF
:10D520000D60A9E7C01B00200C2400205C1C00201B
:10D530000146034802888A4200D00020704700005C
:10D54000181E00202DE9FC5F0E008346DDE90C4724
:10D55000C6F1000098469246814600D4084601254F
:10D5600003E000BF90FBFAF06D1C5045FADAA845C5
:10D5700000D9454624B1002E01DB780700D5641E92
:10D58000B80702D5B8F1000F0AD0F80708D13CB1AE
:10D59000A54205D220215846641EFEF71FF9F6E782
:10D5A000002E02DA4E462D2102E0780703D52B210A
:10D5B0005846FEF713F907F0030002280BD1B8F123
:10D5C000000F08D13CB1A54205D230215846641E57
:10D5D000FEF704F9F6E7CDE90047434652463146E7
:10D5E000584606F047F9BDE8FC9F000070B50D46AF
:10D5F000044600684FF4887102F0BCFA4FF4907151
:10D60000206802F0B7FA4FF49271206802F0B2FA83
:10D610004FF4A271206802F0ADFA4FF4AC712068AB
:10D6200002F0A8FA20681249C0F8041320686907BC
:10D6300040F30730090E002804DB00F1E02080F8F9
:10D64000001405E000F00F0000F1E02080F8141D48
:10D65000206840F30730002809DB00F01F02012199
:10D6600091404009800000F1E020C0F8001170BD39
:10D6700010034200024600201268530713D502F03F
:10D680000300012802D002280CD105E0C2F3831068
:10D690000B68801C184404E00223086803EB9252D4
:10D6A00010440860012070470248007A002800D02A
:10D6B00001207047E0240020F0B58488A51894422A
:10D6C00000D82246A41AC288D6189A4200D8134617
:10D6D000D21A4B880788BB420CD34088834209D8B2
:10D6E0008888A04206D3A84204D8C888904201D3B3
:10D6F000B04201D90020F0BD0120F0BD0021425C04
:10D700000AB101207047491C1029F8D30020704746
:10D71000800701D000207047012070470A4810B5EB
:10D72000807860B1002401E0022C06D02046FDF78D
:10D73000C7FD641C042CF7D310BD0324F6E7BDE835
:10D740001040FDF7DDBD0000581A002003480179A4
:10D75000C90702D00078FDF70FBF7047581A0020A4
:10D760001721018041800021017141717047000043
:10D770002DE9FE4F2E4F984692460D00814601D06E
:10D7800000260DE0684600F0C3FB6A4600214846CB
:10D7900003F02EF83878009E10B99DF8090098B172
:10D7A00052463146484605F099FC0446014600229F
:10D7B0004846FFF75BF80D2C37D008DCA4B3082CE3
:10D7C00033D00B2C09D130E00520BDE8FE8F112CA1
:10D7D0001ED0A4F54050023827D0204602F0AAF906
:10D7E0000246144814494B46401AC008012101EB77
:10D7F0000040124901F04FFD5FF00305B8F1000F42
:10D8000004D0324621464846FEF7E0FC2846DCE7D5
:10D810002A46F9784846FDF7B3F85246B9784846A3
:10D82000FDF7AEF80025E9E7FFE72546E6E700004B
:10D83000201B0020F85B0200B05B02006052020077
:10D8400070B50E460C49154604460978FDF780F878
:10D8500000280FD0204602F071FF00282A463146EA
:10D86000204603D0BDE8704002F06EBFBDE87040B6
:10D87000FEF70DBC70BD0000181B002070B5094DEF
:10D880000646A978FDF764F80446E9783046FDF7C6
:10D890005FF8014622463046BDE870400123FFF79D
:10D8A00067BF0000201B0020F0B585B005460027AB
:10D8B00014216846FBF70DFEA5F57F40ADF8025038
:10D8C000FF3825D02846FFF71BFB040022D01B4859
:10D8D0001B49401AC6080B2C22D0112C1ED0A4F5CF
:10D8E000405002380ED0204602F024F902460120B2
:10D8F00000EB06402B46134901F0CDFC214628469B
:10D9000005F03EF810483A4681782846FDF738F889
:10D9100005B0F0BD0E208DF800000BE00127F1E707
:10D920000F208DF80000022000EB06402A46074930
:10D9300001F0AAFC6846FEF719FDE3E7B05B0200C0
:10D94000B05B02007C460200781A0020D04602003C
:10D950000A4602494978FDF713B80000781A0020FA
:10D960002DE9F041002786B080463E46FFF710FBC8
:10D97000040022D0112C22D01B481C49401AC50893
:10D98000862C1ED0A4F5405002380ED0204602F05E
:10D99000D1F80246012000EB0540434614A101F0F6
:10D9A0007AFC2146404604F0EBFF39464046FFF73B
:10D9B000CFFF06B03046BDE8F0810126F5E701272C
:10D9C000F3E714221A496846FBF76AFD0220ADF816
:10D9D000028000EB0540424616A101F055FC684666
:10D9E000FEF7C4FCE1E70000B05B0200B05B0200A0
:10D9F0006773636D5F6C6F63616C5F64625F6361CB
:10DA00006368655F75706461746528292072657448
:10DA100075726E656420257320666F7220636F6E69
:10DA20006E5F68616E646C653A20256400000000DA
:10DA300044400200466C6173682066756C6C2E2051
:10DA4000436F756C64206E6F742073746F72652001
:10DA50006461746120666F7220636F6E6E5F6861CF
:10DA60006E646C653A202564000000002DE9FF41DA
:10DA70000026244800F026FB2248001F074600F03D
:10DA800021FB214C2149A06800900D6800E000981E
:10DA90006946284004EB80000C30FFF7EBFD0028BE
:10DAA000F5D101AA009901EA050304EB8303491C9F
:10DAB000DB6842F82030401C00910228F2D3019824
:10DAC00000F0030001280BD0022810D10198032197
:10DAD00001EB90500099BDF80A6001EB900005E061
:10DAE0000198BDF80A60C0F38310084400903846DE
:10DAF00000F0E5FA08B10098A06004B03046BDE837
:10DB0000F0810000D42A0020BC260020001C002048
:10DB1000ACB04FF48041002001F030FC08B1FCF7BC
:10DB200069F901F085FAFCF781FF08B1FCF762F9A9
:10DB3000FCF7C6F908B1FCF75DF901F029FD08B161
:10DB4000FCF758F967490320FDF7CCFC08B1FCF756
:10DB500051F969460020FDF7F7FB08B1FCF74AF9D7
:10DB60009DF8000002287DD05FF0000501F0F6FE70
:10DB700008B1FCF73FF9002469460120009401F048
:10DB800081FD08B1FCF736F9684601F0F7FD08B1F0
:10DB9000FCF730F903F0ECF99DF8080052A120F0F1
:10DBA0000F00401C20F0F00010308DF808000A2211
:10DBB00002A87CDF08B1FCF71DF900945020ADF8F5
:10DBC0000000A0200194ADF80200ADF804404FF42D
:10DBD000C870ADF8060068467ADF08B1FCF70AF9AC
:10DBE0000021444800F0FAFA08B1FCF703F9AC212F
:10DBF0006846FBF76EFC02208DF8000001208DF8CE
:10DC000002000621ADF810008DF803103A48059087
:10DC10001EA8FCF71BF839482990364869461C3085
:10DC2000FCF719FC08B1FCF7E5F8324801211C307B
:10DC3000FCF70EFC324801A9CDE900402D48103018
:10DC400000F063FB08B1FCF7D5F82E480090684659
:10DC5000FCF752FF08B1FCF7CDF81C216846FBF732
:10DC600038FC00E029E04FF4A030CDE900404FF44B
:10DC7000F020029024480590032624488DF80C607B
:10DC80000690ADF80E408DF810406846FCF7B6FDE2
:10DC900008B1FCF7AFF81E481E49401AC00806EB51
:10DCA000004004461CA101F0EBFA65B1204623A117
:10DCB00001F0E6FA03F0B4FF0AE0012556E700BFE1
:10DCC000FCF798F806E00B4803211C30FCF795FCA4
:10DCD0000028F5D101F0BAF90028FBD101F080FC51
:10DCE000F8E700003DB401004E6F726469635F574E
:10DCF00053500000701C0020521A0020390302000B
:10DD000045F6010079AD01005D0302003BBC010056
:10DD1000585C0200B05B0200427574746F6E6C65F3
:10DD2000737320444655204170706C696361746957
:10DD30006F6E20737461727465642E004572617336
:10DD40006520626F6E6473210000000070B5144698
:10DD500082880E4605462088111D0144921C994276
:10DD600001D8FE2A01D90C2070BD521C32542088E3
:10DD7000FF21401C80B2208031542088401C80B29A
:10DD800020808119288805F060FD2188084480B230
:10DD90002080AA8842B1A96841B13044FBF780FBDA
:10DDA0002088A98808442080002070BD072070BD0D
:10DDB0002DE9F047C5881E1DB6FBF5F78946B6FB71
:10DDC000F5F1044605FB176C407916686843DDF8E9
:10DDD00020A0F718001F874200D9C61A166001E07C
:10DDE0002468491E0029FBD1A5EB0C078846B742E1
:10DDF00016D818E004EB0C00001D09EB0803BAF17B
:10DE0000000F3A4602D00146184600E01946FBF7DB
:10DE100047FB2468F61B4FF0000CB844B54201D90B
:10DE2000374600E02F46002EE4D1BDE8F087000021
:10DE300030B5024651B101F0B5FA0021074C08E0B7
:10DE400034F821301568AB4202D11160002030BD9A
:10DE5000491C8142F4D3052030BD000000000000C1
:10DE6000BFF35F8F00F016B9F8B50F46017814467E
:10DE70000546012901D1687830B12088821C9A4278
:10DE800032D8012902D006E00720F8BD69780144A4
:10DE9000891C994228D8181A801E86B2ADF80060F5
:10DEA0002188B81C084469467DDF0028EDD1297817
:10DEB000022904D06878BDF80020904205D3BDF84F
:10DEC0000000B04201D809200AE00820012905D14C
:10DED0006978B14202D8ADF8001001E0ADF80060F9
:10DEE000BDF80010FE2901D90C20F8BD2288491C7C
:10DEF000B9542188491C89B2218078542088401C5B
:10DF00002080BDF80010084420800020F8BD0000EB
:10DF1000034A00219268C0E9002181607047000037
:10DF2000201B002070B586B00D460646144614210D
:10DF30006846FBF7CEFA8DF80050ADF80240204657
:10DF4000FFF748FAADF80400142269463046FBF7A3
:10DF5000A7FA06B070BD70B54FF6FF750E46A84221
:10DF600001D1002000E0401C84B208E02146304688
:10DF700000F090F808B1204670BD641CA4B2FF2CDC
:10DF8000F4D9284670BD10B5FBF791F908B100200F
:10DF900010BD112010BD10B531B1B2FBF3F403FB7D
:10DFA00014241CB1092010BD0E2010BD01600021F9
:10DFB000416081608281C381084610BD70B50C4606
:10DFC0000546FBF729F9002802D021882868084473
:10DFD00070BD10B50A8849888A4203D1FBF75EF903
:10DFE000012010BD002010BD70B50C460546FBF7A2
:10DFF00038F9002802D061882868084470BD10B53F
:10E000000A8849888A4203D1FBF722F9012010BD12
:10E01000002010BD01F01F0301229A40D24349099C
:10E0200000EB8100114600F059B80A4601F01F03C9
:10E030000121994010B552090C4600EB820000F016
:10E040005DF8204000D0012010BD2DE9F041804650
:10E050000D460024481E012101EB501716E058F828
:10E060002400C04390FAA0F0B0FA80F020280CD22F
:10E0700000EB4416AE4208D231464046FFF7D5FFCA
:10E080000028ECD13046BDE8F081641CA742E6D8F8
:10E090002846F8E74A0950F8220001F01F02012142
:10E0A0009140084000D00120704701F01F03012279
:10E0B0009A40490900EB8100114600F029B800217F
:10E0C00000F017B8012100F023B8012100F016B8C4
:10E0D00008B56A46FBF737F9009808BD08B56A46E7
:10E0E000FBF717F9009808BD08B56A46FBF72BF94E
:10E0F00008BD08B56A46FBF70CF908BD08B56A46C5
:10E10000FBF7FAF808BD08B56A46FBF7E9F808BD61
:10E1100008B56A46FBF7F0F8009808BD08B56A46EE
:10E12000FBF71EF9009808BD38B5044600258DF8A8
:10E1300000506846FBF710FF21686268086890424B
:10E140000ED9401E08600178238AE26801FB03258E
:10E15000227A2168101AC0B20A79824200D208716C
:10E160009DF80000FBF71CFF284638BD38B5054672
:10E1700000208DF800000C466846FBF7EDFEE868CD
:10E18000298A201AB0FBF1F12A681068431C136039
:10E1900001709DF80000FBF703FF38BD10B530B1EA
:10E1A000017A42680368891AC9B21A6006E00E2033
:10E1B00010BD03681A68541C1C601170491EC9B256
:10E1C000F7D2006800210171084610BDC20800F0B6
:10E1D00007030120895C98400840704710B560B182
:10E1E000C160172120F8021B20F8021B1B2100F838
:10E1F000021BFFF7B5FA002010BD0E2010BD000075
:10E200007CB50C468188002933D102880025102A6C
:10E2100006D0112A09D03A2A0BD0552A2ED129E04E
:10E220000146204602F0A8F828E0A01DFFF798FA62
:10E2300024E02246408934F8063F834200D818463D
:10E240006080172800D217206080D06878B160798C
:10E2500068B1184BD3E90003CDE90003ADF8021013
:10E260006088ADF80400D368694610469847657128
:10E2700025717CBD0146204602F0FAF8A07A0028FC
:10E28000F7D02846E188A5DF012680B11128F0D01B
:10E2900001F050FC02460848084902B0401AC00884
:10E2A00006EB0040BDE8704005A100F0EDBFA5728F
:10E2B000E6727CBDA0400200C85B0200B05B0200B9
:10E2C00073645F626C655F67617474635F657863D4
:10E2D00068616E67655F6D74755F72657175657392
:10E2E0007428292072657475726E65642025732EFA
:10E2F0000000000020B10278DE2A03D00820704719
:10E300000E20704741800020704760B159B10278FB
:10E31000DE2A0AD009684160DE2101704FF6FF71E4
:10E320004180002070470E207047082070477FB55D
:10E33000054600294DD0002D4BD008780C46DE282C
:10E3400047D1A8886188884202D1204605F04AFB5F
:10E350002888012825D002283BD011283AD05128FE
:10E3600037D135F8040F6188884232D1A978A81CCA
:10E3700002292ED1017A042903D0062901D00529CA
:10E3800027D10021009102228DF8002001914FF445
:10E39000C07202910391ADF80420007A05280FD0D5
:10E3A00010E0297A2046012913D1A9884288914298
:10E3B0000FD10121017204B0BDE8704005F012BB1D
:10E3C000ADF8041028886946B0DF002801D06168E4
:10E3D00088477FBDA88861888842FAD14FF6FF70D0
:10E3E00060807FBD00F180400068002800D00120DF
:10E3F000704708B500F1804000210160006800907E
:10E4000008BD000070B540F6F8700468601C02D1C9
:10E410004FF0102044691248124B4FF00102A3EB59
:10E4200000004FEAD000611C02EB004512D003212E
:10E4300001EB004022460CA100F026FF204613DF2E
:10E44000040005D0284613A100F01AFF204670BD35
:10E45000002070BD28461CA100F012FF042070BDF2
:10E46000B05B0200585C020053657474696E6720EB
:10E47000766563746F72207461626C6520746F20BE
:10E48000626F6F746C6F616465723A20307825300A
:10E49000387800004661696C65642072756E6E693B
:10E4A0006E672073645F736F667464657669636515
:10E4B0005F766563746F725F7461626C655F6261E1
:10E4C00073655F73657400004E6F20626F6F746CCC
:10E4D0006F616465722077617320666F756E64008A
:10E4E00070B50C480C490D4A401AC508032000EBD2
:10E4F00005400BA100F0C8FE084813DF040007D058
:10E50000012000EB054011A100F0BAFE204670BDCD
:10E51000002070BD585C0200B05B0200009001005A
:10E5200053657474696E6720766563746F722074C6
:10E5300061626C6520746F206D61696E206170701E
:10E540003A20307825303878000000004661696C48
:10E5500065642072756E6E696E672073645F736F99
:10E5600066746465766963655F766563746F725F10
:10E570007461626C655F626173655F7365740000EE
:10E5800070B50D4C0125207808B185260EE00020DD
:10E59000A06060602061E060084801F00FFB064663
:10E5A00001F028FA08B901F0F3FA257001F0E8FA51
:10E5B00000B1A570304670BDEC21002041BB0100C8
:10E5C00038B500258DF800506846FBF7C5FC084CAF
:10E5D000E068401EE060E06828B901F0D1FA10B9A7
:10E5E00001F0FCFAA5709DF80000FBF7D9FC38BDDE
:10E5F000EC210020F0B505460478154889B0164690
:10E6000040F82420124A0869121DA2F1080742F8B6
:10E610002400487F385520226846FAF741FF0494C9
:10E620002878385C48B10EB10A4A00E000226946F9
:10E63000281D01F063FD09B0F0BD0EB1064A00E0EF
:10E640000022694605F10C0001F022FCF3E700000E
:10E65000401B002009370200513502000FB408B5F5
:10E660000399002904D004AA00926A4600F00FF82A
:10E6700001B05DF814FB10B582680446002A05D08D
:10E68000D4E90403216898470020A06010BD2DE95B
:10E69000FC4791460C00804676D014F8011B39B136
:10E6A00025290ED04046FDF799F820780028F4D1AE
:10E6B00098F80C00002867D04046BDE8FC47FFF7FB
:10E6C000DABF0020012221782B291BD02D2902D06E
:10E6D000302908D102E040F0010001E040F00200E2
:10E6E000641C002AEFD100252A290ED02178A1F13F
:10E6F00030020A2A11D205EB850201EB4205641CA7
:10E70000303DF1E740F00400EAE7D9F800100B1DB6
:10E71000C9F800300968641C0D44217800232E29B3
:10E720000BD114F8011FA1F130020A2A05D203EB24
:10E73000830201EB4203303BF3E76C290DD06829DB
:10E740000BD0692921D00BDC252918D0582931D0CC
:10E7500063290ED0642915D117E014F8011FECE7E6
:10E76000702969D0732932D075291BD0782909D135
:10E7700020E0D9F80000011DC9F8001001784046DA
:10E78000FDF72CF8641C90E76CE0D9F800100A1D26
:10E79000C9F800200968CDE900500A224046FEF77A
:10E7A000D1FEEFE7D9F800100A1DC9F8002009686A
:10E7B0000A2206E0D9F800100A1DC9F800200968ED
:10E7C0001022CDE90050404605F054F8DAE7D9F8B8
:10E7D000001000270A1DC9F800200E68C00705D1E7
:10E7E00012E04046761C7F1CFCF7F8FF31780029C8
:10E7F000F7D104E0202140466D1EFCF7EFFFBD423B
:10E80000C0D9002DF6D1BDE74EB13046FAF76CFE07
:10E81000074604E0202140466D1EFCF7DFFFBD42A5
:10E8200006D9002DF6D103E04046761CFCF7D6FF52
:10E8300031780029F8D1A5E7D9F80000011DC9F801
:10E840000010056830214046FCF7C8FF782140469B
:10E85000FCF7C4FF08200021CDE900010346102287
:10E860002946B0E7BDE8FC872DE9F8438846050056
:10E870002C482D499946A0EB01004FEAD0004FF0FB
:10E880000101164601EB004424D0286800282CD052
:10E89000002E34D0696840464FF010070A68511EB8
:10E8A00011EA080F11D1014672432846FBF7A3F97C
:10E8B00000282ED028684B463246046901B04146F4
:10E8C0002846A446BDE8F04360472046174B18A2EF
:10E8D000009722E00E2000902046144B1EA220A19B
:10E8E00000F0E1FC0E20BDE8F883082000902046EF
:10E8F0000E4B26A21AA100F0D6FC0820F3E709204F
:10E9000000902046094B24A215A100F0CCFC092060
:10E91000E9E7064B214A2046009711A100F0C3FC0D
:10E920001020E0E7405C0200B05B02005B420200A6
:10E93000616464725F69735F706167655F616C6970
:10E94000676E656428705F66732C20706167655F11
:10E950006164647229000000705F6673000000004B
:10E96000257320636865636B206661696C6564204C
:10E97000696E202573282920776974682076616C78
:10E98000756520307825782E00000000705F667372
:10E990002D3E705F617069006C656E00F45302007B
:10E9A00038B503001148124D4FF00E04A0EB0500DE
:10E9B0004FEAD0004FF0010505EB004009D061B1EE
:10E9C00019600C6801B0A446BDE8304011461846F5
:10E9D0006047084B08A2009402E0064B08A200948E
:10E9E00009A100F060FC0E2038BD0000405C020070
:10E9F000B05B020010420200705F6673000000000E
:10EA0000705F617069000000257320636865636B47
:10EA1000206661696C656420696E20257328292051
:10EA2000776974682076616C756520307825782E5A
:10EA300000000000044801214174007A08B1002060
:10EA40007047012070470000E0240020012801D019
:10EA5000032808D10449002201284A7400D000206C
:10EA6000087403F097BA7047E024002070B502469E
:10EA7000022801D0032A45D1234C207A002841D016
:10EA8000012833D0022831D120480023022A00680F
:10EA900002D0032A2AD11BE0E360017911B10129D8
:10EAA00024D10DE0D0E90565711B4FF48056B142C9
:10EAB00000D33146294481614569A9420ED015E051
:10EAC0000169491C0161426991420FD1237213E02F
:10EAD000E168491CE160082908D9E3602372022A31
