:020000040001F9
:1090000070390020E19301000B9401000D940100E0
:109010000F9401001194010013940100000000005E
:109020000000000000000000000000001594010096
:109030001794010000000000199401001B94010026
:1090400045A201001D940100A5A6010095A60100FE
:109050001D94010000000000A1A101001D94010069
:109060001D9401001D9401001D9401001D94010038
:109070001D9401001D9401001D9401001D94010028
:109080001D940100ADA201001D9401001D9401007A
:109090001D9401001D9401001DA301001D940100F9
:1090A0001D9401001D94010000000000000000005C
:1090B0009DA201001D9401000000000000000000BE
:1090C00000000000000000000000000000000000A0
:1090D0000000000000000000000000000000000090
:1090E0000000000000000000000000000000000080
:1090F0000000000000000000000000000000000070
:10910000000000000000000000000000000000005F
:10911000000000000000000000000000000000004F
:10912000000000000000000000000000000000003F
:10913000000000000000000000000000000000002F
:10914000000000000000000000000000000000001F
:10915000000000000000000000000000000000000F
:1091600000000000000000000000000000000000FF
:1091700000000000000000000000000000000000EF
:1091800000000000000000000000000000000000DF
:1091900000000000000000000000000000000000CF
:1091A00000000000000000000000000000000000BF
:1091B00000000000000000000000000000000000AF
:1091C000000000000000000000000000000000009F
:1091D000000000000000000000000000000000008F
:1091E000000000000000000000000000000000007F
:1091F000000000000000000000000000000000006F
:10920000DFF810D000F0A2FC0048004739DC010074
:10921000AFF300807039002000B583B00290009158
:10922000019244F2010071466A4602F023F803B04D
:1092300000BD000030B450E8012F93B2C48923442C
:109240008489A34228BF1B1B0489A34202BFBFF32A
:109250002F8F002007E0C3EA020340E80134002C0E
:10926000E9D14FF001000A6030BC704750E8012F8F
:10927000C2EA024240E801210029F7D1704730B428
:1092800050E8022F1FFAA2F3C488A34202BFBFF323
:109290002F8F00200DE0C48923448489A34228BF76
:1092A0001B1BC2EA034340E80234002CE8D14FF014
:1092B00001000A6030BC704750E8022FC2EA224227
:1092C00040E802210029F7D17047034653E8022FF6
:1092D000D988B2EB324F4FF0000017BF92B241EA8B
:1092E000014142EA014104E05A68B2EB324F08BF43
:1092F000012043E80212002AE8D1704730B4044646
:1093000054E8000F0D4644E80053002BF8D11560D7
:1093100030BC704730B4044654E8000F40EA010501
:1093200044E80053002BF7D1156030BC704730B4CF
:10933000044654E8000F00EA010544E80053002BFE
:10934000F7D1156030BC704730B4044654E8000FC4
:1093500080EA010544E80053002BF7D1156030BCCA
:10936000704730B4044654E8000F00EB010544E8B0
:109370000053002BF7D1156030BC704730B4044661
:1093800054E8000FA0EB010544E80053002BF7D18F
:10939000156030BC704770B404464FF0000054E8CC
:1093A000006F0D68AE4207BF44E80023012044E887
:1093B00000630E60002B1CBF0020F0E770BC7047FC
:1093C00030B4044654E8000F88422CBF451A0546C5
:1093D00044E80053002BF5D1156030BC7047000005
:1093E0000F4800680F4909680A280AD1002908D1E6
:1093F0000D4802686FF070031A404FF040031A43A3
:1094000002600A4880470A480047FEE7FEE7FEE799
:10941000FEE7FEE7FEE7FEE7FEE7FEE7FEE7000009
:109420003001001034010010E40E004021A30100BF
:10943000019201002DE9F05F0546002092469B460F
:1094400088460646814640241BE02846414647465A
:10945000224600F0F5F853465A46C01A914110D3FF
:1094600011461846224600F016F82D1A67EB01083F
:109470004F4622460120002100F00DF817EB0009AD
:109480004E41201EA4F10104DFDC484631462A4645
:109490004346BDE8F09F202A04DB203A00FA02F19F
:1094A000002070479140C2F1200320FA03F31943D2
:1094B00090407047004870475415020010B50446AC
:1094C000FFF7F8FF0068005D00F0010010BD40EA02
:1094D00001039B0703D009E008C9121F08C0042A32
:1094E000FAD203E011F8013B00F8013B521EF9D219
:1094F0007047D2B201E000F8012B491EFBD2704741
:109500000022F6E710B513460A4604461946FFF74F
:10951000F0FF204610BDCAB2401E10F8011F8A425B
:1095200002D00029F9D100207047421C10F8011B1D
:109530000029FBD1801A704710B5002200E0521CB0
:10954000835C8C5CA34201D1002BF8D1D8B2E1B28C
:10955000401A10BD034611F8012B00F8012B002A18
:10956000F9D11846704770B5064601F055F9046800
:1095700005460A220021304600F0C0F82C6070BD7C
:10958000420005D0C0F3C7525242914201DC002094
:10959000704700EBC150704796230022114600F03F
:1095A000EEB800F0004230F000400AD0C10D01F5E5
:1095B0006071C0F3160042EA0151C208400711432E
:1095C000704700200146704701F0004330B421F09D
:1095D000004150EA010206D00A0DA2F56072C1F303
:1095E0001301002A02DC30BC00207047440F44EA1B
:1095F000C104C100E01830BC00EBC25000F0B6B8A6
:10960000002801DBC0F10040002901DBC1F100416D
:109610008842704730B50B460146002020220124C5
:1096200009E021FA02F59D4205D303FA02F5491B30
:1096300004FA02F52844151EA2F10102F1DC30BD46
:10964000202A04DB203A21FA02F00021704721FA97
:1096500002F3D040C2F120029140084319467047FE
:109660000FB4002300B589B00CA900910B996FF0DD
:109670000042CB601E4B06931E4B07930423CDE99B
:1096800001321D4A089202466B46002000F016FB8C
:1096900009B05DF814FB70B586B006464FF0FF3098
:1096A0000091CDE90101002015460C460490324698
:1096B000694604A8FFF7D4FF02460498211825B193
:1096C00008B1084600E020462860049800280DD024
:1096D000002A02DD0098884208D0081B0094CDE9DA
:1096E00001043246694604A8FFF7BAFF06B070BD10
:1096F000F59E0100139F0100BD9401002DE9F04784
:1097000091460F4680460446002614F8015B2DB1B1
:10971000FFF7D0FE0068405DC007F6D12B2D02D0C8
:109720002D2D18D0641E4A463946204600F002FC12
:1097300027B13968A14201D1C7F8008071054FF007
:1097400002040BD54042002803DD01F065F80460F7
:10975000A007BDE8F08746F48066E4E70028F8DA61
:1097600001F05AF804606FF00040F2E70029A8BF4A
:109770007047401C490008BF20F00100704710B43A
:10978000B0FA80FC00FA0CF050EA010404BF10BCEF
:10979000704749B1CCF1200421FA04F411FA0CF11C
:1097A00018BF012121430843A3EB0C01CB1D4FEA55
:1097B00000614FEA102042BF002010BC704700EB50
:1097C000C35010440029A4BF10BC7047401C49007E
:1097D00008BF20F0010010BC70472DE9FE4F804605
:1097E00081EA0300C00F0C46009021F0004123F0F5
:1097F0000045B8EB0200A94105D2404621469046FB
:109800001C460B46024623F00040104347D0270D6C
:10981000C7F30A00C3F30A510290401A019040288E
:109820006BDAC3F3130040F4801B0098924620B11A
:109830000023D2EB030A63EB0B0B01985946C0F1EE
:1098400040025046FFF727FE06460D465046594651
:10985000019A00F08DF910EB08006141002487EABD
:10986000115284EAE7731A4340D0009A62B3019A16
:10987000012A4FEA075215DC001B61EB02014FF091
:10988000004202EA0752CDE90042001C41F5801176
:1098900032462B4600F0ACFB03B0BDE8F08F4046EB
:1098A0002146F9E7001B61EB0201001C41F5801322
:1098B00000185B412018A2F5001747EB030140EAAE
:1098C000D570B6196D4111E06D084FEA360645EACC
:1098D000C0754FEA0752001B61EB0201001C41F505
:1098E000801149084FEA30000019514132462B4699
:1098F00003B0BDE8F04F00F06CBB009801224000BF
:109900000023D0EB020263EBE073009821464FEA9C
:10991000E074B8EB000061EB0401E9E783F0004379
:109920005BE781F0004158E72DE9FE4F81EA03042F
:1099300004F0004421F0004100944FF0000B23F0AC
:10994000004350EA01045ED052EA03045BD0C3F343
:109950000A54C1F30A552C44A4F2F3340194A0FB39
:109960000254C1F3130141F48011C3F3130343F410
:10997000801301FB024400FB034E840A970A44EA69
:10998000815447EA8357A4FB076802958D0A05FBBB
:1099900007854FEA932C04FB0C542705029D4FEAE0
:1099A000065847EA1637B5EB08056EEB070C870E2D
:1099B000920E47EA811742EA8312A7FB0201B6EB37
:1099C0000B0164EB00042B0D43EA0C335E1844EBEF
:1099D0001C50DA465146E7FB0201C5F313044FEA77
:1099E0000B3343EA14534FEA0432019C43EA060363
:1099F000A4F10C040294009CCDE900B400F0F8FA44
:109A000003B0BDE8F08F00200146F9E72DE9F04DE5
:109A100081EA030404F0004B21F0004514464FF0A6
:109A2000000A23F0004150EA050220D054EA010266
:109A30001DD0C5F30A570246C5F31303C1F3130043
:109A4000C1F30A5640F4801543F48013A7EB0608CF
:109A5000101BD64608F2FD3873EB050002D308F15F
:109A6000010801E092185B41B8F1000F03DA002011
:109A70000146BDE8F08D00204FF480110646844673
:109A80000EE0171B73EB050705D3121B63EB0503F1
:109A900006434CEA010C49084FEA300092185B413A
:109AA00050EA0107EDD152EA030012D082EA040025
:109AB00083EA0501084305D0101BAB4106D2012201
:109AC000002306E000224FF0004302E06FF00102A5
:109AD00053101AEB06004CEB085110EB0A0041EB57
:109AE0000B01BDE8F04D00F074BAC1F30A52C1F3A6
:109AF000130140F2FF3341F480119A4202DA002050
:109B00000146704740F233439A42A2F2334202DCEC
:109B10005242FFF795BDFFF7BEBC000030B5041EF2
:109B200071F1000404DB4FF00044404264EB01019A
:109B3000141E73F1000405DB1C464FF00043524233
:109B400063EB0403994208BF904230BD064C074DB9
:109B500006E0E06840F0010394E8070098471034FD
:109B6000AC42F6D3FFF750FB341E0200541E020035
:109B7000202A06DBCB17203A41FA02F043EAE073D1
:109B800006E041FA02F3D040C2F1200291400843BE
:109B9000194670472DE9FF4F087883B09946FF2892
:109BA00005D0491C2D2804D00024002008E0002006
:109BB0000BE00124F9E700EB800003EB4000491CB7
:109BC0000B78FF2BF7D104B14042002302931478A5
:109BD00019461D462D2C01D02B2C04D1521C2D2CA6
:109BE00013D000240294AA461478FF2C0FD00A2523
:109BF000A3FB057801FB05814FF0000C03FB0C1162
:109C0000521CE3194AEB0101EEE70124EAE7814423
:109C100053EA010002D019F5C87F06DA0398002143
:109C2000C0E9001107B0BDE8F08F0025AE4E2F4609
:109C3000DFF8B882184600F037FACDE90001B9F133
:109C4000000002DAC9F1000400E004460023A74A3C
:109C50001AEB030B42EB045A12E0E00707D02A4646
:109C6000334638464146FFF75FFE074688462A4698
:109C7000334610461946FFF757FE05460E46641058
:109C8000002CEAD1DDE90001B9F1000F5A46534634
:109C900006DAFFF7BBFE3A464346FFF7B7FE05E09C
:109CA000FFF742FE3A464346FFF73EFE029A0AB1EC
:109CB00081F00041039AC2E90001B3E72DE9FF4FAB
:109CC0001F468DB0D7E901464FF0FF382E2045469C
:109CD0004FF000090B90B9696D1C0E988847396ADE
:109CE000824688470028F6D1BAF1FF3F0AD024F413
:109CF000D064002E11DDBAF12B0F08D0BAF12D0F70
:109D00000BD102E0404611B08DE744F48064B9699C
:109D10006D1C0E9888478246761E6946600501D5FF
:109D20002D2000E02B208DF8000001F1010B0DF13A
:109D3000200809E0B9696D1C0E98884782460F9883
:109D400044F40074761E0560002E02DDBAF1300F77
:109D5000F0D00B998A453ED144F0800406E00F997B
:109D6000681CA9F1010944F400740860B9696D1C0C
:109D7000761E0E98884782463028F0D02BE00B994B
:109D80008A4505D1200603D444F08004761E18E0ED
:109D9000504600F035FE08B30DF11301761E44F471
:109DA00000748B4508D2AAF130000BF8010B200695
:109DB00007D5A9F1010003E0200602D409F1010052
:109DC0008146A00502D50F99681C0860B9696D1C11
:109DD0000E9888478246002ED1DC53E0002E51DDDC
:109DE000BAF1650F02D0BAF1450F4BD1A00549D5A4
:109DF000B9696D1C24F44074761E0E98884782461B
:109E0000002E0CDD2B2804D0BAF12D0F07D144F41D
:109E10008074B9696D1C0E9888478246761EE005ED
:109E200001D52D2100E02B2108F8011BCDF82C8055
:109E300021E00DF12901761E44F4007488450CD20E
:109E4000AAF1300010F0FF0088F8000002D10B9951
:109E5000884509D908F1010806E0E00501D5244844
:109E600001E042F20F708146B9696D1C0E98884777
:109E700082460F980560002E04DD504600F0C0FDBC
:109E80000028D6D1F9690E988847FF208BF800008A
:109E900088F800000020069007904B466A4608A903
:109EA00006A8FFF777FEA00502D46FF001002AE7AD
:109EB00014F0240F0AD0E00714D1DDE90612386847
:109EC000031D3B600068C0E900120BE0DDE90601FC
:109ED000FFF77AFB0146E00704D13868021D3A60BB
:109EE0000068016028460EE7000014400000F03FC3
:109EF000F1D8FFFF426842B1016811F8013B23B17C
:109F0000521EC0E90012184670470121C160881E28
:109F1000704742685AB1C368016843B983688B428D
:109F200005D0491E521CC0E90012002070474FF0B6
:109F3000FF3070472DE9F05F824600780027154614
:109F40008B460AF10104B946302801D09DB113E0D7
:109F500014F8010B0127782803D0582801D045B107
:109F60000AE00DB1102D07D10027102514F8010BC0
:109F700002E0082500E00A250026B0460EE005FBB9
:109F8000080005FB06F1012701EB10461FFA80F8D7
:109F9000B6F5803F00D3B94614F8010B294600F00E
:109FA00075F80028EBDABBF1000F05D00FB1641E85
:109FB00000E05446CBF80040B9F1000F06D000F0A5
:109FC0002BFC02210160C81EBDE8F09F48EA064054
:109FD000FAE710B5141E73F1000408DA401C41F1D1
:109FE000000192185B411A4301D120F0010010BD1D
:109FF0002DE9F04D92469B4611B1B1FA81F202E093
:10A00000B0FA80F220329046FFF745FA04460F4638
:10A0100040EA0A0041EA0B0153465A46084313D06E
:10A02000114653EA010019D0C8F140025046FFF72B
:10A0300007FB05460E46504659464246FFF72BFAA7
:10A04000084305D0012004E020463946BDE8F08DE4
:10A050000020054346EAE0762C4337430A9863051F
:10A06000E40AA0EB08000022FD0A44EA47540A3043
:10A0700002D500200146E9E7010510196941DDE933
:10A08000084500196941BDE8F04DA2E73A2800D221
:10A09000303820F02002412A01D3A2F13700884253
:10A0A00001D34FF0FF3070470EB540F233420292B9
:10A0B0000022CDE900221346FFF79AFF03B000BD4E
:10A0C00070B58C1810F8015B15F0070301D110F87A
:10A0D000013B2A1106D110F8012B03E010F8016BA7
:10A0E00001F8016B5B1EF9D12B0705D40023521E2A
:10A0F0000DD401F8013BFAE710F8013BCB1A921C92
:10A1000003E013F8015B01F8015B521EF9D5A1428F
:10A11000D8D3002070BD000008B56A46ADF8001025
:10A1200003490B8801460248083002F02BFA08BDAB
:10A13000A0230020F0B585B006462021FFF7EBF9FB
:10A1400010B1002100F8011B05236A4612A106F098
:10A1500049FA124DC7B2002404EB4400314655F8C9
:10A160002000FFF7E9F968B1641C082CF4DB0B4808
:10A170001738FFF7DAF981B208481738FFF7CCFF34
:10A1800005B0F0BD04EB440005EB80003A4643689F
:10A19000694630469847F3E7200000004C11020062
:10A1A0002DE9F8430025DFF894804FF480770124EF
:10A1B0002E460095384604F0ADFB38B1D8F80403BC
:10A1C000204203D0384604F09BFB25433F1D64002A
:10A1D000761CBFB2082EEDD34FF4BE74204604F0B7
:10A1E00099FB48B1204604F08BFB45F000456A46D8
:10A1F0000121002004F044FB15F0FF0F16D00126CA
:10A2000000242E420ED008EB8401D1F81005D1F8BD
:10A210001015C0F304200A4AC1F3014152F824206A
:10A2200002B190477600641C082CEAD3002D02DAB4
:10A23000684605F0E9FDBDE8F883000000600040D5
:10A240008027002070B54FF48076304604F0A0F8E7
:10A25000114CB50560B1304604F0A1F80120C5F8F5
:10A260000803607920B901206071216800208847C7
:10A270004FF48276304604F08BF800280AD030463E
:10A2800004F08DF80220C5F808032168BDE870408D
:10A290000120084770BD0000142400200149024835
:10A2A00003F0E0BB2C24002000C00140024902481A
:10A2B000091F0968006808477824002000F0F8B9F1
:10A2C00070B50E46144900EB400001EBC005144682
:10A2D000E86A183520B101280FD0022805D113E013
:10A2E000284600F019FAA04201D2002411E02246CB
:10A2F0003146284600F048FA0BE0284600F00CFAF8
:10A30000A042F4D20446F2E73146284600F00FFAA4
:10A310000446204670BD0000A02E002005F098B82D
:10A320002DE9F041CB494FF08057C94AD7F83001A9
:10A3300009781268D7F83431441CC1F3031106D0F0
:10A34000844601260025BCF1060F03D00AE002F086
:10A35000FF0CF6E7B7F82443DFF8FCC2C4F304248B
:10A36000CCF8004002F0FF0C0C46BCF1060F06D101
:10A37000032C04D1DFF8E8C2B84CCCF87440441C7C
:10A3800007D08446BCF1060F06D0BCF10A0F03D0FB
:10A390000AE002F0FF0CF5E7D7F84442DFF8C4C248
:10A3A000C4F34234CCF8004002F0FF0C0C46BCF180
:10A3B000060F08D1032C06D1AB4CD4F800C02CF00A
:10A3C000807CC4F800C0441C07D08446BCF1060F52
:10A3D00006D0BCF10A0F03D00BE002F0FF0CF5E74A
:10A3E0004FF08044C4F80C51C4F810519D4C241F08
:10A3F000256002F0FF0C0C46BCF1060F07D1032CC0
:10A4000005D1DFF860C20CF1640CCCF8004002F01A
:10A41000FF0C0C46BCF1060F11D1032C0FD1DFF855
:10A420004CC20524CCF80040904C783426608F4C08
:10A43000083425600CF1040C3F24CCF80040441C87
:10A4400008D084461C46BCF1060F07D0BCF10A0FA9
:10A4500008D081E002F0FF0C0C46F4E7032C7BD01F
:10A46000042C79D0824C2468DFF808C2CCF8004074
:10A470007F4C241D24680CF1040CCCF800407C4C6B
:10A48000083424680CF1040CCCF80040784C0C34EF
:10A4900024680CF1040CCCF80040754C103424688E
:10A4A0000CF1040CCCF80040714C143424680CF10D
:10A4B000040CCCF800406E4C18342468DFF8B4C1AA
:10A4C0000CF1200CCCF80040694C1C3424680CF1D1
:10A4D000040CCCF80040664C203424680CF1040CC9
:10A4E000CCF80040624C243424680CF1040CCCF805
:10A4F00000405F4C283424680CF1040CCCF8004078
:10A500005B4C2C3424680CF1040CCCF80040584C03
:10A5100030342468DFF85CC10CF1400CCCF800400A
:10A52000534C343424680CF1040CCCF80040504CEB
:10A53000383424680CF1040CCCF800404C4C3C340A
:10A5400024680CF1040CCCF80040494C40342468D9
:10A550000CF1040CCCF80040441C06D08646DFF811
:10A5600018C1BEF1060F03D008E002F0FF0EF6E7B7
:10A57000D7F8584204F04F04CCF80040441C05D0F2
:10A580000246062A04D00A2A02D008E0D2B2F8E72E
:10A590003A490A68D20702D06FF001020A601946F0
:10A5A00006280AD1032908D0042906D0052904D099
:10A5B00033490A6842F480620A600A2806D12BB146
:10A5C000DCF8000040F00F00CCF800004FF0102144
:10A5D000D1F800322B4A2C48002B03DBD1F804328F
:10A5E000002B13DA16600368002BFCD01524C1F889
:10A5F00000420368002BFCD0C1F804420168002926
:10A60000FCD0156001680029FCD019E091F80032F7
:10A61000DB0703D191F80432DB0713D0166003681F
:10A62000002BFCD0C1F800520368002BFCD0C1F80D
:10A63000045201680029FCD0156001680029FCD093
:10A6400000F0D8F8124911480860BDE8F081000018
:10A65000E00F00F0E80F00F0403501400DF0ADBA1A
:10A6600000C007403C050040FCED00E010560040F3
:10A670000404001020C50040E40E00400004004027
:10A680003C17004004E5014000E401400090D00385
:10A69000F02400200149024806F0B6B9DC2700206A
:10A6A0000030004001480068004700001C240020E2
:10A6B00010B5124C022000212061606110A0A06141
:10A6C00004F17800E0614FF40070A16220626162E1
:10A6D0000BA0E162A06404F51E70E0641020A16587
:10A6E000C4E91401E16509A1E01DFEF733FF08A1EB
:10A6F0002046FEF72FFF2020A07110BDA02E0020C5
:10A700005465726D696E616C000000005254540013
:10A7100053454747455200000269C1688A4203D841
:10A720008068401A104400E0501A401E70472DE91E
:10A73000F047C4681746894605464FF00008286967
:10A74000A04201D9061B02E0A968201A0E1AA868C7
:10A75000761E001BB04200D80646BE4200D33E46DD
:10A760006868324620444946FEF7B1FEA868BF1B20
:10A770003444B044B144A04200D10024EC60002F26
:10A78000DDD14046BDE8F0872DE9F041044688461A
:10A79000D4E90207C51BE168606816460844B54263
:10A7A00006D94146FEF793FEB819E060BDE8F08196
:10A7B0002A464146FEF78BFE761B08EB0501324622
:10A7C0006068FEF784FEE660F0E700000FB4084B17
:10A7D00010B504A902AA039800F01AF9044602A9C8
:10A7E000002000F098FC204610BC5DF814FB00002F
:10A7F00017B10100BFF34F8F05480168054A01F406
:10A80000E06111430160BFF34F8F00BFFDE700001F
:10A810000CED00E00400FA0500487047F424002025
:10A820000148006870470000F424002002E008C8D6
:10A83000121F08C1002AFAD170477047002001E0BA
:10A8400001C1121F002AFBD17047000001212028FE
:10A8500003DA81400548014003E0402802DA20384D
:10A86000814009B10120704700207047FC06FFBD00
:10A870000149086070470000F42400202DE9FF5FC3
:10A8800082B00021DDE90430020DDDF840B0034361
:10A8900018D044F61050A2F2FF324243151411981A
:10A8A00001281FD0A5EB0B00401C5FEA000A4FF007
:10A8B00000064E4FDFF83891B046504615D5CAF124
:10A8C000000413E0119801244AA3012801D16FEA82
:10A8D0000B010298119AC0E90031C0E9024206B0AA
:10A8E000BDE8F09FCBF10000DFE704460021404ABD
:10A8F000491842EB0450CDE9001012E0E00707D000
:10A9000032463B4640464946FFF70EF880468946A8
:10A9100032463B4610461946FFF706F806460F46F4
:10A920006410002CEAD1DDE90401DDE90023BAF16D
:10A93000000F06DAFEF7F8FF42464B46FEF7F4FF3B
:10A9400005E0FFF763F842464B46FFF75FF8044621
:10A950000E460022284BFFF7E1F803D84FF0FF30F6
:10A96000014607E00022254B20463146FEF735FF21
:10A97000FFF7BBF8102409E0002C0ADB0A220023B1
:10A98000FEF758FD039B30321A55641E50EA01024F
:10A99000F2D1641C039AC4F111031444119A012AE0
:10A9A00003D0012208430DD10AE0084304D000205F
:10A9B0004FF0110B119072E7A3EB0B056D1E0DE02C
:10A9C0005B4504DD4FF0000205F1010504E003DA08
:10A9D0004FF00002A5F10105002AECD00298119970
:10A9E000C0E90231C0E9004579E7000000001440E9
:10A9F0000000F03F300000000000F0430000E03FA6
:10AA000030380A2801D2012070470020704700002A
:10AA10002DE9FF4F95B09A46884606460025EEE19F
:10AA2000252877D100242746F94A0121039400E024
:10AA3000044316F8013F203B01FA03F01042F7D11E
:10AA400030782A2811D06FF02F033078A0F130022F
:10AA5000092A16D8039A44F0020402EB820203EB9F
:10AA600042021044761C0390EFE758F8042B03923F
:10AA7000002A03DA504244F40054039044F00204E4
:10AA8000761C30782E2816D116F8010F44F00404F5
:10AA90002A280DD06FF02F023078A0F13003092B57
:10AAA00009D807EB870302EB4303C718761CF3E7CB
:10AAB00058F8047B761C30786C280FD006DC4C28C4
:10AAC00017D068280DD06A2814D104E0742810D05B
:10AAD0007A280FD10DE044F400140AE044F4801405
:10AAE00001E044F440147278824202D104F58014EB
:10AAF000761C761C307866280BD013DC582877D06B
:10AB000009DC002875D04528F6D04628F4D047281F
:10AB10001AD193E118E0632835D0642879D06528EC
:10AB200012D18BE1702873D008DC6728F1D0692836
:10AB30006FD06E280DD06F2806D1ACE073282CD0D2
:10AB4000752874D0782853D05246179990476D1CB9
:10AB500054E1C4F30250022809D003280DD0D8F8DC
:10AB6000001004280DD00D6008F1040846E1D8F863
:10AB70000010EA17C1E90052F6E7D8F800100D807E
:10AB8000F2E70D70F0E718F8041B8DF800100020B4
:10AB90008DF80100EB46012003E058F804BB4FF0AC
:10ABA000FF3061074FF0000102D40DE009F101010F
:10ABB0008946B9420FDA8145F8DB1BF809100029F4
:10ABC000F4D108E009F1010189468142FADB1BF862
:10ABD00009100029F6D103985346A0EB0907214636
:10ABE0003846179A00F080FA284400EB090507E080
:10ABF00044E008E10DE01BF8010B5246179990471D
:10AC0000B9F10109F7D2534621463846179AF2E0C6
:10AC100039E00A21C4F302524FF0000B0091022ADE
:10AC200006D058F8040BC117032A09D00AE023E024
:10AC300008F1070020F00702F2E80201904605E063
:10AC400000B2C117042A01D140B2C117002906DAA7
:10AC50000A460021404261EB02012D2202E022055A
:10AC600004D52B228DF80420012203E0E20701D055
:10AC70002022F7E7914657E00A2100E010214FF02B
:10AC8000000B00910BE010214FF0000B44F0040486
:10AC90000827009103E008204FF0000B0090C4F358
:10ACA0000252022A05D058F8040B0021032A08D0CA
:10ACB00008E008F1070020F00702F2E802019046E0
:10ACC00003E080B2042A00D1C0B24FF0000922078D
:10ACD0002AD53278702A07D0DDF800C08CF0100C2D
:10ACE0005CEA0B0C05D00EE040228DF80420012216
:10ACF00008E050EA010306D030238DF804308DF8C7
:10AD0000052002229146009B83F0080353EA0B03BF
:10AD10000AD150EA010201D1620705D530228DF82F
:10AD200004204FF001097F1E3278582A04D039A23E
:10AD30000C920CAA02920BE03BA2F9E75B46009A48
:10AD4000FEF778FB0C9B9B5C029A521E02921370DA
:10AD500050EA0102F2D1029804A9081A00F1200B6E
:10AD6000600702D524F4803400E001275F4502DD4E
:10AD7000A7EB0B0000E0002000EB0B010090039814
:10AD80004944401A0390E00306D453462146179ADB
:10AD9000039800F0A9F90544002706E001A85246EF
:10ADA000C05D179990476D1C7F1C4F45F6DBE00393
:10ADB0000CD553462146179A039800F095F905449F
:10ADC00004E030205246179990476D1C0099481EA8
:10ADD00000900029F5DC08E00298029952460078BC
:10ADE000491C0291179990476D1CBBF10001ABF112
:10ADF000010BF1DC5BE100F065F90544761C30786D
:10AE000000287FF40DAE19B02846BDE8F08F000091
:10AE10000928010030313233343536373839616230
:10AE200063646566000000003031323334353637F4
:10AE3000383941424344454600000000600700D4D1
:10AE4000062708F1070020F00700F0E802238046FB
:10AE500003F0004C5FEA0C0001D097A009E0200548
:10AE600001D596A005E0E00701D095A001E0AFF282
:10AE70004C001390307823F0004365280CD006DC9A
:10AE8000452809D046281DD047287FD13BE06628B9
:10AE900018D067287AD136E00021112F01DB11206C
:10AEA00000E0781CCDE9000104A90CA8FFF7E6FC3E
:10AEB000DDE90D010C9A4FF0000B07F1010910922A
:10AEC00000914EE04FF000400097CDE9011004A939
:10AED0000CA8FFF7D3FCDDE90D020C9B0F994FF096
:10AEE000000B91461093009211B9791C00EB0109F7
:10AEF000B7EB090003D4C0F1FF3B07F10109A9EB4F
:10AF00000700019042E0012F00DA01270021112FF4
:10AF100001DD112000E03846CDE9000104A90CA8AC
:10AF2000FFF7ACFCDDE90D010C9A00914FF0000B2E
:10AF3000B946109221070FD4009A4A4503DA914688
:10AF400001E0A9F10109B9F1010F05DD109AA9F19C
:10AF50000101515C3029F4D0B84202DA10F1040F3B
:10AF600003DA0121CDE9011010E0002803DC83445D
:10AF7000A9EB000102E0411C494500DD8946A0EB38
:10AF80000B00401C01904FF000400290200705D4B8
:10AF90000198484502DB4FF0FF30019000208DF80A
:10AFA0004B0002980DF14B07B0F1004F25D0022065
:10AFB0000C902B200D90029800280CDA4042029051
:10AFC0002D200D9007E00A210298FEF723FB303177
:10AFD000029007F8011D0C99481E0C900029F2DC24
:10AFE00002980028EFD1791E0D980870307800F093
:10AFF000200040F0450007F8020D11A8C01BC01D3D
:10B0000002901398007800B1012000EB090101982B
:10B0100001EBE071029801440398401A401E03902E
:10B02000E00306D453462146179A039800F05CF8D3
:10B0300005441398007818B15246179990476D1C33
:10B04000E00323D553462146179A039800F04CF8A5
:10B0500005441BE0BBF1000F07DB0098584504DDF9
:10B060001098179910F80B0001E0179930205246FC
:10B07000904701980BF1010B401E05F1010501906D
:10B0800004D12E205246179990476D1CB9F100014A
:10B09000A9F10109DEDC05E017F8010B524617990A
:10B0A00090476D1C0299481E02900029F4DC53461B
:10B0B0002146179A03989EE62D0000002B00000001
:10B0C000200000002DE9F041044600251E461746E9
:10B0D000880404D405E039462020B0476D1C641E66
:10B0E000F9D52846BDE8F0812DE9F0410446002558
:10B0F0001E469046C80301D5302700E0202788046B
:10B1000004D505E041463846B0476D1C641EF9D5AC
:10B110002846BDE8F0810A68531C0B601070704728
:10B1200090F824001F20704710B501220221002052
:10B1300001F074FC08B1072810D107220221012078
:10B1400001F06CFC08B1072808D100210A2208464A
:10B1500001F064FC08B1072800D1002010BD0000F8
:10B1600000B5ABB0AC216846FEF7CAF902208DF8F5
:10B17000000000208DF8020006218DF80310012147
:10B18000ADF84C100C4A8DF87C1014924021CDE99A
:10B1900022100A4829906946094800F021FB20B195
:10B1A000084A40F2E721FEF737F80121044800F091
:10B1B00014FB2BB000BD0000A4230020A1FA010065
:10B1C0003425002084DD0100022001F01FBB0000B7
:10B1D00070B50024064D06E06868012110F83400BF
:10B1E00004F068FA641C28788442F5D3002070BD0E
:10B1F00038240020F8B516460C4605460A2A01D226
:10B200000720F8BD04F050FB18B904F013FB002828
:10B21000F7D1134F102113487D603C70BE60FEF7DC
:10B220006FF90020C7E904000F4E0DE005EBC401E3
:10B230003068009088788DF8010008780B4A6946DC
:10B2400004F088FA0028DCD1641EE4B2EED2BDE836
:10B25000F84005480021064A001D00F0F3B8000040
:10B2600038240020382800204812020029D9010083
:10B270008DD10100FEB515460E46074672B603F0A5
:10B28000DFFD03F015FC0028FBD1224822490122F2
:10B29000401AC00802EB0044012F22D06FF4805006
:10B2A000381821D0B0F5405F23D06FF44051C84228
:10B2B000204605D1D5E9003218A103F028FD03E0AE
:10B2C00032461DA103F01CFD21480068C00700D0D4
:10B2D00000BE2A4603B031463846BDE8F04000F0D3
:10B2E00079B820461BA101E0204622A103F004FD0D
:10B2F000EAE7A86804F072F90346D5E90001CDE950
:10B3000000100296204624A1AA6803F008FD2046FA
:10B310002BA1EBE7D41E0200641E020041535345EB
:10B320005254494F4E204641494C454420617420B7
:10B3300025733A2575000000554E4B4E4F574E2051
:10B340004641554C542061742030782530385800DF
:10B35000F0ED00E0534F46544445564943453A20EA
:10B36000415353455254494F4E204641494C454460
:10B3700000000000534F46544445564943453A2087
:10B38000494E56414C4944204D454D4F525920415C
:10B3900043434553530000004552524F52202575F8
:10B3A000205B25735D2061742025733A25750D0A95
:10B3B00050432061743A20307825303878000000FE
:10B3C000456E64206F66206572726F7220726570C0
:10B3D0006F72740008B501238DF800309DF80030BD
:10B3E000144B186059609A606FF48041401807D080
:10B3F00001280FD1DA60D86800689861D86807E042
:10B400001A6118698068586118690068986118693C
:10B410004068D861186858689868D8681869586989
:10B420009869D86972B69DF800000028FBD162B611
:10B4300008BD000048280020014802F018B80000AC
:10B44000582400203AB100680129426100D000214F
:10B4500001610020704707207047000038B511488F
:10B4600008235822416800910F49006802F09BFDB3
:10B47000002815D10D4A69460D4801F0FDFF040072
:10B480000ED101210A4802F072F80123094A194637
:10B49000074801F0C4FF064901200839087020461A
:10B4A00038BD00005012020078280020750002000C
:10B4B00058240020FFFF7F0070B50446007F0D4632
:10B4C00008B1002070BDA26102F00EFA401941F1EE
:10B4D0000001C4E90201206900B125612146BDE8EF
:10B4E0007040002005F0C2B9014600200877012015
:10B4F00005F0BCB930B5EFF3108372B60C4A94680E
:10B50000012184B991604FF0E021D1F88051094CBC
:10B5100025401560C1F88041D1F8844154604A1734
:10B52000C1F8842100210170002B00D162B630BD2A
:10B53000D0280020FC06FFBD0B498A68002A11D0E4
:10B5400000280FD1EFF3108072B60B684FF0E022A5
:10B55000C2F800314B68C2F8043100228A6000282A
:10B5600000D162B670470000D028002030B583B00B
:10B570000446FFF755F905460020CDE900000246D4
:10B5800021466846FEF787F82846FFF771F9DDE99E
:10B59000000103B030BD70B51500044609D000208D
:10B5A000286034B1206820B1A079800703D007203B
:10B5B00070BD0E2070BD084600F030FBC0B21428EC
:10B5C00004D02179814203D8042070BD052070BDCC
:10B5D000E288216800FB02102860002070BD2DE980
:10B5E000FC410446002016880F46108094F82D1068
:10B5F0001546804631B132462946384600F02CFBCC
:10B6000000287DD1A17801B32888001DB04201D95E
:10B610000C2018E0684679DFA8B92A880321B954BC
:10B6200028881922401C80B228803A542888401C5F
:10B6300080B22880C119BDF8000005F01DFC2988E2
:10B6400008442880404600285AD1E2780221CAB135
:10B65000288894F90320C31CB34201D90C200FE0C1
:10B66000395428880123401C80B228803B54288804
:10B67000401C80B228803A542888401C2880002032
:10B68000002875D16268CAB1288892F90020C31CCD
:10B69000B34201D90C200FE0395428880A21401CFC
:10B6A00080B2288039542888401C80B228803A54BF
:10B6B0002888401C28800020002859D1218951B1B8
:10B6C000CDE900563B460622022104F1080005F0B0
:10B6D00093FC00284CD1218A51B1CDE900563B465C
:10B6E0000722032104F1100005F086FC00283FD159
:10B6F000218B61B115223B46142104F1180000E0B2
:10B7000036E0CDE9005605F077FC002830D1D4F8BA
:10B7100020C0BCF1000F07D033462A4639466046A8
:10B7200001F0BBFC002823D1D4F824C0BCF1000FE9
:10B7300007D033462A463946604602F051FB0028BE
:10B7400016D194F82C1039B133462A463946204692
:10B7500004F0F2FD00280BD12178002908D002B0B6
:10B7600033462A4639462046BDE8F04102F0C8BBC0
:10B77000BDE8FC8118B504460020ADF80000134672
:10B780006A46204600F006F8002802D0BDF8000006
:10B79000204418BD70B5E0B1DAB1002402E0045DC8
:10B7A0002C44A4B2651C8D4206D21688A642F6D857
:10B7B000061976789E42F2D18C420AD2A31C005D13
:10B7C0009BB200B1401E0004000C02D01C188C4239
:10B7D00001D9002070BD138070BD80F83010704713
:10B7E0002DE9F0410D00044605D024B195F87A000A
:10B7F000012803D006E00E20BDE8F08195F89800FE
:10B80000012828D0D5F8A000042824D0D5F89C0021
:10B81000042820D00026A6702C2205F17801201DD6
:10B82000FDF755FE84F83060D5F8A4006063D5F8C4
:10B83000A800A0634FF6FF70A4F8E80004F1D4005C
:10B84000C4F8E400C4F8EA60A4F8EE6084F8F0609C
:10B85000207810B104E00720CEE7FF2084F85400E0
:10B8600004F155072046C4F8D470FFF759FCA4F83A
:10B87000D80004F1D80239462846FFF7B0FE002868
:10B88000BAD104F19300C4F8DC002046FFF748FC6D
:10B89000A4F8E00004F1E00205F13C00D4F8DC106B
:10B8A000FFF79DFE0028A7D1012584F85150208B79
:10B8B000A4F8480084F83C50266484F8506060691D
:10B8C0000021606404F13C02781E72DF002893D1ED
:10B8D000257091E72C22001DFDF7F9BD10B50288F7
:10B8E000102A1BD0112A20D0262A1DD1007A0C46FE
:10B8F000012801D0022817D1A0780521401CB0FBF7
:10B90000F1F201FB1201204600F03AF800280BD0BA
:10B91000A16B002908D0BDE810400847C27B012A6E
:10B9200002D18088A1F8E80010BD0C46002184F8FF
:10B93000F2108088B4F8E8108842F5D12079002808
:10B94000F2D10121DFE710B5044690F8540074DF0E
:10B95000012084F8F200002084F8F40084F85000FC
:10B960000621204601F00BFF002808D1A1782046CF
:10B9700000F006F810B1A16B01B18847002010BD9E
:10B980002DE9F05F044600788846B8B184F802805B
:10B990000025C4F8EA50A4F8EE5084F8F050A079DD
:10B9A000012610B1B8F1010F0BD0E07990B1B8F1D8
:10B9B000010F06D0B8F1020F03D00BE00820BDE85C
:10B9C000F09F616B21B184F8F1600820884701E0A5
:10B9D00084F8F15004F1EB0100200A5C0AB1304612
:10B9E00003E0401C0628F8D3002002274FF0030A8A
:10B9F0004FF0040BB8F1010F09D0B8F1020F0ED0CF
:10BA0000B8F1030F10D0B8F1040F15D110E0A179EF
:10BA100029B194F8241011B908B130460DE0E1794C
:10BA200011B108B1384608E0207A08B1504604E068
:10BA3000607A08B1584600E02846A070616B41B1B9
:10BA4000032801D0042804D1607910B194F8F200E1
:10BA500098B184F8F35004F13C0018218046FDF7BA
:10BA60004FFD84F83C6004F12C0004F09DF958B1BE
:10BA700094F82C0084F8510008E084F8F45084F81D
:10BA8000F36007208847E6E784F8516094F82400C3
:10BA900058B104F1280004F087F920B194F8280087
:10BAA00084F8520001E084F8526084F85050A27883
:10BAB00004F1EA0104F1D409052A52D2DFE802F0C8
:10BAC0006A030F1E360084F83160C4F8E450C4E9FC
:10BAD000101584F83C708020A4F8480043E084F8F6
:10BAE000317088F800A0228AA8F80C20C4F8E4502D
:10BAF000C8F80410E168C8F8081034E06069C8F8B4
:10BB00000800208BA8F80C00454684F83C602046CD
:10BB100005F044FA38B12F750421204601F02FFEBC
:10BB2000F8B9052116E084F831A018E0E069C8F8FA
:10BB30000800208CA8F80C00454684F83C6020469C
:10BB400005F02CFA48B12F750421204601F017FEAC
:10BB500038B9062184F8311001E084F831B0C4F816
:10BB6000E490A07878B1424604F15400D4F8E4108F
:10BB700072DF00287FF423AF94F8301094F854005B
:10BB800073DF0028F6D1616B11B194F8310088475A
:10BB9000002014E784F83150F5E700002DE9F0416A
:10BBA000040012D001461C221948FDF790FC1848E9
:10BBB000184D0560206858B17ADF002806D120684A
:10BBC000016829604068686006E00E20BDE8F081E9
:10BBD00010487BDF0028F9D10D4D0024143D4FF6AD
:10BBE000FF76A5F1200704EB840005EB800007EB4E
:10BBF000441120F8046B084A01600021FFF722FC81
:10BC000008B10320E2E7641CEDD00020DEE700006D
:10BC1000D42600200C240020310F020010B5044669
:10BC200000F010F808B1204610BD142010BD00002F
:10BC30000346034880680A46194601F0B4BD000077
:10BC4000F0260020142801D3002070470146014847
:10BC500002F0F3B9F42600207CB5054608880C46AE
:10BC60000930904201D90C207CBD68466DDF002868
:10BC7000FAD121880820685420881B21401C80B2FA
:10BC8000208029542088401C80B220802844DDF880
:10BC900001100160BDF8051081802088801D80B2F0
:10BCA00020809DF80010490800D0012129542088E7
:10BCB000401C208000207CBD10B502F079FB0028DC
:10BCC00009D105484FF0030C00DF002803D1BDE87F
:10BCD000104002F0DBBB10BD4431002018B1034915
:10BCE0000860002070470E2070470000EC24002000
:10BCF00010B54FF0FF3100203DDF00280BD1B121FE
:10BD00003CDF002807D10448416901208847022010
:10BD100003F09CF9002010BD28310020044810B524
:10BD20000068416900208847BDE81040FFF7E0BF88
:10BD3000EC24002010B588B0044620216846FDF7A9
:10BD4000DFFB0320ADF8000020788DF802009DF89D
:10BD50000D00012140F028008DF80D008DF8101025
:10BD60008DF813108DF812108DF80C1017208DF827
:10BD70001110ADF804006088A21D694601F078F842
:10BD800008B010BD10B5184986B01EC98DE81E0058
:10BD900048B1164C4FF6FF71A18000680021606128
:10BDA000217618B104E00E2006B010BD1048606185
:10BDB0000E48FFF793FF0028F6D101208DF81200FE
:10BDC0004FF65960ADF81000A21C04A90120A8DFAD
:10BDD0000028E9D10549684662DF0028E4D103481C
:10BDE000FFF7A8FFE0E70000C014020028310020A0
:10BDF0006DD6010010B5002823D001881C4C1029F5
:10BE000017D022461129938815D0D288512919D0EC
:10BE1000532916D1C088904213D1207E002810D01B
:10BE2000FFF77CFF00280CD06169BDE810400220BC
:10BE30000847808804E08088834202D14FF6FF7073
:10BE4000A08010BD81889942FBD110F8061F0229FD
:10BE5000F7D141889142F4D1017A0429F1D0062921
:10BE6000EFD00529EDD0BDE81040801C03F0CCBE1A
:10BE7000283100202DE9F0410446007B0426324F92
:10BE80004FF00108012811D002282DD00226207B76
:10BE9000314600F093F818B13868416903208847AB
:10BEA00038684169BDE8F04102200847386800253C
:10BEB000417E51B10621012000F080F818B13868A8
:10BEC000416903208847284608E080F8188001214E
:10BED000084600F073F808B139680D76002830D0B4
:10BEE0001128D4D10626D2E7627B142A0ED86AB173
:10BEF000164D04F10E01281DFDF7E9FA607BA861DB
:10BF000039682846497E19B1062518E00526BEE79E
:10BF10000E490C390A6808319047050002D00F2DF0
:10BF200004D00CE0396881F8198008E00848094914
:10BF3000401AC10808EB0140074902F0DDFE002D60
:10BF4000A5D1BDE8F0810000EC2400205031002094
:10BF5000D41E0200641E0200B41C0200154910B574
:10BF60000A68002A25D04A68002A22D00831904762
:10BF700008281ED0104C00210028206841760ED0E1
:10BF80000621022000F01AF818B120684169032048
:10BF90008847206841690220BDE810400847012118
:10BFA000022000F00BF8002803D02068416903202C
:10BFB000F2E710BD44310020EC24002086B00022BE
:10BFC00000920323ADF8143020238DF810308DF843
:10BFD00011000E4801928DF81210C188ADF80010C2
:10BFE00002218DF8021005A9029104A90391ADF870
:10BFF000042080886946AEDF002804D1BDF8141003
:10C00000032900D00C2006B0704700002831002022
:10C0100030B52249224A01250323891AC9088BB069
:10C0200003EB014478B101282CD011461B4A511A68
:10C03000C908012202EB0142022826D0032810463B
:10C0400026D018A125E0204620A102F055FE684622
:10C050002C21FDF755FA40200490002005908DF822
:10C0600004508DF8005069462448FFF733FC002146
:10C070002348FFF7DDFD0246204622A102F040FEE4
:10C080000BB030BD204625A103E010462CA100E0F6
:10C090003AA10BB0BDE8304002F02EBED41E020023
:10C0A000641E0200556E6B6E6F776E206576656E4E
:10C0B000742066726F6D20626C655F6466755F6286
:10C0C0007574746F6E6C6573732E000044657669C9
:10C0D000636520697320707265706172696E672094
:10C0E000746F20656E74657220626F6F746C6F611F
:10C0F000646572206D6F64652E0000003425002099
:10C10000D5D10100446973636F6E6E6563746564B5
:10C11000202564206C696E6B732E0000446576697F
:10C1200063652077696C6C20656E74657220626F40
:10C130006F746C6F61646572206D6F64652E0000B2
:10C140005265717565737420746F20656E746572C5
:10C1500020626F6F746C6F61646572206D6F6465CF
:10C16000206661696C6564206173796E6368726FC3
:10C170006E656F75736C792E0000000052657175E5
:10C1800065737420746F2073656E6420612072651E
:10C1900073706F6E736520746F20636C69656E7465
:10C1A000206661696C65642E00000000F8B5394DA9
:10C1B000018804462E8821294BD01ADC3648374A9C
:10C1C0001029A0EB02004FEAD0004FF0030202EB6F
:10C1D000004020D0112935D0132939D100231A4627
:10C1E000852130467FDF002832D02DA24FF4FA712E
:10C1F0000DE03B2945D0522938D0562928D18088D6
:10C20000132176DF002823D025A24FF40271BDE868
:10C21000F840FDF701B826A102F06EFD072000F0FE
:10C220001FFC20B11EA240F2D911FCF7F5FFA18836
:10C230002980224802F034F8002809D018A24FF4CF
:10C24000EE71E4E71EA102F057FD4FF6FF70288063
:10C25000F8BD00200090A08869468FDF0028F7D045
:10C260000FA24FF4F771FCF7D7FFF8BD00231A4671
:10C2700019463046B1DF0028F7D009A24FF4FD710E
:10C28000C5E78088132176DF0028EED004A240F2B3
:10C290000121BCE7A0230020D41E0200641E02007E
:10C2A0002E2E5C2E2E5C2E2E5C6D61696E2E630030
:10C2B000436F6E6E6563746564000000282500207E
:10C2C000446973636F6E6E6563746564000000009B
:10C2D00010B51B4C0188606810290ED011292DD192
:10C2E000401E60602AD1FEF71FFF002826D021687B
:10C2F000002923D0BDE810400847E0B90021012201
:10C30000084600F08BFB08B1072810D10722022154
:10C31000012000F083FB08B1072808D10422022184
:10C32000002000F07BFB08B1072800D1002010B1ED
:10C33000216801B188476068401C606010BD000042
:10C34000042400202DE9F04701883B4E40F2F31908
:10C350004FF6FF7510291BD011293ED0122954D059
:10C36000502946D1C188F289841D914241D1618909
:10C3700002293ED18688304601F0F4FA050038D013
:10C3800004F10C0000F0DCF9A8B3294630464EE079
:10C39000C17B8788044601292BD1A846284601F095
:10C3A000E1FA050017D02F80002028722348434669
:10C3B0004A460168C5F80A104068C5F80E0004F145
:10C3C000100105F10A0001F09BFB6872F08900285A
:10C3D0000FD129462AE0042013E0808801F0C2FA38
:10C3E000040006D06068FFF77FF808B103F034FF5F
:10C3F0002580BDE8F087FFE76868FFF775F800283B
:10C40000F7D0BDE8F04703F027BF878806463846D7
:10C4100001F0A8FA0400ECD02B464A4606F10801C8
:10C4200004F10A0001F06CFB607221463846BDE859
:10C43000F04700F087BE0000D42600200C24002026
:10C440002DE9F04701883F4A878898B09246102925
:10C450000DD0112947D002F11003192962D01A29F1
:10C460006DD1007A0409042C44D3012243E0354EF7
:10C47000083EB068C0431690716816A801F0FEFD32
:10C4800016990BA800F0EAFD2C220BA96846FDF7CF
:10C490001EF80025E9460EE009EB45000024B0F83F
:10C4A000048006EB84004146001D01F0BBFD641CC6
:10C4B0001E2CF6D36D1C0098A842EDD8142F07D37C
:10C4C00018B0F021BDE8F0471FA20420FCF7A4BE7D
:10C4D0003946504601F0BCFD18B03946301DBDE864
:10C4E000F04701F0B5BD18B03946BDE8F047104639
:10C4F00001F098BD00223946184601F03BF9032CA3
:10C5000001D3012200E000220E4839460C3001F030
:10C5100031F9022C01D3012200E0002209483946FA
:10C52000083007E0017A002909D1407A3946C0F382
:10C53000C002184618B0BDE8F04701F01BB918B0AA
:10C54000BDE8F087F82600202E2E5C2E2E5C2E2EC5
:10C550005C2E2E5C2E2E5C2E2E5C636F6D706F6ECB
:10C56000656E74735C626C655C636F6D6D6F6E5C41
:10C57000626C655F636F6E6E5F73746174652E636A
:10C5800000000000F0B585B015460F4604001E46B9
:10C5900014D004AA19466069FEF7FDFF00280BD1EC
:10C5A000A6F57F40FF380BD0049848B1007848B119
:10C5B0002888F42808D9072005B0F0BD0E20FBE735
:10C5C0000520F9E70820F7E700200090019002908D
:10C5D0000390A088ADF800000120CDE902578DF846
:10C5E000020069463046AEDFE6E7000070B50400A1
:10C5F00032488EB008AE2DC886E82D005BD0E9B376
:10C600000868A061214608A862DF002851D120787F
:10C6100001258DF83200ADF83050A21C0CA9284637
:10C62000A8DF002845D120216846FCF769FF0220D9
:10C63000ADF8000020788DF802008DF80C509DF8C0
:10C640000D00F426ADF8046040F00C008DF8115098
:10C65000ADF806508DF80D008DF81250608804F189
:10C660000C02694600F004FC002822D12021684613
:10C67000FCF746FF0320ADF8000000E01BE0207847
:10C680008DF802008DF80C509DF80D008DF81150BA
:10C69000ADF8046040F010008DF81250ADF806506F
:10C6A0008DF80D008DF813506088221D694600F04A
:10C6B000DFFB0EB070BD0E20FBE700001012020081
:10C6C00030B587B00446002928D0002C26D0084673
:10C6D0002188102924D0502928D057291ED1054659
:10C6E000A188406906AAFEF756FF002816D10698D1
:10C6F0000078002812D0A86900280FD018216846B9
:10C70000FCF7FEFE01208DF800000195A088ADF831
:10C71000080006980390A9696846884707B030BDAD
:10C7200007B02146BDE8304003F0F2B907B021461A
:10C73000BDE8304003F0F6BA0078C0F3400070471F
:10C74000007800F00100704708B502F047FE20B104
:10C750000D4A40F21B21FCF75FFD00200090694666
:10C76000012002F0BBFC20B1074A40F22121FCF776
:10C7700053FD684602F048FD002804D0024A40F20A
:10C780002521FCF749FD08BD84DD01000149085C55
:10C7900070470000D01102000649085C4FF0A0412C
:10C7A000D1F81015C14011F0010000D0012080F037
:10C7B00001007047D01102002DE9FC410546C00779
:10C7C0004FF000060ED0104F00240122385D009675
:10C7D00000231146019602F004F8641C042CF4D3E3
:10C7E00000F046F8A8070DD5074D00242D1D0022A6
:10C7F000285D032300961146019601F0F2FF641CA8
:10C80000042CF4D3BDE8FC81CC11020007494FF0A1
:10C81000A0420B5CD2F804050121994021EA0003F3
:10C82000C2F808350140C2F80C157047CC1102005F
:10C830000249085C012102F058B80000CC11020046
:10C840000249085C002102F050B80000CC1102003F
:10C850000649085C4FF0A041D1F80415C14011F021
:10C86000010000D0012080F001007047CC110200CF
:10C8700010B500242046FFF7DBFF641C042CF9D31D
:10C8800010BD10B500242046FFF7DAFF641C042C0D
:10C89000F9D310BD10B50146064A4FF0FF34002011
:10C8A000135C8B4201D1044602E0401C0428F7D3FC
:10C8B000204610BDD011020070B50C4D0C004FF099
:10C8C000000628600BD0012000F06AF808B10220B1
:10C8D00004E0002000F064F800B10B2020706868CC
:10C8E00010B9FEF721FC0646304670BD0424002036
:10C8F00010B5002000F0EEF908B1062806D101209D
:10C9000000F0E8F908B1062800D1002010BD0000B1
:10C910002DE9F0470D468146FFF7BCFF0446042889
:10C9200036D2DFF874801B4B1C4EA8F10C0725B3E0
:10C93000012D0ED0022D2BD100EB40003044457864
:10C94000002D25D0B968002922D02846BDE8F0473F
:10C95000084704EB4400355C0644707848B10E4A41
:10C960004FF48041093A9868FEF7A6FD08B987F8A8
:10C970000390B17808F80410E2E79868FEF7B4FD78
:10C9800004EB4401314418F804008D78A842D7D054
:10C99000BDE8F087D411020000240020702600209A
:10C9A000042801D2FFF7F8BE00207047154910B5E2
:10C9B0000A88042807D0072810D00A2820D1BDE80B
:10C9C000104003F087BD1321104676DF082817D0EA
:10C9D000002815D00CA24FF416710DE0A2F57F408F
:10C9E000FF380DD10C48FEF7AEFF082808D000280C
:10C9F00006D005A240F26221BDE81040FCF70CBC55
:10CA000010BD0000A02300202E2E5C2E2E5C2E2EAA
:10CA10005C6D61696E2E63003425002030B50346DD
:10CA20000020042B0DD2012A02D101290BD00022B3
:10CA30000A4D03EB4304631969B1012907D00229A8
:10CA400007D0072030BD03F10E02D2B2F0E72A551D
:10CA500030BD5A7030BD9A7030BD00007026002085
:10CA60000449024600200979C90702D0104600F0A7
:10CA70004DB87047F423002070B506461E480024C8
:10CA8000C0E90161B00720D50025012211462846E2
:10CA9000FFF7C4FF6D1C0446042D02D2002CF4D015
:10CAA00013E094B940F2333204211448FEF7A2FB9C
:10CAB00004000AD1FEF78CFB040006D10F48104A8F
:10CAC0000021001FFEF7BEFC0446F00712D0012033
:10CAD000FFF772FE74B909480A4A00210C38FEF7C4
:10CAE000B1FC040006D10548074A01210838FEF7C9
:10CAF000A9FC0446204670BDF4230020E01102008A
:10CB0000E9CD010071DB0100C9B101002DE9F05F41
:10CB10006E4D044600266878B34618B185F801B01A
:10CB200001F010F86A4F4FF47A694FF4C87A4FF069
:10CB30000108182C69D2DFE804F00C1313384754AD
:10CB4000696E727B727BC58484848484B3B6B9BCFD
:10CB5000C5C500F0F7FF3868FEF7C6FC06465CE086
:10CB60000020FFF775FE00284FF0000008D0FFF707
:10CB70005FFE022C02D14FF4E16008E0484606E077
:10CB8000FFF75EFE022C01D1C82000E05046410CA8
:10CB9000C0034FF47A72801841F100012C705200EA
:10CBA0000023FCF747FC01462AE00020FFF750FE77
:10CBB00000284FF0000004D0FFF73AFE4FF4487011
:10CBC000E5E7FFF73DFEDFE70020FFF741FE002825
:10CBD0004FF0000002D0FFF72BFECFE7FFF730FE4B
:10CBE000D4E70020FFF734FE00284FF0000002D009
:10CBF000FFF71EFE01E0FFF723FE2C7040F6CD414B
:10CC000000223868FEF758FC064646E00020FFF791
:10CC1000FDFD2C7008E0002051E02C703DE085F80F
:10CC200001800120FFF7F2FD002240F26661E8E793
:10CC300085F801800120FFF7E9FD00224FF4005143
:10CC4000DFE77868FEF750FC0646D4F1110000D00B
:10CC50002EB10220FFF7ECFD85F802B01DE001289F
:10CC600016D980B2C8214843C117C90341EA5041CF
:10CC7000C0034FF47A72801841F100015200002382
:10CC8000FCF7D8FB014600227868FEF715FC064643
:10CC90000220FFF7D5FD85F802803046BDE8F09F01
:10CCA00000F050FFB9E700F04DFFB4E700F04AFF95
:10CCB00004E000F047FF0020FFF7C2FD0120FFF76E
:10CCC000BFFDAAE7FFF7DDFDA7E70000F423002082
:10CCD000D4110200012104F008BA00002DE9F84F38
:10CCE0000546841C00208DF8000092460F464FF048
:10CCF00001086846FEF7FEFB1D4E06F21C497068EF
:10CD00003860D6E901011B4F401A3968081A0EE055
:10CD10000121484601F0ACF900F03CFF01464846CD
:10CD200001F0A6F9D6E90101401A3968081A401C39
:10CD30008442EDD8B8F1000F12D0BAF1000F03D041
:10CD4000052065F3891002E0062065F39F507168A5
:10CD50003A68114006EB8101C86070682044706039
:10CD60009DF80000FEF7E8FB4046BDE8F88F0000A4
:10CD7000802A00209424002070B50D4604460A291C
:10CD800002D10D21FFF7F8FFA0682268411CA160C5
:10CD90001554D4E90101814204D32046BDE8704016
:10CDA00001F032BC70BD00000448816840688142D7
:10CDB00001D101207047002070470000802A002028
:10CDC000024630B5074800210478436805E003EBCC
:10CDD000C1000578954203D0491CA142F7DB002031
:10CDE00030BD00003824002000780221FFF790BDFC
:10CDF00005494FF0FF32082841F8202002D30844AB
:10CE000080F848207047000080270020F0B50646D3
:10CE10004FF0FF30002A02D04FF0000301E04FF046
:10CE2000080302D04FF0080501E04FF00C050B4C51
:10CE300004E054F823707F1C03D05B1CAB42F8D392
:10CE4000F0BDA51958B285F8300044F82310002A27
:10CE5000F6D1E11881F84860F0BD0000802700207D
:10CE60000249084490F930007047000080270020F4
:10CE70002DE9F0438146887891B090460C4600B980
:10CE800001208DF83E0020880025ADF83C000D956E
:10CE9000607C0DA903F0C6FA0DAEA07C711C03F0F6
:10CEA000C1FAE07B00289DF8360002D040F008006F
:10CEB00001E020F008008DF83600217C11B140F02F
:10CEC000100001E020F010008DF83600217B11B138
:10CED00040F0010001E020F001008DF83600217DD6
:10CEE00009B1022100E0012161F342008DF8360012
:10CEF0001C216846FCF704FB607BC10601D4800658
:10CF000017D50E950EAFE07C791C03F08BFA9DF8D7
:10CF10003800059720F00F00401C20F0F000103082
:10CF20008DF838009DF83A0020F00600801C8DF83E
:10CF30003A00607B8DF80000A07B8DF80100142181
:10CF400007A8FCF7DDFA0FA8CDE90706A088ADF821
:10CF50002800A06820B1E088ADF82400A0680B90FC
:10CF6000A06998B30C950088ADF80800A0690CADD5
:10CF70000CA94088ADF80A00A069406804950190AA
:10CF8000A069007B03F04EFAA069691C407B03F0A6
:10CF900049FAA069807A00289DF8320002D040F05A
:10CFA000080001E020F008008DF83200A169C97A7C
:10CFB00011B140F0100001E020F010008DF83200B7
:10CFC000A169097A19B140F0010002E00DE020F0FA
:10CFD00001008DF83200A169897B09B1022100E0CE
:10CFE000012161F342008DF83200E06900B1039045
:10CFF000434607AA69464846AADF11B0BDE8F08358
:10D0000070B5084C05000AD010342168002901D001
:10D010000868206005D0496828468847F5E7083445
:10D02000F3E770BD6C270020054A012120B10128DB
:10D0300005D19170FFF7E4BF51700020FAE7704707
:10D040006C27002010B5D0E90223D1E90240A11AD3
:10D05000984101D3012010BD002010BD73B58CB0E4
:10D060000646002000900D9880B100246D462146B0
:10D070000DA800F0E2FF30B1009805EB400084807D
:10D080000098401C0090641C142CF0D32C2269469C
:10D090003046FCF71CFA0EB070BD2DE9F0410D468C
:10D0A00011880646881D1446984202D90C20BDE816
:10D0B000F0813088062814D34FF448674FF6FF7389
:10D0C000B84201D998420CD17288062A09D3BA42D3
:10D0D00001D99A4205D1984205D09A4203D0904294
:10D0E00001D9072000E000200028E0D10520685485
:10D0F00020881221401C80B2208029542088401CA6
:10D1000080B220804119308803F0B6FE218808449F
:10D1100080B220804119708803F0AEFE2188084457
:10D1200020800020C3E7000002A240F28311FCF738
:10D1300073B800002E2E5C2E2E5C2E2E5C6D616965
:10D140006E2E630038B54A7A0F4B62B100220A7224
:10D150005969002906D001228DF80020ADF802009F
:10D160006846884738BD0A7A62B19B684C680246B7
:10D1700019462046FEF7A0F90028F3D0BDE8384054
:10D1800003F06AB85B68F1E7D426002070B500248C
:10D190000F4E10E0706800EBC405287802F040FBE9
:10D1A0006978012901D0012100E00021414028785F
:10D1B00000F066FA641C30788442EBDBD6E90401A7
:10D1C000084303D0BDE8704003F06CBB70BD0000A5
:10D1D0003824002030B40446132176DF03000BD03E
:10D1E000064807492246401AC008022101EB0040C8
:10D1F00030BC044901F08BBD30BC7047D41E020026
:10D20000641E02005815020000B5084889B008A144
:10D2100002686846FDF7DAFA6846FCF786F981B2DB
:10D220006846FCF779FF09B0002000BDDC23002030
:10D23000686F6C642074696D65203A25640A00008B
:10D2400000B589B000F06AFBFCF7ABF902460B466B
:10D2500006A16846FDF7BAFA6846FCF766F981B29E
:10D260006846FCF759FF09B0002000BD7072657375
:10D27000737572653A25302E32660A0000B508488B
:10D2800089B008A102686846FDF7A0FA6846FCF775
:10D290004CF981B26846FCF73FFF09B0002000BDA1
:10D2A000E0230020696E74657276616C2074696D8C
:10D2B00065203A25640A000000B589B0012A02D031
:10D2C00009B0002000BD0868FCF74DF90246074888
:10D2D00007A102606846FDF779FA6846FCF725F970
:10D2E00081B26846FCF718FFEAE70000DC23002063
:10D2F000686F6C642074696D65203A25640A0000CB
:10D3000000B589B0012A02D009B0002000BD08682C
:10D31000FEF72CF9FCF758F908490860FCF741F9C9
:10D3200002460B4606A16846FDF750FA6846FCF730
:10D33000FCF881B26846FCF7EFFEE5E7D823002051
:10D340007365742070726573737572653A25302E3B
:10D3500032660A0000B589B0012A02D009B0002067
:10D3600000BD0868FCF7FFF80246074807A1026005
:10D370006846FDF72BFA6846FCF7D7F881B2684695
:10D38000FCF7CAFEEAE70000E0230020696E74653E
:10D390007276616C2074696D65203A25640A00001C
:10D3A000064910B5012008700548FCF7BEF881B2A7
:10D3B0000348FCF7B1FE002010BD0000D42300207C
:10D3C0002E110200064910B5002008700548FCF730
:10D3D000ACF881B20348FCF79FFE002010BD0000AE
:10D3E000D42300202811020010B50021024800F0CB
:10D3F00050FE80F3100010BD9C2E00204FF48032B0
:10D400008A400168C1F848230068C0F808237047C3
:10D410004FF4A07202EB810189B200F0A1B92DE9AD
:10D42000F04104460E464FF4A07000EB860081B236
:10D4300020684FF48035B540984622F07F47C0F809
:10D4400008532068C0F84853206801F037FE206870
:10D4500000EB8600C0F840752068C0F84453B8F16E
:10D46000000F02D02068C0F80453BDE8F0810068C6
:10D47000D0F804057047000070B54479234B43F899
:10D48000242042791C1D04EBC202214B1579214A4C
:10D490009A1AD3082DB10824022000EB03401EA1E4
:10D4A00030E005680A88C5F8082590F904208978D5
:10D4B000002A4FEA411104DB02F1E02282F8001455
:10D4C00005E002F00F0202F1E02282F8141D90F94B
:10D4D00004100125002909DB01F01F0605FA06F2F8
:10D4E0004909890001F1E021C1F80021417904EBEB
:10D4F000C1010D71417944F831000320002400EB93
:10D5000003400EA101F0F8FB204670BD74240020FA
:10D51000BC1E0200641E020052544320696E7374E4
:10D52000616E636520616C726561647920696E6902
:10D530007469616C697A65642E0000005254433A44
:10D5400020696E697469616C697A65642E000000F7
:10D5500090F90400002809DB00F01F02012191402E
:10D560004009800000F1E020C0F8001270470A4630
:10D57000022100F07CB84FF4827100F0F1B800682D
:10D5800001210160704700680121416070472DE969
:10D59000F05F04460E464FF4A07000EB86001FFAC1
:10D5A00080FA20684FF48037B7409B4622F07F45D1
:10D5B000C0F848732068C0F808732068D0F8048564
:10D5C00000EB8600D0F84095C0F8408551462068B1
:10D5D00001F074FDA9EB080020F07F40012806D17E
:10D5E000102002F05FF85146206801F067FD2068C6
:10D5F000D0F80485C0F84473A5EB080121F07F4101
:10D600002068012900EB860010D0C0F84055226840
:10D61000D2F80405691E091A6FF07F4C21F07F4192
:10D62000ACEB0B038B4217D361B118E06D1CC0F853
:10D630004055102002F036F82068D0F80405404527
:10D640000AD10CE002EB86016D1CC1F8405521683F
:10D65000D1F80415814202D00D20BDE8F09F0122CF
:10D660003946204600F003F80020F6E770470368CB
:10D67000C3F84413002A02D00068C0F804137047AE
:10D680002DE9F84F0C463449804601EB5001C007A4
:10D69000097801D00F0901E001F00F074FF00009F0
:10D6A000424601204946FBF7F6FEDFF8B0A00546EA
:10D6B0000E46052F4ED2DFE807F003161B282C007C
:10D6C000002C47D00121404603F008F88DF8009067
:10D6D0006846FDF70FFF5046D0E904120D4316438C
:10D6E000CAE9045632E00CB1022114E0002112E034
:10D6F0004CB10321404602F0F1FF4046BDE8F84F2F
:10D70000012103F069BC012105E0002C22D1042194
:10D7100001E02CB103214046BDE8F84F02F0DEBF26
:10D720000021404602F0DAFF0021404603F054FC9D
:10D730008DF800906846FDF7DDFE5046D0E90434D0
:10D7400023EA050224EA0601CAE904219DF8000043
:10D75000FDF7F2FEBDE8F88F3828002038240020BD
:10D7600010B5006842581AB101F0A8FC012010BDA4
:10D77000002010BD0AB100F06BBC00F053BC70B5C6
:10D780000D460446B0F8D810D0F8D4000122FDF7B9
:10D79000F1FF00B1057004F13C0204F1D40104F181
:10D7A000540072DF70BDF7B517460E0011D0009817
:10D7B000002560B100242146684600F03EFC18B107
:10D7C000A0B23946B0476D1C641C142CF3D3284614
:10D7D000FEBD0020FEBD00000EB515A19DF808009D
:10D7E00020F00F00401C20F0F00010308DF80800F1
:10D7F0000A2202A87CDF18B1104AB221FBF70CFD07
:10D800000020009001901021ADF80400ADF8001048
:10D810004FF4C8703C21ADF80600ADF80210684620
:10D820007ADF002803D0054ABC21FBF7F5FC0EBDCA
:10D830004E6F726469635F444655000084DD0100E9
:10D840000C484A8803889A4213D10A88A2F52063BB
:10D85000773B0ED18988C91E8AB2428006480749A3
:10D860001346401AC008032101EB004004A101F057
:10D870004EBA7047A0230020D41E0200641E02008E
:10D8800044617461206C656E206973207365742037
:10D89000746F2030782558282564290010B50C496C
:10D8A0000C4800F06DFC20B10BA24FF41071FBF797
:10D8B000B3FCF721074800F057FC002806D0BDE86C
:10D8C000104005A240F24321FBF7A6BC10BD0000AA
:10D8D00041D80100182500202E2E5C2E2E5C2E2E05
:10D8E0005C6D61696E2E630010B50B48FFF7BFFDDC
:10D8F000094A083AD2E90434C018D2E9063244F1A0
:10D900000001C31A71EB020204D24FF0807280183A
:10D9100041F1000110BD000058240020014880683A
:10D9200070470000C823002010B5C0B2FFF748FAC6
:10D930000446007801F074FF01466078012801D0A8
:10D94000012000E0002090EA010F08D00448D0E94F
:10D950000410014303D1BDE8104002F0A3BF10BD85
:10D9600038240020084A002101EB810332F82330DB
:10D97000834204D101EB810002EB80007047491C17
:10D98000F2D0002070470000C02600202DE9FC5F87
:10D990000E008346DDE90C47C6F10000984691462B
:10D9A000824600D40846012502E090FBF9F06D1C88
:10D9B0004845FADAA84500D9454624B1002E01DBD6
:10D9C000780700D5641EB80702D5B8F1000F0AD059
:10D9D000F80708D13CB1A54205D220215846641E63
:10D9E000FFF7CAF9F6E7002E02DA56462D2102E0CB
:10D9F000780703D52B215846FFF7BEF907F003003F
:10DA000002280BD1B8F1000F08D13CB1A54205D2D4
:10DA100030215846641EFFF7AFF9F6E7CDE900471D
:10DA200043464A463146584603F02CFABDE8FC9F6F
:10DA3000024600201268530713D502F003000128A4
:10DA400002D002280CD105E0C2F383100B68801CC1
:10DA5000184404E00223086803EB92521044086063
:10DA60000120704770B50C464FF488760546314664
:10DA700001F0C2FA50B13146284601F0C2FA60798D
:10DA8000400703D5216809B1012088474FF48A7601
:10DA90003146284601F0B0FA50B13146284601F02F
:10DAA000B0FA6079000703D5216809B102208847E0
:10DAB0004FF48E763146284601F09EFA50B1314639
:10DAC000284601F09EFA6079C00603D4216809B1A6
:10DAD000002088474FF482763146284601F08CFAC0
:10DAE00000280CD03146284601F08BFA0120207125
:10DAF0002168002903D0BDE870400320084770BDAD
:10DB0000F0B58588AE18954200D82A46C488AF1A69
:10DB1000E5189C4200D82346E31A4A880488A242AA
:10DB20000CD34088824209D88888B84206D3B042D4
:10DB300004D8C888984201D3A84201D90020F0BD7A
:10DB40000120F0BD094810B5807850B1002401E0F3
:10DB5000022C02D02046FEF76BFE641C042CF7D387
:10DB600010BDBDE81040FEF783BE0000F423002086
:10DB700003480179C90702D00078FEF7C7BF704794
:10DB8000F4230020F7210180172141800021017139
:10DB9000417170472DE9FF410025244800F065FAE6
:10DBA0002248001F074600F060FA214E2149B06864
:10DBB00000900C6800E000986946204006EB800069
:10DBC0000C30FFF735FF0028F5D101AA009901EAD2
:10DBD000040306EB8303491CDB6842F82030401C39
:10DBE00000910228F2D3019800F0030001280BD025
:10DBF000022810D10198032101EB90500099BDF843
:10DC00000A5001EB900005E00198BDF80A50C0F3FE
:10DC1000831008440090384600F024FA08B10098B8
:10DC2000B06004B02846BDE8F0810000982E0020C6
:10DC3000802A00209424002088B0FEF73DF820B10F
:10DC40004CA240F24531FBF7E7FA4FF480442146FD
:10DC5000002001F0C9F820B14AA24FF44171FBF74E
:10DC6000DBFA00F017FFFDF7F9FB18B145A29F2181
:10DC7000FBF7D2FA47490320FEF7FEFE20B141A28E
:10DC800040F2F621FBF7C8FA69460020FEF714FEC1
:10DC900020B13CA240F2F921FBF7BEFA9DF800004A
:10DCA000022865D000208DF81C0001F0B1F920B1E8
:10DCB00034A24FF44471FBF7AFFAFEF745FDFFF7CE
:10DCC0008BFDFFF7EBFD02F079FBFDF749FA1C2114
:10DCD0006846FBF715FC00204FF4A031CDE90001A8
:10DCE00003258DF80C50ADF80E008DF810002A4871
:10DCF00005902A484FF4F021069002916846FDF7FE
:10DD00004DFF20B11FA24FF4CD71FBF785FA02F051
:10DD100057FE03F0E0F902F0A3F9214A012121485E
:10DD2000FDF790FB1F48002221460068FDF7C4FB69
:10DD300020B114A240F23931FBF76EFA1A481B49A0
:10DD4000401AC00805EB004019A100F0D5FF0321DF
:10DD50002248FDF715FE20B10AA240F22531FBF75B
:10DD60005BFA00F0A5FE0028FBD101F065F9F8E7A9
:10DD7000012098E72E2E5C2E2E5C2E2E5C6D6169A4
:10DD80006E2E63002E2E5C2E2E5C2E2E5C6D616935
:10DD90006E2E6300ADC90100DDFA010029D101003A
:10DDA000F1DE010024110200D41E0200641E0200F4
:10DDB0004465627567206C6F6767696E6720666F80
:10DDC000722055415254206F76657220525454206F
:10DDD000737461727465642E0000000034250020A5
:10DDE00070B505460E46808814461188021D0A4407
:10DDF000801C9A4201D8FE2801D90C2070BD401C1D
:10DE000070542088FF21401C80B22080315420882B
:10DE1000401C80B220808119288803F02DF82188C9
:10DE2000084480B22080AA8842B1A96841B1304438
:10DE3000FBF74DFB2088A98808442080002070BD96
:10DE4000072070BD2DE9F047C6888946191D054693
:10DE50004079B1FBF6F406FB00F7B1FBF6F006FBE8
:10DE600014111468DDF820A004EB030C3F1FBC451F
:10DE700000D9FC1A146001E02D68401E0028FBD177
:10DE8000771A8046A74214D816E06818001D09EBDF
:10DE90000803BAF1000F3A4602D00146184600E0E6
:10DEA0001946FBF714FB00212D68E41BB844A64279
:10DEB00001D9274600E03746002CE6D1BDE8F087BF
:10DEC00030B5034659B100F0A3FF044600210748CE
:10DED00008E030F821201D68AA4202D11960002014
:10DEE00030BD491CA142F4D3052030BD0000000024
:10DEF00010B5012002F098FBBDE8104002F04EB8CA
:10DF0000F8B50F46017814460546012901D1687815
:10DF100030B12088821C9A4232D8012902D006E012
:10DF20000720F8BD69780144891C994228D8181A3D
:10DF3000801E86B2ADF800602188B81C084469468E
:10DF40007DDF0028EDD12978022904D06878BDF85A
:10DF50000020904205D3BDF80000B04201D809204E
:10DF60000AE00820012905D16978B14202D8ADF84C
:10DF7000001001E0ADF80060BDF80010FE2901D9E5
:10DF80000C20F8BD2288491CB9542188491C89B24B
:10DF9000218078542088401C2080BDF8001008445F
:10DFA00020800020F8BD10B531B1B2FBF3F403FBC3
:10DFB00014241CB1092010BD0E2010BD01600021E9
:10DFC000416081608281C381084610BD70B50D46F5
:10DFD0000446FBF72FF9002802D02988206808445E
:10DFE00070BD10B50A8849888A4203D1FBF764F9ED
:10DFF000012010BD002010BD70B50D460446FBF792
:10E000003EF9002802D069882068084470BD10B528
:10E010000A8849888A4203D1FBF728F9012010BDFC
:10E02000002010BD01F01F0301229A40D24349098C
:10E0300000EB8100114600F021B84A0950F8220097
:10E0400001F01F0201219140084000D001207047DB
:10E050000A4601F01F0301219940520900EB82009A
:10E0600000F01CB8002100F00FB8012100F016B834
:10E0700008B56A46FBF775F9009808BD08B56A4609
:10E08000FBF755F9009808BD08B56A46FBF74FF94C
:10E0900008BD08B56A46FBF731F908BD08B56A4600
:10E0A000FBF738F9009808BD08B56A46FBF766F932
:10E0B000009808BD38B5044600258DF80050684624
:10E0C000FDF718FA21686268086890420ED9401E70
:10E0D00008600178238AE26801FB0325227A21681F
:10E0E000101AC0B20A79824200D208719DF800006D
:10E0F000FDF722FA284638BD38B5044600208DF8D1
:10E1000000000D466846FDF7F5F9E068218A281AF7
:10E11000B0FBF1F221680868431C0B6002709DF8A7
:10E120000000FDF709FA38BD10B530B1017A426838
:10E130000368891AC9B21A6006E00E2010BD036890
:10E140001A68541C1C601170491EC9B2F7D20068CD
:10E1500000210171084610BDC20800F0070301202C
:10E16000895C98400840704728B1A1F11702E12A64
:10E1700003D3072070470E207047018000207047AE
:10E1800070B5050011D0F720E96028806880FB2079
:10E190002871002404EB440005EB4000801DFFF7CC
:10E1A000F1FC641CF6D0002070BD0E2070BD000094
:10E1B0007CB582880C460146002A31D108880025AA
:10E1C000102806D0112808D03A280AD055282BD17B
:10E1D00027E0204601F0D2FC26E0A01DFFF7D2FC8C
:10E1E00022E02046498934F8063F8B4200D8194680
:10E1F0006180172900D217216180C16871B16179EE
:10E2000061B11749D1E90031CDE90031ADF8022003
:10E210006188ADF80410C268694690476571257140
:10E220007CBD204601F026FDA07A0028F8D02846C3
:10E23000E188A5DF012680B11128F1D001F0CEF9E7
:10E2400002460848084902B0401AC00806EB0040E0
:10E25000BDE8704005A100F053BDA572E6727CBD1B
:10E2600000120200641E0200641E020073645F62FA
:10E270006C655F67617474635F65786368616E671E
:10E28000655F6D74755F726571756573742829209B
:10E2900072657475726E65642025732E000000002F
:10E2A00020B10278DE2A03D0082070470E20704784
:10E2B00041800020704760B159B10278DE2A0AD04F
:10E2C00009684160DE2101704FF6FF714180002036
:10E2D00070470E207047082070477FB5054600291B
:10E2E0004DD0002D4BD008780C46DE2847D1A888A9
:10E2F0006188884202D1204602F05CFE288801280D
:10E3000025D002283BD011283AD0512837D135F8F2
:10E31000040F6188884232D1A878A91C02282ED126
:10E32000087A042803D0062801D0052827D1002028
:10E33000009002228DF8002001904FF4C0720290EC
:10E340000390ADF80420097A05290FD010E0297A4E
:10E350002046012913D1A988428891420FD1012179
:10E36000017204B0BDE8704002F024BEADF80400B4
:10E3700028886946B0DF002801D0616888477FBDE2
:10E38000A88861888842FAD14FF6FF7060807FBD0F
:10E3900000F180400068002800D00120704708B5D7
:10E3A00000F18040002101600068009008BD00007D
:10E3B00070B540F6F8700468601C02D14FF0102070
:10E3C0004469124B12484FF00102A0EB03004FEAE0
:10E3D000D000611C02EB004512D0032101EB00408C
:10E3E00022460CA100F08CFC204613DF040005D06F
:10E3F000284613A100F080FC204670BD002070BDAF
:10E4000028461CA100F078FC042070BD641E0200A8
:10E41000D41E020053657474696E67207665637458
:10E420006F72207461626C6520746F20626F6F740C
:10E430006C6F616465723A2030782530387800005E
:10E440004661696C65642072756E6E696E672073D3
:10E45000645F736F66746465766963655F76656330
:10E46000746F725F7461626C655F626173655F7324
:10E47000657400004E6F20626F6F746C6F6164652D
:10E48000722077617320666F756E640070B50C48FA
:10E490000C490D4A401AC508032000EB05400BA1AA
:10E4A00000F02EFC084813DF040007D0012000EB29
:10E4B000054011A100F020FC204670BD002070BD79
:10E4C000D41E0200641E02000090010053657474A3
:10E4D000696E6720766563746F72207461626C6523
:10E4E00020746F206D61696E206170703A20307801
:10E4F00025303878000000004661696C6564207240
:10E50000756E6E696E672073645F736F66746465A1
:10E51000766963655F766563746F725F7461626C60
:10E52000655F626173655F736574000070B50D4C63
:10E530000125207808B185260EE00020A0606060EB
:10E540002061E060084801F07DF8064600F092FF87
:10E5500008B901F061F8257001F056F800B1A57016
:10E56000304670BD6C27002029D0010038B5002549
:10E570008DF800506846FCF7BDFF084CE068401E6F
:10E58000E060E06828B901F03FF810B901F06AF8DE
:10E59000A5709DF80000FCF7CFFF38BD6C27002068
:10E5A0002DE9F041054604780B4817460E4640F821
:10E5B0002420001D40F82430487B10B1084602F0AA
:10E5C0007DF90FB1054A00E0002223463146281D9F
:10E5D000BDE8F04101F09EB9242400206909020041
:10E5E00038B5001D049C009401F01EFA38BD0FB42C
:10E5F00008B50399002904D004AA00926A4600F0E5
:10E600000FF801B05DF814FB10B582680446002ACB
:10E6100005D0D4E90403216898470020A06010BD0C
:10E620002DE9FC4715460C00814672D014F8011BF9
:10E6300039B125290ED04846FEF79EFB20780028E8
:10E64000F4D199F80C00002863D04846BDE8FC4797
:10E65000FFF7DABF0020012221782B291BD02D29BA
:10E6600002D0302908D102E040F0010001E040F082
:10E670000200641C002AEFD100262A290ED021783E
:10E68000A1F130020A2A0FD206EB860201EB420604
:10E69000641C303EF1E740F00400EAE729680A1DF7
:10E6A0002A600968641C0E44217800232E290BD1AE
:10E6B00014F8011FA1F130020A2A05D203EB8302EC
:10E6C00001EB4203303BF3E76C290DD068290BD0F6
:10E6D00069291FD00BDC252916D058292BD0632996
:10E6E0000ED0642913D115E014F8011FECE770294E
:10E6F00061D073292AD0752917D0782907D11AE05B
:10E700002868011D296001784846FEF735FB641C26
:10E7100094E764E029680A1D2A600968CDE9006071
:10E720000A224846FFF732F9F1E729680A1D2A60F4
:10E7300009680A2204E029680A1D2A600968102273
:10E74000CDE90060484602F09DFBE0E729684FF004
:10E7500000080A1D2A600F68C00706D113E008F1FF
:10E76000010848467F1CFEF707FB39780029F6D1DF
:10E7700004E020214846761EFEF7FEFA4645C6D93B
:10E78000002EF6D1C3E74FB13846FAF7CEFE8046E9
:10E7900004E020214846761EFEF7EEFA464506D9EB
:10E7A000002EF6D103E048467F1CFEF7E5FA3978E3
:10E7B0000029F8D1ABE72868011D296006683021DF
:10E7C0004846FEF7D9FA78214846FEF7D5FA0820E0
:10E7D0000021CDE90001034610223146B2E7BDE831
:10E7E000FC8770B541EA4201DDE904454FF0A046DF
:10E7F00041EA830141EA042106EB800041EA054138
:10E80000C0F8001770BD70B541EA4201DDE904456A
:10E810004FF0A04641EA830141EA042106EB800063
:10E8200041EA0541C0F8001770BD70B541EA4201E8
:10E83000DDE904454FF0A04641EA830141EA0421A5
:10E8400006EB800041EA0541C0F8001770BD4FF0AB
:10E85000A04202EB80000321C0F8001770474FF080
:10E86000A04202EB8000D0F8002722F44032C0F82A
:10E870000027D0F8002742EA0141C0F8001770478E
:10E8800038B5084B6C4645181B68009307E054F8F0
:10E890002030D3F8201502C2C3F82015401C854251
:10E8A000F5D838BD2012020042094FF0000100D116
:10E8B000491E00F01F00012282400A4201D00120BF
:10E8C0007047002070474FF0A04201218140C2F8FC
:10E8D0000815704701224FF0A043824011B1C3F8E0
:10E8E00008257047C3F80C25704701224FF0A0435C
:10E8F000824011B1C3F808257047C3F80C25704752
:10E90000034908B50844002101600068009008BD73
:10E910000060004002494058012800D000207047A4
:10E9200000600040F0B5154F04460020D7F8106491
:10E930000125314604E0CA681379834203D0116887
:10E940000029F8D125B9401C0A28F1DB4FF0FF302F
:10E95000411C0CD0E1680871D7F8101441B1C968A6
:10E96000E26809681160D7F81014C9680C60F0BD3E
:10E97000C7F81044E26800211160F0BD802A002031
:10E980007047FBF79BBC704708B5034A00924023D1
:10E99000024A00F005F808BDD5020200E828002070
:10E9A000F0B593B01D4614460F460846189E00F079
:10E9B000FEFA182101A8FAF7A3FD06960023082203
:10E9C00010A93846CDE9014500F006FB12980790E2
:10E9D000BDF84400ADF82000BDF84600ADF82200B7
:10E9E00000208DF825001098082600F00301012969
:10E9F00002D0022916D02FE0C0F3C201C0F3831564
:10EA0000840A8DF82410AA0033460AA9384600F07B
:10EA1000E3FA01A8009007AB2A460AA9204600F0B5
:10EA200023FA19E0840DC0F3C2008DF82400082CED
:10EA300001D2254600E0082533462A460AA9384671
:10EA400000F0CAFA2E44641B01AB07AA29460AA8A3
:10EA500000F074F9002CEAD1384600F0AEFA13B099
:10EA6000F0BD00000A4A012902EBC00007D00229CC
:10EA700007D0032907D0042907D0002070470220BF
:10EA80007047042070470079704740797047000054
:10EA9000641E020010B5FFF774FF04210348FFF75E
:10EAA00041FF02490120C968487110BD541E02008F
:10EAB0002DE9F04F85B0FEF777F918B1002005B0C9
:10EAC000BDE8F08F824F4FF0000BC7F818B4BFF3CA
:10EAD0004F8F8049B86800900C682040002507EBF4
