:020000040001F9
:1090000060390020E19301000B9401000D940100F0
:109010000F9401001194010013940100000000005E
:109020000000000000000000000000001594010096
:109030001794010000000000199401001B94010026
:10904000659601001D940100C59A0100B59A0100C2
:109050001D94010000000000C19501001D94010055
:109060001D9401001D9401001D9401001D94010038
:109070001D9401001D9401001D9401001D94010028
:109080001D940100CD9601001D9401001D94010066
:109090001D9401001D9401003D9701001D940100E5
:1090A0001D9401001D94010000000000000000005C
:1090B000BD9601001D9401000000000000000000AA
:1090C00000000000000000000000000000000000A0
:1090D0000000000000000000000000000000000090
:1090E0000000000000000000000000000000000080
:1090F0000000000000000000000000000000000070
:10910000000000000000000000000000000000005F
:10911000000000000000000000000000000000004F
:10912000000000000000000000000000000000003F
:10913000000000000000000000000000000000002F
:10914000000000000000000000000000000000001F
:10915000000000000000000000000000000000000F
:1091600000000000000000000000000000000000FF
:1091700000000000000000000000000000000000EF
:1091800000000000000000000000000000000000DF
:1091900000000000000000000000000000000000CF
:1091A00000000000000000000000000000000000BF
:1091B00000000000000000000000000000000000AF
:1091C000000000000000000000000000000000009F
:1091D000000000000000000000000000000000008F
:1091E000000000000000000000000000000000007F
:1091F000000000000000000000000000000000006F
:10920000DFF810D000F09EF90048004751C501007A
:10921000AFF300806039002000B583B00290009168
:10922000019244F2010071466A4600F0BDFD03B0B0
:1092300000BD000030B450E8012F93B2C48923442C
:109240008489A34228BF1B1B0489A34202BFBFF32A
:109250002F8F002007E0C3EA020340E80134002C0E
:10926000E9D14FF001000A6030BC704750E8012F8F
:10927000C2EA024240E801210029F7D1704730B428
:1092800050E8022F1FFAA2F3C488A34202BFBFF323
:109290002F8F00200DE0C48923448489A34228BF76
:1092A0001B1BC2EA034340E80234002CE8D14FF014
:1092B00001000A6030BC704750E8022FC2EA224227
:1092C00040E802210029F7D17047034653E8022FF6
:1092D000D988B2EB324F4FF0000017BF92B241EA8B
:1092E000014142EA014104E05A68B2EB324F08BF43
:1092F000012043E80212002AE8D1704730B4044646
:1093000054E8000F0D4644E80053002BF8D11560D7
:1093100030BC704730B4044654E8000F40EA010501
:1093200044E80053002BF7D1156030BC704730B4CF
:10933000044654E8000F00EA010544E80053002BFE
:10934000F7D1156030BC704730B4044654E8000FC4
:1093500080EA010544E80053002BF7D1156030BCCA
:10936000704730B4044654E8000F00EB010544E8B0
:109370000053002BF7D1156030BC704730B4044661
:1093800054E8000FA0EB010544E80053002BF7D18F
:10939000156030BC704770B404464FF0000054E8CC
:1093A000006F0D68AE4207BF44E80023012044E887
:1093B00000630E60002B1CBF0020F0E770BC7047FC
:1093C00030B4044654E8000F88422CBF451A0546C5
:1093D00044E80053002BF5D1156030BC7047000005
:1093E0000F4800680F4909680A280AD1002908D1E6
:1093F0000D4802686FF070031A404FF040031A43A3
:1094000002600A4880470A480047FEE7FEE7FEE799
:10941000FEE7FEE7FEE7FEE7FEE7FEE7FEE7000009
:109420003001001034010010E40E004041970100AB
:10943000019201002DE9F05F0546002092469B460F
:1094400088460646814640241BE02846414647465A
:10945000224600F067F853465A46C01A914110D38D
:1094600011461846224600F016F82D1A67EB01083F
:109470004F4622460120002100F00DF817EB0009AD
:109480004E41201EA4F10104DFDC484631462A4645
:109490004346BDE8F09F202A04DB203A00FA02F19F
:1094A000002070479140C2F1200320FA03F31943D2
:1094B000904070470048704764F9010040EA01039A
:1094C0009B0703D009E008C9121F08C0042AFAD27A
:1094D00003E011F8013B00F8013B521EF9D270473E
:1094E000D2B201E000F8012B491EFBD270470022E6
:1094F000F6E710B513460A4604461946FFF7F0FF93
:10950000204610BD421C10F8011B0029FBD1801A17
:109510007047034611F8012B00F8012B002AF9D1FE
:1095200018467047202A04DB203A21FA02F0002175
:10953000704721FA02F3D040C2F120029140084363
:1095400019467047064C074D06E0E06840F00103FD
:1095500094E8070098471034AC42F6D3FFF754FE66
:10956000500102007001020070B58C1810F8015B08
:1095700015F0070301D110F8013B2A1106D110F8AC
:10958000012B03E010F8016B01F8016B5B1EF9D1B0
:109590002B0705D40023521E0DD401F8013BFAE736
:1095A00010F8013BCB1A921C03E013F8015B01F8A1
:1095B000015B521EF9D5A142D8D3002070BD000036
:1095C0002DE9F8430025DFF894804FF480770124DB
:1095D0002E460095384603F0D9FD38B1D8F804037B
:1095E000204203D0384603F0C7FD25433F1D6400E9
:1095F000761CBFB2082EEDD34FF4BE74204603F0A4
:10960000C5FD48B1204603F0B7FD45F000456A4668
:109610000121002003F076FD15F0FF0F16D0012682
:1096200000242E420ED008EB8401D1F81005D1F8A9
:109630001015C0F304200A4AC1F3014152F8242056
:1096400002B190477600641C082CEAD3002D02DAA0
:10965000684604F0FFFFBDE8F883000000600040AA
:109660007027002070B54FF48076304603F012FB6F
:10967000114CB50560B1304603F013FB0120C5F86D
:109680000803607920B901206071216800208847B3
:109690004FF48276304603F0FDFA00280AD03046B7
:1096A00003F0FFFA0220C5F808032168BDE8704006
:1096B0000120084770BD0000102400200149024825
:1096C00002F05CBE2024002000C001400249024894
:1096D000091F0968006808476824002000F0F8B9ED
:1096E00070B50E46144900EB400001EBC00514466E
:1096F000E86A183520B101280FD0022805D113E0FF
:10970000284600F019FAA04201D2002411E02246B6
:109710003146284600F048FA0BE0284600F00CFAE3
:10972000A042F4D20446F2E73146284600F00FFA90
:109730000446204670BD0000902E002004F0D2BAEE
:109740002DE9F041CB494FF08057C94AD7F8300195
:1097500009781268D7F83431441CC1F3031106D0DC
:10976000844601260025BCF1060F03D00AE002F072
:10977000FF0CF6E7B7F82443DFF8FCC2C4F3042477
:10978000CCF8004002F0FF0C0C46BCF1060F06D1ED
:10979000032C04D1DFF8E8C2B84CCCF87440441C68
:1097A00007D08446BCF1060F06D0BCF10A0F03D0E7
:1097B0000AE002F0FF0CF5E7D7F84442DFF8C4C234
:1097C000C4F34234CCF8004002F0FF0C0C46BCF16C
:1097D000060F08D1032C06D1AB4CD4F800C02CF0F6
:1097E000807CC4F800C0441C07D08446BCF1060F3E
:1097F00006D0BCF10A0F03D00BE002F0FF0CF5E736
:109800004FF08044C4F80C51C4F810519D4C241FF3
:10981000256002F0FF0C0C46BCF1060F07D1032CAB
:1098200005D1DFF860C20CF1640CCCF8004002F006
:10983000FF0C0C46BCF1060F11D1032C0FD1DFF841
:109840004CC20524CCF80040904C783426608F4CF4
:10985000083425600CF1040C3F24CCF80040441C73
:1098600008D084461C46BCF1060F07D0BCF10A0F95
:1098700008D081E002F0FF0C0C46F4E7032C7BD00B
:10988000042C79D0824C2468DFF808C2CCF8004060
:109890007F4C241D24680CF1040CCCF800407C4C57
:1098A000083424680CF1040CCCF80040784C0C34DB
:1098B00024680CF1040CCCF80040754C103424687A
:1098C0000CF1040CCCF80040714C143424680CF1F9
:1098D000040CCCF800406E4C18342468DFF8B4C196
:1098E0000CF1200CCCF80040694C1C3424680CF1BD
:1098F000040CCCF80040664C203424680CF1040CB5
:10990000CCF80040624C243424680CF1040CCCF8F0
:1099100000405F4C283424680CF1040CCCF8004063
:109920005B4C2C3424680CF1040CCCF80040584CEF
:1099300030342468DFF85CC10CF1400CCCF80040F6
:10994000534C343424680CF1040CCCF80040504CD7
:10995000383424680CF1040CCCF800404C4C3C34F6
:1099600024680CF1040CCCF80040494C40342468C5
:109970000CF1040CCCF80040441C06D08646DFF8FD
:1099800018C1BEF1060F03D008E002F0FF0EF6E7A3
:10999000D7F8584204F04F04CCF80040441C05D0DE
:1099A0000246062A04D00A2A02D008E0D2B2F8E71A
:1099B0003A490A68D20702D06FF001020A601946DC
:1099C00006280AD1032908D0042906D0052904D085
:1099D00033490A6842F480620A600A2806D12BB132
:1099E000DCF8000040F00F00CCF800004FF0102130
:1099F000D1F800322B4A2C48002B03DBD1F804327B
:109A0000002B13DA16600368002BFCD01524C1F874
:109A100000420368002BFCD0C1F804420168002911
:109A2000FCD0156001680029FCD019E091F80032E3
:109A3000DB0703D191F80432DB0713D0166003680B
:109A4000002BFCD0C1F800520368002BFCD0C1F8F9
:109A5000045201680029FCD0156001680029FCD07F
:109A600000F0C4F8124911480860BDE8F081000018
:109A7000E00F00F0E80F00F0403501400DF0ADBA06
:109A800000C007403C050040FCED00E010560040DF
:109A90000404001020C50040E40E00400004004013
:109AA0003C17004004E5014000E401400090D00371
:109AB000E02400200149024805F062BACC270020CA
:109AC00000300040014800680047000018240020D2
:109AD00010B5124C022000212061606110A0A0612D
:109AE00004F17800E0614FF40070A16220626162CD
:109AF0000BA0E162A06404F51E70E0641020A16573
:109B0000C4E91401E16509A1E01DFFF702FD08A108
:109B10002046FFF7FEFC2020A07110BD902E0020F3
:109B20005465726D696E616C0000000052545400FF
:109B300053454747455200000269C1688A4203D82D
:109B40008068401A104400E0501A401E70472DE90A
:109B5000F047C4681746894605464FF00008286953
:109B6000A04201D9061B02E0A968201A0E1AA868B3
:109B7000761E001BB04200D80646BE4200D33E46C9
:109B80006868324620444946FFF798FCA868BF1B26
:109B90003444B044B144A04200D10024EC60002F12
:109BA000DDD14046BDE8F0872DE9F0410446884606
:109BB000D4E90207C51BE168606816460844B5424F
:109BC00006D94146FFF77AFCB819E060BDE8F0819C
:109BD0002A464146FFF772FC761B08EB0501324628
:109BE0006068FFF76BFCE660F0E70000BFF34F8FA3
:109BF00005480168054A01F4E06111430160BFF3C3
:109C00004F8F00BFFDE700000CED00E00400FA05F7
:109C100002E008C8121F08C1002AFAD17047704735
:109C2000002001E001C1121F002AFBD17047000093
:109C30000121202803DA81400548014003E0402843
:109C400002DA2038814009B10120704700207047B6
:109C5000FC06FFBD90F824001F20704710B50122BC
:109C60000221002001F02AFC08B1072810D10722A8
:109C70000221012001F022FC08B1072808D10021AF
:109C80000A22084601F01AFC08B1072800D100207A
:109C900010BD000000B5ABB0AC216846FFF727FC53
:109CA00002208DF8000000208DF8020006218DF8BA
:109CB00003100121ADF84C100C4A8DF87C10149261
:109CC0004021CDE922100A4829906946094800F050
:109CD0000CFB20B1084A40F2D521FFF79DFA012183
:109CE000044800F0FFFA2BB000BD0000A4230020C0
:109CF000EDE201002425002098C60100022001F0B9
:109D0000D5BA000070B50024064D06E06868012150
:109D100010F8340004F010F9641C28788442F5D35C
:109D2000002070BD28240020F8B516460C460546D4
:109D30000A2A01D20720F8BD04F0F8F918B904F096
:109D4000BBF90028F7D1134F102113487D603C70F8
:109D5000BE60FFF7CCFB0020C7E904000F4E0DE00A
:109D600005EBC4013068009088788DF80100087810
:109D70000B4A694604F030F90028DCD1641EE4B2D5
:109D8000EED2BDE8F84005480021064A001D00F06B
:109D9000F3B80000282400202828002064F60100E1
:109DA00041C2010091BC0100FEB515460E460746B2
:109DB00072B603F081FC03F0B7FA0028FBD1224809
:109DC00022490122401AC00802EB0044012F22D090
:109DD0006FF48050381821D0B0F5405F23D06FF475
:109DE0004051C842204605D1D5E9003218A103F000
:109DF000CAFB03E032461DA103F0BEFB2148006808
:109E0000C00700D000BE2A4603B031463846BDE840
:109E1000F04000F079B820461BA101E0204622A1C5
:109E200003F0A6FBEAE7A86804F022F80346D5E9A8
:109E30000001CDE900100296204624A1AA6803F093
:109E4000AAFB20462BA1EBE7F001020080010200F3
:109E5000415353455254494F4E204641494C454485
:109E60002061742025733A2575000000554E4B4E35
:109E70004F574E204641554C542061742030782570
:109E800030385800F0ED00E0534F465444455649F1
:109E900043453A20415353455254494F4E20464181
:109EA000494C454400000000534F46544445564930
:109EB00043453A20494E56414C4944204D454D4F6B
:109EC0005259204143434553530000004552524FDD
:109ED00052202575205B25735D2061742025733A1F
:109EE00025750D0A50432061743A203078253038AA
:109EF00078000000456E64206F66206572726F7294
:109F0000207265706F72740008B501238DF80030FF
:109F10009DF80030144B186059609A606FF48041CE
:109F2000401807D001280FD1DA60D868006898611E
:109F3000D86807E01A611869806858611869006874
:109F4000986118694068D861186858689868D86836
:109F5000186958699869D86972B69DF80000002898
:109F6000FBD162B608BD000038280020014801F08E
:109F700010BF0000482400203AB100680129426166
:109F800000D00021016100207047072070470000C9
:109F900038B5114808235822416800910F490068DC
:109FA00002F084FC002815D10D4A69460D4801F0E5
:109FB000F5FE04000ED101210A4801F06AFF0123D9
:109FC000094A1946074801F0BCFE06490120083934
:109FD0000870204638BD00006CF60100682800209B
:109FE00051E8010048240020FFFF7F0070B50446BF
:109FF000007F0D4608B1002070BDA26102F006F995
:10A00000401941F10001C4E90201206900B1256154
:10A010002146BDE87040002004F08ABF01460020C0
:10A020000877012004F084BF30B5EFF3108372B6D7
:10A030000C4A9468012184B991604FF0E021D1F875
:10A040008051094C25401560C1F88041D1F8844108
:10A0500054604A17C1F8842100210170002B00D1FF
:10A0600062B630BDC0280020FC06FFBD0B498A68DF
:10A07000002A11D000280FD1EFF3108072B60B68C0
:10A080004FF0E022C2F800314B68C2F804310022E0
:10A090008A60002800D162B670470000C028002006
:10A0A00070B51500044609D00020286034B120683E
:10A0B00020B1A079800703D0072070BD0E2070BDAD
:10A0C000084600F02FFBC0B2142804D02179814249
:10A0D00003D8042070BD052070BDE288216800FB14
:10A0E00002102860002070BD2DE9FC4104460020CC
:10A0F00016880F46108094F82D101546804631B111
:10A1000032462946384600F02BFB00287DD1A17845
:10A1100001B32888001DB04201D90C2018E0684620
:10A1200079DFA8B92A880321B95428881922401C4C
:10A1300080B228803A542888401C80B22880C119F7
:10A14000BDF8000005F002F929880844288040463F
:10A1500000285AD1E2780221CAB1288894F9032054
:10A16000C31CB34201D90C200FE0395428880123C5
:10A17000401C80B228803B542888401C80B2288034
:10A180003A542888401C28800020002875D1626835
:10A19000CAB1288892F90020C31CB34201D90C200F
:10A1A0000FE0395428880A21401C80B22880395495
:10A1B0002888401C80B228803A542888401C288077
:10A1C0000020002859D1218951B1CDE900563B46E4
:10A1D0000622022104F1080005F078F900284CD18C
:10A1E000218A51B1CDE900563B460722032104F1F3
:10A1F000100005F06BF900283FD1218B61B11522C9
:10A200003B46142104F1180000E036E0CDE9005689
:10A2100005F05CF9002830D1D4F820C0BCF1000F63
:10A2200007D033462A463946604601F0B8FC00287C
:10A2300023D1D4F824C0BCF1000F07D033462A46FE
:10A240003946604602F056FA002816D194F82C10D0
:10A2500039B133462A463946204604F025FC002809
:10A260000BD12178002908D002B033462A4639465E
:10A270002046BDE8F04102F0C6BABDE8FC8118B541
:10A2800004460020ADF8000013466A46204600F060
:10A2900006F8002802D0BDF80000204418BD70B5B3
:10A2A000E0B1DAB1002402E0045D2C44A4B2651CE4
:10A2B0008D4206D21688A642F6D8061976789E42B6
:10A2C000F2D18C420AD2A31C005D9BB200B1401EA9
:10A2D0000004000C02D01C188C4201D9002070BD73
:10A2E000138070BD80F8301070472DE9F0410D00EB
:10A2F000044605D024B195F87A00012803D006E081
:10A300000E20BDE8F08195F89800012828D0D5F8F6
:10A31000A000042824D0D5F89C00042820D00026D2
:10A32000A6702C2205F17801201DFFF7C7F884F8EC
:10A330003060D5F8A4006063D5F8A800A0634FF69C
:10A34000FF70A4F8E80004F1D400C4F8E400C4F8F5
:10A35000EA60A4F8EE6084F8F060207810B104E0C0
:10A360000720CEE7FF2084F8540004F1550720466B
:10A37000C4F8D470FFF76EFCA4F8D80004F1D8023A
:10A3800039462846FFF7B0FE0028BAD104F1930001
:10A39000C4F8DC002046FFF75DFCA4F8E00004F1FF
:10A3A000E00205F13C00D4F8DC10FFF79DFE002828
:10A3B000A7D1012584F85150208BA4F8480084F8D7
:10A3C0003C50266484F8506060690021606404F1A8
:10A3D0003C02781E72DF002893D1257091E72C2271
:10A3E000001DFFF76BB810B50288102A1BD0112A88
:10A3F00020D0262A1DD1007A0C46012801D002283F
:10A4000017D1A0780521401CB0FBF1F201FB12012D
:10A41000204600F03AF800280BD0A16B002908D0A4
:10A42000BDE810400847C27B012A02D18088A1F80C
:10A43000E80010BD0C46002184F8F2108088B4F8C2
:10A44000E8108842F5D120790028F2D10121DFE718
:10A4500010B5044690F8540074DF012084F8F2002F
:10A46000002084F8F40084F850000621204601F012
:10A4700018FE002808D1A178204600F006F810B197
:10A48000A16B01B18847002010BD2DE9F05F0446A3
:10A4900000788846B8B184F802800025C4F8EA50F4
:10A4A000A4F8EE5084F8F050A079012610B1B8F16C
:10A4B000010F0BD0E07990B1B8F1010F06D0B8F1DF
:10A4C000020F03D00BE00820BDE8F09F616B21B1C3
:10A4D00084F8F1600820884701E084F8F15004F125
:10A4E000EB0100200A5C0AB1304603E0401C06285C
:10A4F000F8D3002002274FF0030A4FF0040BB8F105
:10A50000010F09D0B8F1020F0ED0B8F1030F10D02F
:10A51000B8F1040F15D110E0A17929B194F82410F5
:10A5200011B908B130460DE0E17911B108B13846F2
:10A5300008E0207A08B1504604E0607A08B1584635
:10A5400000E02846A070616B41B1032801D00428C7
:10A5500004D1607910B194F8F20098B184F8F35006
:10A5600004F13C0018218046FEF7C1FF84F83C60EE
:10A5700004F12C0004F03EF858B194F82C0084F853
:10A58000510008E084F8F45084F8F360072088470D
:10A59000E6E784F8516094F8240058B104F12800EB
:10A5A00004F028F820B194F8280084F8520001E063
:10A5B00084F8526084F85050A27804F1EA0104F162
:10A5C000D409052A52D2DFE802F06A030F1E3600D2
:10A5D00084F83160C4F8E450C4E9101584F83C7084
:10A5E0008020A4F8480043E084F8317088F800A087
:10A5F000228AA8F80C20C4F8E450C8F80410E168D6
:10A60000C8F8081034E06069C8F80800208BA8F882
:10A610000C00454684F83C60204604F029FF38B120
:10A620002F750421204601F03CFDF8B9052116E004
:10A6300084F831A018E0E069C8F80800208CA8F878
:10A640000C00454684F83C60204604F011FF48B1F8
:10A650002F750421204601F024FD38B9062184F825
:10A66000311001E084F831B0C4F8E490A07878B1FA
:10A67000424604F15400D4F8E41072DF00287FF45D
:10A6800023AF94F8301094F8540073DF0028F6D10B
:10A69000616B11B194F831008847002014E784F809
:10A6A0003150F5E72DE9F041040012D001461C229B
:10A6B0001948FEF703FF1848184D0560206858B187
:10A6C0007ADF002806D12068016829604068686048
:10A6D00006E00E20BDE8F08110487BDF0028F9D1AC
:10A6E0000D4D0024143D4FF6FF76A5F1200704EB35
:10A6F000840005EB800007EB441120F8046B084A46
:10A7000001600021FFF738FC08B10320E2E7641C78
:10A71000EDD00020DEE70000C42600200824002041
:10A7200005F4010010B5044600F010F808B1204609
:10A7300010BD142010BD00000346034880680A467F
:10A74000194601F0C2BC0000E0260020142801D305
:10A75000002070470146014802F0F2B8E4260020CC
:10A760007CB5054608880C460930904201D90C207A
:10A770007CBD68466DDF0028FAD121880820685426
:10A7800020881B21401C80B2208029542088401C36
:10A7900080B220802844DDF801100160BDF805106A
:10A7A00081802088801D80B220809DF8001049089B
:10A7B00000D0012129542088401C208000207CBD2D
:10A7C00010B502F077FA002809D105484FF0030CC4
:10A7D00000DF002803D1BDE8104002F0D9BA10BD57
:10A7E0003431002018B103490860002070470E2062
:10A7F00070470000DC24002010B54FF0FF3100202E
:10A800003DDF00280BD1B1213CDF002807D10448EF
:10A81000416901208847022003F062F8002010BD42
:10A8200018310020044810B50068416900208847AD
:10A83000BDE81040FFF7E0BFDC24002010B588B071
:10A84000044620216846FEF752FE0320ADF80000C2
:10A8500020788DF802009DF80D00012140F02800BD
:10A860008DF80D008DF810108DF813108DF8121062
:10A870008DF80C1017208DF81110ADF804006088C9
:10A88000A21D694601F044F808B010BD10B5184982
:10A8900086B01EC98DE81E0048B1164C4FF6FF71F8
:10A8A000A180006800216061217618B104E00E20CB
:10A8B00006B010BD104860610E48FFF793FF0028F6
:10A8C000F6D101208DF812004FF65960ADF8100056
:10A8D000A21C04A90120A8DF0028E9D10549684687
:10A8E00062DF0028E4D10348FFF7A8FFE0E700009B
:10A8F000D0F801001831002091BF010010B50028E8
:10A9000023D001881C4C102917D022461129938886
:10A9100015D0D288512919D0532916D1C088904218
:10A9200013D1207E002810D0FFF77CFF00280CD028
:10A930006169BDE8104002200847808804E08088F3
:10A94000834202D14FF6FF70A08010BD81889942EA
:10A95000FBD110F8061F0229F7D141889142F4D1AA
:10A96000017A0429F1D00629EFD00529EDD0BDE800
:10A970001040801C03F06EBD183100202DE9F0411D
:10A980000446007B0426324F4FF00108012811D005
:10A9900002282DD00226207B314600F093F818B112
:10A9A000386841690320884738684169BDE8F0414B
:10A9B0000220084738680025417E51B10621012058
:10A9C00000F080F818B138684169032088472846AC
:10A9D00008E080F818800121084600F073F808B1FB
:10A9E00039680D76002830D01128D4D10626D2E758
:10A9F000627B142A0ED86AB1164D04F10E01281D8F
:10AA0000FEF75CFD607BA86139682846497E19B174
:10AA1000062518E00526BEE70E490C390A680831FC
:10AA20009047050002D00F2D04D00CE0396881F862
:10AA3000198008E008480949401AC10808EB01409C
:10AA4000074902F095FD002DA5D1BDE8F081000079
:10AA5000DC24002040310020F001020080010200CF
:10AA6000D0FF0100154910B50A68002A25D04A68B0
:10AA7000002A22D00831904708281ED0104C00210F
:10AA80000028206841760ED00621022000F01AF836
:10AA900018B1206841690320884720684169022075
:10AAA000BDE8104008470121022000F00BF8002803
:10AAB00003D0206841690320F2E710BD3431002043
:10AAC000DC24002086B0002200920323ADF814306D
:10AAD00020238DF810308DF811000E4801928DF86A
:10AAE0001210C188ADF8001002218DF8021005A9DE
:10AAF000029104A90391ADF8042080886946AEDF75
:10AB0000002804D1BDF81410032900D00C2006B091
:10AB1000704700001831002030B52249224A012533
:10AB20000323891AC9088BB003EB014478B10128CB
:10AB30002CD011461B4A511AC908012202EB0142CE
:10AB4000022826D00328104626D018A125E020464A
:10AB500020A102F00DFD68462C21FEF7C8FC402024
:10AB60000490002005908DF804508DF8005069463F
:10AB70002448FFF734FC00212348FFF7DDFD02469F
:10AB8000204622A102F0F8FC0BB030BD204625A1E2
:10AB900003E010462CA100E03AA10BB0BDE8304024
:10ABA00002F0E6BCF001020080010200556E6B6EFF
:10ABB0006F776E206576656E742066726F6D2062A9
:10ABC0006C655F6466755F627574746F6E6C6573D7
:10ABD000732E000044657669636520697320707286
:10ABE00065706172696E6720746F20656E7465723E
:10ABF00020626F6F746C6F61646572206D6F646545
:10AC00002E00000024250020D9BC01004469736394
:10AC10006F6E6E6563746564202564206C696E6B6D
:10AC2000732E00004465766963652077696C6C203B
:10AC3000656E74657220626F6F746C6F61646572AB
:10AC4000206D6F64652E0000526571756573742008
:10AC5000746F20656E74657220626F6F746C6F61C3
:10AC6000646572206D6F6465206661696C6564203F
:10AC70006173796E6368726F6E656F75736C792E30
:10AC8000000000005265717565737420746F207345
:10AC9000656E64206120726573706F6E73652074D9
:10ACA0006F20636C69656E74206661696C65642EE3
:10ACB00000000000F8B5394D018804462E8821298E
:10ACC0004BD01ADC3648374A1029A0EB02004FEA75
:10ACD000D0004FF0030202EB004020D0112935D004
:10ACE000132939D100231A46852130467FDF0028F9
:10ACF00032D02DA24FF4F5710DE03B2945D05229F9
:10AD000038D0562928D18088132176DF002823D017
:10AD100025A24FF4FF71BDE8F840FEF77DBA26A1E9
:10AD200002F026FC072000F0EBFB20B11EA240F24F
:10AD3000CF11FEF771FAA1882980224801F032FF75
:10AD4000002809D018A24FF4E971E4E71EA102F02F
:10AD50000FFC4FF6FF702880F8BD00200090A088FF
:10AD600069468FDF0028F7D00FA24FF4F271FEF78B
:10AD700053FAF8BD00231A4619463046B1DF0028C1
:10AD8000F7D009A24FF4F871C5E78088132176DF68
:10AD90000028EED004A240F2F711BCE7A023002067
:10ADA000F0010200800102002E2E5C2E2E5C2E2E61
:10ADB0005C6D61696E2E6300436F6E6E65637465D2
:10ADC0006400000018250020446973636F6E6E658F
:10ADD000637465640000000010B51B4C0188606856
:10ADE00010290ED011292DD1401E60602AD1FEF706
:10ADF00035FF002826D02168002923D0BDE8104067
:10AE00000847E0B900210122084600F057FB08B1CD
:10AE1000072810D107220221012000F04FFB08B1C2
:10AE2000072808D104220221002000F047FB08B1C6
:10AE3000072800D1002010B1216801B1884760685F
:10AE4000401C606010BD0000002400202DE9F04788
:10AE500001883B4E40F2F3194FF6FF7510291BD0C5
:10AE600011293ED0122954D0502946D1C188F289E7
:10AE7000841D914241D1618902293ED186883046A4
:10AE800001F0FCF9050038D004F10C0000F0A8F93D
:10AE9000A8B3294630464EE0C17B87880446012985
:10AEA0002BD1A846284601F0E9F9050017D02F80DC
:10AEB00000202872234843464A460168C5F80A1014
:10AEC0004068C5F80E0004F1100105F10A0001F018
:10AED000A3FA6872F08900280FD129462AE00420DD
:10AEE00013E0808801F0CAF9040006D06068FFF71B
:10AEF00095F808B103F09EFD2580BDE8F087FFE7D7
:10AF00006868FFF78BF80028F7D0BDE8F04703F03A
:10AF100091BD87880646384601F0B0F90400ECD0B0
:10AF20002B464A4606F1080104F10A0001F074FAC2
:10AF3000607221463846BDE8F04700F085BE00004B
:10AF4000C4260020082400202DE9F04701883F4A4C
:10AF5000878898B0924610290DD0112947D002F168
:10AF60001003192962D01A296DD1007A0409042C22
:10AF700044D3012243E0354E083EB068C0431690EA
:10AF8000716816A801F0FDFC16990BA800F0E8FD09
:10AF90002C220BA96846FEF791FA0025E9460EE03F
:10AFA00009EB45000024B0F8048006EB840041461C
:10AFB000001D01F0BAFC641C1E2CF6D36D1C009819
:10AFC000A842EDD8142F07D318B0F021BDE8F04700
:10AFD0001FA20420FEF720B93946504601F0BBFC01
:10AFE00018B03946301DBDE8F04701F0B4BC18B0C8
:10AFF0003946BDE8F047104601F097BC00223946BB
:10B00000184601F049F8032C01D3012200E0002288
:10B010000E4839460C3001F03FF8022C01D30122D2
:10B0200000E0002209483946083007E0017A00298B
:10B0300009D1407A3946C0F3C002184618B0BDE8BD
:10B04000F04701F029B818B0BDE8F087E8260020E5
:10B050002E2E5C2E2E5C2E2E5C2E2E5C2E2E5C2E2A
:10B060002E5C636F6D706F6E656E74735C626C6581
:10B070005C636F6D6D6F6E5C626C655F636F6E6E4F
:10B080005F73746174652E630000000070B5040086
:10B0900032488EB008AE2DC886E82D005BD0E9B3EB
:10B0A0000868A061214608A862DF002851D12078F5
:10B0B00001258DF83200ADF83050A21C0CA92846AD
:10B0C000A8DF002845D120216846FEF710FA0220AB
:10B0D000ADF8000020788DF802008DF80C509DF836
:10B0E0000D00F426ADF8046040F00C008DF811500E
:10B0F000ADF806508DF80D008DF81250608804F1FF
:10B100000C02694600F004FC002822D12021684688
:10B11000FEF7EDF90320ADF8000000E01BE0207819
:10B120008DF802008DF80C509DF80D008DF811502F
:10B13000ADF8046040F010008DF81250ADF80650E4
:10B140008DF80D008DF813506088221D694600F0BF
:10B15000DFFB0EB070BD0E20FBE7000050F60100D3
:10B1600030B587B00446002928D0002C26D00846E8
:10B170002188102924D0502928D057291ED10546CE
:10B18000A188406906AAFEF78BFF002816D1069811
:10B190000078002812D0A86900280FD0182168462E
:10B1A000FEF7A5F901208DF800000195A088ADF803
:10B1B000080006980390A9696846884707B030BD23
:10B1C00007B02146BDE8304003F0C8B807B02146BB
:10B1D000BDE8304003F0CCB90078C0F340007047C0
:10B1E000007800F00100704708B502F041FD20B181
:10B1F0000D4A40F21121FEF70FF800200090694639
:10B20000012002F0B5FB20B1074A40F21721FEF7FA
:10B2100003F8684602F042FC002804D0024A40F2DB
:10B220001B21FDF7F9FF08BD98C601000149085C24
:10B230007047000010F601000649085C4FF0A0417D
:10B24000D1F81015C14011F0010000D0012080F0AC
:10B250000100704710F601002DE9FC410546C007CA
:10B260004FF000060ED0104F00240122385D0096EA
:10B2700000231146019601F00FFF641C042CF4D347
:10B2800000F046F8A8070DD5074D00242D1D00221B
:10B29000285D032300961146019601F0FDFE641C13
:10B2A000042CF4D3BDE8FC810CF6010007494FF0F3
:10B2B000A0420B5CD2F804050121994021EA000369
:10B2C000C2F808350140C2F80C1570470CF60100B1
:10B2D0000249085C012101F043BF00000CF60100A7
:10B2E0000249085C002101F03BBF00000CF60100A0
:10B2F0000649085C4FF0A041D1F80415C14011F097
:10B30000010000D0012080F0010070470CF6010020
:10B3100010B500242046FFF7DBFF641C042CF9D392
:10B3200010BD10B500242046FFF7DAFF641C042C82
:10B33000F9D310BD10B50146064A4FF0FF34002086
:10B34000135C8B4201D1044602E0401C0428F7D371
:10B35000204610BD10F6010070B50C4D0C004FF0EA
:10B36000000628600BD0012000F06AF808B1022026
:10B3700004E0002000F064F800B10B202070686841
:10B3800010B9FEF76BFC0646304670BD0024002065
:10B3900010B5002000F0EEF908B1062806D1012012
:10B3A00000F0E8F908B1062800D1002010BD000027
:10B3B0002DE9F0470D468146FFF7BCFF04460428FF
:10B3C00036D2DFF874801B4B1C4EA8F10C0725B356
:10B3D000012D0ED0022D2BD100EB400030444578DA
:10B3E000002D25D0B968002922D02846BDE8F047B5
:10B3F000084704EB4400355C0644707848B10E4AB7
:10B400004FF48041093A9868FEF7F0FD08B987F8D3
:10B410000390B17808F80410E2E79868FEF7FEFDA3
:10B4200004EB4401314418F804008D78A842D7D0C9
:10B43000BDE8F08714F60100FC2300206026002000
:10B44000042801D2FFF7F8BE00207047154910B557
:10B450000A88042807D0072810D00A2820D1BDE880
:10B46000104003F0EFBB1321104676DF082817D0F9
:10B47000002815D00CA240F24E210DE0A2F57F402D
:10B48000FF380DD10C48FEF7E3FF082808D000284C
:10B4900006D005A24FF41671BDE81040FDF7BCBE02
:10B4A00010BD0000A02300202E2E5C2E2E5C2E2E20
:10B4B0005C6D61696E2E63002425002030B5034663
:10B4C0000020042B0DD2012A02D101290BD0002229
:10B4D0000A4D03EB4304631969B1012907D002291E
:10B4E00007D0072030BD03F10E02D2B2F0E72A5593
:10B4F00030BD5A7030BD9A7030BD0000602600200B
:10B500000449024600200979C90702D0104600F01C
:10B510004DB87047F023002070B506461E48002441
:10B52000C0E90161B00720D5002501221146284657
:10B53000FFF7C4FF6D1C0446042D02D2002CF4D08A
:10B5400013E094B940F2333204211448FEF7ECFBC7
:10B5500004000AD1FEF7D6FB040006D10F48104ABA
:10B560000021001FFEF708FD0446F00712D001205D
:10B57000FFF772FE74B909480A4A00210C38FEF739
:10B58000FBFC040006D10548074A01210838FEF7F4
:10B59000F3FC0446204670BDF023002020F6010095
:10B5A00089B8010089C40100FD9C01002DE9F05F0C
:10B5B0006E4D044600266878B34618B185F801B090
:10B5C00000F04CFF6A4F4FF47A694FF4C87A4FF09D
:10B5D0000108182C69D2DFE804F00C131338475423
:10B5E000696E727B727BC58484848484B3B6B9BC73
:10B5F000C5C500F033FF3868FEF710FD06465CE075
:10B600000020FFF775FE00284FF0000008D0FFF77C
:10B610005FFE022C02D14FF4E16008E0484606E0EC
:10B62000FFF75EFE022C01D1C82000E05046410C1D
:10B63000C0034FF47A72801841F100012C7052005F
:10B640000023FDF7F7FE01462AE00020FFF750FE39
:10B6500000284FF0000004D0FFF73AFE4FF4487086
:10B66000E5E7FFF73DFEDFE70020FFF741FE00289A
:10B670004FF0000002D0FFF72BFECFE7FFF730FEC0
:10B68000D4E70020FFF734FE00284FF0000002D07E
:10B69000FFF71EFE01E0FFF723FE2C7040F6CD41C0
:10B6A00000223868FEF7A2FC064646E00020FFF7BD
:10B6B000FDFD2C7008E0002051E02C703DE085F885
:10B6C00001800120FFF7F2FD002240F26661E8E709
:10B6D00085F801800120FFF7E9FD00224FF40051B9
:10B6E000DFE77868FEF79AFC0646D4F1110000D037
:10B6F0002EB10220FFF7ECFD85F802B01DE0012815
:10B7000016D980B2C8214843C117C90341EA504144
:10B71000C0034FF47A72801841F1000152000023F7
:10B72000FDF788FE014600227868FEF75FFC0646BA
:10B730000220FFF7D5FD85F802803046BDE8F09F76
:10B7400000F08CFEB9E700F089FEB4E700F086FE59
:10B7500004E000F083FE0020FFF7C2FD0120FFF7A8
:10B76000BFFDAAE7FFF7DDFDA7E70000F0230020FB
:10B7700014F60100012103F01BBF00002DE9F84F72
:10B780000546841C00208DF8000092460F464FF0BD
:10B7900001086846FEF748FC1D4E06F21C49706819
:10B7A0003860D6E901011B4F401A3968081A0EE0CB
:10B7B0000121484601F0DFF800F078FE01464846D6
:10B7C00001F0D9F8D6E90101401A3968081A401C7D
:10B7D0008442EDD8B8F1000F12D0BAF1000F03D0B7
:10B7E000052065F3891002E0062065F39F5071681B
:10B7F0003A68114006EB8101C860706820447060AF
:10B800009DF80000FEF732FC4046BDE8F88F0000CE
:10B81000702A00208424002070B50D4604460A29B1
:10B8200002D10D21FFF7F8FFA0682268411CA1603A
:10B830001554D4E90101814204D32046BDE870408B
:10B8400001F03DBB70BD0000044881684068814242
:10B8500001D101207047002070470000702A0020AD
:10B86000024630B5074800210478436805E003EB41
:10B87000C1000578954203D0491CA142F7DB0020A6
:10B8800030BD00002824002000780221FFF790BD81
:10B8900005494FF0FF32082841F8202002D3084420
:10B8A00080F848207047000070270020F0B5064659
:10B8B0004FF0FF30002A02D04FF0000301E04FF0BC
:10B8C000080302D04FF0080501E04FF00C050B4CC7
:10B8D00004E054F823707F1C03D05B1CAB42F8D308
:10B8E000F0BDA51958B285F8300044F82310002A9D
:10B8F000F6D1E11881F84860F0BD00007027002003
:10B900000249084490F93000704700007027002079
:10B910002DE9F0438146887891B090460C4600B9F5
:10B9200001208DF83E0020880025ADF83C000D95E3
:10B93000607C0DA903F02EF90DAEA07C711C03F004
:10B9400029F9E07B00289DF8360002D040F008007D
:10B9500001E020F008008DF83600217C11B140F0A4
:10B96000100001E020F010008DF83600217B11B1AD
:10B9700040F0010001E020F001008DF83600217D4B
:10B9800009B1022100E0012161F342008DF8360087
:10B990001C216846FDF7ABFD607BC10601D4800623
:10B9A00017D50E950EAFE07C791C03F0F3F89DF8E7
:10B9B0003800059720F00F00401C20F0F0001030F8
:10B9C0008DF838009DF83A0020F00600801C8DF8B4
:10B9D0003A00607B8DF80000A07B8DF801001421F7
:10B9E00007A8FDF784FD0FA8CDE90706A088ADF8EC
:10B9F0002800A06820B1E088ADF82400A0680B9072
:10BA0000A06998B30C950088ADF80800A0690CAD4A
:10BA10000CA94088ADF80A00A0694068049501901F
:10BA2000A069007B03F0B6F8A069691C407B03F0B5
:10BA3000B1F8A069807A00289DF8320002D040F069
:10BA4000080001E020F008008DF83200A169C97AF1
:10BA500011B140F0100001E020F010008DF832002C
:10BA6000A169097A19B140F0010002E00DE020F06F
:10BA700001008DF83200A169897B09B1022100E043
:10BA8000012161F342008DF83200E06900B10390BA
:10BA9000434607AA69464846AADF11B0BDE8F083CD
:10BAA00070B5084C05000AD010342168002901D077
:10BAB0000868206005D0496828468847F5E70834BB
:10BAC000F3E770BD5C270020054A012120B1012861
:10BAD00005D19170FFF7E4BF51700020FAE770477D
:10BAE0005C27002010B5D0E90223D1E90240A11A59
:10BAF000984101D3012010BD002010BDFFB50022E8
:10BB000001254FF0A0446E468B5CFF2B12D0DF095D
:10BB100023F0800346F8223005FA03F702D0C4F878
:10BB2000087501E0C4F80C7504EB83030327C3F820
:10BB3000007703E04FF0FF3346F82230521CD2B2B8
:10BB4000042AE1D301683246002001EB800452F858
:10BB50002030C4F86035401CC0B20428F5D3FFBDC6
:10BB600073B58CB00646002000900D9880B100247B
:10BB70006D4621460DA800F0E3FE30B1009805EBBC
:10BB8000400084800098401C0090641C142CF0D36A
:10BB90002C2269463046FDF791FC0EB070BD2DE9B0
:10BBA000F0410D4611880646881D1446984202D978
:10BBB0000C20BDE8F0813088062814D34FF4486784
:10BBC0004FF6FF73B84201D998420CD17288062A09
:10BBD00009D3BA4201D99A4205D1984205D09A4276
:10BBE00003D0904201D9072000E000200028E0D1D6
:10BBF0000520685420881221401C80B220802954DE
:10BC00002088401C80B220804119308803F09EFBC0
:10BC10002188084480B220804119708803F096FB87
:10BC20002188084420800020C3E7000002A240F2DF
:10BC30007911FDF7F1BA00002E2E5C2E2E5C2E2E0F
:10BC40005C6D61696E2E630038B54A7A0F4B62B144
:10BC500000220A725969002906D001228DF80020BD
:10BC6000ADF802006846884738BD0A7A62B19B6821
:10BC70004C68024619462046FEF7B8F90028F3D072
:10BC8000BDE8384002F0D6BE5B68F1E7C42600206C
:10BC900070B500240F4E10E0706800EBC4052878E2
:10BCA00002F000FA6978012901D0012100E00021A9
:10BCB0004140287800F076F9641C30788442EBDB50
:10BCC000D6E90401084303D0BDE8704003F04CB945
:10BCD00070BD00002824002030B40446132176DF14
:10BCE00003000BD0064807492246401AC00802212B
:10BCF00001EB004030BC044901F045BC30BC70474A
:10BD0000F00102008001020068F9010010B5002175
:10BD1000024800F041FE80F3100010BD8C2E002080
:10BD20004FF480328A400168C1F848230068C0F8A7
:10BD3000082370474FF4A07202EB810189B200F032
:10BD4000A1B92DE9F04104460E464FF4A07000EB76
:10BD5000860081B220684FF48035B540984622F0C5
:10BD60007F47C0F808532068C0F84853206801F0A6
:10BD7000EFFD206800EB8600C0F840752068C0F831
:10BD80004453B8F1000F02D02068C0F80453BDE856
:10BD9000F0810068D0F804057047000070B5447960
:10BDA000234B43F8242042791C1D04EBC202214B93
:10BDB0001579214A9A1AD3082DB10824022000EBE4
:10BDC00003401EA130E005680A88C5F8082590F9EF
:10BDD00004208978002A4FEA411104DB02F1E022B5
:10BDE00082F8001405E002F00F0202F1E02282F86E
:10BDF000141D90F904100125002909DB01F01F062C
:10BE000005FA06F24909890001F1E021C1F8002193
:10BE1000417904EBC1010D71417944F831000320EF
:10BE2000002400EB03400EA101F0A2FB204670BDF0
:10BE300064240020D80102008001020052544320F3
:10BE4000696E7374616E636520616C72656164799B
:10BE500020696E697469616C697A65642E000000FE
:10BE60005254433A20696E697469616C697A6564F9
:10BE70002E00000090F90400002809DB00F01F02EA
:10BE8000012191404009800000F1E020C0F800123B
:10BE900070470A46022100F07CB84FF4827100F02E
:10BEA000F1B800680121016070470068012141601C
:10BEB00070472DE9F05F04460E464FF4A07000EB8A
:10BEC00086001FFA80FA20684FF48037B7409B46FF
:10BED00022F07F45C0F848732068C0F808732068D6
:10BEE000D0F8048500EB8600D0F84095C0F8408576
:10BEF0005146206801F02CFDA9EB080020F07F409E
:10BF0000012806D1102002F00FF85146206801F0F8
:10BF10001FFD2068D0F80485C0F84473A5EB080124
:10BF200021F07F412068012900EB860010D0C0F885
:10BF300040552268D2F80405691E091A6FF07F4C3B
:10BF400021F07F41ACEB0B038B4217D361B118E0BA
:10BF50006D1CC0F84055102001F0E6FF2068D0F8B5
:10BF6000040540450AD10CE002EB86016D1CC1F8C6
:10BF700040552168D1F80415814202D00D20BDE85A
:10BF8000F09F01223946204600F003F80020F6E732
:10BF900070470368C3F84413002A02D00068C0F851
:10BFA000041370472DE9F84F0C463449804601EBE5
:10BFB0005001C007097801D00F0901E001F00F0717
:10BFC0004FF00009424601204946FDF764FADFF8C8
:10BFD000B0A005460E46052F4ED2DFE807F0031647
:10BFE0001B282C00002C47D00121404602F0D8FE2F
:10BFF0008DF800906846FEF717F85046D0E9041215
:10C000000D431643CAE9045632E00CB1022114E094
:10C01000002112E04CB10321404602F0C1FE40462F
:10C02000BDE8F84F012103F041BA012105E0002CE1
:10C0300022D1042101E02CB103214046BDE8F84F94
:10C0400002F0AEBE0021404602F0AAFE00214046AA
:10C0500003F02CFA8DF800906846FDF7E5FF504696
:10C06000D0E9043423EA050224EA0601CAE90421DE
:10C070009DF80000FDF7FAFFBDE8F88F28280020A2
:10C080002824002010B5006842581AB101F060FC65
:10C09000012010BD002010BD0AB100F05CBC00F012
:10C0A00044BC70B50D460446B0F8D810D0F8D400A2
:10C0B0000122FEF7E4F800B1057004F13C0204F13E
:10C0C000D40104F1540072DF70BDF7B517460E00BD
:10C0D00011D00098002560B100242146684600F088
:10C0E0002FFC18B1A0B23946B0476D1C641C142C4B
:10C0F000F3D32846FEBD0020FEBD00000EB515A1FD
:10C100009DF8080020F00F00401C20F0F0001030D7
:10C110008DF808000A2202A87CDF18B1104AB2216B
:10C12000FDF77AF80020009001901021ADF804008E
:10C13000ADF800104FF4C8703C21ADF80600ADF822
:10C14000021068467ADF002803D0054ABC21FDF7BB
:10C1500063F80EBD4E6F726469635F44465500001C
:10C1600098C601000C484A8803889A4213D10A886D
:10C17000A2F52063773B0ED18988C91E8AB242801E
:10C18000064807491346401AC008032101EB004046
:10C1900004A101F0F8B97047A0230020F0010200CB
:10C1A0008001020044617461206C656E2069732017
:10C1B00073657420746F2030782558282564290011
:10C1C00010B50C490C4800F05EFC20B10BA240F207
:10C1D0003621FDF721F8F721074800F048FC002838
:10C1E00006D0BDE8104005A240F23921FDF714B891
:10C1F00010BD000065C10100082500202E2E5C2E18
:10C200002E5C2E2E5C6D61696E2E630010B50B489E
:10C21000FFF7BFFD094A083AD2E90434C018D2E951
:10C22000063244F10001C31A71EB020204D24FF04E
:10C230008072801841F1000110BD000048240020E8
:10C2400010B5C0B2FFF70CFB0446007801F02AFFDE
:10C2500001466078012801D0012000E0002090EA2A
:10C26000010F08D00448D0E90410014303D1BDE810
:10C27000104002F079BE10BD28240020084A002199
:10C2800001EB810332F82330834204D101EB8100BA
:10C2900002EB80007047491CF2D00020704700007C
:10C2A000B02600202DE9FC5F0E008346DDE90C4737
:10C2B000C6F1000098469146824600D40846012502
:10C2C00002E090FBF9F06D1C4845FADAA84500D968
:10C2D000454624B1002E01DB780700D5641EB8075F
:10C2E00002D5B8F1000F0AD0F80708D13CB1A54239
:10C2F00005D220215846641EFFF78EFAF6E7002E7D
:10C3000002DA56462D2102E0780703D52B21584644
:10C31000FFF782FA07F0030002280BD1B8F1000FF3
:10C3200008D13CB1A54205D230215846641EFFF722
:10C3300073FAF6E7CDE9004743464A463146584688
:10C3400003F00AF8BDE8FC9F02460020126853077C
:10C3500013D502F00300012802D002280CD105E019
:10C36000C2F383100B68801C184404E002230868A1
:10C3700003EB9252104408600120704770B50C46E0
:10C380004FF488760546314601F072FA50B13146D5
:10C39000284601F072FA6079400703D5216809B197
:10C3A000012088474FF48A763146284601F060FA2A
:10C3B00050B13146284601F060FA6079000703D594
:10C3C000216809B1022088474FF48E76314628460D
:10C3D00001F04EFA50B13146284601F04EFA60792C
:10C3E000C00603D4216809B1002088474FF4827643
:10C3F0003146284601F03CFA00280CD03146284648
:10C4000001F03BFA012020712168002903D0BDE82A
:10C4100070400320084770BDF0B58588AE1895427E
:10C4200000D82A46C488AF1AE5189C4200D8234693
:10C43000E31A4A880488A2420CD34088824209D871
:10C440008888B84206D3B04204D8C888984201D33D
:10C45000A84201D90020F0BD0120F0BD094810B567
:10C46000807850B1002401E0022C02D02046FEF773
:10C470002FFF641C042CF7D310BDBDE81040FEF75D
:10C4800047BF0000F023002003480179C90702D00C
:10C490000078FFF78BB87047F0230020F721018068
:10C4A0001721418000210171417170472DE9FF4141
:10C4B0000025244800F05CFA2248001F074600F0DF
:10C4C00057FA214E2149B06800900C6800E00098AE
:10C4D0006946204006EB80000C30FFF735FF00284E
:10C4E000F5D101AA009901EA040306EB8303491C74
:10C4F000DB6842F82030401C00910228F2D30198FA
:10C5000000F0030001280BD0022810D1019803216C
:10C5100001EB90500099BDF80A5001EB900005E046
:10C520000198BDF80A50C0F38310084400903846C3
:10C5300000F01BFA08B10098B06004B02846BDE8CE
:10C54000F0810000882E0020702A00208424002022
:10C5500088B0FEF735F920B14BA240F22F31FCF73D
:10C560005BFE4FF48041002001F07AF820B14AA22E
:10C5700040F2F221FCF750FE00F0C8FEFDF708FD86
:10C5800018B145A29F21FCF747FE47490320FEF75B
:10C59000C3FF20B140A24FF43971FCF73DFE69465C
:10C5A0000020FEF7D9FE20B13BA240F2E721FCF7C4
:10C5B00033FE9DF80000022864D000208DF81C0096
:10C5C00001F070F920B134A240F2FE21FCF724FE04
:10C5D000FEF70AFEFFF792FDFFF7F2FD02F0A6FA62
:10C5E000FDF758FB1C216846FCF781FF00204FF443
:10C5F000A031CDE9000103248DF80C40ADF80E0008
:10C600008DF810002948059029484FF4F021069034
:10C6100002916846FEF746F820B11FA24FF4C87198
:10C62000FCF7FAFD02F0BAFF02F0DEF8214A012120
:10C630002148FDF7A1FC2048002240F26661006815
:10C64000FDF7D4FC20B114A240F22331FCF7E4FD45
:10C650001A481B49401AC00804EB004019A100F019
:10C6600087FF03212248FDF710FF20B10AA240F204
:10C670001331FCF7D1FD00F057FE0028FBD101F08B
:10C6800025F9F8E7012099E72E2E5C2E2E5C2E2E40
:10C690005C6D61696E2E63002E2E5C2E2E5C2E2E3C
:10C6A0005C6D61696E2E63004DB4010029E30100E9
:10C6B0002DBC010005C80100ECF50100F0010200ED
:10C6C000800102004465627567206C6F6767696E60
:10C6D0006720666F722055415254206F7665722034
:10C6E00052545420737461727465642E000000000B
:10C6F0002425002070B505460E4680881446118812
:10C70000021D0A44801C9A4201D8FE2801D90C203F
:10C7100070BD401C70542088FF21401C80B22080D6
:10C7200031542088401C80B220808119288802F072
:10C730000DFE2188084480B22080AA8842B1A968F1
:10C7400041B13044FCF7BAFE2088A9880844208013
:10C75000002070BD072070BD2DE9F047C6888946CE
:10C76000191D05464079B1FBF6F406FB00F7B1FB55
:10C77000F6F006FB14111468DDF820A004EB030C9E
:10C780003F1FBC4500D9FC1A146001E02D68401E13
:10C790000028FBD1771A8046A74214D816E0681803
:10C7A000001D09EB0803BAF1000F3A4602D001461A
:10C7B000184600E01946FCF781FE00212D68E41BB5
:10C7C000B844A64201D9274600E03746002CE6D1FE
:10C7D000BDE8F08730B5034659B100F055FF044677
:10C7E0000021074808E030F821201D68AA4202D144
:10C7F0001960002030BD491CA142F4D3052030BD92
:10C80000000000007047F8B50F4601781446054651
:10C81000012901D1687830B12088821C9A4232D82F
:10C82000012902D006E00720F8BD69780144891C7F
:10C83000994228D8181A801E86B2ADF80060218867
:10C84000B81C084469467DDF0028EDD1297802290B
:10C8500004D06878BDF80020904205D3BDF80000F0
:10C86000B04201D809200AE00820012905D16978E1
:10C87000B14202D8ADF8001001E0ADF80060BDF89B
:10C880000010FE2901D90C20F8BD2288491CB9549A
:10C890002188491C89B2218078542088401C20803E
:10C8A000BDF80010084420800020F8BD10B531B15B
:10C8B000B2FBF3F403FB14241CB1092010BD0E20BD
:10C8C00010BD01600021416081608281C381084602
:10C8D00010BD70B50D460446FCF7ACFC002802D034
:10C8E00029882068084470BD10B50A8849888A42A2
:10C8F00003D1FCF7E1FC012010BD002010BD70B594
:10C900000D460446FCF7BBFC002802D0698820686D
:10C91000084470BD10B50A8849888A4203D1FCF7E3
:10C92000A5FC012010BD002010BD01F01F03012255
:10C930009A40D243490900EB8100114600F021B82A
:10C940004A0950F8220001F01F02012191400840DD
:10C9500000D0012070470A4601F01F0301219940D1
:10C96000520900EB820000F01CB8002100F00FB863
:10C97000012100F016B808B56A46FCF7F2FC0098F1
:10C9800008BD08B56A46FCF7D2FC009808BD08B59A
:10C990006A46FCF7CCFC08BD08B56A46FCF7AEFC5D
:10C9A00008BD08B56A46FCF7B5FC009808BD08B597
:10C9B0006A46FCF7E3FC009808BD38B5044600253C
:10C9C0008DF800506846FDF72FFB21686268086803
:10C9D00090420ED9401E08600178238AE26801FB6C
:10C9E0000325227A2168101AC0B20A79824200D245
:10C9F00008719DF80000FDF739FB284638BD38B5B1
:10CA0000044600208DF800000D466846FDF70CFB3B
:10CA1000E068218A281AB0FBF1F221680868431CFB
:10CA20000B6002709DF80000FDF720FB38BD10B5CB
:10CA300030B1017A42680368891AC9B21A6006E007
:10CA40000E2010BD03681A68541C1C601170491E2A
:10CA5000C9B2F7D2006800210171084610BDC208B2
:10CA600000F007030120895C98400840704728B116
:10CA7000A1F11702E12A03D3072070470E20704767
:10CA800001800020704770B5050011D0F720E960E3
:10CA900028806880FB202871002404EB440005EB0B
:10CAA0004000801DFFF7FAFC641CF6D0002070BD2A
:10CAB0000E2070BD7CB582880C460146002A31D11B
:10CAC00008880025102806D0112808D03A280AD056
:10CAD00055282BD127E0204601F076FC26E0A01D4A
:10CAE000FFF7DCFC22E02046498934F8063F8B4200
:10CAF00000D819466180172900D217216180C168CA
:10CB000071B1617961B11749D1E90031CDE90031E5
:10CB1000ADF802206188ADF80410C26869469047FC
:10CB2000657125717CBD204601F0CAFCA07A002801
:10CB3000F8D02846E188A5DF012680B11128F1D080
:10CB400001F096F902460848084902B0401AC008A8
:10CB500006EB0040BDE8704005A100F00DBDA572D8
:10CB6000E6727CBD40F601008001020080010200F7
:10CB700073645F626C655F67617474635F6578633B
:10CB800068616E67655F6D74755F726571756573F9
:10CB90007428292072657475726E65642025732E61
:10CBA0000000000020B10278DE2A03D00820704780
:10CBB0000E20704741800020704760B159B1027863
:10CBC000DE2A0AD009684160DE2101704FF6FF714C
:10CBD0004180002070470E207047082070477FB5C5
:10CBE000054600294DD0002D4BD008780C46DE2894
:10CBF00047D1A8886188884202D1204602F044FCCF
:10CC00002888012825D002283BD011283AD0512865
:10CC100037D135F8040F6188884232D1A878A91C31
:10CC200002282ED1087A042803D0062801D005282E
:10CC300027D10020009002228DF8002001904FF4AF
:10CC4000C07202900390ADF80420097A05290FD034
:10CC500010E0297A2046012913D1A98842889142FF
:10CC60000FD10121017204B0BDE8704002F00CBC8C
:10CC7000ADF8040028886946B0DF002801D061685B
:10CC800088477FBDA88861888842FAD14FF6FF7037
:10CC900060807FBD00F180400068002800D0012046
:10CCA000704708B500F180400021016000680090E5
:10CCB00008BD000070B540F6F8700468601C02D131
:10CCC0004FF010204469124B12484FF00102A0EBC4
:10CCD00003004FEAD000611C02EB004512D0032193
:10CCE00001EB004022460CA100F046FC204613DF79
:10CCF000040005D0284613A100F03AFC204670BD80
:10CD0000002070BD28461CA100F032FC042070BD3C
:10CD100080010200F001020053657474696E67209F
:10CD2000766563746F72207461626C6520746F2025
:10CD3000626F6F746C6F616465723A203078253071
:10CD4000387800004661696C65642072756E6E69A2
:10CD50006E672073645F736F66746465766963657C
:10CD60005F766563746F725F7461626C655F626148
:10CD700073655F73657400004E6F20626F6F746C33
:10CD80006F616465722077617320666F756E6400F1
:10CD900070B50C480C490D4A401AC508032000EB39
:10CDA00005400BA100F0E8FB084813DF040007D0A2
:10CDB000012000EB054011A100F0DAFB204670BD18
:10CDC000002070BDF001020080010200009001000F
:10CDD00053657474696E6720766563746F7220742E
:10CDE00061626C6520746F206D61696E2061707086
:10CDF0003A20307825303878000000004661696CB0
:10CE000065642072756E6E696E672073645F736F00
:10CE100066746465766963655F766563746F725F77
:10CE20007461626C655F626173655F736574000055
:10CE300070B50D4C0125207808B185260EE0002044
:10CE4000A06060602061E060084801F045F8064697
:10CE500000F05AFF08B901F029F8257001F01EF81A
:10CE600000B1A570304670BD5C270020C9BA010032
:10CE700038B500258DF800506846FDF7D5F8084C08
:10CE8000E068401EE060E06828B901F007F810B9DA
:10CE900001F032F8A5709DF80000FDF7E7F838BD05
:10CEA0005C2700200FB408B50399002904D004AA18
:10CEB00000926A4600F00FF801B05DF814FB10B55F
:10CEC00082680446002A05D0D4E904032168984703
:10CED0000020A06010BD2DE9FC4715460C008146DE
:10CEE00072D014F8011B39B125290ED04846FEF73F
:10CEF00093FC20780028F4D199F80C00002863D026
:10CF00004846BDE8FC47FFF7DABF00200122217840
:10CF10002B291BD02D2902D0302908D102E040F066
:10CF2000010001E040F00200641C002AEFD100265D
:10CF30002A290ED02178A1F130020A2A0FD206EB5D
:10CF4000860201EB4206641C303EF1E740F004002B
:10CF5000EAE729680A1D2A600968641C0E442178E2
:10CF600000232E290BD114F8011FA1F130020A2A47
:10CF700005D203EB830201EB4203303BF3E76C295C
:10CF80000DD068290BD069291FD00BDC252916D0BC
:10CF900058292BD063290ED0642913D115E014F839
:10CFA000011FECE7702961D073292AD0752917D0A9
:10CFB000782907D11AE02868011D296001784846C0
:10CFC000FEF72AFC641C94E764E029680A1D2A60C5
:10CFD0000968CDE900600A224846FFF763F9F1E7E6
:10CFE00029680A1D2A6009680A2204E029680A1DC6
:10CFF0002A6009681022CDE90060484602F0ACF9C9
:10D00000E0E729684FF000080A1D2A600F68C00792
:10D0100006D113E008F1010848467F1CFEF7FCFB2F
:10D0200039780029F6D104E020214846761EFEF723
:10D03000F3FB4645C6D9002EF6D1C3E74FB13846BB
:10D04000FCF760FA804604E020214846761EFEF791
:10D05000E3FB464506D9002EF6D103E048467F1C87
:10D06000FEF7DAFB39780029F8D1ABE72868011D13
:10D070002960066830214846FEF7CEFB78214846F5
:10D08000FEF7CAFB08200021CDE90001034610226B
:10D090003146B2E7BDE8FC8770B541EA4201DDE9FF
:10D0A00004454FF0A04641EA830141EA042106EB22
:10D0B000800041EA0541C0F8001770BD70B541EA33
:10D0C0004201DDE904454FF0A04641EA830141EA0F
:10D0D000042106EB800041EA0541C0F8001770BD4D
:10D0E0004FF0A04202EB8000D0F8002722F440323B
:10D0F000C0F80027D0F8002742EA0141C0F8001725
:10D100007047000038B5084B6C4645181B68009303
:10D1100007E054F82030D3F8201502C2C3F82015D8
:10D12000401C8542F5D838BD60F6010042094FF039
:10D13000000100D1491E00F01F00012282400A4276
:10D1400001D0012070470020704701224FF0A0431A
:10D15000824011B1C3F808257047C3F80C25704709
:10D1600001224FF0A043824011B1C3F80825704757
:10D17000C3F80C2570470000034908B50844002196
:10D1800001600068009008BD0060004002494058FE
:10D19000012800D00020704700600040F0B5154F16
:10D1A00004460020D7F810640125314604E0CA681F
:10D1B0001379834203D011680029F8D125B9401CA6
:10D1C0000A28F1DB4FF0FF30411C0CD0E1680871F8
:10D1D000D7F8101441B1C968E26809681160D7F83E
:10D1E0001014C9680C60F0BDC7F81044E268002153
:10D1F0001160F0BD702A00207047FCF76FBA7047CD
:10D2000008B5034A00924023024A00F005F808BD21
:10D2100045EA0100D8280020F0B593B01D46144619
:10D220000F460846189E00F0FEFA182101A8FCF7E8
:10D230005EF906960023082210A93846CDE901457B
:10D2400000F006FB12980790BDF84400ADF82000EE
:10D25000BDF84600ADF8220000208DF8250010989A
:10D26000082600F00301012902D0022916D02FE080
:10D27000C0F3C201C0F38315840A8DF82410AA00FC
:10D2800033460AA9384600F0E3FA01A8009007AB3C
:10D290002A460AA9204600F023FA19E0840DC0F3BB
:10D2A000C2008DF82400082C01D2254600E0082594
:10D2B00033462A460AA9384600F0CAFA2E44641BAF
:10D2C00001AB07AA29460AA800F074F9002CEAD19C
:10D2D000384600F0AEFA13B0F0BD00000A4A01294A
:10D2E00002EBC00007D0022907D0032907D0042988
:10D2F00007D0002070470220704704207047007953
:10D3000070474079704700008001020010B5FFF7B8
:10D3100074FF04210348FFF741FF02490120C96857
:10D32000487110BD700102002DE9F04F85B0FEF785
:10D330008BFA18B1002005B0BDE8F08F824F4FF096
:10D34000000BC7F818B4BFF34F8F8049B86800903E
:10D350000C682040002507EB80002E460BE0D7F834
:10D36000180470B979680098814201D8B960E1E782
:10D37000204007EB80000C306946FEF7E5FF0028EF
:10D38000EDD1002001AAB846009901EA040308EB98
:10D390008303491CDB6842F82030401C00910228BE
:10D3A000F2D3019800F00301022902D0012955D0DF
:10D3B00085E0870D5021B946B1EB905F00D850272A
:10D3C00067F39F50019007F10801614800F0E3F90D
:10D3D00005007DD000F027FA3346082201A928462F
:10D3E00000F03EFA009908362140601A8000001DC6
:10D3F00087422CD9544C0C34002804D008EB81010E
:10D4000001F10C0100E0214601D0024600E03A465D
:10D41000D2B2924601D14FF0000402D0A7EB000037
:10D4200001E04FF00000C7B23346284600F018FA7A
:10D4300006EB0A0324B13A462146284600F010FACA
:10D44000009909F1030001EB9000009038E008EB2F
:10D45000810133463A4628460C31EFE7C0F3831189
:10D46000062900D3062161F389100190C0F38310CF
:10D47000801C8100364800F08EF905004AD000F08B
:10D48000D2F93346082201A9284600F0E9F906F14D
:10D49000080700260EE000983B4600EA0401401C05
:10D4A00008EB81010090042228460C3100F0D8F9E5
:10D4B000761C3F1D0198C0F38310B042EBD83DB1FC
:10D4C000D8F81044D8F81804464678B1284600E049
:10D4D00020E000F0AEF932E0E068407920B1226847
:10D4E0002046294612689047E0680468002CF3D172
:10D4F000284600F09EF98DF810B004A8FCF794FDC2
:10D50000D6F8180408B90098B0609DF81000FCF730
:10D51000ADFD14E0D8F8104405E021682046896884
:10D520008847E0680468002CF7D10A480A49401A85
:10D53000C008022101EB004008A100F019F8FEF735
:10D5400083F980F00100F6E6702A00208424002090
:10D5500010020200F0010200800102004261636BD0
:10D56000656E647320666C75736865640000000006
:10D5700000231A4601F02CBC08B5012300926A462C
:10D5800001F026FC08BD1CB5CDE9002302236A4644
:10D5900001F01EFC1CBD70B586B00DF1280C9CE896
:10D5A00070008DE87C0005236A4601F011FC06B08E
:10D5B00070BD00002DE9F04798460D46064692469C
:10D5C00008293ED898F80C90002188F80C104146A4
:10D5D000104601F0BDF80024AC4205D2325D1AA11C
:10D5E0004046FFF75FFC03E019A14046FFF75AFCF5
:10D5F000641C082CF0D317A14046FFF753FC00240D
:10D60000AC4210D2375D7E2F06D8FBF753FF00687F
:10D61000C05D10F03E0F00D12E273A460EA14046C5
:10D62000FFF740FC03E00DA14046FFF73BFC641C04
:10D63000082CE5D301224146504601F06BF888F8EA
:10D640000C90BDE8F0870000202530327800000003
:10D65000202020007C000000256300002000000046
:10D66000064910B500200870054800F0E0F80028D1
:10D6700003D1044800F05EF9002010BD702A00209C
:10D680001002020018F8010002480349401AC008BD
:10D6900070470000100202008001020013B56846C6
:10D6A000FFF798F808B100201CBD0248009950F817
:10D6B00031001CBD8001020070B508480125D0F87A
:10D6C0001044057007E0E06845712168204649680C
:10D6D0008847E0680468002CF5D170BD702A0020EE
:10D6E0002DE9FF4781460C9D00200C462E7B2873B8
:10D6F000984617462946184601F02AF8072F42D2C5
:10D70000DFE807F004090F161F2A360049462846AD
:10D71000FFF7C8FB37E0494628462268FFF7C2FBFF
:10D7200031E0D4E9002349462846FFF7BBFB2AE055
:10D73000A0680090D4E9002349462846FFF7B2FBD1
:10D7400021E0D4E90201CDE90001D4E900234946F2
:10D750002846FFF7A7FB16E004F1080007C88DE88C
:10D760000700D4E9002349462846FFF79BFB0AE05F
:10D7700004F108000FC88DE80F00D4E900234946E2
:10D780002846FFF78FFB00222946404600F0C2FFE3
:10D790002E73BDE8FF872DE9F041068A0746361F44
:10D7A0008819C01CB0FBF6F0C5B23846FFF705F982
:10D7B000041E18D00020207101206071E680A5F1C0
:10D7C00001082646002527600AE03846FFF7F5F8ED
:10D7D00058B16179491C6171306006466D1C076063
:10D7E0004545F2D32046BDE8F081204600F002F81E
:10D7F0000020F8E72DE9F041467901460246731E04
:10D80000002001E01268401C9842FBD300241768F6
:10D8100005E038460D68FFF7F2F82946641CB4426B
:10D82000F7D3BDE8F0810121001DFFF7A4B8FFF791
:10D83000FEB838B504460121001DFFF7B8F8009086
:10D840009DF80000002802D12046FFF7D3FF38BD25
:10D850001CB501920122009201AAFEF77DFF1CBDBA
:10D860001CB501920022009201AAFEF775FF1CBDB3
:10D870004058002800D00120704708B500224250CF
:10D880004058009008BD00EB41101368C0F82035E7
:10D890009188C0F824159168C0F82815D168C0F89F
:10D8A0002C157047064910B500204870091D086006
:10D8B000BFF35F8F0349044800F06CFA002010BDED
:10D8C00070240020B0F60100CC28002010B500F034
:10D8D0001BFA08B141DF10BD20BF40BF20BF10BD03
:10D8E00070B504460C480121FFF756F8BFF35F8F6F
:10D8F000002809D10025084E042C09D0301F41789A
:10D9000019B1BFF35F8F356070BD047001214170A4
:10D9100001F058F9F5E700007424002001A2C921A4
:10D92000FBF77ABC2E2E5C2E2E5C2E2E5C6D616970
:10D930006E2E6300826800219160826811618268A6
:10D9400051618268D160826851608068016070476F
:10D9500008B5002242504058009008BD20B103494C
:10D9600009680160002070470E2070479CF8010094
:10D970002DE9FE4307460D460846FFF7EFFF002856
:10D9800079D100260096019606208DF800704FF0A0
:10D990000108ADF8040002968DF802806946202047
:10D9A0002A6869DF3549364A891AC908012202EB1B
:10D9B000014430B100F05CFA024620463149FFF7DD
:10D9C000DBFD0096019602968DF8018069464020A5
:10D9D0002A6869DF30B100F04BFA024620462A4936
:10D9E000FFF7CAFD00968DF80070F720ADF8020031
:10D9F00001960296694623202A6869DF30B100F05B
:10DA000037FA024620462149FFF7B6FD009602206C
:10DA10008DF8000001960296694601202A6869DFA8
:10DA200030B100F025FA024620461949FFF7A4FD5F
:10DA30004FF4C8600090019602966946A1202A68BA
:10DA400069DF30B100F014FA024620461149FFF7B1
:10DA500093FD0096019602968DF800606946A0201D
:10DA60002A6869DF30B100F003FA024620460A490D
:10DA7000FFF782FD0020BDE8FE83000000020200E7
:10DA800080010200F4FE01003CFF010088FF01005C
:10DA900054FE0100A0FE010000FE01002DE9F0414E
:10DAA0000446076860DF804619481A492268401A10
:10DAB000C608BA4219D9022000EB064516A128462D
:10DAC000FFF756FD28463A461FA12368FFF75BFD86
:10DAD0004FF08050D0F80C012168800200F1005016
:10DAE000421A284625A1FFF747FDB8F100004FF084
:10DAF00001040AD000F0BCF9024604EB06402AA15A
:10DB0000FFF73AFD4046BDE8F0812F480470F9E781
:10DB10000002020080010200496E73756666696347
:10DB200069656E742052414D20616C6C6F63617445
:10DB3000656420666F722074686520536F66744454
:10DB400065766963652E00004368616E67652074C1
:10DB500068652052414D207374617274206C6F634C
:10DB60006174696F6E2066726F6D20307825782041
:10DB7000746F20307825782E000000004D617869A0
:10DB80006D756D2052414D2073697A6520666F7204
:10DB9000206170706C69636174696F6E20697320B5
:10DBA000307825782E00000073645F626C655F65D5
:10DBB0006E61626C6528292072657475726E656489
:10DBC0002025732E00000000DB24002030B516480D
:10DBD000ADF5017D0078002823D04FF4FA74ADF83C
:10DBE000004280A9684661DF50B1052819D00DF5C3
:10DBF000017D0EA2BDE8304040F23B11FBF70CBBAB
:10DC00006D461A497DA800F0C5F806E0D0E900216C
:10DC1000284690477DA800F0D4F87F980028DED0F1
:10DC2000F4E70DF5017D30BDDB2400202E2E5C2EA7
:10DC30002E5C2E2E5C2E2E5C2E2E5C2E2E5C636FA8
:10DC40006D706F6E656E74735C736F667464657609
:10DC50006963655C636F6D6D6F6E5C6E72665F733A
:10DC600064685F626C652E6300000000A0F801002C
:10DC70007CB5194E307808B108207CBD0120B07009
:10DC8000002000F0ABFE112819D0002000F0BEFEED
:10DC900012480025006801908DF800506846FCF796
:10DCA000C3F90F4901A810DF04000AD0002030702A
:10DCB0009DF80000FCF7DAF92CB120467CBD00206D
:10DCC0007CBD0120F3E7B570757000F0EDFF012019
:10DCD00000F09CFEF3E70000D824002034F8010097
:10DCE000A99D01000EB50749684600F053F805E00C
:10DCF000D0E900108847684600F063F802980028D1
:10DD0000F6D10EBD50F801000148007870470000C0
:10DD1000D82400201FB503A84BDF40B1052816D03A
:10DD200004B00BA2BDE810406B21FBF775BA18498F
:10DD3000684600F02FF806E0D0E9002103989047EC
:10DD4000684600F03EF802980028E4D0F4E71FBDD2
:10DD50002E2E5C2E2E5C2E2E5C2E2E5C2E2E5C2EFD
:10DD60002E5C636F6D706F6E656E74735C736F663F
:10DD7000746465766963655C636F6D6D6F6E5C6E10
:10DD800072665F7364685F736F632E6300000000E8
:10DD9000BCF80100016009684160AFF3008010B574
:10DDA000D0E900215368994201D1002104E0D1E972
:10DDB0000034A34202D01946816010BD0831416091
:10DDC000F0E7816800290BD00268926811448160F5
:10DDD00042685368994203D108324260FFF7DFBFBF
:10DDE000704770B50E460546446804E0AA6831469F
:10DDF000904718B1246820680028F7D12068306067
:10DE0000266070BD40680068704741680868002857
:10DE100001D002680A60704702460020526806E09E
:10DE20008B4203D108681060012070471A461368BE
:10DE3000002BF5D1704700000C4A10B502F5947321
:10DE40000EE0991AC91001EBD171491002EBC10122
:10DE50000C68844201D90B4602E005D201F10802A8
:10DE60009A42EED3002010BD486810BDD0F60100E4
:10DE700000B5FFF7E1FF002800D1014800BD000018
:10DE8000BCF601004058002800D00120704708B5BA
:10DE9000002242504058009008BD0000024800682F
:10DEA000002800D0012070470004014008480168A4
:10DEB000012011F0010F06D14FF0E021C02281F8BE
:10DEC00000248431C86703490120086070470000BE
:10DED00000E100E0180500400649024600200B79E9
:10DEE0000BB1852070470A6001220A7100224A7135
:10DEF0007047000010240020022010B54107C1F82F
:10DF000008034FF48270FEF7CCFE0549012008603B
:10DF100004480168C1F300410029FAD110BD000096
:10DF20000C00004018040040002802D00149800184
:10DF30000847704781F601002DE9F0410F4605467C
:10DF400000F070FB0028284619D0FDF7D9FC0838EE
:10DF500000F0D8FB032802D001280ED007E04FF0D4
:10DF6000A040D0F81005E84010F0010F05D00321C3
:10DF70002846BDE8F041FFF7B3B80221F8E700F00A
:10DF80005DFB002822D02846FDF7BAFC04464FF47A
:10DF9000807000EB84000E4E81B206EB8400D0F856
:10DFA000102542F00102C0F810250846FFF7E4F8FA
:10DFB000002F0BD02846FDF7A3FC064951F820009E
:10DFC000002803D00120A040C6F80403BDE8F0817A
:10DFD00000600040702700202DE9FC41DFF8B88088
:10DFE000054608EB0500002790F930001346C017DE
:10DFF0000C46401C01D008274AE0A0781946C0F31F
:10E0000040022846FDF752FC0646401C3FD0A0784F
:10E01000410717D4C0070AD04FF0A04000EB85009D
:10E02000D0F8001721F00201C0F8001707E0002126
:10E030006378284600910A460191FFF73FF8284689
:10E0400000F0E2FAA078800718D51448217800EB98
:10E050008600D0F81025124B1A40C0F810254FF456
:10E06000F8524FF4403302EA052203EA01410A4321
:10E07000D0F810150A43C0F8102509E008EB060097
:10E08000227810F8481F41EA8211017000E004274D
:10E090003846BDE8FC810000702700200060004089
:10E0A000FFE0FCFF4FF0A041D1F81015C14011F086
:10E0B000010000D00120704770B5194D95F8580047
:10E0C00008B1082070BD0024661E2046FFF72EF818
:10E0D00010B1281980F83060641CE4B2202CF4D30D
:10E0E00000242046FDF7D4FB641CE4B20C2CF8D3CA
:10E0F00000200D4968650B4CC02081F80004012602
:10E100004020891FC1F800014FF4BE70FFF734F8BA
:10E11000A004C4F8040385F85860002070BD000016
:10E12000702700200060004006E000E0034890F8FF
:10E130005800002800D00120704700007027002000
:10E140002DE9F0410D4604460079324901EBC00645
:10E15000307910B10820BDE8F081294620463260B0
:10E16000FDF7CCFC20680127C0F8007520686B79AA
:10E17000AA792989C0F80C35C0F80425C0F808151B
:10E18000A97AE87A226841EA0020C2F810052168DD
:10E190000020C1F800022168C1F800034FF48E711D
:10E1A0002068FFF76AFB4FF488712068FFF765FB72
:10E1B0004FF48A712068FFF760FB4FF4827120688A
:10E1C000FFF75BFB306808B32068297940F307301C
:10E1D00000284FEA411104DB00F1E02080F8001430
:10E1E00005E000F00F0000F1E02080F8141D206829
:10E1F00040F30730002809DB00F01F0107FA01F1A6
:10E200004009800000F1E020C0F8001137710020C3
:10E21000A1E700002024002070B50179094A0024FC
:10E2200002EBC1052979022900D0012400684FF4CE
:10E230008271FFF71DFB10B10120287104462046B2
:10E2400070BD0000202400202DE9F0410F46044657
:10E2500000791849164601EBC0081D463A460021D0
:10E260002068FFF710FB3A4601212068FFF70BFBFF
:10E27000206806F0010101EB5602C0F81425E807FA
:10E2800001D0102007E0A80704D509B1082002E05A
:10E29000042000E000202268C2F8000209B10C232B
:10E2A00000E00823EAB241462046BDE8F04100F014
:10E2B00051BD00002024002070B50C4601680025E7
:10E2C0000646C1F800520068012141603046FFF760
:10E2D000A3FF18B93046FFF79FFF08B1012501E001
:10E2E000002CF7D1284670BD7047000010B568B10A
:10E2F00003280FD10220FDF703F900280AD0BDE85A
:10E30000104005A24FF4DB71FAF786BFBDE810405C
:10E3100000F098BC10BD00002E2E5C2E2E5C2E2E20
:10E320005C6D61696E2E6300007800280AD1064892
:10E330003B21008876DF002804D004A24FF4B77197
:10E34000FAF76ABF70470000A02300202E2E5C2E33
:10E350002E5C2E2E5C6D61696E2E6300F0B58BB065
:10E36000002608960D4604468988406908AAFBF7EE
:10E3700097FE09A8CDE906600227ADF81870ADF840
:10E380001A602189A88806AAADDF002819D1A069E2
:10E39000002816D00798FCF723FF002811D0089E0C
:10E3A0000EB10120307018216846FBF7A0F88DF8F7
:10E3B00000700194A888ADF808000396A16968462A
:10E3C00088470BB0F0BD000070B502468888C97B55
:10E3D00000EB400302EB4304A41D012901D1118885
:10E3E000218021886288914213D9A5DF012578B167
:10E3F00011280FD0FFF73CFD024607480749401A95
:10E40000C00805EB0040BDE8704005A1FFF7B4B8B7
:10E41000657170BD257170BD800102008001020030
:10E4200073645F626C655F67617474635F65786372
:10E4300068616E67655F6D74755F72657175657330
:10E440007428292072657475726E65642025732E98
:10E450000000000070B588B0002406460094022039
:10E460008DF800001448019402940394006804900D
:10E47000124D06A805906989A88804AAADDF48B99D
:10E4800006A8FCF7A9FE28B101208DF80600ADF81A
:10E49000044003E040F2FD10ADF80400A88869468E
:10E4A000B0DF1128FAD0BDF80400002802D13046B0
:10E4B000FCF764FA08B070BDC8F8010018310020FC
:10E4C0007CB506468D88C88805EB450106EB4104FE
:10E4D000A41D172800D217202188814200D80846A1
:10E4E00060800020207121882846B5DF60B1FFF7E9
:10E4F000BFFC02460F481049401AC008012101EB39
:10E5000000400EA1FFF738F86079002810D1F068BC
:10E5100000280DD01548D0E90210CDE90010ADF863
:10E5200002506088ADF80400F268694630469047B2
:10E530007CBD0000800102008001020073645F6204
:10E540006C655F67617474735F65786368616E673B
:10E55000655F6D74755F7265706C792829207265CE
:10E560007475726E65642025732E000040F60100FC
:10E57000F0B587B00D4604468E1D8988406906AA0D
:10E58000FBF78EFD18216846FAF7B1FF0194A888C1
:10E59000069AADF80800039231882389002705F117
:10E5A0001200994202D17389022B0DD0A2899142A7
:10E5B0001ED1A16900291BD08DF8007004907089CC
:10E5C000ADF81400A16911E0002A11D0FCF708FE93
:10E5D00020B1069901200870022002E00698077019
:10E5E00003208DF80000A169002901D06846884702
:10E5F00007B0F0BD0068012803D0022801D0002038
:10E60000704701207047000010B50549C20800F0AE
:10E6100007008B5C0124844023438B5410BD000011
:10E62000C42700200449084490F93000082801DB81
:10E6300001207047002070477027002004490844DB
:10E6400090F93000082801D201207047002070475F
:10E65000702700202DE9F05FDFF8A49083464FF08B
:10E66000A0484FF0010A002409EB040090F9502063
:10E67000521C33D090F85000594620F0C00738465D
:10E68000FEF7EDF9F8B1204600F03CF8054608EB3E
:10E690008700D0F80007C0F30146022E14D00221F3
:10E6A0003846FEF71DFD0AFA07F1C8F8201538466E
:10E6B000FDF726F959F820202AB1032D0BD0022EA0
:10E6C00004D0032E05D009E00321E9E7012D02D093
:10E6D00004E0022D02D1294638469047641C042CE0
:10E6E000C2D35C465A4601210020FEF70BFD0020F4
:10E6F00054F820100029B6D1401CF9D0BDE8F09F95
:10E70000702700200249084490F8500080097047A3
:10E710007027002010B50C46017A052908D0407AF0
:10E7200038B1084808A102682046FEF7BBFB00E0AC
:10E730001AB106A12046FEF7B5FB2046BDE8104001
:10E74000FEF7BDBBB4240020257300000D0A0000B5
:10E7500038B5C3880D46044633B114A0009015A205
:10E7600016A12846FEF79EFB217A05291CD0607A67
:10E7700048B1A088FEF7B2FD164951F8202016A135
:10E780002846FEF78FFBA0880021FEF787FF03468F
:10E790001049207A143951F8202001B02846BDE8EC
:10E7A00030400EA1FEF77EBB38BD00001B5B306D14
:10E7B000000000001B5B313B33316D0025734C6F53
:10E7C00067732064726F7070656420282564292542
:10E7D000730D0A00B4240020257300003C25733E0D
:10E7E0002025733A200000000EB5094807C88DE8BF
:10E7F0000700002269460748FFF7A2FC18B106A2ED
:10E800003121FAF709FD002000F00EF80EBD0000DE
:10E8100000F60100E82300202E2E5C2E2E5C2E2E0A
:10E820005C776F726B2E630040B1074900230122B1
:10E830004880054805492030FFF706BD0248002101
:10E840002030FFF739BD0000C8230020F0F501009B
:10E8500070B50546FDF721FB134C40B1D4E9040126
:10E860004FF08072801841F10001C4E904010021D9
:10E870002846FDF75FFA30B1606820B1606800F0AB
:10E88000EFFA0020606001212846FDF753FA18B125
:10E89000FDF7BCFCC4E90601284600F00DFB284644
:10E8A000BDE8704000F034B84024002070B5054643
:10E8B00000200C460870FDF7A9FCD5E90223101AC8
:10E8C00063EB010300263146361A994112DAB0F59E
:10E8D000350F03D3FBF74AFB0B4942184FF496035D
:10E8E00000210A48FDF7E5FA10B10D2806D009E02D
:10E8F000012070BD00210548FDF712FA284600F0FE
:10E90000AFFA2070002070BDFFFFB4004824002043
:10E91000F8B51A4C05461A48FFF774FA28B361682F
:10E9200071B1D0E902216068D0E90230D21A814188
:10E9300017D26068007F18B161681148FFF751FA7B
:10E9400000F002FA06466946FFF7B0FF50B1606872
:10E9500010B92846FDF7A5FA66609DF8000000286A
:10E96000D9D1F8BD00206060D5E760680028F8D1F3
:10E970002846BDE8F840FDF798BA00004024002082
:10E9800074F6010038B50021012548B1012810D0E6
:10E9900003280DD1FFF78AFABDE83840FEF768BAC0
:10E9A0004FF0E020C0F88051BFF34F8FBFF36F8F5F
:10E9B00038BD8DF800106846FBF736FB064C207812
:10E9C00008B9FEF735FAE068401CE060A5709DF8D4
:10E9D0000000FBF74BFB38BD5C2700203EB504462A
:10E9E00009496846FFF7D6F907E0D0E9002120463B
:10E9F000904730B16846FFF7E4F902980028F4D157
:10EA00003EBD11203EBD000038F801003EB5044671
:10EA100007496846FFF7BEF906E0D0E90021204625
:10EA200090476846FFF7CDF902980028F5D13EBD22
:10EA300044F8010002498969002900D0084770475D
:10EA4000C42600202DE9F05F15008B4622D0002758
:10EA5000DFF84CA003260BEB07012A460020FAF74B
:10EA60003FFE07442D1A80B99AF80000002811D003
:10EA7000DFF8308001244FF47A4908F1010148465B
:10EA80008847641EF9D1761E06D001218AF800104D
:10EA9000002DE0D1BDE8F09F00218AF80010F9E7D1
:10EAA0007824002010F801002DE9F0418046806AAA
:10EAB00014460F46B0B300262EE0D8F8280006EB27
:10EAC000460100EB8105A888801CFE2802D90C2095
:10EAD000BDE8F0812188401C785420881621401C14
