:020000040001F9
:10900000683C0020E19301000B9401000D940100E5
:109010000F9401001194010013940100000000005E
:109020000000000000000000000000001594010096
:109030001794010000000000199401001B94010026
:10904000659601001D940100899A01001D9401009C
:109050001D94010000000000C19501001D94010055
:109060001D9401001D9401001D9401001D94010038
:109070001D9401001D9401001D9401001D94010028
:109080001D940100BD9601001D9401001D94010076
:109090001D9401001D9401002D9701001D940100F5
:1090A0001D9401001D94010000000000000000005C
:1090B0001D9401001D94010000000000000000004C
:1090C00000000000000000000000000000000000A0
:1090D0000000000000000000000000000000000090
:1090E0000000000000000000000000000000000080
:1090F0000000000000000000000000000000000070
:10910000000000000000000000000000000000005F
:10911000000000000000000000000000000000004F
:10912000000000000000000000000000000000003F
:10913000000000000000000000000000000000002F
:10914000000000000000000000000000000000001F
:10915000000000000000000000000000000000000F
:1091600000000000000000000000000000000000FF
:1091700000000000000000000000000000000000EF
:1091800000000000000000000000000000000000DF
:1091900000000000000000000000000000000000CF
:1091A00000000000000000000000000000000000BF
:1091B00000000000000000000000000000000000AF
:1091C000000000000000000000000000000000009F
:1091D000000000000000000000000000000000008F
:1091E000000000000000000000000000000000007F
:1091F000000000000000000000000000000000006F
:10920000DFF810D000F09EF900480047D5C70100F4
:10921000AFF30080683C002000B583B0029000915D
:10922000019244F2010071466A4600F0B9FD03B0B4
:1092300000BD000030B450E8012F93B2C48923442C
:109240008489A34228BF1B1B0489A34202BFBFF32A
:109250002F8F002007E0C3EA020340E80134002C0E
:10926000E9D14FF001000A6030BC704750E8012F8F
:10927000C2EA024240E801210029F7D1704730B428
:1092800050E8022F1FFAA2F3C488A34202BFBFF323
:109290002F8F00200DE0C48923448489A34228BF76
:1092A0001B1BC2EA034340E80234002CE8D14FF014
:1092B00001000A6030BC704750E8022FC2EA224227
:1092C00040E802210029F7D17047034653E8022FF6
:1092D000D988B2EB324F4FF0000017BF92B241EA8B
:1092E000014142EA014104E05A68B2EB324F08BF43
:1092F000012043E80212002AE8D1704730B4044646
:1093000054E8000F0D4644E80053002BF8D11560D7
:1093100030BC704730B4044654E8000F40EA010501
:1093200044E80053002BF7D1156030BC704730B4CF
:10933000044654E8000F00EA010544E80053002BFE
:10934000F7D1156030BC704730B4044654E8000FC4
:1093500080EA010544E80053002BF7D1156030BCCA
:10936000704730B4044654E8000F00EB010544E8B0
:109370000053002BF7D1156030BC704730B4044661
:1093800054E8000FA0EB010544E80053002BF7D18F
:10939000156030BC704770B404464FF0000054E8CC
:1093A000006F0D68AE4207BF44E80023012044E887
:1093B00000630E60002B1CBF0020F0E770BC7047FC
:1093C00030B4044654E8000F88422CBF451A0546C5
:1093D00044E80053002BF5D1156030BC7047000005
:1093E0000F4800680F4909680A280AD1002908D1E6
:1093F0000D4802686FF070031A404FF040031A43A3
:1094000002600A4880470A480047FEE7FEE7FEE799
:10941000FEE7FEE7FEE7FEE7FEE7FEE7FEE7000009
:109420003001001034010010E40E004031970100BB
:10943000019201002DE9F05F0546002092469B460F
:1094400088460646814640241BE02846414647465A
:10945000224600F067F853465A46C01A914110D38D
:1094600011461846224600F016F82D1A67EB01083F
:109470004F4622460120002100F00DF817EB0009AD
:109480004E41201EA4F10104DFDC484631462A4645
:109490004346BDE8F09F202A04DB203A00FA02F19F
:1094A000002070479140C2F1200320FA03F31943D2
:1094B00090407047004870479401020040EA010361
:1094C0009B0703D009E008C9121F08C0042AFAD27A
:1094D00003E011F8013B00F8013B521EF9D270473E
:1094E000D2B201E000F8012B491EFBD270470022E6
:1094F000F6E710B513460A4604461946FFF7F0FF93
:10950000204610BD421C10F8011B0029FBD1801A17
:109510007047034611F8012B00F8012B002AF9D1FE
:1095200018467047202A04DB203A21FA02F0002175
:10953000704721FA02F3D040C2F120029140084363
:1095400019467047064C074D06E0E06840F00103FD
:1095500094E8070098471034AC42F6D3FFF754FE66
:10956000780902009809020070B58C1810F8015BA8
:1095700015F0070301D110F8013B2A1106D110F8AC
:10958000012B03E010F8016B01F8016B5B1EF9D1B0
:109590002B0705D40023521E0DD401F8013BFAE736
:1095A00010F8013BCB1A921C03E013F8015B01F8A1
:1095B000015B521EF9D5A142D8D3002070BD000036
:1095C0002DE9F8430025DFF894804FF480760124DC
:1095D0002F460095304603F0C5FF38B1D8F8040394
:1095E000204203D0304603F0B3FF2543361D64000C
:1095F0007F1CB6B2082FEDD34FF4BE74204603F0A3
:10960000B1FF48B1204603F0A3FF45F000456A468C
:109610000121002003F06CFF15F0FF0F16D001268A
:1096200000242E420ED008EB8401D1F81005D1F8A9
:109630001015C0F304200A4AC1F3014152F8242056
:1096400002B190477600641C082CEAD3002D02DAA0
:10965000684605F0EFFBBDE8F883000000600040BD
:10966000402A002070B54FF48076304603F05EFC4F
:10967000114CB50560B1304603F05FFC0120C5F820
:109680000803607920B901206071216800208847B3
:109690004FF48276304603F049FC00280AD0304669
:1096A00003F04BFC0220C5F808032168BDE87040B8
:1096B0000120084770BD0000F8230020024902483D
:1096C000091F0968006808476424002000F0E2B917
:1096D00070B50E46144900EB400001EBC00514467E
:1096E000E86A183520B101280FD0022805D113E00F
:1096F000284600F003FAA04201D2002411E02246DD
:109700003146284600F032FA0BE0284600F0F6F920
:10971000A042F4D20446F2E73146284600F0F9F9B7
:109720000446204670BD00009831002004F0A8BC1B
:109730002DE9F041C34AC4494FF080551468D5F86B
:1097400030010978D5F83421431CC1F3031106D048
:10975000844601260023BCF1060F03D00AE004F082
:10976000FF0CF6E7B5F82473DFF8E0C2C7F304276F
:10977000CCF80070E7B2062F06D1032904D1DFF838
:10978000D4C2B34FCCF87470471C08D04FEA000C19
:10979000BCF1060F06D0BCF10A0F03D00AE004F0BA
:1097A000FF0CF5E7D5F84472DFF8ACC2C7F34237D7
:1097B000CCF80070E7B2062F08D1032906D1A74FD5
:1097C000D7F800C02CF0807CC7F800C0471C08D038
:1097D0004FEA000CBCF1060F06D0BCF10A0F03D013
:1097E0000BE004F0FF0CF5E74FF08047C7F80C31B1
:1097F000C7F81031984F3F1F3B60E7B2062F08D1E2
:10980000032906D1DFF850C203270CF1640CCCF811
:109810000070E7B2062F11D103290FD1DFF840C243
:109820000527CCF800708E4F78373E608C4F083794
:109830003B600CF1040C3F27CCF80070471C08D0AB
:1098400084461746BCF1060F07D0BCF10A0F08D0BA
:1098500081E004F0FF0C0F46F4E7032F7BD0042FC8
:1098600079D0804F3F68DFF800C2CCF800707D4FA0
:109870003F1D3F680CF1040CCCF80070794F08379D
:109880003F680CF1040CCCF80070764F0C373F6841
:109890000CF1040CCCF80070724F10373F680CF1DB
:1098A000040CCCF800706F4F14373F680CF1040CB7
:1098B000CCF800706B4F18373F68DFF8ACC10CF183
:1098C000200CCCF80070674F1C373F680CF1040C7B
:1098D000CCF80070634F20373F680CF1040CCCF8D3
:1098E0000070604F24373F680CF1040CCCF8007016
:1098F0005C4F28373F680CF1040CCCF80070594FCE
:109900002C373F680CF1040CCCF80070554F303701
:109910003F68DFF854C10CF1400CCCF80070514F97
:1099200034373F680CF1040CCCF800704D4F3837D9
:109930003F680CF1040CCCF800704A4F3C373F688C
:109940000CF1040CCCF80070464F40373F680CF126
:10995000040CCCF80070471C05D08646434FBEF17E
:10996000060F03D007E004F0FF0EF7E7D5F85852D2
:1099700005F04F053D60451C05D00446062C04D07B
:109980000A2C02D008E0E4B2F8E739490C68E40791
:1099900002D06FF001040C6006280BD11146032A97
:1099A00008D0042906D0052904D032490C6844F4B3
:1099B00080640C600A2804D11AB1386840F00F00A6
:1099C00038604FF01021D1F800422B4A2B48002C70
:1099D00003DBD1F80442002C13DA16600468002C73
:1099E000FCD01524C1F800420568002DFCD0C1F858
:1099F000044201680029FCD0136001680029FCD0F2
:109A000019E091F80042E40703D191F80442E40719
:109A100013D016600468002CFCD0C1F80032046832
:109A2000002CFCD0C1F8043201680029FCD013607E
:109A300001680029FCD000F0C3F812491048086002
:109A4000BDE8F081E00F00F0E80F00F04035014084
:109A50000DF0ADBA00C007403C050040FCED00E051
:109A6000105600400404001020C50040E40E0040E1
:109A7000000400403C17004004E5014000E40140C0
:109A80000090D003E0240020014800680047000057
:109A90000024002010B5124C02202061606111A04A
:109AA000A06104F17800E0614FF4007020620020B2
:109AB000A06260620BA1A164E06204F51E71E16422
:109AC0001021A065C4E91410E06509A1E01DFFF7AD
:109AD00020FD08A12046FFF71CFD2020A07110BD2D
:109AE000983100205465726D696E616C0000000051
:109AF0005254540053454747455200000269C1681B
:109B00008A4203D88068401A104400E0501A401E70
:109B100070472DE9F047C4681746894606464FF05E
:109B200000083069A04201D9051B02E0B168201A83
:109B30000D1AB0686D1E001BA84200D80546BD4234
:109B400000D33D4670682A4620444946FFF7B6FCDC
:109B5000B0687F1B2C44A844A944A04200D1002433
:109B6000F460002FDDD14046BDE8F0872DE9F041DB
:109B700004468846D4E90207C51BE16860681646BA
:109B80000844B54206D94146FFF798FCB819E06091
:109B9000BDE8F0812A464146FFF790FC761B08EBB2
:109BA000050132466068FFF789FCE660F0E70000D7
:109BB000014A024900F038B891C301007424002022
:109BC000BFF34F8F05480168054A01F4E061114376
:109BD0000160BFF34F8F00BFFDE700000CED00E018
:109BE0000400FA0502E008C8121F08C1002AFAD1D1
:109BF00070477047002001E001C1121F002AFBD10D
:109C0000704700000121202803DA81400548014007
:109C100003E0402802DA2038814009B10120704772
:109C200000207047FC06FFBD2DE9F04116460F46A7
:109C30000446002503E03946B047641C6D1C2078BB
:109C40000028F8D12846BDE8F08190F824001F20B4
:109C5000704710B501220221002001F0A5FD08B1D6
:109C6000072810D107220221012001F09DFD08B133
:109C7000072808D100210A22084601F095FD08B105
:109C8000072800D1002010BD00B5ABB0AC2168465C
:109C9000FFF72DFC02208DF8000000208DF8020057
:109CA00005208DF803000120ADF84C008DF87C00F4
:109CB0000C4940201491229044F2506023900A48AD
:109CC00029906946094800F06CFC20B1084A40F22E
:109CD000C921FFF7A1FA0121044800F05FFC2BB075
:109CE00000BD0000A6230020CDEA0100F4270020DB
:109CF00028C90100022001F04FBC000070B500240B
:109D0000064D06E06868012110F8340004F0F2FA0C
:109D1000641C28788442F5D3002070BD08240020FC
:109D2000F8B516460C4605460A2A01D20720F8BDAA
:109D300004F0DAFB18B904F09DFB0028F7D1134FAB
:109D4000102113487D603C70BE60FFF7D0FB0020FF
:109D5000C7E904000F4E0DE005EBC4003168009127
:109D600081788DF8011000780B4A694604F012FBE7
:109D70000028DCD1641EE4B2EED2BDE8F84005480C
:109D80000021064A001D00F01DB900000824002033
:109D9000102B002070FE0100E5C4010001BF01008E
:109DA000FEB515460E46074672B603F069FE00BFC3
:109DB00003F0A6FC0028FBD12249234A0120891A7E
:109DC000C90800EB0144012F22D06FF480503818ED
:109DD00021D0B0F5405F23D06FF44051C8422046F7
:109DE00005D1D5E9003219A103F0AFFD03E03246F9
:109DF0001DA103F0A3FD22480068C00700D000BEEB
:109E00002A4603B031463846BDE8F04000F07AB843
:109E100020461CA101E0204622A103F08BFDEAE7C9
:109E2000A86804F0F3F90346D5E90001CDE9001074
:109E30000296204624A1AA6803F08FFD20462CA19B
:109E4000EBE70000080A0200A8090200415353454D
:109E50005254494F4E204641494C4544206174209C
:109E600025733A2575000000554E4B4E4F574E2036
:109E70004641554C542061742030782530385800C4
:109E8000F0ED00E0534F46544445564943453A20CF
:109E9000415353455254494F4E204641494C454445
:109EA00000000000534F46544445564943453A206C
:109EB000494E56414C4944204D454D4F5259204141
:109EC00043434553530000004552524F52202575DD
:109ED000205B25735D2061742025733A25750D0A7A
:109EE00050432061743A20307825303878000000E3
:109EF000456E64206F66206572726F7220726570A5
:109F00006F72740008B501238DF800309DF80030A1
:109F1000144B186059609A606FF48041401807D064
:109F200001280FD1DA60D86800689861D86807E026
:109F30001A61186980685861186900689861186921
:109F40004068D861186858689868D868186958696E
:109F50009869D86972B600BF9DF800000028FBD14F
:109F600062B608BD202B002010B58268C3689342FA
:109F700003D002F0C9F9002010BD052010BD29B1A1
:109F800012B1531E134203D0092070470E207047B0
:109F90000160838000218160C1600846704710B570
:109FA0008268C3689A1A83889A4203D802F0B6F985
:109FB000002010BD042010BD014802F022B80000AE
:109FC000282400203AB100680129426100D0002114
:109FD00001610020704707207047000038B5114824
:109FE00008235822416800910F49006802F0ADFD36
:109FF000002815D10D4A69460D4802F007F8040003
:10A000000ED101210A4802F07CF80123094A1946C1
:10A01000074801F0CEFF06490120083908702046A4
:10A0200038BD000078FE0100502B0020E5EF010054
:10A0300028240020FFFF7F0070B50446007F0D46F6
:10A0400008B1002070BDA26102F032FA401941F15E
:10A050000001C4E90201206900B125612146BDE883
:10A060007040002005F040BB014600200877012029
:10A0700005F03ABB70B50B4E01460B48B578FFF7BB
:10A0800073FF04465DB10020B070711C0122C81D31
:10A0900003F088F818B105A2D621FFF7BDF82046D5
:10A0A00070BD000044240020A82B00202E2E5C2E22
:10A0B0002E5C2E2E5C2E2E5C2E2E5C2E2E5C636F64
:10A0C0006D706F6E656E74735C6C696272617269DB
:10A0D00065735C756172745C6170705F75617274D8
:10A0E0005F6669666F2E6300F0B5244E89B01F4627
:10A0F0000D00044672603FD0A888296882B22048CB
:10A10000FFF73DFF002835D1A889A96882B21C4815
:10A110001030FFF734FF00282CD12022194968465F
:10A12000FFF7CCF960690690207C00B101208DF822
:10A1300014008DF81C70607C00B10E208DF81500A5
:10A14000E0680290A0680390206801906068009029
:10A150000A480D4A6946083002F0F0FF002809D18C
:10A16000B0702068401C05D004490122491CC81D5C
:10A1700003F018F809B0F0BD0720FBE744240020E5
:10A18000A82B00208CFE01002DF8010010B501461F
:10A190001048FFF704FF040019D10F480F4A017857
:10A1A000515C19B1001D04F031FC02E00C3004F0E8
:10A1B00007FB60B9084907480839FFF7D5FE30B9F1
:10A1C000054901220839044802F0FCFF04462046F4
:10A1D00010BD0000B82B00204C240020EC230020F0
:10A1E00030B5EFF3108172B60D4A9468012324B1A3
:10A1F0000370002900D162B630BD93604FF0E023B8
:10A20000D3F88051074C25401560C3F88041D3F83E
:10A21000844154605A17C3F8842100220270E8E791
:10A22000C82B0020FC06FFBD0B498A68002A11D00C
:10A2300000280FD1EFF3108072B60B684FF0E022C8
:10A24000C2F800314B68C2F8043100228A6000284D
:10A2500000D162B670470000C82B00202DE9F04104
:10A26000064608680C46411C4FF0A0474FF0010518
:10A2700006D005FA00F1C7F80815206803F012F9B6
:10A280006068411C02D0002103F0FAF83168A0692F
:10A29000C1F82405607D227D31681043C1F86C054A
:10A2A000D4E900123068C0F81425C0F80C15207DE0
:10A2B000012815D1A068411C02D0002103F0E0F86C
:10A2C000E068411C05D08540C7F80855E06803F0F8
:10A2D000E9F8D4E902123068C0F80825C0F8101572
:10A2E000BDE8F0812DE9F041064608680C46411CA6
:10A2F0004FF0A0474FF0010506D005FA00F1C7F86E
:10A300000815206803F0D8F86068411C02D00021CD
:10A3100003F0BFF83168A069C1F82405607D217D94
:10A3200032680843C2F86C05D4E900123068C0F8FE
:10A330000C15C0F81425207D012815D1A068411CFA
:10A3400002D0002103F0A5F8E068411C05D085404B
:10A35000C7F80855E06803F0AFF8D4E90212306896
:10A36000C0F80825C0F81015BDE8F08170B51500DB
:10A37000044609D00020286034B1206820B1A079BB
:10A38000800703D0072070BD0E2070BD084600F086
:10A390000FFBC0B2142804D02179814203D80420D5
:10A3A00070BD052070BDE288216800FB02102860A6
:10A3B000002070BD2DE9FC47002517880646158052
:10A3C00090F82D001446894630B13A462146484659
:10A3D00000F00CFB051E09D1B0784FF00C0A18B341
:10A3E0002088C846001DB84202D95046BDE8FC8707
:10A3F000684679DF0028F9D12088032108F8001089
:10A4000020881921401C80B2208008F80010208884
:10A41000401C80B2208000EB0801BDF8000005F070
:10A42000A6FB218808442080F0780222C8B1218848
:10A4300096F9033001F1030C4846BC45D5D8425487
:10A4400021884FF0010C491C89B2218000F801C01D
:10A450002188491C89B2218009F801302088401CDC
:10A4600020807068B8B1218890F9003001F1030CA8
:10A470004846BC45B9D8425421880A22491C89B2B1
:10A48000218042542188491C89B2218009F8013079
:10A490002088401C2080308950B1CDE900474B46D0
:10A4A0000622022106F1080005F022FC051E9DD1BE
:10A4B000308A50B1CDE900474B460722032106F10F
:10A4C000100005F015FC051E90D1308B50B1CDE980
:10A4D00000474B461522142106F1180005F008FC30
:10A4E000051E83D1306A30B13B462246494601F011
:10A4F00090FC051EDBD1706A30B13B4622464946CE
:10A5000002F046FA051ED2D196F82C0038B13B462F
:10A5100022464946304604F0C9FE051EC7D13078B0
:10A5200038B13B4622464946304602F0BBFA051E8A
:10A53000BDD128465AE718B504460020ADF8000002
:10A5400013466A46204600F006F8002802D0BDF8FF
:10A550000000204418BD70B5E0B1DAB1002402E07B
:10A56000045D2C44A4B2651C8D4206D21688A64216
:10A57000F6D8061976789E42F2D18C420AD2A31CF4
:10A58000005D9BB200B1401E0004000C02D01C18FC
:10A590008C4201D9002070BD138070BD80F830104E
:10A5A00070472DE9F0410D00044606D02CB195F816
:10A5B0007A000026012803D006E00E20BDE8F081D5
:10A5C00095F89800012829D0D5F8A000042825D0B6
:10A5D000D5F89C00042821D04FF00108A6702C2249
:10A5E00005F17801201DFEF769FF84F83060D5F889
:10A5F000A4006063D5F8A800A0634FF6FF70A4F82C
:10A60000E80004F1D400C4F8E400C4F8EA60A4F857
:10A61000EE6084F8F060207810B104E00720CDE708
:10A62000FF2084F8540004F155072046C4F8D47084
:10A63000FFF70BFBA4F8D80004F1D80239462846EE
:10A64000FFF7B8FE0028B9D104F19300C4F8DC008C
:10A650002046FFF7FAFAA4F8E00004F1E00205F161
:10A660003C00D4F8DC10FFF7A5FE0028A6D184F842
:10A670005180208BA4F8480084F83C80266484F83C
:10A680005060606900216064454604F13C02781E18
:10A6900072DF002892D1257090E72C22001DFEF772
:10A6A0000DBF10B50288102A1BD0112A20D0262AEF
:10A6B0001DD1007A0C46012801D0022817D1A078BC
:10A6C0000521401CB0FBF1F201FB1201204600F015
:10A6D0003AF800280BD0A16B002908D0BDE8104043
:10A6E0000847C27B012A02D18088A1F8E80010BD8A
:10A6F0000C46002184F8F2108088B4F8E8108842F3
:10A70000F5D120790028F2D10121DFE710B5044608
:10A7100090F8540074DF012084F8F200002084F8DF
:10A72000F40084F850000621204601F005FE0028C0
:10A7300008D1A178204600F006F810B1A16B01B154
:10A740008847002010BD2DE9F05F044600780F46D1
:10A7500098B1A7700025C4F8EA50A4F8EE5084F828
:10A76000F050A079012608B1012F09D0E07980B11D
:10A77000012F05D0022F03D00BE00820BDE8F09F89
:10A78000616B21B184F8F1600820884701E084F80A
:10A79000F15004F1EB0100200A5C0AB1304603E0FD
:10A7A000401C0628F8D300204FF002084FF0030A9F
:10A7B0004FF0040B012F06D0022F0CD0032F0FD027
:10A7C000042F15D110E0A17929B194F8241011B902
:10A7D00008B130460DE0E17911B108B1404608E01A
:10A7E000207A08B1504604E0607A08B1584600E08B
:10A7F0002846A070616B41B1032801D0042804D120
:10A80000607910B194F8F20098B184F8F35004F133
:10A810003C0018210746FEF76AFE84F83C6004F10C
:10A820002C0004F0D7FA58B194F82C0084F85100A9
:10A8300008E084F8F45084F8F36007208847E6E7DE
:10A8400084F8516094F8240058B104F1280004F011
:10A85000C1FA20B194F8280084F8520001E084F88D
:10A86000526084F85050A27804F1EA0104F1D4094E
:10A87000052A4DD2DFE802F065030F1B320084F891
:10A880003160C4F8E450C4E9101584F83C8080209D
:10A89000A4F848003EE084F8318087F800A0228ABE
:10A8A000BA81C4F8E4507960E168B96032E0606967
:10A8B000B860208BB8813D4684F83C60204605F0A6
:10A8C000E9F940B185F814800421204601F034FDF7
:10A8D000F0B9052115E084F831A017E0E069B8600F
:10A8E000208CB8813D4684F83C60204605F0D2F9C2
:10A8F00050B185F814800421204601F01DFD38B9BF
:10A90000062184F8311001E084F831B0C4F8E490F5
:10A91000A07878B13A4604F15400D4F8E41072DF1C
:10A9200000287FF42BAF94F8301094F8540073DFB4
:10A930000028F6D1616B11B194F8310088470020EE
:10A940001CE784F83150F5E770B5040012D00146D9
:10A950001C221448FEF7B2FD1248134D0560206812
:10A9600050B17ADF002806D120680168296040686C
:10A97000686005E00E2070BD0B487BDF0028FAD12F
:10A9800008484FF6FF711438084A20F8041B05499F
:10A99000343901600021FFF715FB0028EBD00320BC
:10A9A00070BD000094290020E42300202DFC01004C
:10A9B00010B5044600F010F808B1204610BD142070
:10A9C00010BD00000346034880680A46194601F09E
:10A9D000C7BC0000B0290020142801D30020704714
:10A9E0000146014802F0FBB8B42900207CB50546B9
:10A9F00008880C460930904201D90C207CBD68467D
:10AA00006DDF0028FAD121880820685420881B2196
:10AA1000401C80B2208029542088401C80B22080B5
:10AA20002844DDF801100160BDF805108180208800
:10AA3000801D80B220809DF80010490800D00121BF
:10AA400029542088401C208000207CBD10B502F0D5
:10AA50007DFA002809D105484FF0030C00DF0028DB
:10AA600003D1BDE8104002F0DFBA10BD3C34002035
:10AA700018B103490860002070470E20704700009D
:10AA8000DC24002010B54FF0FF3100203DDF00280E
:10AA90000BD1B1213CDF002807D1044841690120D6
:10AAA0008847022003F0E8F8002010BD2034002081
:10AAB000044810B50068416900208847BDE810408F
:10AAC000FFF7E0BFDC24002010B588B00446202149
:10AAD0006846FEF70CFD0320ADF8000020788DF8E5
:10AAE00002009DF80D00172140F028008DF80D00A0
:10AAF00001208DF810008DF81300ADF804108DF8CA
:10AB000012008DF80C008DF811006088A21D6946B6
:10AB100001F06AF808B010BD10B5184C86B01ECC14
:10AB20008DE81E0048B1164C4FF6FF71A1800068F9
:10AB300000216061217618B104E00E2006B010BD3E
:10AB4000104860610E48FFF793FF0028F6D10120FE
:10AB50008DF812004FF65960ADF81000A21C04A940
:10AB60000120A8DF0028E9D10549684662DF0028F6
:10AB7000E4D10348FFF7A8FFE0E70000000102006E
:10AB80002034002001C2010010B5002823D0038822
:10AB90001C4C102B17D02146112B8A8815D0C98840
:10ABA000512B19D0532B16D1C088884213D1207E47
:10ABB000002810D0FFF77CFF00280CD06169BDE8A9
:10ABC000104002200847808804E08088824202D139
:10ABD0004FF6FF70A08010BD83889342FBD110F820
:10ABE000062F022AF7D142888A42F4D1017A042939
:10ABF000F1D00629EFD00529EDD0BDE81040801C2A
:10AC000004F018B8203400202DE9F0410546007BFF
:10AC1000042601272E4C012811D002282CD0022610
:10AC2000287B314600F08EF818B120684169032076
:10AC30008847206841690220BDE8F0410847206844
:10AC40004FF00008417E49B10621012000F07AF85A
:10AC500000283BD0206841690320EDE707760121F9
:10AC6000084600F06FF8002830D02268112882F8DA
:10AC70001880D5D10626D3E76A7B142A22D80AB3D6
:10AC8000DFF8508005F10E0108F10400FEF716FC14
:10AC9000697BC8F8181021684046497E0029BFD159
:10ACA000A0F10C010A68011F904768B10F28B7D1C5
:10ACB00009480A49401AC00807EB0040084902F059
:10ACC00039FEADE70526ABE720684776BDE8F081A1
:10ACD000DC24002048340020080A0200A8090200F1
:10ACE0000008020070B5154900250A68002A24D022
:10ACF0004A68002A21D00831904708281DD0104CFE
:10AD00000028206845760ED00621022000F01AF8AF
:10AD100018B12068416903208847206841690220F2
:10AD2000BDE8704008470121022000F00BF8002820
:10AD300003D0206841690320F2E770BD3C34002055
:10AD4000DC24002086B00323ADF8003020238DF8EA
:10AD500014308DF8150000220E48019202928DF8F1
:10AD60001610C188ADF8041002218DF8061005A94F
:10AD70000491ADF80820CDF80CD0808801A9AEDF91
:10AD8000002804D1BDF80010032900D00C2006B023
:10AD9000704700002034002030B52349234B0125A3
:10ADA0000322C91AC9088BB002EB014478B101280B
:10ADB0002DD01D4A1946511AC908012202EB014241
:10ADC000022827D00328104627D019A126E02046C4
:10ADD00021A102F0AFFD68462C21FEF788FB402040
:10ADE000049044F2506005908DF804508DF80050A6
:10ADF00069462548FFF751FC00212448FFF7E2FD92
:10AE00000246204622A102F099FD0BB030BD20463B
:10AE100025A103E010462DA100E03BA10BB0BDE849
:10AE2000304002F087BD0000080A0200A8090200B5
:10AE3000556E6B6E6F776E206576656E74206672E8
:10AE40006F6D20626C655F6466755F627574746FA8
:10AE50006E6C6573732E00004465766963652069C6
:10AE60007320707265706172696E6720746F2065FF
:10AE70006E74657220626F6F746C6F6164657220AE
:10AE80006D6F64652E000000F427002049BF0100AB
:10AE9000446973636F6E6E65637465642025642016
:10AEA0006C696E6B732E000044657669636520776C
:10AEB000696C6C20656E74657220626F6F746C6F64
:10AEC00061646572206D6F64652E00005265717556
:10AED00065737420746F20656E74657220626F6F85
:10AEE000746C6F61646572206D6F64652066616962
:10AEF0006C6564206173796E6368726F6E656F75DF
:10AF0000736C792E000000005265717565737420B2
:10AF1000746F2073656E64206120726573706F6E4C
:10AF2000736520746F20636C69656E742066616957
:10AF30006C65642E00000000F8B5394D01880446A8
:10AF40006E8821294BD01ADC3648374A1029A0EBED
:10AF500002004FEAD0004FF0030202EB004020D085
:10AF6000112935D0132939D100231A4685213046BD
:10AF70007FDF002832D02DA24FF4EF710DE03B2986
:10AF800045D0522938D0562928D18088132176DF20
:10AF9000002823D025A24FF4F971BDE8F840FEF750
:10AFA0003BB926A102F0C6FC072000F01FFC20B12F
:10AFB0001EA240F2C311FEF72FF9A1886980224832
:10AFC00001F03CFF002809D018A24FF4E371E4E738
:10AFD0001EA102F0AFFC4FF6FF706880F8BD0020A4
:10AFE0000090A08869468FDF0028F7D00FA24FF4A9
:10AFF000EC71FEF711F9F8BD00231A4619463046E8
:10B00000B1DF0028F7D009A24FF4F271C5E78088BC
:10B01000132176DF0028EED004A240F2EB11BCE74A
:10B02000A0230020080A0200A80902002E2E5C2E90
:10B030002E5C2E2E5C6D61696E2E6300436F6E6E0A
:10B040006563746564000000E82700204469736349
:10B050006F6E6E65637465640000000010B51A4C75
:10B060000188606810290ED011292BD1401E606024
:10B0700028D1FEF7EEFD002824D02168002921D038
:10B08000BDE810400847D0B900210122084600F071
:10B090008BFB08B107280FD107220221012000F005
:10B0A00083FB08B1072807D104220221002000F009
:10B0B0007BFB20B1072802D0216801B18847606876
:10B0C000401C606010BD0000DC2300202DE9F0472B
:10B0D00001883B4E40F2F3194FF6FF7510291BD043
:10B0E00011293ED0122954D0502946D1C188F28965
:10B0F000841D914241D1618902293ED18688304622
:10B1000001F00EFA050038D004F10C0000F0DEF971
:10B11000A8B3294630464EE0C17B87880446012902
:10B120002BD1A846284601F0FBF9050017D02F8047
:10B1300000202872234843464A460168C5F80A1091
:10B140004068C5F80E0004F1100105F10A0001F095
:10B15000A3FA6872F08900280FD129462AE004205A
:10B1600013E0808801F0DCF9040006D06068FEF787
:10B170007BFF08B104F06AF82580BDE8F087FFE79F
:10B180006868FEF771FF0028F7D0BDE8F04704F0CB
:10B190005DB887880646384601F0C2F90400ECD055
:10B1A0002B464A4606F1080104F10A0001F074FA40
:10B1B000607221463846BDE8F04700F07DBE0000D1
:10B1C00094290020E42300202DE9F0470288868896
:10B1D000DFF8FCA098B0102A0DD0112A48D00AF14F
:10B1E0001003192A63D01A2A6ED1007A0409042C9C
:10B1F00045D3012244E0364C083CA068C0430B9084
:10B2000061680BA801F00CFD0B990CA800F0E2FDA1
:10B210002C220CA96846FEF751F90027E8460FE0FA
:10B2200008EB47005FF00005B0F8049004EB8500E0
:10B230004946001D01F0C8FC6D1C1E2DF6D37F1C75
:10B240000098B842ECD8142E07D318B0F021BDE80E
:10B25000F04720A20420FDF7DFBF3146504601F041
:10B26000C9FC18B03146201DBDE8F04701F0C2BC52
:10B2700018B031465046BDE8F04701F0A5BC0022A9
:10B280003146184601F053F8032C01D3012200E0A7
:10B2900000220F4831460C3001F049F8022C01D34E
:10B2A000012200E000220A483146083007E0017A16
:10B2B000002909D1407A3146C0F3C002184618B0BF
:10B2C000BDE8F04701F033B818B0BDE8F0870000E2
:10B2D000B82900202E2E5C2E2E5C2E2E5C2E2E5C8D
:10B2E0002E2E5C2E2E5C636F6D706F6E656E7473A8
:10B2F0005C626C655C636F6D6D6F6E5C626C655FEC
:10B30000636F6E6E5F73746174652E63000000007E
:10B31000F0B585B016460F4604001D4614D004AAA9
:10B3200019466069FFF722F800280BD1A5F57F4088
:10B33000FF380BD0049848B1007848B13088F42821
:10B3400008D9072005B0F0BD0E20FBE70520F9E77E
:10B350000820F7E700200090019002900390A08859
:10B36000ADF8000001208DF80200CDE902676946C2
:10B370002846AEDFE6E7000070B5334D04008EB01E
:10B380002DCD08AE86E82D005BD0E9B30868A0613A
:10B39000214608A862DF002851D1207801258DF8C8
:10B3A0003200ADF83050A21C0CA92846A8DF0028B6
:10B3B00045D120216846FEF79AF80220ADF800003A
:10B3C00020788DF802008DF80C509DF80D00F426C1
:10B3D000ADF8046040F00C008DF81150ADF8065047
:10B3E0008DF80D008DF81250608804F10C0269464A
:10B3F00000F0FAFB002822D120216846FEF777F8FA
:10B400000320ADF8000000E01BE020788DF802007A
:10B410008DF80C509DF80D008DF81150ADF80460BA
:10B4200040F010008DF81250ADF806508DF80D0068
:10B430008DF813506088221D694600F0D5FB0EB0D0
:10B4400070BD0E20FBE7000054FE010030B587B050
:10B450000446002928D0002C26D00846218810292F
:10B4600024D0502928D057291ED10546A1884069EB
:10B470006A46FEF77BFF002816D100980078002866
:10B4800012D0A86900280FD0182101A8FEF72FF8C4
:10B4900001208DF804000295A088ADF80C000098FA
:10B4A0000490A96901A8884707B030BD07B02146BC
:10B4B000BDE8304003F042BB07B02146BDE8304054
:10B4C00003F046BC0078C0F340007047007800F0FD
:10B4D0000100704708B502F099FD20B10D4A40F215
:10B4E0000521FDF799FE002000906946012002F039
:10B4F0000BFC20B1074A40F20B21FDF78DFE684698
:10B5000002F098FC002804D0024A40F20F21FDF717
:10B5100083FE08BD28C901000149085C704700008E
:10B5200014FE01000649095C4FF0A040D0F8100558
:10B53000C84010F0010000D0012080F001007047E9
:10B5400014FE01002DE9FC410646C0074FF000053E
:10B550000ED0104F00240122385D009500231146C3
:10B56000019501F045FF641C042CF4D300F046F86B
:10B57000B0070DD5074E0024361D0022305D032391
:10B5800000951146019501F033FF641C042CF4D39F
:10B59000BDE8FC8110FE010007490B5C4FF0A041A3
:10B5A000D1F804250120984020EA0203C1F80835AB
:10B5B0001040C1F80C05704710FE01000249085CFC
:10B5C000012101F0BABF000010FE01000249085C31
:10B5D000002101F0B2BF000010FE01000649095C25
:10B5E0004FF0A040D0F80405C84010F0010000D092
:10B5F000012080F00100704710FE010010B500240A
:10B600002046FFF7DBFF641C042CF9D310BD10B5F6
:10B6100000242046FFF7DAFF641C042CF9D310BD88
:10B6200010B50246064B4FF0FF3000215C5C94429F
:10B6300001D1084610BD491C0429F7D310BD0000F4
:10B6400014FE010070B50C4E0C004FF00005306088
:10B650000BD0012000F06AF808B1022004E00020BD
:10B6600000F064F800B10B202070706810B9FEF78C
:10B67000F0FA0546284670BDDC23002010B50020F6
:10B6800000F0EEF908B1062806D1012000F0E8F933
:10B6900008B1062800D1002010BD00002DE9F047B8
:10B6A0000D468146FFF7BCFF0446042836D2DFF87A
:10B6B00074801B481C4EA8F10C0725B3012D0ED039
:10B6C000022D2BD104EB440030444578002D25D0C9
:10B6D000B968002922D02846BDE8F047084704EBA6
:10B6E0004401755C0E44717849B10E4A4FF48041B3
:10B6F000093A8068FEF7A0FC08B987F80390B17892
:10B7000008F80410E2E78068FEF7AEFC04EB4401A1
:10B71000314418F804008D78A842D7D0BDE8F087EE
:10B7200018FE0100D823002030290020042801D26F
:10B73000FFF7F8BE002070470146154810B5408855
:10B74000042907D007290FD00A291FD1BDE81040CE
:10B7500003F07CBE132176DF082817D0002815D00F
:10B760000CA240F242210DE0A0F57F41FF390DD13E
:10B770000C48FEF7CBFF082808D0002806D005A209
:10B780004FF41371BDE81040FDF746BD10BD000039
:10B79000A02300202E2E5C2E2E5C2E2E5C6D616967
:10B7A0006E2E6300F427002070B50023042810D209
:10B7B0000D4D00EB4004012A02D101290CD00022DA
:10B7C000094E00EB4000304461B1012906D0022946
:10B7D00006D00723184670BD0E30C2B22A55F9E7CD
:10B7E0004270F7E78270F5E730290020044A0146ED
:10B7F00000201279D20702D0084600F04DB87047F9
:10B80000CC23002070B506461E480024C0E9016123
:10B81000B00720D50025012211462846FFF7C4FFB6
:10B820006D1C0446042D02D2002CF4D013E094B910
:10B8300040F2333204211448FEF772FA04000AD1B0
:10B84000FEF75CFA040006D10F48104A0021001FE1
:10B85000FEF7B8FB0446F00712D00120FFF772FE96
:10B8600074B909480A4A00210C38FEF7ABFB040002
:10B8700006D10548074A01210838FEF7A3FB044614
:10B88000204670BDCC23002024FE01006DBB0100CA
:10B890000DC70100F59C01002DE9F05F6E4C0546D7
:10B8A00000266078B34618B184F801B000F016FFA6
:10B8B0006A4F4FF47A694FF4C87A4FF00108182D97
:10B8C00069D2DFE805F00C1313384754696E727BB8
:10B8D000727BC58484848484B3B6B9BCC5C500F0CA
:10B8E000FDFE3868FEF7C0FB06465CE00020FFF76F
:10B8F00075FE00284FF0000008D0FFF75FFE022D14
:10B9000002D14FF4E16008E0484606E0FFF75EFE32
:10B91000022D01D1C82000E05046410CC0034FF475
:10B920007A72801841F10001257052000023FDF762
:10B9300081FD01462AE00020FFF750FE00284FF06D
:10B94000000004D0FFF73AFE4FF44870E5E7FFF738
:10B950003DFEDFE70020FFF741FE00284FF000002A
:10B9600002D0FFF72BFECFE7FFF730FED4E7002031
:10B97000FFF734FE00284FF0000002D0FFF71EFE54
:10B9800001E0FFF723FE257040F6CD410022386824
:10B99000FEF752FB064646E00020FFF7FDFD25704E
:10B9A00008E0002051E025703DE084F8018001208E
:10B9B000FFF7F2FD002240F26661E8E784F80180BB
:10B9C0000120FFF7E9FD00224FF40051DFE778681E
:10B9D000FEF74AFB0646D5F1110000D02EB1022039
:10B9E000FFF7ECFD84F802B01DE0012816D980B203
:10B9F000C8214843C117C90341EA5041C0034FF46D
:10BA00007A72801841F1000152000023FDF712FD07
:10BA1000014600227868FEF70FFB06460220FFF77A
:10BA2000D5FD84F802803046BDE8F09F00F056FE58
:10BA3000B9E700F053FEB4E700F050FE04E000F078
:10BA40004DFE0020FFF7C2FD0120FFF7BFFDAAE772
:10BA5000FFF7DDFDA7E70000CC23002018FE010062
:10BA6000012104F0ACB900002DE9F84F0546861C11
:10BA700000208DF8000091460F464FF0010A6846FD
:10BA8000FEF7AEFB1B4C04F21C4860683860D4E93A
:10BA90000101194F401A3968081A0EE00121404689
:10BAA00001F0B8F800F044FE0146404601F0B2F85B
:10BAB000D4E90101401A3968081A401C8642EDD8C1
:10BAC000B9F1000F03D0052065F3891002E00620CC
:10BAD00065F39F5061683A68114004EB8101C860CA
:10BAE0006068304460609DF80000FEF79DFB5046A2
:10BAF000BDE8F88F782D00208424002070B50D4615
:10BB000004460A2902D10D21FFF7F8FFA068226838
:10BB1000411CA1601554D4E90101814204D320469F
:10BB2000BDE8704001F06BBB70BD00000448816847
:10BB30004068814201D10120704700207047000019
:10BB4000782D0020034630B507480021047842686C
:10BB500006E000BF02EBC10005789D4203D0491CFE
:10BB6000A142F7DB002030BD08240020007802212C
:10BB7000FFF794BD05494FF0FF32082841F8202017
:10BB800002D3084480F8482070470000402A002073
:10BB9000F0B54FF0FF3512B10023082601E008236D
:10BBA0000C260C4C05E000BF54F823707F1C04D019
:10BBB0005B1CB342F8D32846F0BD26185DB286F868
:10BBC000305044F82310002AF5D1E11881F84800DC
:10BBD000F1E70000402A00200249084490F93000B3
:10BBE00070470000402A00202DE9F0438146887804
:10BBF00091B090460C4600B901208DF83E00208897
:10BC0000ADF83C0000250095607C694603F0C6FB5A
:10BC10006E46A07C711C03F0C1FBE07B00289DF800
:10BC2000020002D040F0080001E020F008008DF88A
:10BC30000200217C11B140F0100001E020F0100062
:10BC40008DF80200217B11B140F0010001E020F0ED
:10BC500001008DF80200217D09B1022100E00121DF
:10BC600061F342008DF802001C2102A8FDF73FFCA1
:10BC7000607BC10601D4800617D50E950EAFE07C1F
:10BC8000791C03F08BFB9DF83800079720F00F001C
:10BC9000401C20F0F00010308DF838009DF83A007C
:10BCA00020F00600801C8DF83A00607B8DF80800BB
:10BCB000A07B8DF80900142109A8FDF718FC0FA836
:10BCC000CDE90906A088ADF83000A06820B1E08871
:10BCD000ADF82C00A0680D90A06998B3019500887C
:10BCE000ADF81000A06901AD01A94088ADF81200BF
:10BCF000A069406806950390A069007B03F04EFBA5
:10BD0000A069691C407B03F049FBA069807A002888
:10BD10009DF8060002D040F0080001E020F0080085
:10BD20008DF80600A169C97A11B140F0100001E058
:10BD300020F010008DF80600A169097A19B140F0D1
:10BD4000010002E00DE020F001008DF80600A1697D
:10BD5000897B09B1022100E0012161F342008DF8E5
:10BD60000600E06900B10590434609AA02A94846C9
:10BD7000AADF11B0BDE8F08370B5084C050009D00A
:10BD800010342168002907D00868206049682846D7
:10BD90008847F6E70834F4E770BD00002C2A00203D
:10BDA000054A012120B1012805D19170FFF7E4BFB8
:10BDB00051700020FAE770472C2A002010B5D0E916
:10BDC0000234D1E90220D11AA04101D3012010BDD3
:10BDD000002010BD73B58CB00646002000900D9871
:10BDE00080B100246D4621460DA800F0F8FE30B168
:10BDF000009805EB400084800098401C0090641C73
:10BE0000142CF0D32C2269463046FDF757FB0EB0B8
:10BE100070BD2DE9F04117880646B81D14460D4641
:10BE2000984202D90C20BDE8F0813188072206290A
:10BE30000AD34FF4486C4FF6FF73614501D999421C
:10BE400002D17088062801D21046ECE7604501D97E
:10BE50009842F9D1994203D0984201D08142F3D857
:10BE60000520E85520881221401C80B220802954EA
:10BE70002088401C80B220804119308803F077FE72
:10BE80002188084480B220804119708803F06FFE39
:10BE90002188084420800020C5E7000002A24FF45A
:10BEA000B771FDF7B9B900002E2E5C2E2E5C2E2E38
:10BEB0005C6D61696E2E630038B54A7A0F4B62B1D2
:10BEC00000220A725969002906D001228DF800204B
:10BED000ADF802006846884738BD0A7A62B19B68AF
:10BEE0004C68024619462046FEF7A6F80028F3D013
:10BEF000BDE8384003F0AAB95B68F1E79429002057
:10BF000070B500240F4D10E0686800EBC40630786F
:10BF100002F0A6FA7178012901D0012100E0002188
:10BF20004140307800F076F9641C28788442EBDBDD
:10BF3000D5E90401084303D0BDE8704003F0F0BB2D
:10BF400070BD00000824002030B40446132176DFC1
:10BF500003000BD0064807492246401AC0080221B8
:10BF600001EB004030BC044901F0EFBC30BC70472D
:10BF7000080A0200A80902009801020010B5002179
:10BF8000024800F058FE80F3100010BD94310020EC
:10BF90004FF480328A400168C1F848230068C0F835
:10BFA000082370474FF4A07202EB810189B200F0C0
:10BFB000A1B92DE9F04105460E464FF4A07000EB03
:10BFC000860081B228684FF48034B440984622F04D
:10BFD0007F47C0F808432868C0F84843286801F044
:10BFE00083FE286800EB8600C0F840752868C0F81A
:10BFF0004443B8F1000F02D02868C0F80443BDE8FC
:10C00000F0810068D0F804057047000070B54379EE
:10C01000234C44F823204279231D03EBC202224C17
:10C020001579204A121BD4082DB10825022000EBF7
:10C0300004401EA130E005680A88C5F8082590F97B
:10C0400004208978002A4FEA411104DB02F1E02242
:10C0500082F8001405E002F00F0202F1E02282F8FB
:10C06000141D90F904100122002909DB01F01F05BD
:10C0700002FA05F54909890001F1E021C1F80051F2
:10C080004179002503EBC1010A71417943F8310080
:10C09000032000EB04400EA101F04CFC284670BDCB
:10C0A00060240020F0090200A80902005254432035
:10C0B000696E7374616E636520616C726561647929
:10C0C00020696E697469616C697A65642E0000008C
:10C0D0005254433A20696E697469616C697A656487
:10C0E0002E00000090F90400002809DB00F01F0278
:10C0F000012191404009800000F1E020C0F80012C9
:10C1000070470A46022100F07CB84FF4827100F0BB
:10C11000F1B80068012101607047006801214160A9
:10C1200070472DE9F05F07460C464FF4A07000EB16
:10C1300084001FFA80FA38684FF48036A6409B4688
:10C1400022F07F45C0F848633868C0F80863386853
:10C15000D0F8048500EB8402D2F84095C2F84085FF
:10C160005146386801F0C0FDA9EB080020F07F407F
:10C17000012806D1102002F0B5F85146386801F0C8
:10C18000B3FD3868D0F80485C0F84463A5EB080116
:10C1900021F07F413868012900EB840010D0C0F8FD
:10C1A00040553868D0F804156FF07F4C6A1A521E5B
:10C1B00022F07F42ACEB0B03934217D362B118E03D
:10C1C0006D1CC0F84055102002F08CF83868D0F88B
:10C1D000040540450AD10CE000EB84006D1CC0F85A
:10C1E00040553868D0F80405884202D00D20BDE8DB
:10C1F000F09F01223146384600F003F80020F6E7B0
:10C2000070470368C3F84413002A02D00068C0F8DE
:10C21000041370472DE9F84F0E463449804601EB70
:10C220005001C007097801D00F0901E001F00F07A4
:10C230004FF00009424601204946FDF72CF9DFF88E
:10C24000B0A004460D46052F4ED2DFE807F00316D6
:10C250001B282C00002E47D00121404603F07AF91C
:10C260008DF800906846FDF7BBFF5046D0E90412F8
:10C270000C431543CAE9044532E00EB1022114E033
:10C28000002112E04EB10321404603F063F940461D
:10C29000BDE8F84F012103F01BBD012105E0002E90
:10C2A00022D1042101E02EB103214046BDE8F84F20
:10C2B00003F050B90021404603F04CF900214046FC
:10C2C00003F006FD8DF800906846FDF789FF5046A3
:10C2D000E243D0E904341A4024EA0501CAE9042102
:10C2E0009DF80000FDF7A0FFBDE8F88F102B00209F
:10C2F0000824002010B5006842581AB101F0F4FC7F
:10C30000012010BD002010BD826883881A40036898
:10C310009A5C0A708168491C81607047C268838892
:10C320001A4003689954C168491CC16070470AB13A
:10C3300000F060BC00F048BC70B50D460446B0F893
:10C34000D810D0F8D4000122FEF7F5F800B105703E
:10C3500004F13C0204F1D40104F1540072DF70BD19
:10C36000F7B517460E0011D00098002560B10024E3
:10C370002146684600F033FC18B1A0B23946B047F8
:10C380006D1C641C142CF3D32846FEBD0020FEBD9A
:10C3900010B50446C0B2FDF7F9FE204610BD0000FE
:10C3A0000EB515A19DF8080020F00F00401C20F0EC
:10C3B000F00010308DF808000B2202A87CDF18B1C5
:10C3C000104AA721FCF728FF0020009001901021BF
:10C3D000ADF80400ADF800104FF4C8703C21ADF882
:10C3E0000600ADF8021068467ADF002803D0054A3F
:10C3F000B121FCF711FF0EBD4E6F726469635F558A
:10C400004152540028C901000C484A8843889A4286
:10C4100013D10A88A2F52063773B0ED18988C91E03
:10C420008AB28280064807491346401AC008032191
:10C4300001EB004004A101F088BA7047A02300205E
:10C44000080A0200A809020044617461206C656E4C
:10C450002069732073657420746F20307825582804
:10C460002564290010B50C490C4800F05BFC20B194
:10C470000BA240F22A21FCF7CFFEF721074800F07B
:10C4800045FC002806D0BDE8104005A240F22D2151
:10C49000FCF7C2BE10BD000009C40100D82700206F
:10C4A0002E2E5C2E2E5C2E2E5C6D61696E2E63002E
:10C4B00010B50B48FFF7A5FD094A083AD2E9043444
:10C4C000C018D2E9063244F10001C31A71EB02022E
:10C4D00004D24FF08072801841F1000110BD0000BD
:10C4E0002824002010B5C0B2FFF72CFB04460078CA
:10C4F00001F0B6FF01466078012801D0012000E07C
:10C50000002090EA010F08D00449D1E90401084352
:10C5100003D1BDE8104003F003B910BD082400208A
:10C520000146034802888A4200D00020704700007C
:10C53000802900202DE9FC5F0E008346DDE90C47D1
:10C54000C6F1000098469246814600D4084601256F
:10C5500003E000BF90FBFAF06D1C5045FADAA845E5
:10C5600000D9454624B1002E01DB780700D5641EB2
:10C57000B80702D5B8F1000F0AD0F80708D13CB1CE
:10C58000A54205D220215846641EFFF7B7FAF6E708
:10C59000002E02DA4E462D2102E0780703D52B212A
:10C5A0005846FFF7ABFA07F0030002280BD1B8F1A9
:10C5B000000F08D13CB1A54205D230215846641E77
:10C5C000FFF79CFAF6E7CDE900474346524631466D
:10C5D000584603F0D1FABDE8FC9F000070B50D4647
:10C5E000044600684FF4887101F030FE4FF49071FA
:10C5F000206801F02BFE4FF49271206801F026FEB6
:10C600004FF4A271206801F021FE4FF4AC71206854
:10C6100001F01CFE20681249C0F804132068690765
:10C6200040F30730090E002804DB00F1E02080F819
:10C63000001405E000F00F0000F1E02080F8141D68
:10C64000206840F30730002809DB00F01F020121B9
:10C6500091404009800000F1E020C0F8001170BD59
:10C6600010034200024600201268530713D502F05F
:10C670000300012802D002280CD105E0C2F3831088
:10C680000B68801C184404E00223086803EB9252F4
:10C690001044086001207047F0B58488A5189442C2
:10C6A00000D82246A41AC288D6189A4200D8134647
:10C6B000D21A4B880788BB420CD34088834209D8E2
:10C6C0008888A04206D3A84204D8C888904201D3E3
:10C6D000B04201D90020F0BD0120F0BD0A4810B5DC
:10C6E000807860B1002401E0022C06D02046FEF7DD
:10C6F00065FF641C042CF7D310BD0324F6E7BDE8E6
:10C700001040FEF77BBF0000CC23002003480179D6
:10C71000C90702D00078FFF7BFB87047CC230020CC
:10C72000F72101801721418000210171417170477B
:10C730002DE9FF410026244800F069FA2248001F35
:10C74000074600F064FA214C2149A06800900D686A
:10C7500000E000986946284004EB80000C30FFF7A9
:10C7600081FF0028F5D101AA009901EA050304EB35
:10C770008303491CDB6842F82030401C00910228EA
:10C78000F2D3019800F0030001280BD0022810D149
:10C790000198032101EB90500099BDF80A6001EB6C
:10C7A000900005E00198BDF80A60C0F383100844CA
:10C7B0000090384600F028FA08B10098A06004B054
:10C7C0003046BDE8F081000090310020782D002037
:10C7D000842400208AB0FEF739F920B14AA240F241
:10C7E0001531FCF719FD18224B496846FCF766FE27
:10C7F0004A4806904A494FF48070CDE907010990F4
:10C800000723484A06A96846FDF76EFC20B146A2F8
:10C8100040F2AE21FCF700FD4FF48041002001F012
:10C8200003F920B140A240F2E621FCF7F5FC00F04C
:10C8300059FFFDF7D3FB18B13BA29421FCF7ECFCA8
:10C840003D490320FEF7DEFF20B137A24FF43671D9
:10C85000FCF7E2FC69460020FEF7F4FE20B132A2AC
:10C8600040F2DB21FCF7D8FC01F0E8F920B12EA260
:10C8700040F2F221FCF7D0FCFEF72CFEFFF790FD12
:10C88000FFF7F0FD02F056FDFDF7FEF91C216846AA
:10C89000FCF72DFE00204FF4A031CDE90001032468
:10C8A0008DF80C40ADF80E008DF81000234805906F
:10C8B00023484FF4F021069002916846FEF744F8B1
:10C8C00020B119A240F28511FCF7A6FC1DA0FDF7CE
:10C8D0006FF921482149401AC00804EB004020A10B
:10C8E00001F028F803212948FDF72DFF20B10EA201
:10C8F0004FF44271FCF790FC00F002FF0028FBD1DE
:10C9000001F0B0F9F8E700002E2E5C2E2E5C2E2EE2
:10C910005C6D61696E2E6300F8FD0100D825002072
:10C92000D82600208DF701002E2E5C2E2E5C2E2E98
:10C930005C6D61696E2E630039B7010009EB01007F
:10C940009DBE01000D0A55415254207374617274EA
:10C9500065642E0D0A000000080A0200A809020002
:10C960004465627567206C6F6767696E6720666FE4
:10C97000722055415254206F7665722052545420D3
:10C98000737461727465642E00000000F427002047
:10C9900070B5144682880E4605462088111D014454
:10C9A000921C994201D8FE2A01D90C2070BD521C5C
:10C9B00032542088FF21401C80B2208031542088CE
:10C9C000401C80B220808119288803F0D0F821888B
:10C9D000084480B22080AA8842B1A96841B130449D
:10C9E000FCF76CFD2088A98808442080002070BDD9
:10C9F000072070BD2DE9F047C5881E1DB6FBF5F771
:10CA00008946B6FBF5F1044605FB176C40791668BC
:10CA10006843DDF820A0F718001F874200D9C61A26
:10CA2000166001E02468491E0029FBD1A5EB0C0724
:10CA30008846B74216D818E004EB0C00001D09EB3D
:10CA40000803BAF1000F3A4602D00146184600E04A
:10CA50001946FCF733FD2468F61B4FF0000CB84470
:10CA6000B54201D9374600E02F46002EE4D1BDE89B
:10CA7000F087000030B5024651B100F0E9FF002117
:10CA8000074C08E034F821301568AB4202D1116040
:10CA9000002030BD491C8142F4D3052030BD000088
:10CAA00000000000F8B50F4601781446054601293C
:10CAB00001D1687830B12088821C9A4232D801298D
:10CAC00002D006E00720F8BD69780144891C99422C
:10CAD00028D8181A801E86B2ADF800602188B81CCC
:10CAE000084469467DDF0028EDD12978022904D069
:10CAF0006878BDF80020904205D3BDF80000B04230
:10CB000001D809200AE00820012905D16978B1423D
:10CB100002D8ADF8001001E0ADF80060BDF80010DB
:10CB2000FE2901D90C20F8BD2288491CB95421885E
:10CB3000491C89B2218078542088401C2080BDF88F
:10CB40000010084420800020F8BD10B531B1B2FBC0
:10CB5000F3F403FB14241CB1092010BD0E2010BDFA
:10CB600001600021416081608281C381084610BD5F
:10CB700070B50C460546FCF75DFB002802D0218805
:10CB80002868084470BD10B50A8849888A4203D1D4
:10CB9000FCF792FB012010BD002010BD70B50C46C3
:10CBA0000546FCF76CFB002802D061882868084421
:10CBB00070BD10B50A8849888A4203D1FCF756FB3C
:10CBC000012010BD002010BD01F01F0301229A407A
:10CBD000D243490900EB8100114600F021B84A090F
:10CBE00050F8220001F01F0201219140084000D0BE
:10CBF0000120704701F01F0301229A40490900EB10
:10CC00008100114600F01CB8002100F00FB801218E
:10CC100000F016B808B56A46FCF7A3FB009808BDFB
:10CC200008B56A46FCF783FB009808BD08B56A465C
:10CC3000FCF77DFB08BD08B56A46FCF75FFB08BD45
:10CC400008B56A46FCF766FB009808BD08B56A4659
:10CC5000FCF794FB009808BD38B5044600258DF814
:10CC600000506846FDF7BCFA216862680868904287
:10CC70000ED9401E08600178238AE26801FB032573
:10CC8000227A2168101AC0B20A79824200D2087151
:10CC90009DF80000FDF7C8FA284638BD38B50546AE
:10CCA00000208DF800000C466846FDF799FAE86808
:10CCB000298A201AB0FBF1F12A681068431C13601E
:10CCC00001709DF80000FDF7AFFA38BD10B530B126
:10CCD000017A42680368891AC9B21A6006E00E2018
:10CCE00010BD03681A68541C1C601170491EC9B23B
:10CCF000F7D2006800210171084610BDC20800F09B
:10CD000007030120895C98400840704728B1A1F1D1
:10CD10001702E12A03D3072070470E2070470180D5
:10CD20000020704710B560B1C160F72120F8021BE8
:10CD300020F8021BFB2100F8021BFFF7F1FC00208A
:10CD400010BD0E2010BD00007CB50C468188002966
:10CD500033D102880025102A06D0112A09D03A2A98
:10CD60000BD0552A2ED129E00146204601F01CFFA8
:10CD700028E0A01DFFF7D4FC24E02246408934F8C7
:10CD8000063F834200D818466080172800D217203B
:10CD90006080D06878B1607968B1184BD3E900033E
:10CDA000CDE90003ADF802106088ADF80400D36847
:10CDB000694610469847657125717CBD014620463D
:10CDC00001F06EFFA07A0028F7D02846E188A5DFA1
:10CDD000012680B11128F0D001F018FA0246084867
:10CDE000084902B0401AC00806EB0040BDE8704098
:10CDF00005A100F0A3BDA572E6727CBD44FE010052
:10CE0000A8090200A809020073645F626C655F678D
:10CE1000617474635F65786368616E67655F6D7484
:10CE2000755F7265717565737428292072657475F4
:10CE3000726E65642025732E0000000020B1027818
:10CE4000DE2A03D0082070470E2070474180002062
:10CE5000704760B159B10278DE2A0AD00968416092
:10CE6000DE2101704FF6FF714180002070470E20D7
:10CE70007047082070477FB5054600294DD0002D2A
:10CE80004BD008780C46DE2847D1A88861888842B4
:10CE900002D1204602F00AFF2888012825D0022866
:10CEA0003BD011283AD0512837D135F8040F61888A
:10CEB000884232D1A978A81C02292ED1017A0429EE
:10CEC00003D0062901D0052927D100210091022293
:10CED0008DF8002001914FF4C07202910391ADF8DA
:10CEE0000420007A05280FD010E0297A2046012975
:10CEF00013D1A988428891420FD10121017204B057
:10CF0000BDE8704002F0D2BEADF804102888694632
:10CF1000B0DF002801D0616888477FBDA88861889C
:10CF20008842FAD14FF6FF7060807FBD00F18040EB
:10CF30000068002800D00120704708B500F180404B
:10CF4000002101600068009008BD000070B540F647
:10CF5000F8700468601C02D14FF010204469124838
:10CF6000124B4FF00102A3EB00004FEAD000611C0E
:10CF700002EB004512D0032101EB004022460CA138
:10CF800000F0DCFC204613DF040005D0284613A186
:10CF900000F0D0FC204670BD002070BD28461CA1CA
:10CFA00000F0C8FC042070BDA8090200080A0200B5
:10CFB00053657474696E6720766563746F7220744C
:10CFC00061626C6520746F20626F6F746C6F616456
:10CFD00065723A2030782530387800004661696CF7
:10CFE00065642072756E6E696E672073645F736F1F
:10CFF00066746465766963655F766563746F725F96
:10D000007461626C655F626173655F736574000073
:10D010004E6F20626F6F746C6F6164657220776110
:10D020007320666F756E640070B50C480C490D4A2C
:10D03000401AC508032000EB05400BA100F07EFC60
:10D04000084813DF040007D0012000EB054011A1C0
:10D0500000F070FC204670BD002070BD080A020080
:10D06000A80902000090010053657474696E67207E
:10D07000766563746F72207461626C6520746F20D2
:10D080006D61696E206170703A2030782530387893
:10D09000000000004661696C65642072756E6E69FF
:10D0A0006E672073645F736F667464657669636529
:10D0B0005F766563746F725F7461626C655F6261F5
:10D0C00073655F736574000070B50D4C01252078A1
:10D0D00008B185260EE00020A06060602061E0605D
:10D0E000084801F0D7F8064600F0DCFF08B901F067
:10D0F000BBF8257001F0B0F800B1A570304670BDE6
:10D100002C2A0020A1BD010038B500258DF8005063
:10D110006846FDF765F8084CE068401EE060E0688E
:10D1200028B901F099F810B901F0C4F8A5709DF87C
:10D130000000FDF779F838BD2C2A0020F0B505462F
:10D140000478154889B0164640F82420124A086928
:10D15000121DA2F1080742F82400487F385520220A
:10D160006846FCF7ABF904942878385C48B10EB1F6
:10D170000A4A00E000226946281D01F039FB09B087
:10D18000F0BD0EB1064A00E00022694605F10C0030
:10D1900001F0E2F9F3E70000F02300202DFA01008E
:10D1A000D1F8010030B40378054CE35C1BB130BC0E
:10D1B000001D01F053BB30BC0C3001F037BA000049
:10D1C000EC23002030B40378054CE35C1BB130BC89
:10D1D000001D01F0C5BB30BC0C3001F09DBA000051
:10D1E000EC2300200FB408B50399002904D004AA49
:10D1F00000926A4600F00FF801B05DF814FB10B51C
:10D2000082680446002A05D0D4E9040321689847BF
:10D210000020A06010BD2DE9FC4791460C0080461F
:10D2200076D014F8011B39B125290ED04046FEF7FF
:10D2300065FC20780028F4D198F80C00002867D00D
:10D240004046BDE8FC47FFF7DABF00200122217805
:10D250002B291BD02D2902D0302908D102E040F023
:10D26000010001E040F00200641C002AEFD100251B
:10D270002A290ED02178A1F130020A2A11D205EB19
:10D28000850201EB4205641C303DF1E740F00400EB
:10D29000EAE7D9F800100B1DC9F800300968641CD2
:10D2A0000D44217800232E290BD114F8011FA1F180
:10D2B00030020A2A05D203EB830201EB4203303B22
:10D2C000F3E76C290DD068290BD0692921D00BDC3C
:10D2D000252918D0582931D063290ED0642915D1B9
:10D2E00017E014F8011FECE7702969D0732932D0D8
:10D2F00075291BD0782909D120E0D9F80000011D3B
:10D30000C9F8001001784046FEF7F8FB641C90E76E
:10D310006CE0D9F800100A1DC9F800200968CDE9B1
:10D3200000500A224046FFF705F9EFE7D9F8001050
:10D330000A1DC9F8002009680A2206E0D9F8001081
:10D340000A1DC9F8002009681022CDE900504046A6
:10D3500002F012FCDAE7D9F8001000270A1DC9F81C
:10D3600000200E68C00705D112E04046761C7F1CE5
:10D37000FEF7C4FB31780029F7D104E020214046B4
:10D380006D1EFEF7BBFBBD42C0D9002DF6D1BDE737
:10D390004EB13046FCF7B6F8074604E0202140467F
:10D3A0006D1EFEF7ABFBBD4206D9002DF6D103E0A2
:10D3B0004046761CFEF7A2FB31780029F8D1A5E79C
:10D3C000D9F80000011DC9F8001005683021404659
:10D3D000FEF794FB78214046FEF790FB08200021E1
:10D3E000CDE90001034610222946B0E7BDE8FC87DD
:10D3F00070B541EA4201DDE904564FF0A04441EA2C
:10D40000830141EA052104EB800041EA0641C0F8AE
:10D41000001770BD70B541EA4201DDE904564FF0D6
:10D42000A04441EA830141EA052104EB800041EA7E
:10D430000641C0F8001770BD70B541EA4201DDE950
:10D4400004564FF0A04441EA830141EA052104EB70
:10D45000800041EA0641C0F8001770BD70B541EA8E
:10D460004201DDE904564FF0A04441EA830141EA5C
:10D47000052104EB800041EA0641C0F8001770BDA9
:10D480001CB500220B46009211460192FFF7D4FF13
:10D490001CBD1CB500220B46009211460192FFF7FD
:10D4A000DDFF1CBD1CB5002100910B46012201913E
:10D4B0001146FFF7C1FF1CBD1CB5002100910B46B2
:10D4C000012201911146FFF7C9FF1CBD4FF0A04298
:10D4D00002EB8000D0F8002722F44032C0F8002789
:10D4E000D0F8002742EA0141C0F800177047000059
:10D4F00038B5094B44181B6800936B4608E000BF21
:10D5000053F82010D1F8205520C2C1F82055401CF6
:10D510008442F5D838BD000064FE010042094FF096
:10D52000000100D1491E00F01F00012282400A4282
:10D5300001D0012070470020704701224FF0A04326
:10D54000824011B1C3F808257047C3F80C25704715
:10D55000034908B50844002101600068009008BD37
:10D560000060004002494058012800D00020704768
:10D570000060004030B5154A01460020D2F8104442
:10D5800023460AE0DB681D79854205D1401C0A2844
:10D59000F6DB4FF0FF3030BD1B68002BF2D1431C8F
:10D5A000F9D0CB681871D2F8103443B1DB68CC687D
:10D5B0001B682360D2F81024D268116030BDC2F815
:10D5C0001014C96800220A6030BD0000782D0020C8
:10D5D0007047FCF77BB8704708B5034A00924023B8
:10D5E000024A00F005F808BD5DF20100E02B0020C2
:10D5F000F0B595B01C4615460E4608461A9F00F039
:10D60000F7FA182109A8FBF772FF0E97CDE9095424
:10D610000023082203A9304600F0FFFA059806907F
:10D62000BDF81000ADF81C00BDF81200ADF81E00EA
:10D6300000208DF821000399082501F0030001283E
:10D6400002D0022816D02FE0C1F3C200C1F3831725
:10D650008C0A8DF82000BA002B460FA9304600F046
:10D66000DCFA09A8009006AB3A460FA9204600F064
:10D670001BFA19E0C1F3C2008C0D8DF82000082CB4
:10D6800001D2274600E008272B463A460FA930462C
:10D6900000F0C3FA3D44E41B09AB06AA39460FA8C3
:10D6A00000F06AF9002CEAD1304600F0A7FA15B074
:10D6B000F0BD00000A4A012902EBC00007D0022990
:10D6C00007D0032907D0042907D000207047022083
:10D6D0007047042070470079704740797047000018
:10D6E000A809020010B5FFF774FF04210348FFF7F3
:10D6F00041FF02490120C968487110BD9809020024
:10D700002DE9F04F8DB0FEF711FA18B100200DB0E1
:10D71000BDE8F08F7D4C4FF0000BC4F818B4BFF398
:10D720004F8F7B49A06802900D68D846284004EBD3
:10D7300080000BE0D4F8180470B961680298814247
:10D7400001D8A160E2E7284004EB80000C3002A978
:10D75000FEF788FF0028EDD1002009AA029901EA0E
:10D76000050304EB8303491CDB6842F82030401CAE
:10D7700002910228F2D3099800F00301022902D095
:10D7800001294DD0A8E0810D50228946B2EB905F6F
:10D7900000D850210E4666F39F50099008315D482D
:10D7A00000F0DDF9070077D000F022FA43460822A6
:10D7B00009A9384600F039FA029908F1080A294007
:10D7C000681A8000001D864223D9504D0C3530B1B7
:10D7D000C2B204EB8101301A90460C3104E02946B4
:10D7E000F2B2002590462846C6B25346384600F0AD
:10D7F0001CFA0AEB08032DB1324629464FEA07000E
:10D8000000F013FA029909F1030001EB9000029075
:10D8100039E004EB81015346324638460C31EFE7DC
:10D82000C0F38311062900D3062161F38910099002
:10D83000C0F38310801C8100364800F090F9070087
:10D840004AD000F0D5F94346082209A9384600F02D
:10D85000ECF908F1080800260FE00298434600EAB8
:10D860000501401C04EB81010290042238460C3172
:10D8700000F0DBF908F10408761C0998C0F3831066
:10D88000B042EAD847B1D4F81054D4F8180478B1AB
:10D89000384600F0B3F934E01EE0E868407901282A
:10D8A00004D12A682846394612689047E868056816
:10D8B000002DF2D1384600F0A1F98DF800B068468D
:10D8C000FCF78EFCD4F8180408B90298A0609DF803
:10D8D0000000FCF7A9FC14E0D4F8104405E021682E
:10D8E000204689688847E0680468002CF7D10A4818
:10D8F0000A49401AC008022101EB004008A100F0CB
:10D9000019F8FEF713F980F0010000E7782D0020E8
:10D9100084240020280A0200080A0200A809020044
:10D920004261636B656E647320666C7573686564D1
:10D930000000000000231A4601F024BE08B50123B0
:10D9400000926A4601F01EFE08BD1CB5CDE9002319
:10D9500002236A4601F016FE1CBD70B586B00DF1BB
:10D96000280C9CE870008DE87C0005236A4601F0D5
:10D9700009FE06B070BD00002DE9F0470E46804656
:10D980001C469246082940D894F80C900020207339
:10D990001946104601F0CEFA0025B54206D218F815
:10D9A00005201BA12046FFF71DFC03E01AA120461D
:10D9B000FFF718FC6D1C082DEFD318A12046FFF7C8
:10D9C00011FC0025B54212D218F805707E2F08D838
:10D9D000FBF770FD0068C05D10F03E0F01D03A46C5
:10D9E00000E02E220EA12046FFF7FCFB03E00DA174
:10D9F0002046FFF7F7FB6D1C082DE3D301222146DB
:10DA0000504601F079FA84F80C90BDE8F0870000E8
:10DA10002025303278000000202020007C0000000B
:10DA20002563000020000000064910B500200870A2
:10DA3000054800F0E1F8002803D1044800F046F959
:10DA4000002010BD782D0020280A020048000200A6
:10DA500002480349401AC00870470000280A020023
:10DA6000A809020013B56846FFF704F808B10020C2
:10DA70001CBD0248009950F831001CBDA8090200E5
:10DA800070B508480125D0F81044057007E0E0683B
:10DA900045712168204649688847E0680468002C81
:10DAA000F5D170BD782D00202DE9FF4781460C9DF2
:10DAB00000200C462F7B28739846164629461846A8
:10DAC00001F038FA072E42D2DFE806F004090F16FB
:10DAD0001F2A360049462846FFF784FB37E04946AF
:10DAE00028462268FFF77EFB31E0D4E9002349464F
:10DAF0002846FFF777FB2AE0A0680090D4E90023CE
:10DB000049462846FFF76EFB21E0D4E90201CDE942
:10DB10000001D4E9002349462846FFF763FB16E0DD
:10DB200004F1080007C88DE80700D4E9002349463E
:10DB30002846FFF757FB0AE004F108000FC88DE8FC
:10DB40000F00D4E9002349462846FFF74BFB00228B
:10DB50002946404601F0D0F92F73BDE8FF872DE933
:10DB6000F041058A80462D1F4819C01CB0FBF5F016
:10DB7000C6B24046FFF770F8041E19D0002020718D
:10DB800001206071E58000272546761EC4F80080DC
:10DB90000BE04046FFF760F860B16179491C6171A4
:10DBA000286005467F1CC0F80080B742F1D32046AC
:10DBB000BDE8F081204600F002F80020F8E72DE9EA
:10DBC000F041457901466B1E002201E00968521CB4
:10DBD0009A42FBD30F680146002605E038460C68E0
:10DBE000FFF75CF82146761CAE42F7D3BDE8F08122
:10DBF0000121001DFFF70EB8FFF768B810B5044605
:10DC00000121001DFFF722F810F0FF0F04D120467C
:10DC1000BDE81040FFF7D3BF10BD1CB50192012233
:10DC2000009201AAFEF7E6FE1CBD1CB5019200227F
:10DC3000009201AAFEF7DEFE1CBD0000064910B5E9
:10DC400000204870091D0860BFF35F8F0349044836
:10DC500000F06EFA002010BD6C240020E0FE0100F0
:10DC6000D42B002010B500F01DFA08B141DF10BD23
:10DC700020BF40BF20BF10BD70B504460C48012135
:10DC8000FEF7D9FFBFF35F8F0025002809D10120DF
:10DC9000074E042C08D0311F4A781AB1BFF35F8FAA
:10DCA000356070BD0C70487001F090FBF6E7000025
:10DCB0007024002001A2BE21FBF7AEBA2E2E5C2EEE
:10DCC0002E5C2E2E5C6D61696E2E630082680021D1
:10DCD000916082681161826851618268D160826856
:10DCE000516080680160704708B50022425040587A
:10DCF000009008BD20B10349096801600020704709
:10DD00000E207047CC0002002DE9FE4307460E4668
:10DD10000846FFF7EFFF002879D10025009501950F
:10DD200006208DF800704FF00108ADF80400029550
:10DD30008DF8028069462020326869DF3549364A0D
:10DD4000891AC908012202EB014430B100F05EFAE1
:10DD5000024620463149FFF7F1FD009501950295F5
:10DD60008DF8018069464020326869DF30B100F0EB
:10DD70004DFA024620462A49FFF7E0FD00958DF84E
:10DD80000070F720ADF80200019502956946232046
:10DD9000326869DF30B100F039FA02462046214985
:10DDA000FFF7CCFD009502208DF80000019502954B
:10DDB00069460120326869DF30B100F027FA024677
:10DDC00020461949FFF7BAFD4FF4C860009001954D
:10DDD00002956946A120326869DF30B100F016FA79
:10DDE000024620461149FFF7A9FD009501950295CD
:10DDF0008DF800506946A020326869DF30B100F02C
:10DE000005FA024620460A49FFF798FD0020BDE8C2
:10DE1000FE830000180A0200A8090200240702007D
:10DE20006C070200B807020084060200D006020058
:10DE3000300602002DE9F0410546076860DF8046A4
:10DE400019491A482A68081AC608BA4219D902207C
:10DE500000EB064416A12046FFF76CFD20463A462B
:10DE60001FA12B68FFF771FD4FF08050D0F80C0117
:10DE70002968800200F10050421A204625A1FFF7D0
:10DE80005DFDB8F100004FF001040AD000F0BEF9CA
:10DE9000024604EB06402AA1FFF750FD4046BDE8CC
:10DEA000F0812F480470F9E7180A0200A80902005F
:10DEB000496E73756666696369656E742052414D7B
:10DEC00020616C6C6F636174656420666F7220748E
:10DED000686520536F66744465766963652E00003B
:10DEE0004368616E6765207468652052414D2073F8
:10DEF00074617274206C6F636174696F6E206672F6
:10DF00006F6D203078257820746F20307825782E3A
:10DF1000000000004D6178696D756D2052414D2003
:10DF200073697A6520666F72206170706C696361D5
:10DF300074696F6E20697320307825782E00000098
:10DF400073645F626C655F656E61626C6528292031
:10DF500072657475726E65642025732E0000000072
:10DF6000DB24002030B51748ADF5017D007800288E
:10DF700025D04FF4FA7400BFADF8004280A968467E
:10DF800061DF50B105281AD00DF5017D0EA2BDE864
:10DF9000304040F23B11FBF73FB96D461A497DA86E
:10DFA00000F0C6F807E000BFD0E9002128469047FE
:10DFB0007DA800F0D4F87F980028DDD0F4E70DF5B7
:10DFC000017D30BDDB2400202E2E5C2E2E5C2E2EFB
:10DFD0005C2E2E5C2E2E5C2E2E5C636F6D706F6E31
:10DFE000656E74735C736F66746465766963655C93
:10DFF000636F6D6D6F6E5C6E72665F7364685F6297
:10E000006C652E6300000000D00002007CB5194C46
:10E01000207808B108207CBD0120A070002001F00C
:10E02000E7F8112819D0002001F0FAF8124800266C
:10E03000006801908DF800606846FCF7D1F80F4940
:10E0400001A810DF05000AD0002020709DF8000014
:10E05000FCF7EAF82DB128467CBD00207CBD0120EC
:10E06000F3E7A670667001F023FA012001F0D8F8FA
:10E07000F3E70000D824002064000200A19D010005
:10E080000EB50749684600F053F805E0D0E90010E6
:10E090008847684600F063F802980028F6D10EBD64
:10E0A000800002000148007870470000D82400205A
:10E0B0001FB568464BDF40B1052816D004B00BA24F
:10E0C000BDE810406B21FBF7A7B8184901A800F084
:10E0D0002FF806E0D0E900210098904701A800F051
:10E0E0003EF803980028E4D0F4E71FBD2E2E5C2EE6
:10E0F0002E5C2E2E5C2E2E5C2E2E5C2E2E5C636FE4
:10E100006D706F6E656E74735C736F667464657644
:10E110006963655C636F6D6D6F6E5C6E72665F7375
:10E1200064685F736F632E6300000000EC00020000
:10E13000016009684160AFF3008010B5D0E90021AB
:10E140005368994201D1002104E0D1E90034A3428F
:10E1500002D01946816010BD08314160F0E7816846
:10E1600000290BD0026892680A44826041684B68BB
:10E170009A4203D108314160FFF7DFBF704770B5A5
:10E180000D460646446804E0B2682946904718B137
:10E19000246820680028F7D120682860256070BDB9
:10E1A00040680068704741680868002801D002682C
:10E1B0000A60704702460020526806E08B4203D195
:10E1C00008681060012070471A461368002BF5D1CB
:10E1D000704700000C4A10B502F594730EE0991ACE
:10E1E000C91001EBD171491002EBC1010C688442E6
:10E1F00001D90B4602E005D201F108029A42EED3A2
:10E20000002010BD486810BD00FF010000B5FFF7F9
:10E21000E1FF002800D1014800BD0000ECFE010034
:10E220004058002800D00120704708B50022425015
:10E230004058009008BDD0F80403084000D00120E9
:10E2400070474058002800D00120704708B50022D0
:10E2500042504058009008BD02480068002800D095
:10E26000012070470004014008480068012110F0B7
:10E27000010F06D14FF0E020C02280F80024843046
:10E28000C1670349012008607047000000E100E019
:10E29000180500400649024600200B790BB1852085
:10E2A00070470A6001220A7100224A71704700001B
:10E2B000F8230020022010B54107C1F808034FF4ED
:10E2C0008270FEF73AFE05490120086004480168A3
:10E2D000C1F300410029FAD110BD00000C0000403C
:10E2E00018040040002802D0014980010847704707
:10E2F000B1FE01002DE9F0410E46054600F082FD19
:10E300000028284619D0FDF767FC083800F0ECFD1E
:10E31000032802D001280ED007E04FF0A040D0F82B
:10E320001005E84010F0010F05D003212846BDE894
:10E33000F041FFF7CBB80221F8E700F06FFD0028AD
:10E3400022D02846FDF748FC04464FF4807000EBCD
:10E3500084000E4F81B207EB8400D0F8102542F004
:10E360000102C0F810250846FFF7F2F8002E0BD086
:10E370002846FDF731FC064951F82000002803D05B
:10E380000120A040C7F80403BDE8F0810060004010
:10E39000402A00202DE9FC41DFF8B880044608EB54
:10E3A0000400002790F930001346C0170E46401CA9
:10E3B00001D008274AE0B0781946C0F34002204651
:10E3C000FDF7E6FB0546401C3FD0B078410717D467
:10E3D000C0070AD04FF0A04000EB8400D0F800172F
:10E3E00021F00201C0F8001707E0002173782046F1
:10E3F00000910A460191FFF70DF8204600F0F4FC69
:10E40000B078800718D51448317800EB8500D0F833
:10E410001025124B1A40C0F810254FF4F8524FF453
:10E42000403302EA042203EA01410A43D0F81015FE
:10E430000A43C0F8102509E008EB0500327810F80F
:10E44000481F41EA8211017000E004273846BDE808
:10E45000FC810000402A002000600040FFE0FCFF3B
:10E460004FF0A041D1F81015C14011F0010000D0CB
:10E470000120704770B5194D95F8580008B1082073
:10E4800070BD0024661E2046FFF748F810B1281919
:10E4900080F83060641CE4B2202CF4D300242046C1
:10E4A000FDF768FB641CE4B20C2CF8D300200D4986
:10E4B00068650B4CC02081F8000401264020891FAC
:10E4C000C1F800014FF4BE70FFF742F8A004C4F891
:10E4D000040385F85860002070BD0000402A002029
:10E4E0000060004006E000E0034890F85800002873
:10E4F00000D0012070470000402A00200121B1EB2C
:10E50000507F01D1012070470020704738B50D467B
:10E5100000F05CFD040014D000208DF80000684677
:10E52000FBF75EFE207928B19DF80000FBF77CFE2A
:10E53000112038BD0120256020719DF80000FBF7F7
:10E5400073FE002038BD00000149024801F0D8B92F
:10E550009C2A0020002000402DE9F041054600796A
:10E5600016460F4600EB40012D4A01EBC00102EBBD
:10E57000810494F82A1011B10820BDE8F0812949DE
:10E5800051F820102868FFF7C1FF08B11120F4E707
:10E5900039462846FBF762FE666038692060300025
:10E5A0004FF001062FD03F7F4FF48E712868FFF7A0
:10E5B0003CFE4FF4A2712868FFF737FE28681A491D
:10E5C000C0F8041328684FEA471140F307300028C9
:10E5D00004DB00F1E02080F8001405E000F00F00FB
:10E5E00000F1E02080F8141D286840F3073000286F
:10E5F00009DB00F01F0106FA01F14009800000F17B
:10E60000E020C0F8001128680421C0F8001500209F
:10E61000A061E06184F8290044F8140FA675ACE706
:10E620009C2A002068FE0100800002002DE9F05FB6
:10E63000054600794FF4017600EB400303EBC00080
:10E64000344B03EB80040020636813B12B68C3F8DC
:10E650000863A3694FF000096BB1E06938B16068E5
:10E6600010B12868C0F804631120BDE8F09FE26192
:10E670000120216105E0C4F82490A261E160C4F8A2
:10E680001C9094F82910014302D1284600F073FD34
:10E6900060680028286803D0C0F804630020E4E71D
:10E6A0004FF4A2763146FFF7C0FDB2464FF4927B9D
:10E6B00059462868FFF7B4FD06464FF48471286870
:10E6C000FFF7AEFD804651462868FFF7A9FD0746D3
:10E6D00048EA07003043EBD056EA070007D121464D
:10E6E000286800F019FDA169606A8142E0D8C4F889
:10E6F00018900EB10320B8E70FB10F20B5E794F8DA
:10E70000291001200029296801D00860C6E7486067
:10E71000C4E700009C2A00202DE9F05F054600793F
:10E720000B4600EB400101EBC000244901EB8004E3
:10E73000284600F045F810B11120BDE8F09F626155
:10E740004FF00009C4F82090A36084F828904FF49B
:10E750008E784E4641462868FFF767FD28684FF0DF
:10E76000010AC0F808A02146286800F0E5FF6068AB
:10E7700008BBD5F800B067690FE000BF94F8280027
:10E7800008B10F2615E041465846FFF749FD00281D
:10E79000F4D02146584600F0CFFF206AB842F2D3A9
:10E7A000574641462868FFF73BFD0028F9D0286806
:10E7B000C760C4F814903046BFE700009C2A0020D0
:10E7C000007900EB400101EBC000044901EB80003F
:10E7D0004069002800D00120704700009C2A0020DA
:10E7E0000149024801F03AB9C82A0020002000403F
:10E7F0002DE9F0410546164600790F46154A00EB13
:10E80000C00102EB810494F8201011B10820BDE88A
:10E81000F081114951F820102868FFF777FE08B100
:10E820001120F4E739462846FBF75CFD666038693D
:10E8300020601EB1397F2846FDF7D0FE28680821E8
:10E84000C0F800150020A061E0616061012184F83A
:10E850002010DCE7C82A00206CFE01002DE9F05FE3
:10E86000044600790E4600EBC001DFF8F0A0174621
:10E870000AEB81053046FFF741FEB0B168684FF002
:10E8800000084FF4047910B12168C1F80893A86911
:10E890004FF0000B80B1E86948B1686810B120689A
:10E8A000C0F804931120BDE8F09F1020FBE7EF6152
:10E8B0004FF001082E6102E0EE60C5E9067B0025FD
:10E8C0004FF488712068FFF7C1FC4FF4A2712068F3
:10E8D000FFF7BCFC2068C0F83465C0F838752068C4
:10E8E000B8F1000F12D0D0F8001241F02001C0F8AA
:10E8F00000122079D04600EBC0010AEB810040688D
:10E9000038B12068C0F804932846CCE701210160A3
:10E91000EFE74FF4887A4FF4A27951462068FFF769
:10E9200090FC074649462068FFF78BFC06464FF4EB
:10E9300092712068FFF785FC014647EA060008430C
:10E94000EBD0227902EBC20308EB8302C2F818B0C5
:10E9500001B10325002ED7D00F25D5E7C82A002006
:10E960002DE9F04704460E460079274900EBC00028
:10E9700001EB800517463046FFF7C0FD30B1204659
:10E9800000F044F820B11120BDE8F0871020FBE72B
:10E990006F61AE604FF490774FF000083946206801
:10E9A000FFF754FC4FF4AC7631462068FFF74EFC7D
:10E9B0002068AA686969C0F84425C0F8481520682D
:10E9C0004FF00109C0F808906868D0B9BA465146BE
:10E9D0002068FFF736FC074631462068FFF731FC18
:10E9E0000743F4D010B14FF00F0808E02068C0F8DA
:10E9F0000C9031462068FFF724FC0028F9D0002055
:10EA000068614046C0E70000C82A00200079054937
:10EA100000EBC00001EB80004069002800D001201D
:10EA200070470000C82A002070B50546007800280D
:10EA300029D1002618E02869805DFBF7A7FB0400B8
:10EA400011D0112CF7D0104810492246401AC008A6
:10EA5000012101EB00400EA1FEF770FF17A2DC219F
:10EA60002046FAF7D9FB761CA88AB042E3D8A98AD7
:10EA70002869084410F8010C0D2804D10A20FBF77E
:10EA800085FB1128FAD070BD080A0200A80902000F
:10EA90004661696C656420726563656976696E6755
:10EAA000204E5553206D6573736167652E20457246
:10EAB000726F7220307825782E2000002E2E5C2E6A
:10EAC0002E5C2E2E5C6D61696E2E630010B568B1F0
:10EAD00003280FD10220FCF789FE00280AD0BDE8E8
