:020000040000FA
:10000000E0260020FD0200000503000007030000B9
:10001000090300000B0300000D03000000000000B6
:100020000000000000000000000000000F030000BE
:10003000110300000000000013030000150300007E
:10004000170300001703000031070000F903000048
:100050001703000017030000170300001703000038
:100060001703000017030000170300001703000028
:100070001703000017030000170300001703000018
:100080001703000017030000170300001703000008
:1000900017030000170300001703000017030000F8
:1000A00017030000170300001703000017030000E8
:1000B000170300001703000000000000000000000C
:1000C00017030000170300001703000017030000C8
:1000D00017030000170300001703000000000000D2
:1000E0000000000000000000000000000000000010
:1000F0000000000000000000000000000000000000
:1001000000000000000000000000000000000000EF
:1001100000000000000000000000000000000000DF
:1001200000000000000000000000000000000000CF
:1001300000000000000000000000000000000000BF
:1001400000000000000000000000000000000000AF
:10015000000000000000000000000000000000009F
:10016000000000000000000000000000000000008F
:10017000000000000000000000000000000000007F
:10018000000000000000000000000000000000006F
:10019000000000000000000000000000000000005F
:1001A000000000000000000000000000000000004F
:1001B000000000000000000000000000000000003F
:1001C000000000000000000000000000000000002F
:1001D000000000000000000000000000000000001F
:1001E000000000000000000000000000000000000F
:1001F00000000000000000000000000000000000FF
:10020000DFF810D000F0BCF8004800473D0C0000BB
:10021000AFF30080E026002030B4044654E8000F1D
:100220000D4644E80053002BF8D1156030BC7047F0
:1002300030B4044654E8000F40EA010544E8005396
:10024000002BF7D1156030BC704730B4044654E839
:10025000000F00EA010544E80053002BF7D11560B8
:1002600030BC704730B4044654E8000F80EA010502
:1002700044E80053002BF7D1156030BC704730B410
:10028000044654E8000F00EB010544E80053002B3E
:10029000F7D1156030BC704730B4044654E8000F05
:1002A000A0EB010544E80053002BF7D1156030BCEA
:1002B000704770B404464FF0000054E8006F0D68BA
:1002C000AE4207BF44E80023012044E800630E600B
:1002D000002B1CBF0020F0E770BC704730B4044610
:1002E00054E8000F88422CBF451A054644E80053E5
:1002F000002BF5D1156030BC7047000006488047E0
:1003000006480047FEE7FEE7FEE7FEE7FEE7FEE7FA
:10031000FEE7FEE7FEE7FEE7090400000102000039
:1003200000487047642D000040EA01039B0703D09A
:1003300009E008C9121F08C0042AFAD203E011F824
:10034000013B00F8013B521EF9D27047D2B201E0E6
:1003500000F8012B491EFBD270470022F6E710B5CA
:1003600013460A4604461946FFF7F0FF204610BD23
:10037000421C10F8011B0029FBD1801A70470000B5
:10038000064C074D06E0E06840F0010394E80700E2
:1003900098471034AC42F6D3FFF736FF042E000026
:1003A000242E00007CB511A0002500680223CDE9B1
:1003B000005001AA48210E4800F07CFD08B100F071
:1003C0001BFA0C4C20780028FCD08DF804502570C6
:1003D000012301AA48210648009500F06BFD08B1F1
:1003E00000F00AFA20780028FCD07CBD0100000053
:1003F000482C0000000000200149024801F0D6BF4F
:10040000A400002000300040F0B5B74AB7494FF0D3
:1004100080541368D4F830010978D4F83421451C8D
:10042000C1F3031106D0844601270025BCF1060F55
:1004300003D00AE003F0FF0CF6E7B4F82463DFF81A
:10044000B0C2C6F30426CCF80060DEB2062E06D198
:10045000032904D1DFF8A0C2A64ECCF87460461C74
:1004600004D08446BCF1060F03D00AE003F0FF0C71
:10047000F8E7D4F84462DFF884C2C6F34236CCF819
:100480000060DEB2062E08D1032906D19C4ED6F8B4
:1004900000C02CF0807CC6F800C0461C04D0844606
:1004A000BCF1060F03D00BE003F0FF0CF8E74FF0B0
:1004B0008046C6F80C51C6F81051904E361F356074
:1004C000DEB2062E08D1032906D1DFF830C203269A
:1004D0000CF1640CCCF80060DEB2062E11D10329B9
:1004E0000FD1DFF820C20526CCF80060854E7836A3
:1004F0003760844E083635600CF1040C3F26CCF88A
:100500000060461C06D084464FEA0206BCF1060F86
:1005100004D081E003F0FF0C0E46F7E7032E7BD0FA
:10052000042E79D0784E3668DFF8E0C1CCF8006050
:10053000754E361D36680CF1040CCCF80060724E16
:10054000083636680CF1040CCCF800606E4E0C36A0
:1005500036680CF1040CCCF800606B4E103636682F
:100560000CF1040CCCF80060674E143636680CF1C0
:10057000040CCCF80060644E18363668DFF88CC185
:100580000CF1200CCCF800605F4E1C3636680CF184
:10059000040CCCF800605C4E203636680CF1040C7C
:1005A000CCF80060584E243636680CF1040CCCF8B8
:1005B0000060554E283636680CF1040CCCF800600B
:1005C000514E2C3636680CF1040CCCF800604E4EBF
:1005D00030363668DFF834C10CF1400CCCF80060DE
:1005E000494E343636680CF1040CCCF80060464EA7
:1005F000383636680CF1040CCCF80060424E3C36BC
:1006000036680CF1040CCCF800603F4E403636687A
:100610000CF1040CCCF80060461C05D04FEA000C2D
:10062000BCF1060F03D008E003F0FF0CF8E7D4F8A4
:100630005842374E04F04F043460441C03D0034644
:10064000062B02D008E0DBB2FAE732490B68DB0781
:1006500002D06FF001030B6006280AD1032A08D0EC
:10066000042A06D0052A04D02B48016841F4806191
:10067000016023487438016841F470010160BFF3E0
:100680004F8FBFF36F8F4FF01021D1F80002002879
:1006900003DBD1F80402002822DA204A1760204840
:1006A0000368002BFCD01523C1F800320468002C2D
:1006B000FCD0C1F8043201680029FCD01560016843
:1006C0000029FCD0BFF34F8F0D48F0380168154A60
:1006D00001F4E06111430160BFF34F8F00BFFDE7FC
:1006E000124911480860F0BDE00F00F0E80F00F07B
:1006F000403501400DF0ADBA00C007403C05004058
:10070000FCED00E0105600400404001020C500403D
:10071000E40E0040000400403C17004004E50140A6
:1007200000E401400400FA050090D003A00000207E
:10073000014800680047000020000020002809DB75
:1007400000F01F02012191404009800000F1E020EB
:10075000C0F88012704702E008C8121F08C1002AC2
:10076000FAD170477047002001E001C1121F002A32
:10077000FBD1704710B572B600F0D8FF00F02EFE26
:100780000028FBD111481249401AC408012000EB8F
:10079000044010A100F03AFF11480068C00700D0E3
:1007A00000BE022000EB04400EA100F02FFFBFF3BB
:1007B0004F8F0B48E43801680E4A01F4E0611143A1
:1007C0000160BFF34F8F00BFFDE70000542E000013
:1007D000342E0000466174616C206572726F720085
:1007E000F0ED00E053797374656D20726573657484
:1007F000000000000400FA050EB500210091CDE9CB
:1008000001106A4644F20100FFF7B4FF0EBD00F08C
:1008100003B800F009B8000072B602480168491C2C
:10082000016070472800002003490868401E0860E6
:1008300000D162B670470000280000202DE9F04189
:10084000064608680C46411C4FF0A0474FF00105D2
:1008500006D005FA00F1C7F80815206800F0C6FCBC
:100860006068411C02D0002100F0AEFC3168A06934
:10087000C1F82405607D227D31681043C1F86C0504
:10088000D4E900123068C0F81425C0F80C15207D9A
:10089000012815D1A068411C02D0002100F094FC71
:1008A000E068411C05D08540C7F80855E06800F0B5
:1008B0009DFCD4E902123068C0F80825C0F8101574
:1008C000BDE8F0812DE9F041064608680C46411C60
:1008D0004FF0A0474FF0010506D005FA00F1C7F828
:1008E0000815206800F08CFC6068411C02D00021D3
:1008F00000F073FC3168A069C1F82405607D217D9A
:1009000032680843C2F86C05D4E900123068C0F8B8
:100910000C15C0F81425207D012815D1A068411CB4
:1009200002D0002100F059FCE068411C05D0854050
:10093000C7F80855E06800F063FCD4E9021230689B
:10094000C0F80825C0F81015BDE8F0812DE9F04782
:100950000546861C91460F464FF0010A0020FFF71E
:1009600056FF1B4C04F21C4860683860D4E9010152
:10097000184F401A3968081A0EE00121404600F06D
:1009800011FA00F009F90146404600F00BFAD4E9EB
:100990000101401A3968081A401C8642EDD8B9F1A5
:1009A000000F03D0052065F3891002E0062065F3EF
:1009B0009F5061683A68114004EB8101C86060682B
:1009C000304460600020FFF724FF5046BDE8F08708
:1009D000C00200204C00002070B50D4604460A29D4
:1009E00002D10D21FFF7F8FFA0682268411CA16029
:1009F0001554D4E90101814204D32046BDE870407A
:100A000000F0A1BA70BD00000448816840688142CE
:100A100001D101207047002070470000C002002073
:100A200010B50021024800F0C8F980F3100010BD95
:100A3000DC0600202DE9FC5F0E008346DDE90C4753
:100A4000C6F1000098469246814600D4084601252A
:100A500003E000BF90FBFAF06D1C5045FADAA845A0
:100A600000D9454624B1002E01DB780700D5641E6D
:100A7000B80702D5B8F1000F0AD0F80708D13CB189
:100A8000A54205D220215846641EFFF7A5FFF6E7D0
:100A9000002E02DA4E462D2102E0780703D52B21E5
:100AA0005846FFF799FF07F0030002280BD1B8F171
:100AB000000F08D13CB1A54205D230215846641E32
:100AC000FFF78AFFF6E7CDE9004743465246314635
:100AD000584602F029F8BDE8FC9F000070B50D46AD
:100AE000044600684FF4887100F02CFF4FF49071B9
:100AF000206800F027FF4FF49271206800F022FF79
:100B00004FF4A271206800F01DFF4FF4AC71206813
:100B100000F018FF20681249C0F804132068690724
:100B200040F30730090E002804DB00F1E02080F8D4
:100B3000001405E000F00F0000F1E02080F8141D23
:100B4000206840F30730002809DB00F01F02012174
:100B500091404009800000F1E020C0F8001170BD14
:100B600010034200024600201268530713D502F01A
:100B70000300012802D002280CD105E0C2F3831043
:100B80000B68801C184404E00223086803EB9252AF
:100B900010440860012070472DE9FF4100262448D9
:100BA00000F0FDF82248001F074600F0F8F8214C3D
:100BB0002149A06800900D6800E00098694628402F
:100BC00004EB80000C30FFF7CDFF0028F5D101AA1F
:100BD000009901EA050304EB8303491CDB6842F832
:100BE0002030401C00910228F2D3019800F003004D
:100BF00001280BD0022810D10198032101EB90505D
:100C00000099BDF80A6001EB900005E00198BDF87D
:100C10000A60C0F3831008440090384600F0BCF826
:100C200008B10098A06004B03046BDE8F081000033
:100C3000D8060020C00200204C00002000210846F9
:100C400000F048FD08B1FFF7D7FD00F0B9FB1A48E6
:100C50001A49401AC008032101EB004018A100F016
:100C6000D5FC00BF00F0BAFB0028FBD101F066FB09
:100C7000FFF798FB1A4D1B4F4FF4FA784FF47A4662
:100C80004446691C30468847641EFAD120BF387834
:100C90000028FBD0002038701148124A0C3048213F
:100CA000521C012300F012FF08B1FFF7A5FD00F070
:100CB00095FB0028FBD1E3E7542E0000342E000002
:100CC0000D0A5457492073656E736F722065786101
:100CD0006D706C6520737461727465642E00000021
:100CE000402C0000000000202DE9F047C5881E1DA3
:100CF000B6FBF5F78946B6FBF5F1044605FB176C24
:100D0000407916686843DDF820A0F718001F874275
:100D100000D9C61A166001E02468491E0029FBD1DB
:100D2000A5EB0C078846B74216D818E004EB0C0078
:100D3000001D09EB0803BAF1000F3A4602D0014644
:100D4000184600E01946FFF7EFFA2468F61B4FF04B
:100D5000000CB844B54201D9374600E02F46002EBA
:100D6000E4D1BDE8F087000030B5024651B100F093
:100D7000C5FC0021074C08E034F821301568AB426F
:100D800002D11160002030BD491C8142F4D30520FE
:100D900030BD000000000000002100F009B8012172
:100DA00000F010B808B56A46FFF769FA009808BD68
:100DB00008B56A46FFF749FA08BD08B56A46FFF765
:100DC0002BFA08BD08B56A46FFF732FA009808BD4D
:100DD00008B56A46FFF760FA009808BD70B504468A
:100DE00000252846FFF713FD2168626808689042D5
:100DF0000ED9401E08600178238AE26801FB0325B2
:100E0000227A2168101AC0B20A79824200D208718F
:100E10000020FFF7FEFC284670BD70B505460C4665
:100E20000020FFF7F4FCE868298A201AB0FBF1F1F2
:100E30002A681068431C13600170BDE870400020F0
:100E4000FFF7E7BC10B530B1017A42680368891A30
:100E5000C9B21A6006E00E2010BD03681A68541C5F
:100E60001C601170491EC9B2F7D2006800210171DF
:100E7000084610BD2DE9F041064604780B4815469A
:100E80000F4640F82420083040F82430487B10B149
:100E9000084601F0CFF90DB1054A00E000222346D3
:100EA0003946301DBDE8F04100F09EBD0400002031
:100EB0006D23000038B5001D049C009400F01EFE58
:100EC00038BD0000F0B505460478154889B01646CF
:100ED00040F82420124A0869121DA2F1080742F8BE
:100EE0002400487F385520226846FFF71DFA0494F5
:100EF0002878385C48B10EB10A4A00E00022694601
:100F0000281D00F069FF09B0F0BD0EB1064A00E0EF
:100F10000022694605F10C0000F028FEF3E700000E
:100F200018000020E52900002D2800000FB408B5A6
:100F30000399002904D004AA00926A4600F00FF831
:100F400001B05DF814FB10B582680446002A05D094
:100F5000D4E90403216898470020A06010BD2DE962
:100F6000FC4791460C00804676D014F8011B39B13D
:100F700025290ED04046FFF72FFD20780028F4D118
:100F800098F80C00002867D04046BDE8FC47FFF702
:100F9000DABF0020012221782B291BD02D2902D075
:100FA000302908D102E040F0010001E040F00200E9
:100FB000641C002AEFD100252A290ED02178A1F146
:100FC00030020A2A11D205EB850201EB4205641CAE
:100FD000303DF1E740F00400EAE7D9F800100B1DBE
:100FE000C9F800300968641C0D44217800232E29BB
:100FF0000BD114F8011FA1F130020A2A05D203EB2C
:10100000830201EB4203303BF3E76C290DD06829E2
:101010000BD0692921D00BDC252918D0582931D0D3
:1010200063290ED0642915D117E014F8011FECE7ED
:10103000702969D0732932D075291BD0782909D13C
:1010400020E0D9F80000011DC9F8001001784046E1
:10105000FFF7C2FC641C90E76CE0D9F800100A1D91
:10106000C9F800200968CDE900500A224046FFF780
:10107000E1FCEFE7D9F800100A1DC9F80020096863
:101080000A2206E0D9F800100A1DC9F800200968F4
:101090001022CDE90050404601F046FDDAE7D9F8CC
:1010A000001000270A1DC9F800200E68C00705D1EE
:1010B00012E04046761C7F1CFFF78EFC3178002939
:1010C000F7D104E0202140466D1EFFF785FCBD42AC
:1010D000C0D9002DF6D1BDE74EB13046FFF748F933
:1010E000074604E0202140466D1EFFF775FCBD4217
:1010F00006D9002DF6D103E04046761CFFF76CFCC4
:1011000031780029F8D1A5E7D9F80000011DC9F808
:101110000010056830214046FFF75EFC782140460C
:10112000FFF75AFC08200021CDE9000103461022F8
:101130002946B0E7BDE8FC8770B541EA4201DDE928
:1011400004564FF0A04441EA830141EA052104EB33
:10115000800041EA0641C0F8001770BD70B541EA51
:101160004201DDE904564FF0A04441EA830141EA1F
:10117000052104EB800041EA0641C0F8001770BD6C
:1011800070B541EA4201DDE904564FF0A04441EA5E
:10119000830141EA052104EB800041EA0641C0F8E1
:1011A000001770BD1CB5002100910B460122019172
:1011B000FFF7D4FF1CBD1CB5002100910B46012296
:1011C0000191FFF7DDFF1CBD1CB500220B4600920C
:1011D00011460192FFF7C2FF1CBD1CB500220B4651
:1011E000009211460192FFF7CBFF1CBD1CB50021F8
:1011F00000910B46012201911146FFF7AFFF1CBD84
:101200001CB5002100910B46012201911146FFF708
:10121000B7FF1CBD4FF0A04201218140C2F8081564
:101220007047000030B5154A01460020D2F810443E
:1012300023460AE0DB681D79854205D1401C0A2857
:10124000F6DB4FF0FF3030BD1B68002BF2D1431CA2
:10125000F9D0CB681871D2F8103443B1DB68CC6890
:101260001B682360D2F81024D268116030BDC2F828
:101270001014C96800220A6030BD0000C0020020BE
:10128000F0B595B01C4615460E4608461A9F00F06C
:1012900005FB182109A8FFF760F80E97CDE909545E
:1012A0000023082203A9304600F00DFB05980690A4
:1012B000BDF81000ADF81C00BDF81200ADF81E001E
:1012C00000208DF821000399082501F00300012872
:1012D00002D0022816D02FE0C1F3C200C1F3831759
:1012E0008C0A8DF82000BA002B460FA9304600F07A
:1012F000EAFA09A8009006AB3A460FA9204600F08A
:1013000029FA19E0C1F3C2008C0D8DF82000082CD9
:1013100001D2274600E008272B463A460FA930465F
:1013200000F0D1FA3D44E41B09AB06AA39460FA8E8
:1013300000F078F9002CEAD1304600F0B5FA15B08B
:10134000F0BD7047012001F08FBA0000084810B5C9
:101350000178084A515C19B1001D00F0D7FD02E088
:101360000C3000F0D1FCBDE81040002001F07CBA48
:10137000300000201400002008B5034A00924023EA
:10138000024AFFF77DFF08BD61210000280100200F
:101390000A4A012902EBC00007D0022907D003291D
:1013A00007D0042907D0002070470220704704208E
:1013B000704700797047407970470000342E000074
:1013C00010B5FFF7BFFF04210348FFF72BFF0249C9
:1013D0000120C968487110BD242E00002DE9FF4787
:1013E000FFF712FB18B1002004B0BDE8F0877D4C78
:1013F0000020C4F81804BFF34F8F7B49A068009009
:101400000D684FF00008284004EB80000CE000BF9E
:10141000D4F8180470B961680098814201D8A160BD
:10142000E1E7284004EB80000C306946FFF79AFBA7
:101430000028EDD1002001AA009901EA050304EB80
:101440008303491CDB6842F82030401C00910228CD
:10145000F2D3019800F00301022902D001294DD0F6
:10146000A5E0810D50228946B2EB905F00D8502153
:101470000E4666F39F50019008315C4800F0C5F9B4
:10148000070077D000F00AFA4346082201A938463F
:1014900000F021FA009908F1080A2940681A800032
:1014A000001D864223D94F4D0C3530B1C2B204EB3A
:1014B0008101301A90460C3104E02946F2B2002531
:1014C00090462846C6B25346384600F004FA0AEB66
:1014D00008032DB1324629464FEA070000F0FBF918
:1014E000009909F1030001EB9000009039E004EB52
:1014F00081015346324638460C31EFE7C0F3831181
:10150000062900D3062161F389100190C0F38310EE
:10151000801C8100354800F078F9070047D000F0C2
:10152000BDF94346082201A9384600F0D4F908F174
:10153000080800260FE00098434600EA0501401C19
:1015400004EB81010090042238460C3100F0C3F90D
:1015500008F10408761C0198C0F38310B042EAD861
:1015600047B1D4F81054D4F8180478B1384600F0D4
:101570009BF931E01BE0E8684079012804D12A6832
:101580002846394612689047E8680568002DF2D170
:10159000384600F089F90020FFF739F9D4F818042B
:1015A00008B90098A0600020FFF733F914E0D4F8E0
:1015B000104405E02168204689688847E06804688F
:1015C000002CF7D10A480B49401AC008022101EB50
:1015D000004009A100F01AF8FFF716FA80F00100A8
:1015E00002E70000C00200204C0000205C2E00003A
:1015F000542E0000342E00004261636B656E6473EC
:1016000020666C75736865640000000000231A464C
:1016100000F0C6BD08B5012300926A4600F0C0FD87
:1016200008BD00002DE9F0470E4680461C46924654
:10163000082940D894F80C900020207319461046D1
:1016400000F006FD0025B54206D218F805201BA1C2
:101650002046FFF76BFC03E01AA12046FFF766FC6B
:101660006D1C082DEFD318A12046FFF75FFC002565
:10167000B54212D218F805707E2F08D8FEF750FE3A
:101680000068C05D10F03E0F01D03A4600E02E2207
:101690000EA12046FFF74AFC03E00DA12046FFF70C
:1016A00045FC6D1C082DE3D301222146504600F075
:1016B000B1FC84F80C90BDE8F087000020253032A2
:1016C00078000000202020007C000000256300003E
:1016D00020000000064910B500200870054800F001
:1016E000E1F8002803D1044800F0FDF8002010BD07
:1016F000C00200205C2E0000D42C000002480349E8
:10170000401AC008704700005C2E0000342E000014
:1017100013B56846FFF728FB08B100201CBD02483E
:10172000009950F831001CBD342E000070B50848F7
:101730000125D0F81044057007E0E0684571216884
:10174000204649688847E0680468002CF5D170BDE0
:10175000C00200202DE9FF4781460C9D00200C4669
:101760002F7B2873984616462946184600F070FCD1
:10177000072E42D2DFE806F004090F161F2A3600B2
:1017800049462846FFF7D2FB37E0494628462268FB
:10179000FFF7CCFB31E0D4E9002349462846FFF7A8
:1017A000C5FB2AE0A0680090D4E9002349462846FA
:1017B000FFF7BCFB21E0D4E90201CDE90001D4E947
:1017C000002349462846FFF7B1FB16E004F1080064
:1017D00007C88DE80700D4E9002349462846FFF7EB
:1017E000A5FB0AE004F108000FC88DE80F00D4E95A
:1017F000002349462846FFF799FB00222946404628
:1018000000F008FC2F73BDE8FF872DE9F041058A41
:1018100080462D1F4819C01CB0FBF5F0C6B24046EB
:10182000FFF7DCFA041E19D000202071012060713E
:10183000E58000272546761EC4F800800BE0404670
:10184000FFF7CCFA60B16179491C617128600546E7
:101850007F1CC0F80080B742F1D32046BDE8F0817C
:10186000204600F002F80020F8E72DE9F041457924
:1018700001466B1E002201E00968521C9A42FBD30C
:101880000F680146002605E038460C68FFF7C5FAE8
:101890002146761CAE42F7D3BDE8F0810121001D40
:1018A000FFF780BAFFF7CEBA10B504460121001D3C
:1018B000FFF78EFA10F0FF0F04D12046BDE810406C
:1018C000FFF7D3BF10BD1CB501920122009201AAFF
:1018D000FFF70AFA1CBD1CB501920022009201AA72
:1018E000FFF702FA1CBD82680021916082681161D5
:1018F000826851618268D16082685160806801604D
:1019000070474058002800D00120704708B50022D9
:1019100042504058009008BD4058002800D0012097
:10192000704708B5002242504058009008BDD0F8DA
:101930000403084000D0012070474058002800D020
:101940000120704708B5002242504058009008BD61
:10195000002802D00149800108477047712C00001F
:101960000121B1EB507F01D1012070470020704769
:101970000121B1EB507F01D1012070470020704759
:1019800070B50D4600F0B0FB04000FD00020FEF74C
:101990003EFF207920B10020FEF73BFF112070BDF3
:1019A0000120256020710020FEF733FF002070BD6C
:1019B00010B500F099FB002802D0002101600171F0
:1019C00010BD00000179006801EB810202EBC1014A
:1019D000044A02EB81010622C0F80025022081F8AA
:1019E0002D007047A40000202DE9FC410646007937
:1019F00017460D4600EB8001324A01EBC00102EBB5
:101A00008104984694F82D1011B10820BDE8FC819E
:101A10002D4951F820103068FFF7B2FF08B11120AE
:101A2000F4E7C4E900780027A76084F8307084F8F0
:101A30002F70687B84F832004FF00608CDE90087EC
:101A400003233A4639462868FFF776FBCDE900873D
:101A50000022032311466868FFF76EFBD5E90012E8
:101A60003068C0F80815C0F80C25A968C0F824151E
:101A70002068012208B3306840F30731287B002931
:101A80004FEA401004DB01F1E02181F8000405E099
:101A900001F00F0101F1E02181F8140D306840F3ED
:101AA0000730002809DB00F01F0102FA01F14009AC
:101AB000800000F1E020C0F8001184F82D20002003
:101AC000A4E70000A4000020782C0000F0B585B049
:101AD00015460E4607461C46142207496846FEF77F
:101AE00023FC8DF801600022694638460395019475
:101AF00000F020F805B0F0BD7C2C00002DE9F0418D
:101B000086B00E4680461C461546142168460C9F3A
:101B1000FEF723FC8DF80160039501940FB120229C
:101B200000E000226946404600F004F806B0BDE837
:101B3000F081000030B40379006803EB830404EB08
:101B4000C303054C04EB830413460A4601462046B2
:101B500030BC00F0F5BC0000A400002001490248A0
:101B600000F0AABED8000020002000402DE9F0417E
:101B70000546007916460F4600EB40012D4A01EB61
:101B8000C00102EB810494F82A1011B10820BDE8CD
:101B9000F081294951F820102868FFF7F1FE08B1BB
:101BA0001120F4E739462846FEF748FE666038699A
:101BB000206030004FF001062FD03F7F4FF48E7130
:101BC0002868FFF7AEFE4FF4A2712868FFF7A9FE60
:101BD00028681A49C0F8041328684FEA471140F3EF
:101BE0000730002804DB00F1E02080F8001405E055
:101BF00000F00F0000F1E02080F8141D286840F389
:101C00000730002809DB00F01F0106FA01F1400946
:101C1000800000F1E020C0F8001128680421C0F81D
:101C200000150020A061E06184F8290044F8140F39
:101C3000A675ACE7D8000020902C000080000200C0
:101C40002DE9F05F054600790B4600EB400101EB02
:101C5000C000244901EB8004284600F045F810B18B
:101C60001120BDE8F09F62614FF00009C4F8209098
:101C7000A36084F828904FF48E784E464146286839
:101C8000FFF74FFE28684FF0010AC0F808A0214670
:101C9000286800F0A1FD606808BBD5F800B067694E
:101CA0000FE000BF94F8280008B10F2615E0414668
:101CB0005846FFF731FE0028F4D02146584600F080
:101CC0008BFD206AB842F2D3574641462868FFF799
:101CD00023FE0028F9D02868C760C4F81490304665
:101CE000BFE70000D8000020007900EB400101EBC5
:101CF000C000044901EB80004069002800D00120A9
:101D000070470000D80000202DE9F0470446007914
:101D10004FF0000900EB400101EBC000284901EB46
:101D200080072068C0F800957868B0B12068254920
:101D3000C0F80813206840F3073000280DDB00F0DE
:101D40001F02012191404009800000F1E020C0F80D
:101D50008011BFF34F8FBFF36F8F2068D0F80C2531
:101D6000D0F81485D0F80865D0F810554FF0FF3141
:101D7000C0F81415C0F80C152068C0F80815C0F894
:101D80001015501C02D01046FFF70CFAB8F1FF3FB7
:101D900002D04046FFF706FA681C02D02846FFF73B
:101DA00001FA701C02D03046FFF7FCF92068FFF7FB
:101DB000FFFD87F82A90C7F80490BDE8F08700007F
:101DC000D8000020840202000149024800F022BE2F
:101DD00004010020002000402DE9F0410546164690
:101DE00000790F46154A00EBC00102EB810494F81C
:101DF000201011B10820BDE8F081114951F82010E0
:101E00002868FFF7BDFD08B11120F4E739462846E0
:101E1000FEF758FD6660386920601EB1397F28469C
:101E2000FEF75CFE28680821C0F800150020A061BC
:101E3000E0616061012184F82010DCE704010020EA
:101E4000942C00002DE9F04704460E4600792749FE
:101E500000EBC00001EB800517463046FFF788FD18
:101E600030B1204600F044F820B11120BDE8F087E1
:101E70001020FBE76F61AE604FF490774FF00008E1
:101E800039462068FFF75EFD4FF4AC763146206896
:101E9000FFF758FD2068AA686969C0F84425C0F8B2
:101EA000481520684FF00109C0F808906868D0B95B
:101EB000BA4651462068FFF740FD07463146206884
:101EC000FFF73BFD0743F4D010B14FF00F0808E0D7
:101ED0002068C0F80C9031462068FFF72EFD0028DE
:101EE000F9D0002068614046C0E7000004010020EE
:101EF0000079054900EBC00001EB80004069002833
:101F000000D0012070470000040100202DE9F047B7
:101F1000064600793D4900EBC00001EB80053468BE
:101F200068680127A8B13A49C4F80813306840F33B
:101F3000073000280DDB00F01F0107FA01F140090E
:101F4000800000F1E020C0F88011BFF34F8FBFF395
:101F50006F8FD4F8000220F02000C4F80002A869B6
:101F60004FF4A27820B141462046FFF7EBFC6760B2
:101F70004FF4AC7949462046FFF7E4FCE76047465A
:101F800049462046FFF7D9FC0028F9D0A86928B1B6
:101F900039462046FFF7D1FC0028F1D04FF0000A67
:101FA000C4F800A53068D0F80C25D0F81495D0F806
:101FB0000885D0F810754FF0FF31C0F80C15C0F847
:101FC00014153068C0F80815C0F81015501C02D060
:101FD0001046FFF7F0F8B9F1FF3F02D04846FFF78F
:101FE000EAF8781C02D03846FFF7E5F8B8F1FF3F71
:101FF00002D04046FFF7DFF82046FFF7D9FC85F80E
:1020000020A0C5F804A0BDE8F0870000040100206E
:102010001003420010B50C46017A052908D0407A19
:1020200038B1084808A102682046FEF77FFF00E0AB
:102030001AB106A12046FEF779FF2046BDE8104000
:10204000FEF781BF7C000020257300000D0A000010
:1020500038B5C3880D46044633B114A0009015A2CC
:1020600016A12846FEF762FF217A05291CD0607A66
:1020700048B1A088FFF78CF9164951F8202016A125
:102080002846FEF753FFA0880021FFF741FB0346D7
:102090001049207A143951F8202001B02846BDE8B3
:1020A00030400EA1FEF742BF38BD00001B5B306D13
:1020B000000000001B5B313B33316D0025734C6F1A
:1020C00067732064726F7070656420282564292509
:1020D000730D0A007C000020257300003C25733E30
:1020E0002025733A200000000349884201D10348AB
:1020F00070470020704700000020004020000020B2
:1021000070B5054688690C4600284FF4847128464E
:102110000AD0FFF706FCD5F81805626AE168885412
:10212000606A401C606270BDFFF7FBFBD5F81805C4
:1021300070BD1FB501238DF80030CDE90121D0E934
:102140000012684690471FBD1FB501238DF800306F
:10215000CDE90121D0E90012684690471FBD00007B
:1021600070B50D4C0020D2B22070201D0B4D0378AD
:10217000EB5C1BB1001DFFF765FE02E00C30FFF7C2
:102180005FFD08B1FEF738FB6078002802D02178A7
:102190000029FAD070BD00002C000020140000209F
:1021A0002DE9F84F074621489146884605681E46A6
:1021B000012269461846FEF7C9FBDFF874A060B338
:1021C000009800210446801C0AE000BF00EA0502D6
:1021D00059F821C00AEB8202401C491CC2F80CC00D
:1021E000B142F3D34FEA1749FEF71AFC611C2940AC
:1021F0000AEB810149EA00422C40CA600AEB8401E3
:10220000C86867F3C50066F3891068F39F2020F063
:102210000300401C20F00400C8609AF8000001E0B0
:10222000FFF7DCF80028FBD1BDE8F88F4C00002058
:10223000C00200202DE9F041044640F20C60216804
:10224000890001F1A041C1F800076168890001F12E
:10225000A041C1F800072068FEF7DCFF6068FEF7C8
:10226000D9FF216840F20D60890001F1A041C1F859
:1022700000076168890001F1A041C1F8000704204E
:10228000FFF766FB00274FF0A04601252179D6F81D
:102290001005C84010F0010F02D0002F1DD010E033
:1022A000217805FA01F0C6F80C050420FFF750FB71
:1022B0002068FEF7AFFF0420FFF74AFB7F1C092FC1
:1022C000E4DB20798540C6F80C550420FFF740FB7D
:1022D0006068BDE8F041FEF79DBFBDE8F0810000F9
:1022E00010B50178002910D10079084C01280AD1D5
:1022F000074808496278401AC008032101EB0040F2
:1023000005A1FFF787F90120207010BD0000002013
:10231000542E0000342E000054656D706572617497
:102320007572653A2025642043656C736975732066
:10233000646567726565732E000000001FB5094B68
:102340000FCB8DE80F0007480023074A6946103875
:10235000FEF790FD08B1FEF74FFA02480C38FFF780
:1023600031FB1FBD582C0000E12200001FB50A46BA
:1023700001788DF8001001798DF8041041798DF8FD
:102380000510017A8DF80610017B8DF807100169A0
:10239000029140690390044850F82210083850F820
:1023A0002220684690471FBD0C0000202DE9F04F09
:1023B0000C464FF4927887B005464146FFF7A1FAE4
:1023C0004FF0020B01274FF4827640B14146284678
:1023D000FFF79CFA31462846FFF793FAE8B14FF42D
:1023E00082712846FFF78DFA010004F10C00DFF836
:1023F0004C91EA4645F307364FF00008069048D066
:102400004FF482712846FFF781FA94F820004006C5
:1024100024D494F82E00C8B120E0A068C5F80803C1
:10242000C4F808B0A068C5F804034FF4B07128469A
:10243000FFF767FA18B1D5F80002800501D42F62C2
:102440006F6184F82E7007B0BDE8F08F21462846F2
:1024500000F0C4FB80F0010084F82E0094F8200006
:1024600040073ED414220AF104000699FDF75CFFF0
:102470004FF4B0712846FFF749FA4FF4AE71284681
:10248000FFF744FA94F8300008B394F82E00F0B93E
:1024900027E04FF4A4712846FFF738FA207B68B193
:1024A0004FF40070C5F80002801CA060C5F80893C6
:1024B000A068C5F80403AF602F62C4E714220AF1D4
:1024C00004000699FDF730FF94F8300048B9002069
:1024D000C5F80002C4F80880C5F808933046FEF736
:1024E0002DF9D5F8C404C5F8C404810702D58DF8C8
:1024F000007011E0410702D58DF800B00CE0C00774
:1025000001D0032003E094F82E0018B104208DF8C8
:10251000000001E08DF8008094F8300008B984F8DC
:102520002F8094F82000400703D594F82E0000284F
:1025300089D0D4E900216846904784E702029C01D3
:102540002DE9F05F4FF00009054680F82E901F46F8
:1025500016460C464FF0080BCA46D068FFF700FA43
:1025600000287DD09B48C4F8080395F82F0028B1B7
:10257000A868C4F804031120BDE8F09F780703D4CD
:10258000F80601D4012000E0002085F82F00142275
:10259000314605F10C00FDF7C7FEC7F3001085F8C2
:1025A00030002F627078C4F888054FF4827120469D
:1025B000FFF7ACF94FF492712046FFF7A7F94FF4FB
:1025C000B0712046FFF7A2F94FF4A4712046FFF73F
:1025D0009DF9F8074FF0010801D0404600E0504651
:1025E000C4F85005B80701D5404600E05046C4F88D
:1025F00040053078A8B3012875D0022850D00328B0
:102600001DD04FF00709380704D43078032801D0D3
:1026100044F80B80286800287FD0780701D5C5F8DA
:1026200008A0780603D4A86840F00200A860A86853
:1026300040F40070A860A868C4F80403C7E03069DB
:10264000FFF78EF960B14FF48070C4F80002716832
:10265000F068C4F84405C4F848154FF4A87101E0C7
:1026600031E032E02046FFF751F9C4F82080C4F889
:10267000088000BF4FF4A8712046FFF742F90028F8
:10268000F8D04FF4A8712046FFF740F93169B068DF
:10269000C4F84415C4F848054FF48020A860B2E798
:1026A000F1687068C4F84415C4F848053069FFF74C
:1026B00057F940B13169B068C4F83415C4F8380529
:1026C0004FF4845012E0102056E7F1687068C4F8A7
:1026D0004415C4F84805B80606D54FF48070C4F810
:1026E0000002800205E009E04FF40070C4F8000227
:1026F0000220A860C4F8208085E70EE0F1687068C9
:10270000C4F83415C4F838054FF48050C4F80002FA
:102710000220A8604FF0000BECE700264FF4A47BEA
:1027200059462046FFF7EDF800B101264FF48271BB
:102730002046FFF7E6F828B14FF482712046FFF7F4
:10274000E5F801264FF492712046FFF7DAF8E8B178
:102750004FF492712046FFF7D9F84FF4B07120463C
:10276000FFF7CFF8D4F8001242420A40920504D491
:10277000C4F82080C4F81480002638B1C80505D5F7
:1027800059462046FFF7C2F80026C9E7002EC7D0F9
:10279000D4F8C404C4F8C40485F82FA070B1032190
:1027A000C20701D04FF40241820701D548F201214E
:1027B000400701D548F20221894608E0780606D490
:1027C0002946204600F00AFA08B94FF003094846A6
:1027D000D2E6000002029C0170B50C4605464FF49B
:1027E0008E71FFF79EF8216AA068415C206A401C48
:1027F0002062C5F81C1570BD1FB500228DF80020A1
:102800000291816801914261D0E9001268469047C7
:102810001FBD1FB500228DF8002002918168019133
:102820004261D0E90012684690471FBD1FB50A46B5
:1028300001788DF8001041680191017A8DF8081037
:10284000C0680390044850F82210001F50F822205E
:10285000684690471FBD00001C0000200149012070
:10286000087070472C00002010B588B00446202264
:102870000E496846FDF758FD06200090C01F0190E4
:10288000029003904FF0EB7006900CB1084A00E004
:10289000002269460748FEF715FB08B1FDF7ACFFBB
:1028A0000448001F447008B010BD0000B42C0000A4
:1028B0005D280000300000202DE9FF470C4605464A
:1028C0004FF40071FFF733F801274FF40178002629
:1028D00018B34FF4927949462846FFF71DF8E0B146
:1028E00049462846FFF71DF8C5F8088394F82900E3
:1028F00000B96F6002208DF80000D5F88004C5F89B
:1029000080040390A0690290E0680190A661E661EE
:10291000D4E900126846904728E004212846FFF7D2
:1029200006F818B34FF484712846FEF7F5FFE8B1B6
:1029300021462846FFF7E4FB616AA069884215D169
:10294000E06938B1E268616AA0612069E6616662A7
:10295000E06008E094F8290000B96F60C5F80883CA
:10296000A661E268616A2046FFF7E3FB4FF48E78C8
:1029700041462846FEF7D0FF80B16069216A814256
:1029800002D294F8280028B341462846FEF7C9FF32
:10299000606918B161692046FFF72EFF4FF4A278F5
:1029A00041462846FEF7B8FF002818D04146284681
:1029B000FEF7B7FF94F8290000B12F60A069002846
:1029C0000DD0A661E268616A04B02046BDE8F04718
:1029D000FFF7AFBB21462846FFF7FEFEDEE7BDE866
:1029E000FF8700001FB50A4601788DF80010416886
:1029F0000191017A8DF80810C0680390044850F8DE
:102A00002210001F50F82220684690471FBD00008A
:102A10001C0000202DE9FF410C464FF4927705463B
:102A20003946FEF78AFF0026B8B139462846FEF738
:102A300089FF02208DF80000D5F88004C5F88004D5
:102A40000390D5F83C050290E0680190A661E6612C
:102A5000D4E900126846904723E04FF4887739465E
:102A60002846FEF76AFFE0B139462846FEF76AFFBE
:102A7000D5F83C15A069884213D1E06960B1E268DD
:102A8000D5F8000220F02000C5F80002E069A0613E
:102A90002069E661E06001E0A661E2682046FFF798
:102AA00053FB4FF4A27739462846FEF746FF68B13C
:102AB00039462846FEF746FFA06938B1A661E661AF
:102AC000D5F83C152046E268FFF73EFB4FF49076C0
:102AD00031462846FEF731FF60B131462846FEF701
:102AE00031FF0120E860606920B1D5F84C1520461F
:102AF000FFF78FFE4FF4AC7631462846FEF71DFFF8
:102B000000280ED031462846FEF71CFF60690028D9
:102B100007D0D5F84C1504B02046BDE8F041FFF7CA
:102B200078BEBDE8FF8100002DE9F05F8346DDE956
:102B30000A4A994690460D460846012703E000BF21
:102B4000B0FBF8F07F1C4045FAD2B94500D94F469A
:102B50005FEACA7012D18CB15FEA8A7002D5B9F10E
:102B6000000F01D0202607E0302605E03146584608
:102B7000641EFDF731FF0CB1A742F7D35FF00106E9
:102B8000B9F1010F02D9A9F1010903E0B5FBF6F093
:102B9000404502D306FB08F6F2E7DFF83C9000BFA1
:102BA000B5FBF6F000FB165519F800105846FDF776
:102BB00013FFB6FBF8F6002EF2D15FEACA7009D017
:102BC000002C07D0A74205D220215846641EFDF7ED
:102BD00003FFF5E7BDE8F09F982C000010B50B7BD4
:102BE0000122E3B1012B1DD0022B0FD0032B24D1E6
:102BF0008B685B0304D5D0F84C350C69A34216D121
:102C00008B685B0319D4D0F84C3506E0D0F84C350E
:102C10000C69A3420BD1D0F83C35496905E0D0F8E6
:102C20004C3501E0D0F83C3509698B4205D00022D3
:102C3000C0F800250621C0F80015104610BD0000A0
:102C40000338FDD87047000000000000003000404D
:102C500000000000010000001B0000001A0000003E
:102C600000009801020000000000000000000000C9
:102C70000338FDD870470000F90300000100000090
:102C80000000000000000000000000000000000044
:102C90005D1B0000C91D000030313233343536373A
:102CA0003839414243444546791300004D13000032
:102CB00043130000FFFFFFFFFFFFFFFFFFFFFFFFCA
:102CC000FFFFFFFF00000000000000000000D60131
:102CD00006010000280200207F000000A80200205A
:102CE000004040404040404040404141414141401F
:102CF00040404040404040404040404040404040D4
:102D00004005020202020202020202020202020262
:102D10000220202020202020202020020202020267
:102D200002029090909090901010101010101010BF
:102D300010101010101010101010101002020202CB
:102D4000020288888888888808080808080808080F
:102D5000080808080808080808080808020202020B
:102D600040000000E12C00007761726E696E670020
:102D700064656275670000001B5B313B33306D009A
:102D80001B5B306D000000001B5B313B33316D007D
:102D90001B5B313B33326D001B5B313B33336D00CA
:102DA0001B5B313B33346D001B5B313B33356D00B6
:102DB0001B5B313B33366D001B5B313B33376D00A2
:102DC000696E666F000000006572726F720000002D
:102DD000505253005457494D000000005541525481
:102DE00000000000554152544500000075617274A6
:102DF0005F6C6F675F6261636B656E64000000000B
:102E000061707000702E000000000020A40000001F
:102E100056070000142F0000A40000203C260000EC
:102E200066070000A82C000000000000EC2D000048
:102E300044000020D02D000000000000D42D000030
:102E400000000000DC2D000000000000E42D000068
:102E500000000000002E00000000030358000020C6
:102E600050000020580000206801002018000000D9
:102E70000000000000000000000000000000000052
:102E80000000000000000000000000000000000042
:102E90000000000000000000000000000000000032
:102EA0000000000000200040000000000020004062
:102EB0000000000000000000FF000000FF00000014
:102EC0000000000000000000000000000000000002
:102ED000000000000000000000000000C82D0000FD
:102EE000682D0000C02D0000702D0000802D000016
:102EF000782D0000882D0000902D0000982D0000F6
:102F0000A02D0000A82D0000B02D0000B82D00005D
:042F10000090D0035A
:0400000500000201F4
:00000001FF
